{
  "contractName": "MerkleProofVerify",
  "abi": [
    {
      "inputs": [
        {
          "internalType": "bytes32[]",
          "name": "proof",
          "type": "bytes32[]"
        },
        {
          "internalType": "bytes32",
          "name": "root",
          "type": "bytes32"
        }
      ],
      "name": "verify",
      "outputs": [
        {
          "internalType": "bool",
          "name": "",
          "type": "bool"
        }
      ],
      "stateMutability": "view",
      "type": "function"
    }
  ],
  "bytecode": "0x608060405234801561001057600080fd5b50610568806100206000396000f3fe608060405234801561001057600080fd5b506004361061002b5760003560e01c8063972a2a6214610030575b600080fd5b61004a6004803603810190610045919061030d565b610060565b6040516100579190610384565b60405180910390f35b600080336040516020016100749190610419565b6040516020818303038152906040528051906020012090506100978484836100a0565b91505092915050565b6000826100ad85846100b7565b1490509392505050565b60008082905060005b845181101561015f5760008582815181106100de576100dd610434565b5b6020026020010151905080831161011f578281604051602001610102929190610484565b60405160208183030381529060405280519060200120925061014b565b8083604051602001610132929190610484565b6040516020818303038152906040528051906020012092505b508080610157906104e9565b9150506100c0565b508091505092915050565b6000604051905090565b600080fd5b600080fd5b600080fd5b6000601f19601f8301169050919050565b7f4e487b7100000000000000000000000000000000000000000000000000000000600052604160045260246000fd5b6101cc82610183565b810181811067ffffffffffffffff821117156101eb576101ea610194565b5b80604052505050565b60006101fe61016a565b905061020a82826101c3565b919050565b600067ffffffffffffffff82111561022a57610229610194565b5b602082029050602081019050919050565b600080fd5b6000819050919050565b61025381610240565b811461025e57600080fd5b50565b6000813590506102708161024a565b92915050565b60006102896102848461020f565b6101f4565b905080838252602082019050602084028301858111156102ac576102ab61023b565b5b835b818110156102d557806102c18882610261565b8452602084019350506020810190506102ae565b5050509392505050565b600082601f8301126102f4576102f361017e565b5b8135610304848260208601610276565b91505092915050565b6000806040838503121561032457610323610174565b5b600083013567ffffffffffffffff81111561034257610341610179565b5b61034e858286016102df565b925050602061035f85828601610261565b9150509250929050565b60008115159050919050565b61037e81610369565b82525050565b60006020820190506103996000830184610375565b92915050565b600073ffffffffffffffffffffffffffffffffffffffff82169050919050565b60006103ca8261039f565b9050919050565b60008160601b9050919050565b60006103e9826103d1565b9050919050565b60006103fb826103de565b9050919050565b61041361040e826103bf565b6103f0565b82525050565b60006104258284610402565b60148201915081905092915050565b7f4e487b7100000000000000000000000000000000000000000000000000000000600052603260045260246000fd5b6000819050919050565b61047e61047982610240565b610463565b82525050565b6000610490828561046d565b6020820191506104a0828461046d565b6020820191508190509392505050565b7f4e487b7100000000000000000000000000000000000000000000000000000000600052601160045260246000fd5b6000819050919050565b60006104f4826104df565b91507fffffffffffffffffffffffffffffffffffffffffffffffffffffffffffffffff821415610527576105266104b0565b5b60018201905091905056fea2646970667358221220529386e2ed7f2e072650184b64b1127796c94049a9d680a08c8264c6fd0b190264736f6c634300080a0033",
  "immutableReferences": {},
  "source": "// contracts/MerkleProofVerify.sol\n// SPDX-License-Identifier: MIT\n// based upon https://github.com/OpenZeppelin/openzeppelin-contracts/blob/v3.0.1/contracts/mocks/MerkleProofWrapper.sol\n\npragma solidity ^0.8.0;\n\nimport \"@openzeppelin/contracts/utils/cryptography/MerkleProof.sol\";\n\ncontract MerkleProofVerify {\n    function verify(bytes32[] memory proof, bytes32 root)\n        public\n        view\n        returns (bool)\n    {\n        bytes32 leaf = keccak256(abi.encodePacked(msg.sender));\n\n        return MerkleProof.verify(proof, root, leaf);\n    }\n}\n",
  "sourcePath": "/Users/martincik/Projects/amenti/nft/nomaclub/backend/mint_contract/contracts/MerkleProofVerify.sol",
  "compiler": {
    "name": "solc",
    "version": "0.8.10+commit.fc410830.Emscripten.clang"
  },
  "schemaVersion": "3.4.4",
  "updatedAt": "2022-01-14T09:10:25.148Z",
  "devdoc": {
    "kind": "dev",
    "methods": {},
    "version": 1
  },
  "userdoc": {
    "kind": "user",
    "methods": {},
    "version": 1
  }
}