{
  "contractName": "NoMaClubTest",
  "abi": [
    {
      "inputs": [
        {
          "internalType": "string",
          "name": "_symbol",
          "type": "string"
        },
        {
          "internalType": "string",
          "name": "_name",
          "type": "string"
        },
        {
          "internalType": "string",
          "name": "baseURI",
          "type": "string"
        },
        {
          "internalType": "bytes32",
          "name": "_merkleRoot",
          "type": "bytes32"
        },
        {
          "internalType": "address",
          "name": "_creatorsAdreess",
          "type": "address"
        }
      ],
      "stateMutability": "nonpayable",
      "type": "constructor"
    },
    {
      "anonymous": false,
      "inputs": [
        {
          "indexed": true,
          "internalType": "address",
          "name": "owner",
          "type": "address"
        },
        {
          "indexed": true,
          "internalType": "address",
          "name": "approved",
          "type": "address"
        },
        {
          "indexed": true,
          "internalType": "uint256",
          "name": "tokenId",
          "type": "uint256"
        }
      ],
      "name": "Approval",
      "type": "event"
    },
    {
      "anonymous": false,
      "inputs": [
        {
          "indexed": true,
          "internalType": "address",
          "name": "owner",
          "type": "address"
        },
        {
          "indexed": true,
          "internalType": "address",
          "name": "operator",
          "type": "address"
        },
        {
          "indexed": false,
          "internalType": "bool",
          "name": "approved",
          "type": "bool"
        }
      ],
      "name": "ApprovalForAll",
      "type": "event"
    },
    {
      "anonymous": false,
      "inputs": [
        {
          "indexed": true,
          "internalType": "uint256",
          "name": "id",
          "type": "uint256"
        },
        {
          "indexed": false,
          "internalType": "address",
          "name": "_to",
          "type": "address"
        }
      ],
      "name": "MummyMinted",
      "type": "event"
    },
    {
      "anonymous": false,
      "inputs": [
        {
          "indexed": true,
          "internalType": "address",
          "name": "previousOwner",
          "type": "address"
        },
        {
          "indexed": true,
          "internalType": "address",
          "name": "newOwner",
          "type": "address"
        }
      ],
      "name": "OwnershipTransferred",
      "type": "event"
    },
    {
      "anonymous": false,
      "inputs": [
        {
          "indexed": false,
          "internalType": "bool",
          "name": "pause",
          "type": "bool"
        }
      ],
      "name": "PublicSaleEvent",
      "type": "event"
    },
    {
      "anonymous": false,
      "inputs": [
        {
          "indexed": true,
          "internalType": "address",
          "name": "from",
          "type": "address"
        },
        {
          "indexed": true,
          "internalType": "address",
          "name": "to",
          "type": "address"
        },
        {
          "indexed": true,
          "internalType": "uint256",
          "name": "tokenId",
          "type": "uint256"
        }
      ],
      "name": "Transfer",
      "type": "event"
    },
    {
      "anonymous": false,
      "inputs": [
        {
          "indexed": false,
          "internalType": "bool",
          "name": "pause",
          "type": "bool"
        }
      ],
      "name": "WhitelistSaleEvent",
      "type": "event"
    },
    {
      "inputs": [],
      "name": "MAX_MUMMIES",
      "outputs": [
        {
          "internalType": "uint256",
          "name": "",
          "type": "uint256"
        }
      ],
      "stateMutability": "view",
      "type": "function"
    },
    {
      "inputs": [],
      "name": "PRICE",
      "outputs": [
        {
          "internalType": "uint256",
          "name": "",
          "type": "uint256"
        }
      ],
      "stateMutability": "view",
      "type": "function"
    },
    {
      "inputs": [
        {
          "internalType": "address",
          "name": "to",
          "type": "address"
        },
        {
          "internalType": "uint256",
          "name": "tokenId",
          "type": "uint256"
        }
      ],
      "name": "approve",
      "outputs": [],
      "stateMutability": "nonpayable",
      "type": "function"
    },
    {
      "inputs": [
        {
          "internalType": "address",
          "name": "owner",
          "type": "address"
        }
      ],
      "name": "balanceOf",
      "outputs": [
        {
          "internalType": "uint256",
          "name": "",
          "type": "uint256"
        }
      ],
      "stateMutability": "view",
      "type": "function"
    },
    {
      "inputs": [],
      "name": "creatorAddress",
      "outputs": [
        {
          "internalType": "address",
          "name": "",
          "type": "address"
        }
      ],
      "stateMutability": "view",
      "type": "function"
    },
    {
      "inputs": [
        {
          "internalType": "uint256",
          "name": "tokenId",
          "type": "uint256"
        }
      ],
      "name": "getApproved",
      "outputs": [
        {
          "internalType": "address",
          "name": "",
          "type": "address"
        }
      ],
      "stateMutability": "view",
      "type": "function"
    },
    {
      "inputs": [
        {
          "internalType": "address",
          "name": "_to",
          "type": "address"
        }
      ],
      "name": "giveawayMint",
      "outputs": [],
      "stateMutability": "nonpayable",
      "type": "function"
    },
    {
      "inputs": [
        {
          "internalType": "address",
          "name": "owner",
          "type": "address"
        },
        {
          "internalType": "address",
          "name": "operator",
          "type": "address"
        }
      ],
      "name": "isApprovedForAll",
      "outputs": [
        {
          "internalType": "bool",
          "name": "",
          "type": "bool"
        }
      ],
      "stateMutability": "view",
      "type": "function"
    },
    {
      "inputs": [],
      "name": "merkleRoot",
      "outputs": [
        {
          "internalType": "bytes32",
          "name": "",
          "type": "bytes32"
        }
      ],
      "stateMutability": "view",
      "type": "function"
    },
    {
      "inputs": [],
      "name": "mummiesMinted",
      "outputs": [
        {
          "internalType": "uint256",
          "name": "",
          "type": "uint256"
        }
      ],
      "stateMutability": "view",
      "type": "function"
    },
    {
      "inputs": [],
      "name": "name",
      "outputs": [
        {
          "internalType": "string",
          "name": "",
          "type": "string"
        }
      ],
      "stateMutability": "view",
      "type": "function"
    },
    {
      "inputs": [],
      "name": "owner",
      "outputs": [
        {
          "internalType": "address",
          "name": "",
          "type": "address"
        }
      ],
      "stateMutability": "view",
      "type": "function"
    },
    {
      "inputs": [
        {
          "internalType": "uint256",
          "name": "tokenId",
          "type": "uint256"
        }
      ],
      "name": "ownerOf",
      "outputs": [
        {
          "internalType": "address",
          "name": "",
          "type": "address"
        }
      ],
      "stateMutability": "view",
      "type": "function"
    },
    {
      "inputs": [],
      "name": "publicMint",
      "outputs": [],
      "stateMutability": "payable",
      "type": "function"
    },
    {
      "inputs": [
        {
          "internalType": "uint256",
          "name": "tokenId",
          "type": "uint256"
        }
      ],
      "name": "rawOwnerOf",
      "outputs": [
        {
          "internalType": "address",
          "name": "",
          "type": "address"
        }
      ],
      "stateMutability": "view",
      "type": "function"
    },
    {
      "inputs": [],
      "name": "renounceOwnership",
      "outputs": [],
      "stateMutability": "nonpayable",
      "type": "function"
    },
    {
      "inputs": [
        {
          "internalType": "address",
          "name": "from",
          "type": "address"
        },
        {
          "internalType": "address",
          "name": "to",
          "type": "address"
        },
        {
          "internalType": "uint256",
          "name": "tokenId",
          "type": "uint256"
        }
      ],
      "name": "safeTransferFrom",
      "outputs": [],
      "stateMutability": "nonpayable",
      "type": "function"
    },
    {
      "inputs": [
        {
          "internalType": "address",
          "name": "from",
          "type": "address"
        },
        {
          "internalType": "address",
          "name": "to",
          "type": "address"
        },
        {
          "internalType": "uint256",
          "name": "tokenId",
          "type": "uint256"
        },
        {
          "internalType": "bytes",
          "name": "_data",
          "type": "bytes"
        }
      ],
      "name": "safeTransferFrom",
      "outputs": [],
      "stateMutability": "nonpayable",
      "type": "function"
    },
    {
      "inputs": [
        {
          "internalType": "address",
          "name": "",
          "type": "address"
        }
      ],
      "name": "saleClaimed",
      "outputs": [
        {
          "internalType": "bool",
          "name": "",
          "type": "bool"
        }
      ],
      "stateMutability": "view",
      "type": "function"
    },
    {
      "inputs": [
        {
          "internalType": "address",
          "name": "operator",
          "type": "address"
        },
        {
          "internalType": "bool",
          "name": "approved",
          "type": "bool"
        }
      ],
      "name": "setApprovalForAll",
      "outputs": [],
      "stateMutability": "nonpayable",
      "type": "function"
    },
    {
      "inputs": [
        {
          "internalType": "string",
          "name": "baseURI",
          "type": "string"
        }
      ],
      "name": "setBaseURI",
      "outputs": [],
      "stateMutability": "nonpayable",
      "type": "function"
    },
    {
      "inputs": [
        {
          "internalType": "bool",
          "name": "_b",
          "type": "bool"
        }
      ],
      "name": "setPublicSale",
      "outputs": [],
      "stateMutability": "nonpayable",
      "type": "function"
    },
    {
      "inputs": [
        {
          "internalType": "bool",
          "name": "_b",
          "type": "bool"
        }
      ],
      "name": "setWhitelistSale",
      "outputs": [],
      "stateMutability": "nonpayable",
      "type": "function"
    },
    {
      "inputs": [
        {
          "internalType": "bytes4",
          "name": "interfaceId",
          "type": "bytes4"
        }
      ],
      "name": "supportsInterface",
      "outputs": [
        {
          "internalType": "bool",
          "name": "",
          "type": "bool"
        }
      ],
      "stateMutability": "view",
      "type": "function"
    },
    {
      "inputs": [],
      "name": "symbol",
      "outputs": [
        {
          "internalType": "string",
          "name": "",
          "type": "string"
        }
      ],
      "stateMutability": "view",
      "type": "function"
    },
    {
      "inputs": [
        {
          "internalType": "uint256",
          "name": "index",
          "type": "uint256"
        }
      ],
      "name": "tokenByIndex",
      "outputs": [
        {
          "internalType": "uint256",
          "name": "",
          "type": "uint256"
        }
      ],
      "stateMutability": "view",
      "type": "function"
    },
    {
      "inputs": [
        {
          "internalType": "address",
          "name": "owner",
          "type": "address"
        },
        {
          "internalType": "uint256",
          "name": "index",
          "type": "uint256"
        }
      ],
      "name": "tokenOfOwnerByIndex",
      "outputs": [
        {
          "internalType": "uint256",
          "name": "",
          "type": "uint256"
        }
      ],
      "stateMutability": "view",
      "type": "function"
    },
    {
      "inputs": [
        {
          "internalType": "uint256",
          "name": "tokenId",
          "type": "uint256"
        }
      ],
      "name": "tokenURI",
      "outputs": [
        {
          "internalType": "string",
          "name": "",
          "type": "string"
        }
      ],
      "stateMutability": "view",
      "type": "function"
    },
    {
      "inputs": [],
      "name": "totalSupply",
      "outputs": [
        {
          "internalType": "uint256",
          "name": "",
          "type": "uint256"
        }
      ],
      "stateMutability": "view",
      "type": "function"
    },
    {
      "inputs": [
        {
          "internalType": "address",
          "name": "from",
          "type": "address"
        },
        {
          "internalType": "address",
          "name": "to",
          "type": "address"
        },
        {
          "internalType": "uint256",
          "name": "tokenId",
          "type": "uint256"
        }
      ],
      "name": "transferFrom",
      "outputs": [],
      "stateMutability": "nonpayable",
      "type": "function"
    },
    {
      "inputs": [
        {
          "internalType": "address",
          "name": "newOwner",
          "type": "address"
        }
      ],
      "name": "transferOwnership",
      "outputs": [],
      "stateMutability": "nonpayable",
      "type": "function"
    },
    {
      "inputs": [
        {
          "internalType": "bytes32[]",
          "name": "_merkleProof",
          "type": "bytes32[]"
        }
      ],
      "name": "whitelistMint",
      "outputs": [],
      "stateMutability": "payable",
      "type": "function"
    },
    {
      "inputs": [],
      "name": "withdrawAll",
      "outputs": [],
      "stateMutability": "nonpayable",
      "type": "function"
    },
    {
      "inputs": [],
      "name": "openPublicSale",
      "outputs": [
        {
          "internalType": "bool",
          "name": "",
          "type": "bool"
        }
      ],
      "stateMutability": "view",
      "type": "function"
    },
    {
      "inputs": [],
      "name": "openWhitelistSale",
      "outputs": [
        {
          "internalType": "bool",
          "name": "",
          "type": "bool"
        }
      ],
      "stateMutability": "view",
      "type": "function"
    },
    {
      "inputs": [],
      "name": "getBaseURI",
      "outputs": [
        {
          "internalType": "string",
          "name": "",
          "type": "string"
        }
      ],
      "stateMutability": "view",
      "type": "function"
    }
  ],
  "bytecode": "0x60806040526000600e60006101000a81548160ff0219169083151502179055506000600e60016101000a81548160ff0219169083151502179055503480156200004757600080fd5b50604051620050f5380380620050f583398181016040528101906200006d9190620005c1565b8484848484848481600090805190602001906200008c929190620002d4565b508060019080519060200190620000a5929190620002d4565b505050620000c8620000bc6200013160201b60201c565b6200013960201b60201c565b80600b60006101000a81548173ffffffffffffffffffffffffffffffffffffffff021916908373ffffffffffffffffffffffffffffffffffffffff16021790555081600c819055506200012183620001ff60201b60201c565b505050505050505050506200078e565b600033905090565b6000600a60009054906101000a900473ffffffffffffffffffffffffffffffffffffffff16905081600a60006101000a81548173ffffffffffffffffffffffffffffffffffffffff021916908373ffffffffffffffffffffffffffffffffffffffff1602179055508173ffffffffffffffffffffffffffffffffffffffff168173ffffffffffffffffffffffffffffffffffffffff167f8be0079c531659141344cd1fd0a4f28419497f9722a3daafe3b4186f6b6457e060405160405180910390a35050565b6200020f6200013160201b60201c565b73ffffffffffffffffffffffffffffffffffffffff1662000235620002aa60201b60201c565b73ffffffffffffffffffffffffffffffffffffffff16146200028e576040517f08c379a0000000000000000000000000000000000000000000000000000000008152600401620002859062000707565b60405180910390fd5b80600f9080519060200190620002a6929190620002d4565b5050565b6000600a60009054906101000a900473ffffffffffffffffffffffffffffffffffffffff16905090565b828054620002e29062000758565b90600052602060002090601f01602090048101928262000306576000855562000352565b82601f106200032157805160ff191683800117855562000352565b8280016001018555821562000352579182015b828111156200035157825182559160200191906001019062000334565b5b50905062000361919062000365565b5090565b5b808211156200038057600081600090555060010162000366565b5090565b6000604051905090565b600080fd5b600080fd5b600080fd5b600080fd5b6000601f19601f8301169050919050565b7f4e487b7100000000000000000000000000000000000000000000000000000000600052604160045260246000fd5b620003ed82620003a2565b810181811067ffffffffffffffff821117156200040f576200040e620003b3565b5b80604052505050565b60006200042462000384565b9050620004328282620003e2565b919050565b600067ffffffffffffffff821115620004555762000454620003b3565b5b6200046082620003a2565b9050602081019050919050565b60005b838110156200048d57808201518184015260208101905062000470565b838111156200049d576000848401525b50505050565b6000620004ba620004b48462000437565b62000418565b905082815260208101848484011115620004d957620004d86200039d565b5b620004e68482856200046d565b509392505050565b600082601f83011262000506576200050562000398565b5b815162000518848260208601620004a3565b91505092915050565b6000819050919050565b620005368162000521565b81146200054257600080fd5b50565b60008151905062000556816200052b565b92915050565b600073ffffffffffffffffffffffffffffffffffffffff82169050919050565b600062000589826200055c565b9050919050565b6200059b816200057c565b8114620005a757600080fd5b50565b600081519050620005bb8162000590565b92915050565b600080600080600060a08688031215620005e057620005df6200038e565b5b600086015167ffffffffffffffff81111562000601576200060062000393565b5b6200060f88828901620004ee565b955050602086015167ffffffffffffffff81111562000633576200063262000393565b5b6200064188828901620004ee565b945050604086015167ffffffffffffffff81111562000665576200066462000393565b5b6200067388828901620004ee565b9350506060620006868882890162000545565b92505060806200069988828901620005aa565b9150509295509295909350565b600082825260208201905092915050565b7f4f776e61626c653a2063616c6c6572206973206e6f7420746865206f776e6572600082015250565b6000620006ef602083620006a6565b9150620006fc82620006b7565b602082019050919050565b600060208201905081810360008301526200072281620006e0565b9050919050565b7f4e487b7100000000000000000000000000000000000000000000000000000000600052602260045260246000fd5b600060028204905060018216806200077157607f821691505b6020821081141562000788576200078762000729565b5b50919050565b614957806200079e6000396000f3fe60806040526004361061020f5760003560e01c8063715018a611610118578063b585209b116100a0578063ca7ce3ec1161006f578063ca7ce3ec14610783578063e927fc5c146107ac578063e985e9c5146107d7578063eab091dd14610814578063f2fde38b1461083f5761020f565b8063b585209b146106c9578063b88d4fde146106f4578063c50d0b631461071d578063c87b56dd146107465761020f565b80638d859f3e116100e75780638d859f3e146105f45780638da5cb5b1461061f57806395d89b411461064a578063a22cb46514610675578063af630c341461069e5761020f565b8063715018a61461055e5780637f81be6914610575578063853828b6146105b257806385c0deb5146105c95761020f565b8063372f657c1161019b57806355f804b31161016a57806355f804b3146104675780635aca1bb6146104905780636352211e146104b957806370a08231146104f6578063714c5398146105335761020f565b8063372f657c146103a857806342842e0e146103c45780634c0dab04146103ed5780634f6ccce71461042a5761020f565b806318160ddd116101e257806318160ddd146102e257806323b872dd1461030d57806326092b83146103365780632eb4a7ab146103405780632f745c591461036b5761020f565b806301ffc9a71461021457806306fdde0314610251578063081812fc1461027c578063095ea7b3146102b9575b600080fd5b34801561022057600080fd5b5061023b600480360381019061023691906130a7565b610868565b60405161024891906130ef565b60405180910390f35b34801561025d57600080fd5b506102666108e2565b60405161027391906131a3565b60405180910390f35b34801561028857600080fd5b506102a3600480360381019061029e91906131fb565b610974565b6040516102b09190613269565b60405180910390f35b3480156102c557600080fd5b506102e060048036038101906102db91906132b0565b6109f9565b005b3480156102ee57600080fd5b506102f7610b11565b60405161030491906132ff565b60405180910390f35b34801561031957600080fd5b50610334600480360381019061032f919061331a565b610b1e565b005b61033e610b7e565b005b34801561034c57600080fd5b50610355610d61565b6040516103629190613386565b60405180910390f35b34801561037757600080fd5b50610392600480360381019061038d91906132b0565b610d67565b60405161039f91906132ff565b60405180910390f35b6103c260048036038101906103bd9190613406565b610e0c565b005b3480156103d057600080fd5b506103eb60048036038101906103e6919061331a565b6110aa565b005b3480156103f957600080fd5b50610414600480360381019061040f9190613453565b6110ca565b60405161042191906130ef565b60405180910390f35b34801561043657600080fd5b50610451600480360381019061044c91906131fb565b6110ea565b60405161045e91906132ff565b60405180910390f35b34801561047357600080fd5b5061048e600480360381019061048991906135b0565b61115b565b005b34801561049c57600080fd5b506104b760048036038101906104b29190613625565b6111f1565b005b3480156104c557600080fd5b506104e060048036038101906104db91906131fb565b6112c1565b6040516104ed9190613269565b60405180910390f35b34801561050257600080fd5b5061051d60048036038101906105189190613453565b611373565b60405161052a91906132ff565b60405180910390f35b34801561053f57600080fd5b5061054861142b565b60405161055591906131a3565b60405180910390f35b34801561056a57600080fd5b506105736114bd565b005b34801561058157600080fd5b5061059c600480360381019061059791906131fb565b611545565b6040516105a99190613269565b60405180910390f35b3480156105be57600080fd5b506105c7611582565b005b3480156105d557600080fd5b506105de61163f565b6040516105eb91906132ff565b60405180910390f35b34801561060057600080fd5b50610609611645565b60405161061691906132ff565b60405180910390f35b34801561062b57600080fd5b50610634611650565b6040516106419190613269565b60405180910390f35b34801561065657600080fd5b5061065f61167a565b60405161066c91906131a3565b60405180910390f35b34801561068157600080fd5b5061069c60048036038101906106979190613652565b61170c565b005b3480156106aa57600080fd5b506106b361188d565b6040516106c091906130ef565b60405180910390f35b3480156106d557600080fd5b506106de6118a4565b6040516106eb91906130ef565b60405180910390f35b34801561070057600080fd5b5061071b60048036038101906107169190613733565b6118bb565b005b34801561072957600080fd5b50610744600480360381019061073f9190613453565b61191d565b005b34801561075257600080fd5b5061076d600480360381019061076891906131fb565b611a51565b60405161077a91906131a3565b60405180910390f35b34801561078f57600080fd5b506107aa60048036038101906107a59190613625565b611af8565b005b3480156107b857600080fd5b506107c1611bc8565b6040516107ce9190613269565b60405180910390f35b3480156107e357600080fd5b506107fe60048036038101906107f991906137b6565b611bee565b60405161080b91906130ef565b60405180910390f35b34801561082057600080fd5b50610829611c82565b60405161083691906132ff565b60405180910390f35b34801561084b57600080fd5b5061086660048036038101906108619190613453565b611c91565b005b60007f780e9d63000000000000000000000000000000000000000000000000000000007bffffffffffffffffffffffffffffffffffffffffffffffffffffffff1916827bffffffffffffffffffffffffffffffffffffffffffffffffffffffff191614806108db57506108da82611d89565b5b9050919050565b6060600080546108f190613825565b80601f016020809104026020016040519081016040528092919081815260200182805461091d90613825565b801561096a5780601f1061093f5761010080835404028352916020019161096a565b820191906000526020600020905b81548152906001019060200180831161094d57829003601f168201915b5050505050905090565b600061097f82611e6b565b6109be576040517f08c379a00000000000000000000000000000000000000000000000000000000081526004016109b5906138c9565b60405180910390fd5b6004600083815260200190815260200160002060009054906101000a900473ffffffffffffffffffffffffffffffffffffffff169050919050565b6000610a04826112c1565b90508073ffffffffffffffffffffffffffffffffffffffff168373ffffffffffffffffffffffffffffffffffffffff161415610a75576040517f08c379a0000000000000000000000000000000000000000000000000000000008152600401610a6c9061395b565b60405180910390fd5b8073ffffffffffffffffffffffffffffffffffffffff16610a94611ed7565b73ffffffffffffffffffffffffffffffffffffffff161480610ac35750610ac281610abd611ed7565b611bee565b5b610b02576040517f08c379a0000000000000000000000000000000000000000000000000000000008152600401610af9906139ed565b60405180910390fd5b610b0c8383611edf565b505050565b6000600880549050905090565b610b2f610b29611ed7565b82611f98565b610b6e576040517f08c379a0000000000000000000000000000000000000000000000000000000008152600401610b6590613a7f565b60405180910390fd5b610b79838383612076565b505050565b612000610b89611c82565b1115610bca576040517f08c379a0000000000000000000000000000000000000000000000000000000008152600401610bc190613aeb565b60405180910390fd5b600e60019054906101000a900460ff16610c19576040517f08c379a0000000000000000000000000000000000000000000000000000000008152600401610c1090613b57565b60405180910390fd5b6000339050600d60008273ffffffffffffffffffffffffffffffffffffffff1673ffffffffffffffffffffffffffffffffffffffff16815260200190815260200160002060009054906101000a900460ff1615610cab576040517f08c379a0000000000000000000000000000000000000000000000000000000008152600401610ca290613bc3565b60405180910390fd5b66b1a2bc2ec50000341015610cf5576040517f08c379a0000000000000000000000000000000000000000000000000000000008152600401610cec90613c2f565b60405180910390fd5b6001600d60008373ffffffffffffffffffffffffffffffffffffffff1673ffffffffffffffffffffffffffffffffffffffff16815260200190815260200160002060006101000a81548160ff021916908315150217905550610d5e81610d59611c82565b6122d2565b50565b600c5481565b6000610d7283611373565b8210610db3576040517f08c379a0000000000000000000000000000000000000000000000000000000008152600401610daa90613cc1565b60405180910390fd5b600660008473ffffffffffffffffffffffffffffffffffffffff1673ffffffffffffffffffffffffffffffffffffffff168152602001908152602001600020600083815260200190815260200160002054905092915050565b612000610e17611c82565b1115610e58576040517f08c379a0000000000000000000000000000000000000000000000000000000008152600401610e4f90613aeb565b60405180910390fd5b600e60009054906101000a900460ff16610ea7576040517f08c379a0000000000000000000000000000000000000000000000000000000008152600401610e9e90613d2d565b60405180910390fd5b6000339050600d60008273ffffffffffffffffffffffffffffffffffffffff1673ffffffffffffffffffffffffffffffffffffffff16815260200190815260200160002060009054906101000a900460ff1615610f39576040517f08c379a0000000000000000000000000000000000000000000000000000000008152600401610f3090613bc3565b60405180910390fd5b66b1a2bc2ec50000341015610f83576040517f08c379a0000000000000000000000000000000000000000000000000000000008152600401610f7a90613c2f565b60405180910390fd5b600081604051602001610f969190613d95565b604051602081830303815290604052805190602001209050610ffc848480806020026020016040519081016040528093929190818152602001838360200280828437600081840152601f19601f82011690508083019250505050505050600c5483612318565b61103b576040517f08c379a000000000000000000000000000000000000000000000000000000000815260040161103290613dfc565b60405180910390fd5b6001600d60008473ffffffffffffffffffffffffffffffffffffffff1673ffffffffffffffffffffffffffffffffffffffff16815260200190815260200160002060006101000a81548160ff0219169083151502179055506110a48261109f611c82565b6122d2565b50505050565b6110c5838383604051806020016040528060008152506118bb565b505050565b600d6020528060005260406000206000915054906101000a900460ff1681565b60006110f4610b11565b8210611135576040517f08c379a000000000000000000000000000000000000000000000000000000000815260040161112c90613e8e565b60405180910390fd5b6008828154811061114957611148613eae565b5b90600052602060002001549050919050565b611163611ed7565b73ffffffffffffffffffffffffffffffffffffffff16611181611650565b73ffffffffffffffffffffffffffffffffffffffff16146111d7576040517f08c379a00000000000000000000000000000000000000000000000000000000081526004016111ce90613f29565b60405180910390fd5b80600f90805190602001906111ed929190612f98565b5050565b6111f9611ed7565b73ffffffffffffffffffffffffffffffffffffffff16611217611650565b73ffffffffffffffffffffffffffffffffffffffff161461126d576040517f08c379a000000000000000000000000000000000000000000000000000000000815260040161126490613f29565b60405180910390fd5b80600e60016101000a81548160ff0219169083151502179055507f819bd618bf2c153d8a6d9e6174bc4b17fdff7d7e295b8a3242690b290bfc94a3816040516112b691906130ef565b60405180910390a150565b6000806002600084815260200190815260200160002060009054906101000a900473ffffffffffffffffffffffffffffffffffffffff169050600073ffffffffffffffffffffffffffffffffffffffff168173ffffffffffffffffffffffffffffffffffffffff16141561136a576040517f08c379a000000000000000000000000000000000000000000000000000000000815260040161136190613fbb565b60405180910390fd5b80915050919050565b60008073ffffffffffffffffffffffffffffffffffffffff168273ffffffffffffffffffffffffffffffffffffffff1614156113e4576040517f08c379a00000000000000000000000000000000000000000000000000000000081526004016113db9061404d565b60405180910390fd5b600360008373ffffffffffffffffffffffffffffffffffffffff1673ffffffffffffffffffffffffffffffffffffffff168152602001908152602001600020549050919050565b6060600f805461143a90613825565b80601f016020809104026020016040519081016040528092919081815260200182805461146690613825565b80156114b35780601f10611488576101008083540402835291602001916114b3565b820191906000526020600020905b81548152906001019060200180831161149657829003601f168201915b5050505050905090565b6114c5611ed7565b73ffffffffffffffffffffffffffffffffffffffff166114e3611650565b73ffffffffffffffffffffffffffffffffffffffff1614611539576040517f08c379a000000000000000000000000000000000000000000000000000000000815260040161153090613f29565b60405180910390fd5b611543600061232f565b565b60006002600083815260200190815260200160002060009054906101000a900473ffffffffffffffffffffffffffffffffffffffff169050919050565b61158a611ed7565b73ffffffffffffffffffffffffffffffffffffffff166115a8611650565b73ffffffffffffffffffffffffffffffffffffffff16146115fe576040517f08c379a00000000000000000000000000000000000000000000000000000000081526004016115f590613f29565b60405180910390fd5b60004790506000811161161057600080fd5b61163c600b60009054906101000a900473ffffffffffffffffffffffffffffffffffffffff16476123f5565b50565b61200081565b66b1a2bc2ec5000081565b6000600a60009054906101000a900473ffffffffffffffffffffffffffffffffffffffff16905090565b60606001805461168990613825565b80601f01602080910402602001604051908101604052809291908181526020018280546116b590613825565b80156117025780601f106116d757610100808354040283529160200191611702565b820191906000526020600020905b8154815290600101906020018083116116e557829003601f168201915b5050505050905090565b611714611ed7565b73ffffffffffffffffffffffffffffffffffffffff168273ffffffffffffffffffffffffffffffffffffffff161415611782576040517f08c379a0000000000000000000000000000000000000000000000000000000008152600401611779906140b9565b60405180910390fd5b806005600061178f611ed7565b73ffffffffffffffffffffffffffffffffffffffff1673ffffffffffffffffffffffffffffffffffffffff16815260200190815260200160002060008473ffffffffffffffffffffffffffffffffffffffff1673ffffffffffffffffffffffffffffffffffffffff16815260200190815260200160002060006101000a81548160ff0219169083151502179055508173ffffffffffffffffffffffffffffffffffffffff1661183c611ed7565b73ffffffffffffffffffffffffffffffffffffffff167f17307eab39ab6107e8899845ad3d59bd9653f200f220920489ca2b5937696c318360405161188191906130ef565b60405180910390a35050565b6000600e60009054906101000a900460ff16905090565b6000600e60019054906101000a900460ff16905090565b6118cc6118c6611ed7565b83611f98565b61190b576040517f08c379a000000000000000000000000000000000000000000000000000000000815260040161190290613a7f565b60405180910390fd5b611917848484846124a6565b50505050565b611925611ed7565b73ffffffffffffffffffffffffffffffffffffffff16611943611650565b73ffffffffffffffffffffffffffffffffffffffff1614611999576040517f08c379a000000000000000000000000000000000000000000000000000000000815260040161199090613f29565b60405180910390fd5b6120006119a4611c82565b11156119e5576040517f08c379a00000000000000000000000000000000000000000000000000000000081526004016119dc90613aeb565b60405180910390fd5b6001600d60008373ffffffffffffffffffffffffffffffffffffffff1673ffffffffffffffffffffffffffffffffffffffff16815260200190815260200160002060006101000a81548160ff021916908315150217905550611a4e81611a49611c82565b6122d2565b50565b6060611a5c82611e6b565b611a9b576040517f08c379a0000000000000000000000000000000000000000000000000000000008152600401611a929061414b565b60405180910390fd5b6000611aa5612502565b90506000815111611ac55760405180602001604052806000815250611af0565b80611acf84612519565b604051602001611ae09291906141a7565b6040516020818303038152906040525b915050919050565b611b00611ed7565b73ffffffffffffffffffffffffffffffffffffffff16611b1e611650565b73ffffffffffffffffffffffffffffffffffffffff1614611b74576040517f08c379a0000000000000000000000000000000000000000000000000000000008152600401611b6b90613f29565b60405180910390fd5b80600e60006101000a81548160ff0219169083151502179055507fbbfb0dda705aa1c7368a1e31138d53b5eebfd36eb343b4560d9bdf0a50e9a4ce81604051611bbd91906130ef565b60405180910390a150565b600b60009054906101000a900473ffffffffffffffffffffffffffffffffffffffff1681565b6000600560008473ffffffffffffffffffffffffffffffffffffffff1673ffffffffffffffffffffffffffffffffffffffff16815260200190815260200160002060008373ffffffffffffffffffffffffffffffffffffffff1673ffffffffffffffffffffffffffffffffffffffff16815260200190815260200160002060009054906101000a900460ff16905092915050565b6000611c8c610b11565b905090565b611c99611ed7565b73ffffffffffffffffffffffffffffffffffffffff16611cb7611650565b73ffffffffffffffffffffffffffffffffffffffff1614611d0d576040517f08c379a0000000000000000000000000000000000000000000000000000000008152600401611d0490613f29565b60405180910390fd5b600073ffffffffffffffffffffffffffffffffffffffff168173ffffffffffffffffffffffffffffffffffffffff161415611d7d576040517f08c379a0000000000000000000000000000000000000000000000000000000008152600401611d749061423d565b60405180910390fd5b611d868161232f565b50565b60007f80ac58cd000000000000000000000000000000000000000000000000000000007bffffffffffffffffffffffffffffffffffffffffffffffffffffffff1916827bffffffffffffffffffffffffffffffffffffffffffffffffffffffff19161480611e5457507f5b5e139f000000000000000000000000000000000000000000000000000000007bffffffffffffffffffffffffffffffffffffffffffffffffffffffff1916827bffffffffffffffffffffffffffffffffffffffffffffffffffffffff1916145b80611e645750611e638261267a565b5b9050919050565b60008073ffffffffffffffffffffffffffffffffffffffff166002600084815260200190815260200160002060009054906101000a900473ffffffffffffffffffffffffffffffffffffffff1673ffffffffffffffffffffffffffffffffffffffff1614159050919050565b600033905090565b816004600083815260200190815260200160002060006101000a81548173ffffffffffffffffffffffffffffffffffffffff021916908373ffffffffffffffffffffffffffffffffffffffff160217905550808273ffffffffffffffffffffffffffffffffffffffff16611f52836112c1565b73ffffffffffffffffffffffffffffffffffffffff167f8c5be1e5ebec7d5bd14f71427d1e84f3dd0314c0f7b2291e5b200ac8c7c3b92560405160405180910390a45050565b6000611fa382611e6b565b611fe2576040517f08c379a0000000000000000000000000000000000000000000000000000000008152600401611fd9906142cf565b60405180910390fd5b6000611fed836112c1565b90508073ffffffffffffffffffffffffffffffffffffffff168473ffffffffffffffffffffffffffffffffffffffff16148061205c57508373ffffffffffffffffffffffffffffffffffffffff1661204484610974565b73ffffffffffffffffffffffffffffffffffffffff16145b8061206d575061206c8185611bee565b5b91505092915050565b8273ffffffffffffffffffffffffffffffffffffffff16612096826112c1565b73ffffffffffffffffffffffffffffffffffffffff16146120ec576040517f08c379a00000000000000000000000000000000000000000000000000000000081526004016120e390614361565b60405180910390fd5b600073ffffffffffffffffffffffffffffffffffffffff168273ffffffffffffffffffffffffffffffffffffffff16141561215c576040517f08c379a0000000000000000000000000000000000000000000000000000000008152600401612153906143f3565b60405180910390fd5b6121678383836126e4565b612172600082611edf565b6001600360008573ffffffffffffffffffffffffffffffffffffffff1673ffffffffffffffffffffffffffffffffffffffff16815260200190815260200160002060008282546121c29190614442565b925050819055506001600360008473ffffffffffffffffffffffffffffffffffffffff1673ffffffffffffffffffffffffffffffffffffffff16815260200190815260200160002060008282546122199190614476565b92505081905550816002600083815260200190815260200160002060006101000a81548173ffffffffffffffffffffffffffffffffffffffff021916908373ffffffffffffffffffffffffffffffffffffffff160217905550808273ffffffffffffffffffffffffffffffffffffffff168473ffffffffffffffffffffffffffffffffffffffff167fddf252ad1be2c89b69c2b068fc378daa952ba7f163c4a11628f55a4df523b3ef60405160405180910390a4505050565b6122dc82826127f8565b807ff72feeb971437bfd09e83e056c4109a74b098b7c85901cfa1b57002d7b44994f8360405161230c9190613269565b60405180910390a25050565b6000826123258584612816565b1490509392505050565b6000600a60009054906101000a900473ffffffffffffffffffffffffffffffffffffffff16905081600a60006101000a81548173ffffffffffffffffffffffffffffffffffffffff021916908373ffffffffffffffffffffffffffffffffffffffff1602179055508173ffffffffffffffffffffffffffffffffffffffff168173ffffffffffffffffffffffffffffffffffffffff167f8be0079c531659141344cd1fd0a4f28419497f9722a3daafe3b4186f6b6457e060405160405180910390a35050565b60008273ffffffffffffffffffffffffffffffffffffffff168260405161241b906144fd565b60006040518083038185875af1925050503d8060008114612458576040519150601f19603f3d011682016040523d82523d6000602084013e61245d565b606091505b50509050806124a1576040517f08c379a00000000000000000000000000000000000000000000000000000000081526004016124989061455e565b60405180910390fd5b505050565b6124b1848484612076565b6124bd848484846128c9565b6124fc576040517f08c379a00000000000000000000000000000000000000000000000000000000081526004016124f3906145f0565b60405180910390fd5b50505050565b606060405180602001604052806000815250905090565b60606000821415612561576040518060400160405280600181526020017f30000000000000000000000000000000000000000000000000000000000000008152509050612675565b600082905060005b6000821461259357808061257c90614610565b915050600a8261258c9190614688565b9150612569565b60008167ffffffffffffffff8111156125af576125ae613485565b5b6040519080825280601f01601f1916602001820160405280156125e15781602001600182028036833780820191505090505b5090505b6000851461266e576001826125fa9190614442565b9150600a8561260991906146b9565b60306126159190614476565b60f81b81838151811061262b5761262a613eae565b5b60200101907effffffffffffffffffffffffffffffffffffffffffffffffffffffffffffff1916908160001a905350600a856126679190614688565b94506125e5565b8093505050505b919050565b60007f01ffc9a7000000000000000000000000000000000000000000000000000000007bffffffffffffffffffffffffffffffffffffffffffffffffffffffff1916827bffffffffffffffffffffffffffffffffffffffffffffffffffffffff1916149050919050565b6126ef838383612a51565b600073ffffffffffffffffffffffffffffffffffffffff168373ffffffffffffffffffffffffffffffffffffffff1614156127325761272d81612a56565b612771565b8173ffffffffffffffffffffffffffffffffffffffff168373ffffffffffffffffffffffffffffffffffffffff16146127705761276f8382612a9f565b5b5b600073ffffffffffffffffffffffffffffffffffffffff168273ffffffffffffffffffffffffffffffffffffffff1614156127b4576127af81612c0c565b6127f3565b8273ffffffffffffffffffffffffffffffffffffffff168273ffffffffffffffffffffffffffffffffffffffff16146127f2576127f18282612cdd565b5b5b505050565b612812828260405180602001604052806000815250612d5c565b5050565b60008082905060005b84518110156128be57600085828151811061283d5761283c613eae565b5b6020026020010151905080831161287e57828160405160200161286192919061470b565b6040516020818303038152906040528051906020012092506128aa565b808360405160200161289192919061470b565b6040516020818303038152906040528051906020012092505b5080806128b690614610565b91505061281f565b508091505092915050565b60006128ea8473ffffffffffffffffffffffffffffffffffffffff16612db7565b15612a44578373ffffffffffffffffffffffffffffffffffffffff1663150b7a02612913611ed7565b8786866040518563ffffffff1660e01b8152600401612935949392919061478c565b6020604051808303816000875af192505050801561297157506040513d601f19601f8201168201806040525081019061296e91906147ed565b60015b6129f4573d80600081146129a1576040519150601f19603f3d011682016040523d82523d6000602084013e6129a6565b606091505b506000815114156129ec576040517f08c379a00000000000000000000000000000000000000000000000000000000081526004016129e3906145f0565b60405180910390fd5b805181602001fd5b63150b7a0260e01b7bffffffffffffffffffffffffffffffffffffffffffffffffffffffff1916817bffffffffffffffffffffffffffffffffffffffffffffffffffffffff191614915050612a49565b600190505b949350505050565b505050565b6008805490506009600083815260200190815260200160002081905550600881908060018154018082558091505060019003906000526020600020016000909190919091505550565b60006001612aac84611373565b612ab69190614442565b9050600060076000848152602001908152602001600020549050818114612b9b576000600660008673ffffffffffffffffffffffffffffffffffffffff1673ffffffffffffffffffffffffffffffffffffffff168152602001908152602001600020600084815260200190815260200160002054905080600660008773ffffffffffffffffffffffffffffffffffffffff1673ffffffffffffffffffffffffffffffffffffffff168152602001908152602001600020600084815260200190815260200160002081905550816007600083815260200190815260200160002081905550505b6007600084815260200190815260200160002060009055600660008573ffffffffffffffffffffffffffffffffffffffff1673ffffffffffffffffffffffffffffffffffffffff16815260200190815260200160002060008381526020019081526020016000206000905550505050565b60006001600880549050612c209190614442565b9050600060096000848152602001908152602001600020549050600060088381548110612c5057612c4f613eae565b5b906000526020600020015490508060088381548110612c7257612c71613eae565b5b906000526020600020018190555081600960008381526020019081526020016000208190555060096000858152602001908152602001600020600090556008805480612cc157612cc061481a565b5b6001900381819060005260206000200160009055905550505050565b6000612ce883611373565b905081600660008573ffffffffffffffffffffffffffffffffffffffff1673ffffffffffffffffffffffffffffffffffffffff168152602001908152602001600020600083815260200190815260200160002081905550806007600084815260200190815260200160002081905550505050565b612d668383612dca565b612d7360008484846128c9565b612db2576040517f08c379a0000000000000000000000000000000000000000000000000000000008152600401612da9906145f0565b60405180910390fd5b505050565b600080823b905060008111915050919050565b600073ffffffffffffffffffffffffffffffffffffffff168273ffffffffffffffffffffffffffffffffffffffff161415612e3a576040517f08c379a0000000000000000000000000000000000000000000000000000000008152600401612e3190614895565b60405180910390fd5b612e4381611e6b565b15612e83576040517f08c379a0000000000000000000000000000000000000000000000000000000008152600401612e7a90614901565b60405180910390fd5b612e8f600083836126e4565b6001600360008473ffffffffffffffffffffffffffffffffffffffff1673ffffffffffffffffffffffffffffffffffffffff1681526020019081526020016000206000828254612edf9190614476565b92505081905550816002600083815260200190815260200160002060006101000a81548173ffffffffffffffffffffffffffffffffffffffff021916908373ffffffffffffffffffffffffffffffffffffffff160217905550808273ffffffffffffffffffffffffffffffffffffffff16600073ffffffffffffffffffffffffffffffffffffffff167fddf252ad1be2c89b69c2b068fc378daa952ba7f163c4a11628f55a4df523b3ef60405160405180910390a45050565b828054612fa490613825565b90600052602060002090601f016020900481019282612fc6576000855561300d565b82601f10612fdf57805160ff191683800117855561300d565b8280016001018555821561300d579182015b8281111561300c578251825591602001919060010190612ff1565b5b50905061301a919061301e565b5090565b5b8082111561303757600081600090555060010161301f565b5090565b6000604051905090565b600080fd5b600080fd5b60007fffffffff0000000000000000000000000000000000000000000000000000000082169050919050565b6130848161304f565b811461308f57600080fd5b50565b6000813590506130a18161307b565b92915050565b6000602082840312156130bd576130bc613045565b5b60006130cb84828501613092565b91505092915050565b60008115159050919050565b6130e9816130d4565b82525050565b600060208201905061310460008301846130e0565b92915050565b600081519050919050565b600082825260208201905092915050565b60005b83811015613144578082015181840152602081019050613129565b83811115613153576000848401525b50505050565b6000601f19601f8301169050919050565b60006131758261310a565b61317f8185613115565b935061318f818560208601613126565b61319881613159565b840191505092915050565b600060208201905081810360008301526131bd818461316a565b905092915050565b6000819050919050565b6131d8816131c5565b81146131e357600080fd5b50565b6000813590506131f5816131cf565b92915050565b60006020828403121561321157613210613045565b5b600061321f848285016131e6565b91505092915050565b600073ffffffffffffffffffffffffffffffffffffffff82169050919050565b600061325382613228565b9050919050565b61326381613248565b82525050565b600060208201905061327e600083018461325a565b92915050565b61328d81613248565b811461329857600080fd5b50565b6000813590506132aa81613284565b92915050565b600080604083850312156132c7576132c6613045565b5b60006132d58582860161329b565b92505060206132e6858286016131e6565b9150509250929050565b6132f9816131c5565b82525050565b600060208201905061331460008301846132f0565b92915050565b60008060006060848603121561333357613332613045565b5b60006133418682870161329b565b93505060206133528682870161329b565b9250506040613363868287016131e6565b9150509250925092565b6000819050919050565b6133808161336d565b82525050565b600060208201905061339b6000830184613377565b92915050565b600080fd5b600080fd5b600080fd5b60008083601f8401126133c6576133c56133a1565b5b8235905067ffffffffffffffff8111156133e3576133e26133a6565b5b6020830191508360208202830111156133ff576133fe6133ab565b5b9250929050565b6000806020838503121561341d5761341c613045565b5b600083013567ffffffffffffffff81111561343b5761343a61304a565b5b613447858286016133b0565b92509250509250929050565b60006020828403121561346957613468613045565b5b60006134778482850161329b565b91505092915050565b600080fd5b7f4e487b7100000000000000000000000000000000000000000000000000000000600052604160045260246000fd5b6134bd82613159565b810181811067ffffffffffffffff821117156134dc576134db613485565b5b80604052505050565b60006134ef61303b565b90506134fb82826134b4565b919050565b600067ffffffffffffffff82111561351b5761351a613485565b5b61352482613159565b9050602081019050919050565b82818337600083830152505050565b600061355361354e84613500565b6134e5565b90508281526020810184848401111561356f5761356e613480565b5b61357a848285613531565b509392505050565b600082601f830112613597576135966133a1565b5b81356135a7848260208601613540565b91505092915050565b6000602082840312156135c6576135c5613045565b5b600082013567ffffffffffffffff8111156135e4576135e361304a565b5b6135f084828501613582565b91505092915050565b613602816130d4565b811461360d57600080fd5b50565b60008135905061361f816135f9565b92915050565b60006020828403121561363b5761363a613045565b5b600061364984828501613610565b91505092915050565b6000806040838503121561366957613668613045565b5b60006136778582860161329b565b925050602061368885828601613610565b9150509250929050565b600067ffffffffffffffff8211156136ad576136ac613485565b5b6136b682613159565b9050602081019050919050565b60006136d66136d184613692565b6134e5565b9050828152602081018484840111156136f2576136f1613480565b5b6136fd848285613531565b509392505050565b600082601f83011261371a576137196133a1565b5b813561372a8482602086016136c3565b91505092915050565b6000806000806080858703121561374d5761374c613045565b5b600061375b8782880161329b565b945050602061376c8782880161329b565b935050604061377d878288016131e6565b925050606085013567ffffffffffffffff81111561379e5761379d61304a565b5b6137aa87828801613705565b91505092959194509250565b600080604083850312156137cd576137cc613045565b5b60006137db8582860161329b565b92505060206137ec8582860161329b565b9150509250929050565b7f4e487b7100000000000000000000000000000000000000000000000000000000600052602260045260246000fd5b6000600282049050600182168061383d57607f821691505b60208210811415613851576138506137f6565b5b50919050565b7f4552433732313a20617070726f76656420717565727920666f72206e6f6e657860008201527f697374656e7420746f6b656e0000000000000000000000000000000000000000602082015250565b60006138b3602c83613115565b91506138be82613857565b604082019050919050565b600060208201905081810360008301526138e2816138a6565b9050919050565b7f4552433732313a20617070726f76616c20746f2063757272656e74206f776e6560008201527f7200000000000000000000000000000000000000000000000000000000000000602082015250565b6000613945602183613115565b9150613950826138e9565b604082019050919050565b6000602082019050818103600083015261397481613938565b9050919050565b7f4552433732313a20617070726f76652063616c6c6572206973206e6f74206f7760008201527f6e6572206e6f7220617070726f76656420666f7220616c6c0000000000000000602082015250565b60006139d7603883613115565b91506139e28261397b565b604082019050919050565b60006020820190508181036000830152613a06816139ca565b9050919050565b7f4552433732313a207472616e736665722063616c6c6572206973206e6f74206f60008201527f776e6572206e6f7220617070726f766564000000000000000000000000000000602082015250565b6000613a69603183613115565b9150613a7482613a0d565b604082019050919050565b60006020820190508181036000830152613a9881613a5c565b9050919050565b7f536f6c646f757421000000000000000000000000000000000000000000000000600082015250565b6000613ad5600883613115565b9150613ae082613a9f565b602082019050919050565b60006020820190508181036000830152613b0481613ac8565b9050919050565b7f5075626c69632073616c6573206e6f74206f70656e0000000000000000000000600082015250565b6000613b41601583613115565b9150613b4c82613b0b565b602082019050919050565b60006020820190508181036000830152613b7081613b34565b9050919050565b7f416c7265616479206d696e746564000000000000000000000000000000000000600082015250565b6000613bad600e83613115565b9150613bb882613b77565b602082019050919050565b60006020820190508181036000830152613bdc81613ba0565b9050919050565b7f56616c75652062656c6f77207072696365000000000000000000000000000000600082015250565b6000613c19601183613115565b9150613c2482613be3565b602082019050919050565b60006020820190508181036000830152613c4881613c0c565b9050919050565b7f455243373231456e756d657261626c653a206f776e657220696e646578206f7560008201527f74206f6620626f756e6473000000000000000000000000000000000000000000602082015250565b6000613cab602b83613115565b9150613cb682613c4f565b604082019050919050565b60006020820190508181036000830152613cda81613c9e565b9050919050565b7f57686974656c6973742073616c6573206e6f74206f70656e0000000000000000600082015250565b6000613d17601883613115565b9150613d2282613ce1565b602082019050919050565b60006020820190508181036000830152613d4681613d0a565b9050919050565b60008160601b9050919050565b6000613d6582613d4d565b9050919050565b6000613d7782613d5a565b9050919050565b613d8f613d8a82613248565b613d6c565b82525050565b6000613da18284613d7e565b60148201915081905092915050565b7f4e6f742077686974656c69737465640000000000000000000000000000000000600082015250565b6000613de6600f83613115565b9150613df182613db0565b602082019050919050565b60006020820190508181036000830152613e1581613dd9565b9050919050565b7f455243373231456e756d657261626c653a20676c6f62616c20696e646578206f60008201527f7574206f6620626f756e64730000000000000000000000000000000000000000602082015250565b6000613e78602c83613115565b9150613e8382613e1c565b604082019050919050565b60006020820190508181036000830152613ea781613e6b565b9050919050565b7f4e487b7100000000000000000000000000000000000000000000000000000000600052603260045260246000fd5b7f4f776e61626c653a2063616c6c6572206973206e6f7420746865206f776e6572600082015250565b6000613f13602083613115565b9150613f1e82613edd565b602082019050919050565b60006020820190508181036000830152613f4281613f06565b9050919050565b7f4552433732313a206f776e657220717565727920666f72206e6f6e657869737460008201527f656e7420746f6b656e0000000000000000000000000000000000000000000000602082015250565b6000613fa5602983613115565b9150613fb082613f49565b604082019050919050565b60006020820190508181036000830152613fd481613f98565b9050919050565b7f4552433732313a2062616c616e636520717565727920666f7220746865207a6560008201527f726f206164647265737300000000000000000000000000000000000000000000602082015250565b6000614037602a83613115565b915061404282613fdb565b604082019050919050565b600060208201905081810360008301526140668161402a565b9050919050565b7f4552433732313a20617070726f766520746f2063616c6c657200000000000000600082015250565b60006140a3601983613115565b91506140ae8261406d565b602082019050919050565b600060208201905081810360008301526140d281614096565b9050919050565b7f4552433732314d657461646174613a2055524920717565727920666f72206e6f60008201527f6e6578697374656e7420746f6b656e0000000000000000000000000000000000602082015250565b6000614135602f83613115565b9150614140826140d9565b604082019050919050565b6000602082019050818103600083015261416481614128565b9050919050565b600081905092915050565b60006141818261310a565b61418b818561416b565b935061419b818560208601613126565b80840191505092915050565b60006141b38285614176565b91506141bf8284614176565b91508190509392505050565b7f4f776e61626c653a206e6577206f776e657220697320746865207a65726f206160008201527f6464726573730000000000000000000000000000000000000000000000000000602082015250565b6000614227602683613115565b9150614232826141cb565b604082019050919050565b600060208201905081810360008301526142568161421a565b9050919050565b7f4552433732313a206f70657261746f7220717565727920666f72206e6f6e657860008201527f697374656e7420746f6b656e0000000000000000000000000000000000000000602082015250565b60006142b9602c83613115565b91506142c48261425d565b604082019050919050565b600060208201905081810360008301526142e8816142ac565b9050919050565b7f4552433732313a207472616e73666572206f6620746f6b656e2074686174206960008201527f73206e6f74206f776e0000000000000000000000000000000000000000000000602082015250565b600061434b602983613115565b9150614356826142ef565b604082019050919050565b6000602082019050818103600083015261437a8161433e565b9050919050565b7f4552433732313a207472616e7366657220746f20746865207a65726f2061646460008201527f7265737300000000000000000000000000000000000000000000000000000000602082015250565b60006143dd602483613115565b91506143e882614381565b604082019050919050565b6000602082019050818103600083015261440c816143d0565b9050919050565b7f4e487b7100000000000000000000000000000000000000000000000000000000600052601160045260246000fd5b600061444d826131c5565b9150614458836131c5565b92508282101561446b5761446a614413565b5b828203905092915050565b6000614481826131c5565b915061448c836131c5565b9250827fffffffffffffffffffffffffffffffffffffffffffffffffffffffffffffffff038211156144c1576144c0614413565b5b828201905092915050565b600081905092915050565b50565b60006144e76000836144cc565b91506144f2826144d7565b600082019050919050565b6000614508826144da565b9150819050919050565b7f5472616e73666572206661696c65642e00000000000000000000000000000000600082015250565b6000614548601083613115565b915061455382614512565b602082019050919050565b600060208201905081810360008301526145778161453b565b9050919050565b7f4552433732313a207472616e7366657220746f206e6f6e20455243373231526560008201527f63656976657220696d706c656d656e7465720000000000000000000000000000602082015250565b60006145da603283613115565b91506145e58261457e565b604082019050919050565b60006020820190508181036000830152614609816145cd565b9050919050565b600061461b826131c5565b91507fffffffffffffffffffffffffffffffffffffffffffffffffffffffffffffffff82141561464e5761464d614413565b5b600182019050919050565b7f4e487b7100000000000000000000000000000000000000000000000000000000600052601260045260246000fd5b6000614693826131c5565b915061469e836131c5565b9250826146ae576146ad614659565b5b828204905092915050565b60006146c4826131c5565b91506146cf836131c5565b9250826146df576146de614659565b5b828206905092915050565b6000819050919050565b6147056147008261336d565b6146ea565b82525050565b600061471782856146f4565b60208201915061472782846146f4565b6020820191508190509392505050565b600081519050919050565b600082825260208201905092915050565b600061475e82614737565b6147688185614742565b9350614778818560208601613126565b61478181613159565b840191505092915050565b60006080820190506147a1600083018761325a565b6147ae602083018661325a565b6147bb60408301856132f0565b81810360608301526147cd8184614753565b905095945050505050565b6000815190506147e78161307b565b92915050565b60006020828403121561480357614802613045565b5b6000614811848285016147d8565b91505092915050565b7f4e487b7100000000000000000000000000000000000000000000000000000000600052603160045260246000fd5b7f4552433732313a206d696e7420746f20746865207a65726f2061646472657373600082015250565b600061487f602083613115565b915061488a82614849565b602082019050919050565b600060208201905081810360008301526148ae81614872565b9050919050565b7f4552433732313a20746f6b656e20616c7265616479206d696e74656400000000600082015250565b60006148eb601c83613115565b91506148f6826148b5565b602082019050919050565b6000602082019050818103600083015261491a816148de565b905091905056fea2646970667358221220c37975c2328911a74e89d722948def1ecf3db3b84db3fca7e131dd7e78b6422064736f6c634300080a0033",
  "immutableReferences": {},
  "source": "// SPDX-License-Identifier: MIT\npragma solidity ^0.8.0;\n\nimport \"./NoMaClub.sol\";\n\n// NOTE:\n// This allows us to test internal visibility stuff, by exposing public getter functions.\n// Only for testing purposes and running inside tests.\n// This should never be used in production!!!\ncontract NoMaClubTest is NoMaClub {\n  constructor(\n      string memory _symbol,\n      string memory _name,\n      string memory baseURI,\n      bytes32 _merkleRoot,\n      address _creatorsAdreess\n  ) NoMaClub(_symbol, _name, baseURI, _merkleRoot, _creatorsAdreess) {}\n\n  function openPublicSale() public view returns (bool) {\n      return PUBLIC_SALE;\n  }\n\n  function openWhitelistSale() public view returns (bool) {\n      return WHITELIST_SALE;\n  }\n\n  function getBaseURI() public view returns (string memory) {\n    return baseTokenURI;\n  }\n}",
  "sourcePath": "/Users/martincik/Projects/amenti/nft/nomaclub/backend/mint_contract/contracts/NoMaClubTest.sol",
  "compiler": {
    "name": "solc",
    "version": "0.8.10+commit.fc410830.Emscripten.clang"
  },
  "schemaVersion": "3.4.4",
  "updatedAt": "2022-01-24T14:59:36.161Z",
  "devdoc": {
    "kind": "dev",
    "methods": {
      "approve(address,uint256)": {
        "details": "See {IERC721-approve}."
      },
      "balanceOf(address)": {
        "details": "See {IERC721-balanceOf}."
      },
      "getApproved(uint256)": {
        "details": "See {IERC721-getApproved}."
      },
      "isApprovedForAll(address,address)": {
        "details": "See {IERC721-isApprovedForAll}."
      },
      "name()": {
        "details": "See {IERC721Metadata-name}."
      },
      "owner()": {
        "details": "Returns the address of the current owner."
      },
      "ownerOf(uint256)": {
        "details": "See {IERC721-ownerOf}."
      },
      "rawOwnerOf(uint256)": {
        "details": "Edit for rawOwnerOf token"
      },
      "renounceOwnership()": {
        "details": "Leaves the contract without owner. It will not be possible to call `onlyOwner` functions anymore. Can only be called by the current owner. NOTE: Renouncing ownership will leave the contract without an owner, thereby removing any functionality that is only available to the owner."
      },
      "safeTransferFrom(address,address,uint256)": {
        "details": "See {IERC721-safeTransferFrom}."
      },
      "safeTransferFrom(address,address,uint256,bytes)": {
        "details": "See {IERC721-safeTransferFrom}."
      },
      "setApprovalForAll(address,bool)": {
        "details": "See {IERC721-setApprovalForAll}."
      },
      "supportsInterface(bytes4)": {
        "details": "See {IERC165-supportsInterface}."
      },
      "symbol()": {
        "details": "See {IERC721Metadata-symbol}."
      },
      "tokenByIndex(uint256)": {
        "details": "See {IERC721Enumerable-tokenByIndex}."
      },
      "tokenOfOwnerByIndex(address,uint256)": {
        "details": "See {IERC721Enumerable-tokenOfOwnerByIndex}."
      },
      "tokenURI(uint256)": {
        "details": "See {IERC721Metadata-tokenURI}."
      },
      "totalSupply()": {
        "details": "See {IERC721Enumerable-totalSupply}."
      },
      "transferFrom(address,address,uint256)": {
        "details": "See {IERC721-transferFrom}."
      },
      "transferOwnership(address)": {
        "details": "Transfers ownership of the contract to a new account (`newOwner`). Can only be called by the current owner."
      }
    },
    "version": 1
  },
  "userdoc": {
    "kind": "user",
    "methods": {},
    "version": 1
  }
}