{
  "_format": "hh-sol-artifact-1",
  "contractName": "NoMaGuild",
  "sourceName": "contracts/NoMaGuild.sol",
  "abi": [
    {
      "inputs": [
        {
          "internalType": "string",
          "name": "__symbol",
          "type": "string"
        },
        {
          "internalType": "string",
          "name": "__name",
          "type": "string"
        },
        {
          "internalType": "uint256",
          "name": "_maxMummies",
          "type": "uint256"
        },
        {
          "internalType": "uint256",
          "name": "_mintLimitPerWallet",
          "type": "uint256"
        },
        {
          "internalType": "string",
          "name": "baseURI",
          "type": "string"
        },
        {
          "internalType": "string",
          "name": "_hiddenTokenURI",
          "type": "string"
        }
      ],
      "stateMutability": "nonpayable",
      "type": "constructor"
    },
    {
      "inputs": [],
      "name": "ApprovalCallerNotOwnerNorApproved",
      "type": "error"
    },
    {
      "inputs": [],
      "name": "ApprovalQueryForNonexistentToken",
      "type": "error"
    },
    {
      "inputs": [],
      "name": "ApprovalToCurrentOwner",
      "type": "error"
    },
    {
      "inputs": [],
      "name": "ApproveToCaller",
      "type": "error"
    },
    {
      "inputs": [],
      "name": "BalanceQueryForZeroAddress",
      "type": "error"
    },
    {
      "inputs": [],
      "name": "ExceededLimitPerWallet",
      "type": "error"
    },
    {
      "inputs": [],
      "name": "IdenticalState",
      "type": "error"
    },
    {
      "inputs": [],
      "name": "InsufficientPaymentPerItem",
      "type": "error"
    },
    {
      "inputs": [],
      "name": "MintToZeroAddress",
      "type": "error"
    },
    {
      "inputs": [],
      "name": "MintZeroQuantity",
      "type": "error"
    },
    {
      "inputs": [],
      "name": "MustOwnToken",
      "type": "error"
    },
    {
      "inputs": [],
      "name": "NonZeroWitdraw",
      "type": "error"
    },
    {
      "inputs": [],
      "name": "OwnerQueryForNonexistentToken",
      "type": "error"
    },
    {
      "inputs": [],
      "name": "PublicSaleClosed",
      "type": "error"
    },
    {
      "inputs": [],
      "name": "RefundGuaranteeExpired",
      "type": "error"
    },
    {
      "inputs": [],
      "name": "RefundGuaranteeStillActive",
      "type": "error"
    },
    {
      "inputs": [],
      "name": "Soldout",
      "type": "error"
    },
    {
      "inputs": [],
      "name": "TransferCallerNotOwnerNorApproved",
      "type": "error"
    },
    {
      "inputs": [],
      "name": "TransferFromIncorrectOwner",
      "type": "error"
    },
    {
      "inputs": [],
      "name": "TransferToNonERC721ReceiverImplementer",
      "type": "error"
    },
    {
      "inputs": [],
      "name": "TransferToZeroAddress",
      "type": "error"
    },
    {
      "anonymous": false,
      "inputs": [
        {
          "indexed": true,
          "internalType": "address",
          "name": "owner",
          "type": "address"
        },
        {
          "indexed": true,
          "internalType": "address",
          "name": "approved",
          "type": "address"
        },
        {
          "indexed": true,
          "internalType": "uint256",
          "name": "tokenId",
          "type": "uint256"
        }
      ],
      "name": "Approval",
      "type": "event"
    },
    {
      "anonymous": false,
      "inputs": [
        {
          "indexed": true,
          "internalType": "address",
          "name": "owner",
          "type": "address"
        },
        {
          "indexed": true,
          "internalType": "address",
          "name": "operator",
          "type": "address"
        },
        {
          "indexed": false,
          "internalType": "bool",
          "name": "approved",
          "type": "bool"
        }
      ],
      "name": "ApprovalForAll",
      "type": "event"
    },
    {
      "anonymous": false,
      "inputs": [
        {
          "indexed": true,
          "internalType": "address",
          "name": "previousOwner",
          "type": "address"
        },
        {
          "indexed": true,
          "internalType": "address",
          "name": "newOwner",
          "type": "address"
        }
      ],
      "name": "OwnershipTransferred",
      "type": "event"
    },
    {
      "anonymous": false,
      "inputs": [
        {
          "indexed": false,
          "internalType": "address",
          "name": "account",
          "type": "address"
        }
      ],
      "name": "Paused",
      "type": "event"
    },
    {
      "anonymous": false,
      "inputs": [
        {
          "indexed": false,
          "internalType": "bool",
          "name": "pause",
          "type": "bool"
        }
      ],
      "name": "PublicSaleEvent",
      "type": "event"
    },
    {
      "anonymous": false,
      "inputs": [
        {
          "indexed": true,
          "internalType": "address",
          "name": "from",
          "type": "address"
        },
        {
          "indexed": true,
          "internalType": "address",
          "name": "to",
          "type": "address"
        },
        {
          "indexed": true,
          "internalType": "uint256",
          "name": "tokenId",
          "type": "uint256"
        }
      ],
      "name": "Transfer",
      "type": "event"
    },
    {
      "anonymous": false,
      "inputs": [
        {
          "indexed": false,
          "internalType": "address",
          "name": "account",
          "type": "address"
        }
      ],
      "name": "Unpaused",
      "type": "event"
    },
    {
      "inputs": [],
      "name": "PUBLIC_PRICE",
      "outputs": [
        {
          "internalType": "uint256",
          "name": "",
          "type": "uint256"
        }
      ],
      "stateMutability": "view",
      "type": "function"
    },
    {
      "inputs": [],
      "name": "ROYALTY_RATE",
      "outputs": [
        {
          "internalType": "uint256",
          "name": "",
          "type": "uint256"
        }
      ],
      "stateMutability": "view",
      "type": "function"
    },
    {
      "inputs": [
        {
          "internalType": "address",
          "name": "to",
          "type": "address"
        },
        {
          "internalType": "uint256",
          "name": "tokenId",
          "type": "uint256"
        }
      ],
      "name": "approve",
      "outputs": [],
      "stateMutability": "nonpayable",
      "type": "function"
    },
    {
      "inputs": [
        {
          "internalType": "address",
          "name": "owner",
          "type": "address"
        }
      ],
      "name": "balanceOf",
      "outputs": [
        {
          "internalType": "uint256",
          "name": "",
          "type": "uint256"
        }
      ],
      "stateMutability": "view",
      "type": "function"
    },
    {
      "inputs": [],
      "name": "baseTokenURI",
      "outputs": [
        {
          "internalType": "string",
          "name": "",
          "type": "string"
        }
      ],
      "stateMutability": "view",
      "type": "function"
    },
    {
      "inputs": [
        {
          "internalType": "uint256",
          "name": "tokenId",
          "type": "uint256"
        }
      ],
      "name": "burn",
      "outputs": [],
      "stateMutability": "nonpayable",
      "type": "function"
    },
    {
      "inputs": [
        {
          "internalType": "uint256",
          "name": "tokenId",
          "type": "uint256"
        }
      ],
      "name": "getApproved",
      "outputs": [
        {
          "internalType": "address",
          "name": "",
          "type": "address"
        }
      ],
      "stateMutability": "view",
      "type": "function"
    },
    {
      "inputs": [
        {
          "internalType": "address",
          "name": "_to",
          "type": "address"
        },
        {
          "internalType": "uint256",
          "name": "_quantity",
          "type": "uint256"
        }
      ],
      "name": "giveawayMint",
      "outputs": [],
      "stateMutability": "nonpayable",
      "type": "function"
    },
    {
      "inputs": [],
      "name": "hiddenTokenURI",
      "outputs": [
        {
          "internalType": "string",
          "name": "",
          "type": "string"
        }
      ],
      "stateMutability": "view",
      "type": "function"
    },
    {
      "inputs": [
        {
          "internalType": "address",
          "name": "owner",
          "type": "address"
        },
        {
          "internalType": "address",
          "name": "operator",
          "type": "address"
        }
      ],
      "name": "isApprovedForAll",
      "outputs": [
        {
          "internalType": "bool",
          "name": "",
          "type": "bool"
        }
      ],
      "stateMutability": "view",
      "type": "function"
    },
    {
      "inputs": [],
      "name": "isPublicSaleOpen",
      "outputs": [
        {
          "internalType": "bool",
          "name": "",
          "type": "bool"
        }
      ],
      "stateMutability": "view",
      "type": "function"
    },
    {
      "inputs": [],
      "name": "maxMummies",
      "outputs": [
        {
          "internalType": "uint256",
          "name": "",
          "type": "uint256"
        }
      ],
      "stateMutability": "view",
      "type": "function"
    },
    {
      "inputs": [],
      "name": "mintLimitPerWallet",
      "outputs": [
        {
          "internalType": "uint256",
          "name": "",
          "type": "uint256"
        }
      ],
      "stateMutability": "view",
      "type": "function"
    },
    {
      "inputs": [],
      "name": "name",
      "outputs": [
        {
          "internalType": "string",
          "name": "",
          "type": "string"
        }
      ],
      "stateMutability": "view",
      "type": "function"
    },
    {
      "inputs": [],
      "name": "owner",
      "outputs": [
        {
          "internalType": "address",
          "name": "",
          "type": "address"
        }
      ],
      "stateMutability": "view",
      "type": "function"
    },
    {
      "inputs": [
        {
          "internalType": "uint256",
          "name": "tokenId",
          "type": "uint256"
        }
      ],
      "name": "ownerOf",
      "outputs": [
        {
          "internalType": "address",
          "name": "",
          "type": "address"
        }
      ],
      "stateMutability": "view",
      "type": "function"
    },
    {
      "inputs": [],
      "name": "pause",
      "outputs": [],
      "stateMutability": "nonpayable",
      "type": "function"
    },
    {
      "inputs": [],
      "name": "paused",
      "outputs": [
        {
          "internalType": "bool",
          "name": "",
          "type": "bool"
        }
      ],
      "stateMutability": "view",
      "type": "function"
    },
    {
      "inputs": [
        {
          "internalType": "uint256",
          "name": "_quantity",
          "type": "uint256"
        }
      ],
      "name": "publicMint",
      "outputs": [],
      "stateMutability": "payable",
      "type": "function"
    },
    {
      "inputs": [
        {
          "internalType": "uint256",
          "name": "_tokenId",
          "type": "uint256"
        }
      ],
      "name": "refund",
      "outputs": [],
      "stateMutability": "nonpayable",
      "type": "function"
    },
    {
      "inputs": [],
      "name": "refundGuaranteeActive",
      "outputs": [
        {
          "internalType": "bool",
          "name": "",
          "type": "bool"
        }
      ],
      "stateMutability": "view",
      "type": "function"
    },
    {
      "inputs": [],
      "name": "refundStartTime",
      "outputs": [
        {
          "internalType": "uint256",
          "name": "",
          "type": "uint256"
        }
      ],
      "stateMutability": "view",
      "type": "function"
    },
    {
      "inputs": [],
      "name": "renounceOwnership",
      "outputs": [],
      "stateMutability": "nonpayable",
      "type": "function"
    },
    {
      "inputs": [
        {
          "internalType": "uint256",
          "name": "",
          "type": "uint256"
        },
        {
          "internalType": "uint256",
          "name": "salePrice",
          "type": "uint256"
        }
      ],
      "name": "royaltyInfo",
      "outputs": [
        {
          "internalType": "address",
          "name": "receiver",
          "type": "address"
        },
        {
          "internalType": "uint256",
          "name": "royaltyAmount",
          "type": "uint256"
        }
      ],
      "stateMutability": "view",
      "type": "function"
    },
    {
      "inputs": [
        {
          "internalType": "address",
          "name": "from",
          "type": "address"
        },
        {
          "internalType": "address",
          "name": "to",
          "type": "address"
        },
        {
          "internalType": "uint256",
          "name": "tokenId",
          "type": "uint256"
        }
      ],
      "name": "safeTransferFrom",
      "outputs": [],
      "stateMutability": "nonpayable",
      "type": "function"
    },
    {
      "inputs": [
        {
          "internalType": "address",
          "name": "from",
          "type": "address"
        },
        {
          "internalType": "address",
          "name": "to",
          "type": "address"
        },
        {
          "internalType": "uint256",
          "name": "tokenId",
          "type": "uint256"
        },
        {
          "internalType": "bytes",
          "name": "_data",
          "type": "bytes"
        }
      ],
      "name": "safeTransferFrom",
      "outputs": [],
      "stateMutability": "nonpayable",
      "type": "function"
    },
    {
      "inputs": [
        {
          "internalType": "address",
          "name": "operator",
          "type": "address"
        },
        {
          "internalType": "bool",
          "name": "approved",
          "type": "bool"
        }
      ],
      "name": "setApprovalForAll",
      "outputs": [],
      "stateMutability": "nonpayable",
      "type": "function"
    },
    {
      "inputs": [
        {
          "internalType": "string",
          "name": "baseURI",
          "type": "string"
        }
      ],
      "name": "setBaseURI",
      "outputs": [],
      "stateMutability": "nonpayable",
      "type": "function"
    },
    {
      "inputs": [
        {
          "internalType": "string",
          "name": "hiddenURI",
          "type": "string"
        }
      ],
      "name": "setHiddenURI",
      "outputs": [],
      "stateMutability": "nonpayable",
      "type": "function"
    },
    {
      "inputs": [
        {
          "internalType": "bool",
          "name": "_b",
          "type": "bool"
        }
      ],
      "name": "setPublicSale",
      "outputs": [],
      "stateMutability": "nonpayable",
      "type": "function"
    },
    {
      "inputs": [
        {
          "internalType": "bytes4",
          "name": "interfaceId",
          "type": "bytes4"
        }
      ],
      "name": "supportsInterface",
      "outputs": [
        {
          "internalType": "bool",
          "name": "",
          "type": "bool"
        }
      ],
      "stateMutability": "view",
      "type": "function"
    },
    {
      "inputs": [],
      "name": "symbol",
      "outputs": [
        {
          "internalType": "string",
          "name": "",
          "type": "string"
        }
      ],
      "stateMutability": "view",
      "type": "function"
    },
    {
      "inputs": [
        {
          "internalType": "uint256",
          "name": "tokenId",
          "type": "uint256"
        }
      ],
      "name": "tokenURI",
      "outputs": [
        {
          "internalType": "string",
          "name": "",
          "type": "string"
        }
      ],
      "stateMutability": "view",
      "type": "function"
    },
    {
      "inputs": [],
      "name": "totalSupply",
      "outputs": [
        {
          "internalType": "uint256",
          "name": "",
          "type": "uint256"
        }
      ],
      "stateMutability": "view",
      "type": "function"
    },
    {
      "inputs": [
        {
          "internalType": "address",
          "name": "from",
          "type": "address"
        },
        {
          "internalType": "address",
          "name": "to",
          "type": "address"
        },
        {
          "internalType": "uint256",
          "name": "tokenId",
          "type": "uint256"
        }
      ],
      "name": "transferFrom",
      "outputs": [],
      "stateMutability": "nonpayable",
      "type": "function"
    },
    {
      "inputs": [
        {
          "internalType": "address",
          "name": "newOwner",
          "type": "address"
        }
      ],
      "name": "transferOwnership",
      "outputs": [],
      "stateMutability": "nonpayable",
      "type": "function"
    },
    {
      "inputs": [],
      "name": "unpause",
      "outputs": [],
      "stateMutability": "nonpayable",
      "type": "function"
    },
    {
      "inputs": [],
      "name": "widthdraw",
      "outputs": [],
      "stateMutability": "nonpayable",
      "type": "function"
    }
  ],
  "bytecode": "0x60c0604052600c805460ff1916905542600d553480156200001f57600080fd5b5060405162002d8c38038062002d8c83398101604081905262000042916200030a565b8551869086906200005b90600290602085019062000197565b5080516200007190600390602084019062000197565b506001600055505060016008556200008933620000cd565b6009805460ff60a01b19169055608084905260a08390528051620000b590600b90602084019062000197565b50620000c1826200011f565b50505050505062000412565b600980546001600160a01b038381166001600160a01b0319831681179093556040519116919082907f8be0079c531659141344cd1fd0a4f28419497f9722a3daafe3b4186f6b6457e090600090a35050565b6009546001600160a01b031633146200017e5760405162461bcd60e51b815260206004820181905260248201527f4f776e61626c653a2063616c6c6572206973206e6f7420746865206f776e6572604482015260640160405180910390fd5b80516200019390600a90602084019062000197565b5050565b828054620001a590620003d5565b90600052602060002090601f016020900481019282620001c9576000855562000214565b82601f10620001e457805160ff191683800117855562000214565b8280016001018555821562000214579182015b8281111562000214578251825591602001919060010190620001f7565b506200022292915062000226565b5090565b5b8082111562000222576000815560010162000227565b634e487b7160e01b600052604160045260246000fd5b600082601f8301126200026557600080fd5b81516001600160401b03808211156200028257620002826200023d565b604051601f8301601f19908116603f01168101908282118183101715620002ad57620002ad6200023d565b81604052838152602092508683858801011115620002ca57600080fd5b600091505b83821015620002ee5785820183015181830184015290820190620002cf565b83821115620003005760008385830101525b9695505050505050565b60008060008060008060c087890312156200032457600080fd5b86516001600160401b03808211156200033c57600080fd5b6200034a8a838b0162000253565b975060208901519150808211156200036157600080fd5b6200036f8a838b0162000253565b9650604089015195506060890151945060808901519150808211156200039457600080fd5b620003a28a838b0162000253565b935060a0890151915080821115620003b957600080fd5b50620003c889828a0162000253565b9150509295509295509295565b600181811c90821680620003ea57607f821691505b602082108114156200040c57634e487b7160e01b600052602260045260246000fd5b50919050565b60805160a05161293f6200044d600039600081816106ca0152610cb8015260008181610440015281816108150152610c17015261293f6000f3fe6080604052600436106102855760003560e01c80635aca1bb61161015357806395d89b41116100cb578063d547cfb71161007f578063e985e9c511610064578063e985e9c5146106ec578063ec83ebbd14610735578063f2fde38b1461074a57600080fd5b8063d547cfb7146106a3578063e0f9b479146106b857600080fd5b8063b88d4fde116100b0578063b88d4fde14610643578063bbaac02f14610663578063c87b56dd1461068357600080fd5b806395d89b411461060e578063a22cb4651461062357600080fd5b80636aba899b11610122578063715018a611610107578063715018a6146105c65780638456cb59146105db5780638da5cb5b146105f057600080fd5b80636aba899b1461059057806370a08231146105a657600080fd5b80635aca1bb6146105165780635c975abb14610536578063611f3f10146105555780636352211e1461057057600080fd5b80632a55205a1161020157806342842e0e116101b557806352b50a2a1161019a57806352b50a2a146104cc57806355f804b3146104e15780635a32baec1461050157600080fd5b806342842e0e1461048c57806342966c68146104ac57600080fd5b80633007d626116101e65780633007d6261461042e5780633f4ba83a1461046257806340e37ff11461047757600080fd5b80632a55205a146103dc5780632db115441461041b57600080fd5b8063095ea7b3116102585780631a6949e31161023d5780631a6949e31461038257806323b872dd1461039c578063278ecde1146103bc57600080fd5b8063095ea7b31461033b57806318160ddd1461035b57600080fd5b806301ffc9a71461028a57806304826624146102bf57806306fdde03146102e1578063081812fc14610303575b600080fd5b34801561029657600080fd5b506102aa6102a53660046123ef565b61076a565b60405190151581526020015b60405180910390f35b3480156102cb57600080fd5b506102df6102da36600461242f565b6107ae565b005b3480156102ed57600080fd5b506102f6610867565b6040516102b691906124b1565b34801561030f57600080fd5b5061032361031e3660046124c4565b6108f9565b6040516001600160a01b0390911681526020016102b6565b34801561034757600080fd5b506102df61035636600461242f565b610956565b34801561036757600080fd5b5060015460005403600019015b6040519081526020016102b6565b34801561038e57600080fd5b50600c546102aa9060ff1681565b3480156103a857600080fd5b506102df6103b73660046124dd565b610a16565b3480156103c857600080fd5b506102df6103d73660046124c4565b610a21565b3480156103e857600080fd5b506103fc6103f7366004612519565b610b55565b604080516001600160a01b0390931683526020830191909152016102b6565b6102df6104293660046124c4565b610b7b565b34801561043a57600080fd5b506103747f000000000000000000000000000000000000000000000000000000000000000081565b34801561046e57600080fd5b506102df610d77565b34801561048357600080fd5b50610374600381565b34801561049857600080fd5b506102df6104a73660046124dd565b610ddb565b3480156104b857600080fd5b506102df6104c73660046124c4565b610df6565b3480156104d857600080fd5b506102df610e73565b3480156104ed57600080fd5b506102df6104fc3660046125c7565b610f62565b34801561050d57600080fd5b506102aa610fcf565b34801561052257600080fd5b506102df610531366004612620565b610fe9565b34801561054257600080fd5b50600954600160a01b900460ff166102aa565b34801561056157600080fd5b50610374669184e72a00000081565b34801561057c57600080fd5b5061032361058b3660046124c4565b6110cd565b34801561059c57600080fd5b50610374600d5481565b3480156105b257600080fd5b506103746105c136600461263b565b6110df565b3480156105d257600080fd5b506102df611147565b3480156105e757600080fd5b506102df6111ab565b3480156105fc57600080fd5b506009546001600160a01b0316610323565b34801561061a57600080fd5b506102f661120d565b34801561062f57600080fd5b506102df61063e366004612656565b61121c565b34801561064f57600080fd5b506102df61065e366004612689565b6112cb565b34801561066f57600080fd5b506102df61067e3660046125c7565b61131c565b34801561068f57600080fd5b506102f661069e3660046124c4565b611389565b3480156106af57600080fd5b506102f6611410565b3480156106c457600080fd5b506103747f000000000000000000000000000000000000000000000000000000000000000081565b3480156106f857600080fd5b506102aa610707366004612705565b6001600160a01b03918216600090815260076020908152604080832093909416825291909152205460ff1690565b34801561074157600080fd5b506102f661149e565b34801561075657600080fd5b506102df61076536600461263b565b6114ab565b60006001600160e01b031982167f2a55205a0000000000000000000000000000000000000000000000000000000014806107a857506107a88261158a565b92915050565b6009546001600160a01b0316331461080d5760405162461bcd60e51b815260206004820181905260248201527f4f776e61626c653a2063616c6c6572206973206e6f7420746865206f776e657260448201526064015b60405180910390fd5b6001546000547f000000000000000000000000000000000000000000000000000000000000000091900360001901106108595760405163355a428160e01b815260040160405180910390fd5b6108638282611625565b5050565b6060600280546108769061272f565b80601f01602080910402602001604051908101604052809291908181526020018280546108a29061272f565b80156108ef5780601f106108c4576101008083540402835291602001916108ef565b820191906000526020600020905b8154815290600101906020018083116108d257829003601f168201915b5050505050905090565b60006109048261162f565b61093a576040517fcf4700e400000000000000000000000000000000000000000000000000000000815260040160405180910390fd5b506000908152600660205260409020546001600160a01b031690565b6000610961826110cd565b9050806001600160a01b0316836001600160a01b031614156109af576040517f943f7b8c00000000000000000000000000000000000000000000000000000000815260040160405180910390fd5b336001600160a01b038216148015906109cf57506109cd8133610707565b155b15610a06576040517fcfb3b94200000000000000000000000000000000000000000000000000000000815260040160405180910390fd5b610a11838383611668565b505050565b610a118383836116d1565b60026008541415610a745760405162461bcd60e51b815260206004820152601f60248201527f5265656e7472616e637947756172643a207265656e7472616e742063616c6c006044820152606401610804565b6002600855610a81610fcf565b610ab7576040517fbab3da9800000000000000000000000000000000000000000000000000000000815260040160405180910390fd5b33610ac1826110cd565b6001600160a01b031614610b01576040517f9b692a0400000000000000000000000000000000000000000000000000000000815260040160405180910390fd5b610b1d33610b176009546001600160a01b031690565b83610ddb565b6040513390600090669184e72a0000009082818181858883f19350505050158015610b4c573d6000803e3d6000fd5b50506001600855565b600080306064610b66600386612780565b610b7091906127b5565b915091509250929050565b60026008541415610bce5760405162461bcd60e51b815260206004820152601f60248201527f5265656e7472616e637947756172643a207265656e7472616e742063616c6c006044820152606401610804565b6002600855600c5460ff16610c0f576040517fdd4e010600000000000000000000000000000000000000000000000000000000815260040160405180910390fd5b6001546000547f00000000000000000000000000000000000000000000000000000000000000009190036000190110610c5b5760405163355a428160e01b815260040160405180910390fd5b600954600160a01b900460ff1615610cb55760405162461bcd60e51b815260206004820152601060248201527f5061757361626c653a20706175736564000000000000000000000000000000006044820152606401610804565b337f000000000000000000000000000000000000000000000000000000000000000082610ce1836110df565b610ceb91906127c9565b1115610d23576040517fa053177900000000000000000000000000000000000000000000000000000000815260040160405180910390fd5b610d3482669184e72a000000612780565b341015610d6d576040517fdaeb959700000000000000000000000000000000000000000000000000000000815260040160405180910390fd5b610b4c8183611625565b6009546001600160a01b03163314610dd15760405162461bcd60e51b815260206004820181905260248201527f4f776e61626c653a2063616c6c6572206973206e6f7420746865206f776e65726044820152606401610804565b610dd961191a565b565b610a11838383604051806020016040528060008152506112cb565b6000610e01826119c0565b80519091506000906001600160a01b0316336001600160a01b03161480610e2f57508151610e2f9033610707565b80610e4a575033610e3f846108f9565b6001600160a01b0316145b905080610e6a57604051632ce44b5f60e11b815260040160405180910390fd5b610a1183611b02565b6009546001600160a01b03163314610ecd5760405162461bcd60e51b815260206004820181905260248201527f4f776e61626c653a2063616c6c6572206973206e6f7420746865206f776e65726044820152606401610804565b4780610f05576040517f87e8dc8100000000000000000000000000000000000000000000000000000000815260040160405180910390fd5b610f0d610fcf565b15610f44576040517f2177733c00000000000000000000000000000000000000000000000000000000815260040160405180910390fd5b610f5f610f596009546001600160a01b031690565b82611cbc565b50565b6009546001600160a01b03163314610fbc5760405162461bcd60e51b815260206004820181905260248201527f4f776e61626c653a2063616c6c6572206973206e6f7420746865206f776e65726044820152606401610804565b805161086390600a906020840190612340565b6000600d54624f1a00610fe291906127c9565b4210905090565b6009546001600160a01b031633146110435760405162461bcd60e51b815260206004820181905260248201527f4f776e61626c653a2063616c6c6572206973206e6f7420746865206f776e65726044820152606401610804565b600c5460ff1615158115151415611086576040517f52cfd4a500000000000000000000000000000000000000000000000000000000815260040160405180910390fd5b600c805460ff19168215159081179091556040519081527f819bd618bf2c153d8a6d9e6174bc4b17fdff7d7e295b8a3242690b290bfc94a39060200160405180910390a150565b60006110d8826119c0565b5192915050565b60006001600160a01b038216611121576040517f8f4eb60400000000000000000000000000000000000000000000000000000000815260040160405180910390fd5b506001600160a01b031660009081526005602052604090205467ffffffffffffffff1690565b6009546001600160a01b031633146111a15760405162461bcd60e51b815260206004820181905260248201527f4f776e61626c653a2063616c6c6572206973206e6f7420746865206f776e65726044820152606401610804565b610dd96000611dd5565b6009546001600160a01b031633146112055760405162461bcd60e51b815260206004820181905260248201527f4f776e61626c653a2063616c6c6572206973206e6f7420746865206f776e65726044820152606401610804565b610dd9611e34565b6060600380546108769061272f565b6001600160a01b03821633141561125f576040517fb06307db00000000000000000000000000000000000000000000000000000000815260040160405180910390fd5b3360008181526007602090815260408083206001600160a01b03871680855290835292819020805460ff191686151590811790915590519081529192917f17307eab39ab6107e8899845ad3d59bd9653f200f220920489ca2b5937696c31910160405180910390a35050565b6112d68484846116d1565b6001600160a01b0383163b151580156112f857506112f684848484611ec9565b155b15611316576040516368d2bf6b60e11b815260040160405180910390fd5b50505050565b6009546001600160a01b031633146113765760405162461bcd60e51b815260206004820181905260248201527f4f776e61626c653a2063616c6c6572206973206e6f7420746865206f776e65726044820152606401610804565b805161086390600b906020840190612340565b60606000611395611fc0565b905060006113a1611fcf565b905081516000141580156113b457508051155b6113dd57806040516020016113c991906127e1565b604051602081830303815290604052611408565b816113e785611fde565b6040516020016113f89291906127fd565b6040516020818303038152906040525b949350505050565b600a805461141d9061272f565b80601f01602080910402602001604051908101604052809291908181526020018280546114499061272f565b80156114965780601f1061146b57610100808354040283529160200191611496565b820191906000526020600020905b81548152906001019060200180831161147957829003601f168201915b505050505081565b600b805461141d9061272f565b6009546001600160a01b031633146115055760405162461bcd60e51b815260206004820181905260248201527f4f776e61626c653a2063616c6c6572206973206e6f7420746865206f776e65726044820152606401610804565b6001600160a01b0381166115815760405162461bcd60e51b815260206004820152602660248201527f4f776e61626c653a206e6577206f776e657220697320746865207a65726f206160448201527f64647265737300000000000000000000000000000000000000000000000000006064820152608401610804565b610f5f81611dd5565b60006001600160e01b031982167f80ac58cd0000000000000000000000000000000000000000000000000000000014806115ed57506001600160e01b031982167f5b5e139f00000000000000000000000000000000000000000000000000000000145b806107a857507f01ffc9a7000000000000000000000000000000000000000000000000000000006001600160e01b03198316146107a8565b6108638282612110565b600081600111158015611643575060005482105b80156107a8575050600090815260046020526040902054600160e01b900460ff161590565b600082815260066020526040808220805473ffffffffffffffffffffffffffffffffffffffff19166001600160a01b0387811691821790925591518593918516917f8c5be1e5ebec7d5bd14f71427d1e84f3dd0314c0f7b2291e5b200ac8c7c3b92591a4505050565b60006116dc826119c0565b80519091506000906001600160a01b0316336001600160a01b0316148061170a5750815161170a9033610707565b8061172557503361171a846108f9565b6001600160a01b0316145b90508061174557604051632ce44b5f60e11b815260040160405180910390fd5b846001600160a01b031682600001516001600160a01b031614611794576040517fa114810000000000000000000000000000000000000000000000000000000000815260040160405180910390fd5b6001600160a01b0384166117d4576040517fea553b3400000000000000000000000000000000000000000000000000000000815260040160405180910390fd5b6117e46000848460000151611668565b6001600160a01b038581166000908152600560209081526040808320805467ffffffffffffffff1980821667ffffffffffffffff92831660001901831617909255898616808652838620805493841693831660019081018416949094179055898652600490945282852080546001600160e01b031916909417600160a01b4290921691909102179092559086018083529120549091166118d0576000548110156118d0578251600082815260046020908152604090912080549186015167ffffffffffffffff16600160a01b026001600160e01b03199092166001600160a01b03909316929092171790555b5082846001600160a01b0316866001600160a01b03167fddf252ad1be2c89b69c2b068fc378daa952ba7f163c4a11628f55a4df523b3ef60405160405180910390a45b5050505050565b600954600160a01b900460ff166119735760405162461bcd60e51b815260206004820152601460248201527f5061757361626c653a206e6f74207061757365640000000000000000000000006044820152606401610804565b6009805460ff60a01b191690557f5db9ee0a495bf2e6ff9c91a7834c1ba4fdd244a5e8aa4e537bd38aeae4b073aa335b6040516001600160a01b03909116815260200160405180910390a1565b604080516060810182526000808252602082018190529181019190915281806001111580156119f0575060005481105b15611ad057600081815260046020908152604091829020825160608101845290546001600160a01b0381168252600160a01b810467ffffffffffffffff1692820192909252600160e01b90910460ff16151591810182905290611ace5780516001600160a01b031615611a64579392505050565b5060001901600081815260046020908152604091829020825160608101845290546001600160a01b038116808352600160a01b820467ffffffffffffffff1693830193909352600160e01b900460ff1615159281019290925215611ac9579392505050565b611a64565b505b6040517fdf2d9b4200000000000000000000000000000000000000000000000000000000815260040160405180910390fd5b6000611b0d826119c0565b9050611b1f6000838360000151611668565b80516001600160a01b039081166000908152600560209081526040808320805467ffffffffffffffff19811667ffffffffffffffff9182166000190182161790915585518516845281842080547fffffffffffffffff0000000000000000ffffffffffffffffffffffffffffffff81167001000000000000000000000000000000009182900484166001908101851690920217909155865188865260049094528285208054600160e01b9588166001600160e01b031990911617600160a01b4290941693909302929092177fffffff00ffffffffffffffffffffffffffffffffffffffffffffffffffffffff16939093179055908501808352912054909116611c7457600054811015611c74578151600082815260046020908152604090912080549185015167ffffffffffffffff16600160a01b026001600160e01b03199092166001600160a01b03909316929092171790555b50805160405183916000916001600160a01b03909116907fddf252ad1be2c89b69c2b068fc378daa952ba7f163c4a11628f55a4df523b3ef908390a450506001805481019055565b80471015611d0c5760405162461bcd60e51b815260206004820152601d60248201527f416464726573733a20696e73756666696369656e742062616c616e63650000006044820152606401610804565b6000826001600160a01b03168260405160006040518083038185875af1925050503d8060008114611d59576040519150601f19603f3d011682016040523d82523d6000602084013e611d5e565b606091505b5050905080610a115760405162461bcd60e51b815260206004820152603a60248201527f416464726573733a20756e61626c6520746f2073656e642076616c75652c207260448201527f6563697069656e74206d617920686176652072657665727465640000000000006064820152608401610804565b600980546001600160a01b0383811673ffffffffffffffffffffffffffffffffffffffff19831681179093556040519116919082907f8be0079c531659141344cd1fd0a4f28419497f9722a3daafe3b4186f6b6457e090600090a35050565b600954600160a01b900460ff1615611e8e5760405162461bcd60e51b815260206004820152601060248201527f5061757361626c653a20706175736564000000000000000000000000000000006044820152606401610804565b6009805460ff60a01b1916600160a01b1790557f62e78cea01bee320cd4e420270b5ea74000d11b0c9f74754ebdbfc544b05a2586119a33390565b604051630a85bd0160e11b81526000906001600160a01b0385169063150b7a0290611efe903390899088908890600401612854565b602060405180830381600087803b158015611f1857600080fd5b505af1925050508015611f48575060408051601f3d908101601f19168201909252611f4591810190612890565b60015b611fa3573d808015611f76576040519150601f19603f3d011682016040523d82523d6000602084013e611f7b565b606091505b508051611f9b576040516368d2bf6b60e11b815260040160405180910390fd5b805181602001fd5b6001600160e01b031916630a85bd0160e11b149050949350505050565b6060600a80546108769061272f565b6060600b80546108769061272f565b60608161201e57505060408051808201909152600181527f3000000000000000000000000000000000000000000000000000000000000000602082015290565b8160005b81156120485780612032816128ad565b91506120419050600a836127b5565b9150612022565b60008167ffffffffffffffff8111156120635761206361253b565b6040519080825280601f01601f19166020018201604052801561208d576020820181803683370190505b5090505b8415611408576120a26001836128c8565b91506120af600a866128df565b6120ba9060306127c9565b60f81b8183815181106120cf576120cf6128f3565b60200101907effffffffffffffffffffffffffffffffffffffffffffffffffffffffffffff1916908160001a905350612109600a866127b5565b9450612091565b610863828260405180602001604052806000815250610a1183838360016000546001600160a01b038516612170576040517f2e07630000000000000000000000000000000000000000000000000000000000815260040160405180910390fd5b836121a7576040517fb562e8dd00000000000000000000000000000000000000000000000000000000815260040160405180910390fd5b6001600160a01b038516600081815260056020908152604080832080547fffffffffffffffffffffffffffffffff00000000000000000000000000000000811667ffffffffffffffff8083168c0181169182176801000000000000000067ffffffffffffffff1990941690921783900481168c01811690920217909155858452600490925290912080546001600160e01b031916909217600160a01b42909216919091021790558080850183801561226857506001600160a01b0387163b15155b156122f1575b60405182906001600160a01b038916906000907fddf252ad1be2c89b69c2b068fc378daa952ba7f163c4a11628f55a4df523b3ef908290a46122b96000888480600101955088611ec9565b6122d6576040516368d2bf6b60e11b815260040160405180910390fd5b8082141561226e5782600054146122ec57600080fd5b612337565b5b6040516001830192906001600160a01b038916906000907fddf252ad1be2c89b69c2b068fc378daa952ba7f163c4a11628f55a4df523b3ef908290a4808214156122f2575b50600055611913565b82805461234c9061272f565b90600052602060002090601f01602090048101928261236e57600085556123b4565b82601f1061238757805160ff19168380011785556123b4565b828001600101855582156123b4579182015b828111156123b4578251825591602001919060010190612399565b506123c09291506123c4565b5090565b5b808211156123c057600081556001016123c5565b6001600160e01b031981168114610f5f57600080fd5b60006020828403121561240157600080fd5b813561240c816123d9565b9392505050565b80356001600160a01b038116811461242a57600080fd5b919050565b6000806040838503121561244257600080fd5b61244b83612413565b946020939093013593505050565b60005b8381101561247457818101518382015260200161245c565b838111156113165750506000910152565b6000815180845261249d816020860160208601612459565b601f01601f19169290920160200192915050565b60208152600061240c6020830184612485565b6000602082840312156124d657600080fd5b5035919050565b6000806000606084860312156124f257600080fd5b6124fb84612413565b925061250960208501612413565b9150604084013590509250925092565b6000806040838503121561252c57600080fd5b50508035926020909101359150565b634e487b7160e01b600052604160045260246000fd5b600067ffffffffffffffff8084111561256c5761256c61253b565b604051601f8501601f19908116603f011681019082821181831017156125945761259461253b565b816040528093508581528686860111156125ad57600080fd5b858560208301376000602087830101525050509392505050565b6000602082840312156125d957600080fd5b813567ffffffffffffffff8111156125f057600080fd5b8201601f8101841361260157600080fd5b61140884823560208401612551565b8035801515811461242a57600080fd5b60006020828403121561263257600080fd5b61240c82612610565b60006020828403121561264d57600080fd5b61240c82612413565b6000806040838503121561266957600080fd5b61267283612413565b915061268060208401612610565b90509250929050565b6000806000806080858703121561269f57600080fd5b6126a885612413565b93506126b660208601612413565b925060408501359150606085013567ffffffffffffffff8111156126d957600080fd5b8501601f810187136126ea57600080fd5b6126f987823560208401612551565b91505092959194509250565b6000806040838503121561271857600080fd5b61272183612413565b915061268060208401612413565b600181811c9082168061274357607f821691505b6020821081141561276457634e487b7160e01b600052602260045260246000fd5b50919050565b634e487b7160e01b600052601160045260246000fd5b600081600019048311821515161561279a5761279a61276a565b500290565b634e487b7160e01b600052601260045260246000fd5b6000826127c4576127c461279f565b500490565b600082198211156127dc576127dc61276a565b500190565b600082516127f3818460208701612459565b9190910192915050565b6000835161280f818460208801612459565b835190830190612823818360208801612459565b7f2e6a736f6e0000000000000000000000000000000000000000000000000000009101908152600501949350505050565b60006001600160a01b038087168352808616602084015250836040830152608060608301526128866080830184612485565b9695505050505050565b6000602082840312156128a257600080fd5b815161240c816123d9565b60006000198214156128c1576128c161276a565b5060010190565b6000828210156128da576128da61276a565b500390565b6000826128ee576128ee61279f565b500690565b634e487b7160e01b600052603260045260246000fdfea2646970667358221220a91127270c82d8e05594eb8684b7775aadfd91f4d8befc9e56c355aaf39714d264736f6c63430008090033",
  "linkReferences": {},
  "deployedLinkReferences": {}
}