{
  "_format": "hh-sol-artifact-1",
  "contractName": "NoMaGuild",
  "sourceName": "contracts/NoMaGuild.sol",
  "abi": [
    {
      "inputs": [
        {
          "internalType": "string",
          "name": "__symbol",
          "type": "string"
        },
        {
          "internalType": "string",
          "name": "__name",
          "type": "string"
        },
        {
          "internalType": "uint256",
          "name": "_maxMummies",
          "type": "uint256"
        },
        {
          "internalType": "uint256",
          "name": "_maxWhitelist",
          "type": "uint256"
        },
        {
          "internalType": "uint256",
          "name": "_mintLimitPerWallet",
          "type": "uint256"
        },
        {
          "internalType": "string",
          "name": "baseURI",
          "type": "string"
        },
        {
          "internalType": "string",
          "name": "_hiddenTokenURI",
          "type": "string"
        },
        {
          "internalType": "bytes32",
          "name": "_merkleRoot",
          "type": "bytes32"
        }
      ],
      "stateMutability": "nonpayable",
      "type": "constructor"
    },
    {
      "inputs": [],
      "name": "AlreadyLoaned",
      "type": "error"
    },
    {
      "inputs": [],
      "name": "ApprovalCallerNotOwnerNorApproved",
      "type": "error"
    },
    {
      "inputs": [],
      "name": "ApprovalQueryForNonexistentToken",
      "type": "error"
    },
    {
      "inputs": [],
      "name": "ApprovalToCurrentOwner",
      "type": "error"
    },
    {
      "inputs": [],
      "name": "ApproveToCaller",
      "type": "error"
    },
    {
      "inputs": [],
      "name": "BalanceQueryForZeroAddress",
      "type": "error"
    },
    {
      "inputs": [],
      "name": "CantRetriveLoanOfOtherOwner",
      "type": "error"
    },
    {
      "inputs": [],
      "name": "CantRetriveLoanToYourself",
      "type": "error"
    },
    {
      "inputs": [],
      "name": "CantTransferTokenOnLoan",
      "type": "error"
    },
    {
      "inputs": [],
      "name": "ExceededLimitPerWallet",
      "type": "error"
    },
    {
      "inputs": [],
      "name": "ExceededWhitelistSupply",
      "type": "error"
    },
    {
      "inputs": [],
      "name": "IdenticalState",
      "type": "error"
    },
    {
      "inputs": [],
      "name": "InsufficientPaymentPerItem",
      "type": "error"
    },
    {
      "inputs": [],
      "name": "LoansPaused",
      "type": "error"
    },
    {
      "inputs": [],
      "name": "MintToZeroAddress",
      "type": "error"
    },
    {
      "inputs": [],
      "name": "MintZeroQuantity",
      "type": "error"
    },
    {
      "inputs": [],
      "name": "MustOwnToken",
      "type": "error"
    },
    {
      "inputs": [],
      "name": "NoLoansToZeroAddress",
      "type": "error"
    },
    {
      "inputs": [],
      "name": "NonZeroWitdraw",
      "type": "error"
    },
    {
      "inputs": [],
      "name": "NotWhitelisted",
      "type": "error"
    },
    {
      "inputs": [],
      "name": "OwnerQueryForNonexistentToken",
      "type": "error"
    },
    {
      "inputs": [],
      "name": "PublicSaleClosed",
      "type": "error"
    },
    {
      "inputs": [],
      "name": "RefundGuaranteeExpired",
      "type": "error"
    },
    {
      "inputs": [],
      "name": "RefundGuaranteeStillActive",
      "type": "error"
    },
    {
      "inputs": [],
      "name": "Soldout",
      "type": "error"
    },
    {
      "inputs": [],
      "name": "TransferCallerNotOwnerNorApproved",
      "type": "error"
    },
    {
      "inputs": [],
      "name": "TransferFromIncorrectOwner",
      "type": "error"
    },
    {
      "inputs": [],
      "name": "TransferToNonERC721ReceiverImplementer",
      "type": "error"
    },
    {
      "inputs": [],
      "name": "TransferToZeroAddress",
      "type": "error"
    },
    {
      "inputs": [],
      "name": "WhitelistSaleNotOpen",
      "type": "error"
    },
    {
      "inputs": [],
      "name": "WhitelistSoldout",
      "type": "error"
    },
    {
      "anonymous": false,
      "inputs": [
        {
          "indexed": true,
          "internalType": "address",
          "name": "owner",
          "type": "address"
        },
        {
          "indexed": true,
          "internalType": "address",
          "name": "approved",
          "type": "address"
        },
        {
          "indexed": true,
          "internalType": "uint256",
          "name": "tokenId",
          "type": "uint256"
        }
      ],
      "name": "Approval",
      "type": "event"
    },
    {
      "anonymous": false,
      "inputs": [
        {
          "indexed": true,
          "internalType": "address",
          "name": "owner",
          "type": "address"
        },
        {
          "indexed": true,
          "internalType": "address",
          "name": "operator",
          "type": "address"
        },
        {
          "indexed": false,
          "internalType": "bool",
          "name": "approved",
          "type": "bool"
        }
      ],
      "name": "ApprovalForAll",
      "type": "event"
    },
    {
      "anonymous": false,
      "inputs": [
        {
          "indexed": true,
          "internalType": "address",
          "name": "from",
          "type": "address"
        },
        {
          "indexed": true,
          "internalType": "address",
          "name": "to",
          "type": "address"
        },
        {
          "indexed": false,
          "internalType": "uint256",
          "name": "value",
          "type": "uint256"
        }
      ],
      "name": "Loan",
      "type": "event"
    },
    {
      "anonymous": false,
      "inputs": [
        {
          "indexed": true,
          "internalType": "address",
          "name": "from",
          "type": "address"
        },
        {
          "indexed": true,
          "internalType": "address",
          "name": "to",
          "type": "address"
        },
        {
          "indexed": false,
          "internalType": "uint256",
          "name": "value",
          "type": "uint256"
        }
      ],
      "name": "LoanRetrieved",
      "type": "event"
    },
    {
      "anonymous": false,
      "inputs": [
        {
          "indexed": false,
          "internalType": "bool",
          "name": "pause",
          "type": "bool"
        }
      ],
      "name": "LoansOpenEvent",
      "type": "event"
    },
    {
      "anonymous": false,
      "inputs": [
        {
          "indexed": true,
          "internalType": "address",
          "name": "previousOwner",
          "type": "address"
        },
        {
          "indexed": true,
          "internalType": "address",
          "name": "newOwner",
          "type": "address"
        }
      ],
      "name": "OwnershipTransferred",
      "type": "event"
    },
    {
      "anonymous": false,
      "inputs": [
        {
          "indexed": false,
          "internalType": "address",
          "name": "account",
          "type": "address"
        }
      ],
      "name": "Paused",
      "type": "event"
    },
    {
      "anonymous": false,
      "inputs": [
        {
          "indexed": false,
          "internalType": "bool",
          "name": "pause",
          "type": "bool"
        }
      ],
      "name": "PublicSaleEvent",
      "type": "event"
    },
    {
      "anonymous": false,
      "inputs": [
        {
          "indexed": true,
          "internalType": "address",
          "name": "from",
          "type": "address"
        },
        {
          "indexed": true,
          "internalType": "address",
          "name": "to",
          "type": "address"
        },
        {
          "indexed": true,
          "internalType": "uint256",
          "name": "tokenId",
          "type": "uint256"
        }
      ],
      "name": "Transfer",
      "type": "event"
    },
    {
      "anonymous": false,
      "inputs": [
        {
          "indexed": false,
          "internalType": "address",
          "name": "account",
          "type": "address"
        }
      ],
      "name": "Unpaused",
      "type": "event"
    },
    {
      "anonymous": false,
      "inputs": [
        {
          "indexed": false,
          "internalType": "bool",
          "name": "pause",
          "type": "bool"
        }
      ],
      "name": "WhitelistSaleEvent",
      "type": "event"
    },
    {
      "inputs": [],
      "name": "PUBLIC_PRICE",
      "outputs": [
        {
          "internalType": "uint256",
          "name": "",
          "type": "uint256"
        }
      ],
      "stateMutability": "view",
      "type": "function"
    },
    {
      "inputs": [],
      "name": "ROYALTY_RATE",
      "outputs": [
        {
          "internalType": "uint256",
          "name": "",
          "type": "uint256"
        }
      ],
      "stateMutability": "view",
      "type": "function"
    },
    {
      "inputs": [],
      "name": "WHITELIST_PRICE",
      "outputs": [
        {
          "internalType": "uint256",
          "name": "",
          "type": "uint256"
        }
      ],
      "stateMutability": "view",
      "type": "function"
    },
    {
      "inputs": [
        {
          "internalType": "address",
          "name": "to",
          "type": "address"
        },
        {
          "internalType": "uint256",
          "name": "tokenId",
          "type": "uint256"
        }
      ],
      "name": "approve",
      "outputs": [],
      "stateMutability": "nonpayable",
      "type": "function"
    },
    {
      "inputs": [],
      "name": "areLoansPaused",
      "outputs": [
        {
          "internalType": "bool",
          "name": "",
          "type": "bool"
        }
      ],
      "stateMutability": "view",
      "type": "function"
    },
    {
      "inputs": [
        {
          "internalType": "address",
          "name": "owner",
          "type": "address"
        }
      ],
      "name": "balanceOf",
      "outputs": [
        {
          "internalType": "uint256",
          "name": "",
          "type": "uint256"
        }
      ],
      "stateMutability": "view",
      "type": "function"
    },
    {
      "inputs": [],
      "name": "baseTokenURI",
      "outputs": [
        {
          "internalType": "string",
          "name": "",
          "type": "string"
        }
      ],
      "stateMutability": "view",
      "type": "function"
    },
    {
      "inputs": [
        {
          "internalType": "uint256",
          "name": "tokenId",
          "type": "uint256"
        }
      ],
      "name": "burn",
      "outputs": [],
      "stateMutability": "nonpayable",
      "type": "function"
    },
    {
      "inputs": [
        {
          "internalType": "uint256",
          "name": "tokenId",
          "type": "uint256"
        }
      ],
      "name": "getApproved",
      "outputs": [
        {
          "internalType": "address",
          "name": "",
          "type": "address"
        }
      ],
      "stateMutability": "view",
      "type": "function"
    },
    {
      "inputs": [
        {
          "internalType": "address",
          "name": "_to",
          "type": "address"
        },
        {
          "internalType": "uint256",
          "name": "_quantity",
          "type": "uint256"
        }
      ],
      "name": "giveawayMint",
      "outputs": [],
      "stateMutability": "nonpayable",
      "type": "function"
    },
    {
      "inputs": [],
      "name": "hiddenTokenURI",
      "outputs": [
        {
          "internalType": "string",
          "name": "",
          "type": "string"
        }
      ],
      "stateMutability": "view",
      "type": "function"
    },
    {
      "inputs": [
        {
          "internalType": "address",
          "name": "owner",
          "type": "address"
        },
        {
          "internalType": "address",
          "name": "operator",
          "type": "address"
        }
      ],
      "name": "isApprovedForAll",
      "outputs": [
        {
          "internalType": "bool",
          "name": "",
          "type": "bool"
        }
      ],
      "stateMutability": "view",
      "type": "function"
    },
    {
      "inputs": [],
      "name": "isPublicSaleOpen",
      "outputs": [
        {
          "internalType": "bool",
          "name": "",
          "type": "bool"
        }
      ],
      "stateMutability": "view",
      "type": "function"
    },
    {
      "inputs": [],
      "name": "isWhitelistSaleOpen",
      "outputs": [
        {
          "internalType": "bool",
          "name": "",
          "type": "bool"
        }
      ],
      "stateMutability": "view",
      "type": "function"
    },
    {
      "inputs": [
        {
          "internalType": "uint256",
          "name": "tokenId",
          "type": "uint256"
        },
        {
          "internalType": "address",
          "name": "receiver",
          "type": "address"
        }
      ],
      "name": "loan",
      "outputs": [],
      "stateMutability": "nonpayable",
      "type": "function"
    },
    {
      "inputs": [
        {
          "internalType": "address",
          "name": "owner",
          "type": "address"
        }
      ],
      "name": "loanedBalanceOf",
      "outputs": [
        {
          "internalType": "uint256",
          "name": "",
          "type": "uint256"
        }
      ],
      "stateMutability": "view",
      "type": "function"
    },
    {
      "inputs": [
        {
          "internalType": "address",
          "name": "owner",
          "type": "address"
        }
      ],
      "name": "loanedTokensByAddress",
      "outputs": [
        {
          "internalType": "uint256[]",
          "name": "",
          "type": "uint256[]"
        }
      ],
      "stateMutability": "view",
      "type": "function"
    },
    {
      "inputs": [],
      "name": "maxMummies",
      "outputs": [
        {
          "internalType": "uint256",
          "name": "",
          "type": "uint256"
        }
      ],
      "stateMutability": "view",
      "type": "function"
    },
    {
      "inputs": [],
      "name": "maxWhitelist",
      "outputs": [
        {
          "internalType": "uint256",
          "name": "",
          "type": "uint256"
        }
      ],
      "stateMutability": "view",
      "type": "function"
    },
    {
      "inputs": [],
      "name": "mintLimitPerWallet",
      "outputs": [
        {
          "internalType": "uint256",
          "name": "",
          "type": "uint256"
        }
      ],
      "stateMutability": "view",
      "type": "function"
    },
    {
      "inputs": [],
      "name": "name",
      "outputs": [
        {
          "internalType": "string",
          "name": "",
          "type": "string"
        }
      ],
      "stateMutability": "view",
      "type": "function"
    },
    {
      "inputs": [],
      "name": "owner",
      "outputs": [
        {
          "internalType": "address",
          "name": "",
          "type": "address"
        }
      ],
      "stateMutability": "view",
      "type": "function"
    },
    {
      "inputs": [
        {
          "internalType": "uint256",
          "name": "tokenId",
          "type": "uint256"
        }
      ],
      "name": "ownerOf",
      "outputs": [
        {
          "internalType": "address",
          "name": "",
          "type": "address"
        }
      ],
      "stateMutability": "view",
      "type": "function"
    },
    {
      "inputs": [],
      "name": "pause",
      "outputs": [],
      "stateMutability": "nonpayable",
      "type": "function"
    },
    {
      "inputs": [],
      "name": "paused",
      "outputs": [
        {
          "internalType": "bool",
          "name": "",
          "type": "bool"
        }
      ],
      "stateMutability": "view",
      "type": "function"
    },
    {
      "inputs": [
        {
          "internalType": "uint256",
          "name": "_quantity",
          "type": "uint256"
        }
      ],
      "name": "publicMint",
      "outputs": [],
      "stateMutability": "payable",
      "type": "function"
    },
    {
      "inputs": [
        {
          "internalType": "uint256",
          "name": "_tokenId",
          "type": "uint256"
        }
      ],
      "name": "refund",
      "outputs": [],
      "stateMutability": "nonpayable",
      "type": "function"
    },
    {
      "inputs": [],
      "name": "refundGuaranteeActive",
      "outputs": [
        {
          "internalType": "bool",
          "name": "",
          "type": "bool"
        }
      ],
      "stateMutability": "view",
      "type": "function"
    },
    {
      "inputs": [],
      "name": "refundStartTime",
      "outputs": [
        {
          "internalType": "uint256",
          "name": "",
          "type": "uint256"
        }
      ],
      "stateMutability": "view",
      "type": "function"
    },
    {
      "inputs": [],
      "name": "renounceOwnership",
      "outputs": [],
      "stateMutability": "nonpayable",
      "type": "function"
    },
    {
      "inputs": [
        {
          "internalType": "uint256",
          "name": "tokenId",
          "type": "uint256"
        }
      ],
      "name": "retrieveLoan",
      "outputs": [],
      "stateMutability": "nonpayable",
      "type": "function"
    },
    {
      "inputs": [
        {
          "internalType": "uint256",
          "name": "",
          "type": "uint256"
        },
        {
          "internalType": "uint256",
          "name": "salePrice",
          "type": "uint256"
        }
      ],
      "name": "royaltyInfo",
      "outputs": [
        {
          "internalType": "address",
          "name": "receiver",
          "type": "address"
        },
        {
          "internalType": "uint256",
          "name": "royaltyAmount",
          "type": "uint256"
        }
      ],
      "stateMutability": "view",
      "type": "function"
    },
    {
      "inputs": [
        {
          "internalType": "address",
          "name": "from",
          "type": "address"
        },
        {
          "internalType": "address",
          "name": "to",
          "type": "address"
        },
        {
          "internalType": "uint256",
          "name": "tokenId",
          "type": "uint256"
        }
      ],
      "name": "safeTransferFrom",
      "outputs": [],
      "stateMutability": "nonpayable",
      "type": "function"
    },
    {
      "inputs": [
        {
          "internalType": "address",
          "name": "from",
          "type": "address"
        },
        {
          "internalType": "address",
          "name": "to",
          "type": "address"
        },
        {
          "internalType": "uint256",
          "name": "tokenId",
          "type": "uint256"
        },
        {
          "internalType": "bytes",
          "name": "_data",
          "type": "bytes"
        }
      ],
      "name": "safeTransferFrom",
      "outputs": [],
      "stateMutability": "nonpayable",
      "type": "function"
    },
    {
      "inputs": [
        {
          "internalType": "address",
          "name": "operator",
          "type": "address"
        },
        {
          "internalType": "bool",
          "name": "approved",
          "type": "bool"
        }
      ],
      "name": "setApprovalForAll",
      "outputs": [],
      "stateMutability": "nonpayable",
      "type": "function"
    },
    {
      "inputs": [
        {
          "internalType": "string",
          "name": "baseURI",
          "type": "string"
        }
      ],
      "name": "setBaseURI",
      "outputs": [],
      "stateMutability": "nonpayable",
      "type": "function"
    },
    {
      "inputs": [
        {
          "internalType": "string",
          "name": "hiddenURI",
          "type": "string"
        }
      ],
      "name": "setHiddenURI",
      "outputs": [],
      "stateMutability": "nonpayable",
      "type": "function"
    },
    {
      "inputs": [
        {
          "internalType": "bool",
          "name": "_b",
          "type": "bool"
        }
      ],
      "name": "setLoansPaused",
      "outputs": [],
      "stateMutability": "nonpayable",
      "type": "function"
    },
    {
      "inputs": [
        {
          "internalType": "bool",
          "name": "_b",
          "type": "bool"
        }
      ],
      "name": "setPublicSale",
      "outputs": [],
      "stateMutability": "nonpayable",
      "type": "function"
    },
    {
      "inputs": [
        {
          "internalType": "bool",
          "name": "_b",
          "type": "bool"
        }
      ],
      "name": "setWhitelistSale",
      "outputs": [],
      "stateMutability": "nonpayable",
      "type": "function"
    },
    {
      "inputs": [
        {
          "internalType": "bytes4",
          "name": "interfaceId",
          "type": "bytes4"
        }
      ],
      "name": "supportsInterface",
      "outputs": [
        {
          "internalType": "bool",
          "name": "",
          "type": "bool"
        }
      ],
      "stateMutability": "view",
      "type": "function"
    },
    {
      "inputs": [],
      "name": "symbol",
      "outputs": [
        {
          "internalType": "string",
          "name": "",
          "type": "string"
        }
      ],
      "stateMutability": "view",
      "type": "function"
    },
    {
      "inputs": [
        {
          "internalType": "uint256",
          "name": "",
          "type": "uint256"
        }
      ],
      "name": "tokenOwnersOnLoan",
      "outputs": [
        {
          "internalType": "address",
          "name": "",
          "type": "address"
        }
      ],
      "stateMutability": "view",
      "type": "function"
    },
    {
      "inputs": [
        {
          "internalType": "uint256",
          "name": "tokenId",
          "type": "uint256"
        }
      ],
      "name": "tokenURI",
      "outputs": [
        {
          "internalType": "string",
          "name": "",
          "type": "string"
        }
      ],
      "stateMutability": "view",
      "type": "function"
    },
    {
      "inputs": [],
      "name": "totalLoaned",
      "outputs": [
        {
          "internalType": "uint256",
          "name": "",
          "type": "uint256"
        }
      ],
      "stateMutability": "view",
      "type": "function"
    },
    {
      "inputs": [
        {
          "internalType": "address",
          "name": "",
          "type": "address"
        }
      ],
      "name": "totalLoanedPerAddress",
      "outputs": [
        {
          "internalType": "uint256",
          "name": "",
          "type": "uint256"
        }
      ],
      "stateMutability": "view",
      "type": "function"
    },
    {
      "inputs": [],
      "name": "totalSupply",
      "outputs": [
        {
          "internalType": "uint256",
          "name": "",
          "type": "uint256"
        }
      ],
      "stateMutability": "view",
      "type": "function"
    },
    {
      "inputs": [
        {
          "internalType": "address",
          "name": "from",
          "type": "address"
        },
        {
          "internalType": "address",
          "name": "to",
          "type": "address"
        },
        {
          "internalType": "uint256",
          "name": "tokenId",
          "type": "uint256"
        }
      ],
      "name": "transferFrom",
      "outputs": [],
      "stateMutability": "nonpayable",
      "type": "function"
    },
    {
      "inputs": [
        {
          "internalType": "address",
          "name": "newOwner",
          "type": "address"
        }
      ],
      "name": "transferOwnership",
      "outputs": [],
      "stateMutability": "nonpayable",
      "type": "function"
    },
    {
      "inputs": [],
      "name": "unpause",
      "outputs": [],
      "stateMutability": "nonpayable",
      "type": "function"
    },
    {
      "inputs": [
        {
          "internalType": "bytes32[]",
          "name": "_merkleProof",
          "type": "bytes32[]"
        },
        {
          "internalType": "uint256",
          "name": "_quantity",
          "type": "uint256"
        }
      ],
      "name": "whitelistMint",
      "outputs": [],
      "stateMutability": "payable",
      "type": "function"
    },
    {
      "inputs": [],
      "name": "whitelistedMummiesMinted",
      "outputs": [
        {
          "internalType": "uint256",
          "name": "",
          "type": "uint256"
        }
      ],
      "stateMutability": "view",
      "type": "function"
    },
    {
      "inputs": [],
      "name": "widthdraw",
      "outputs": [],
      "stateMutability": "nonpayable",
      "type": "function"
    }
  ],
  "bytecode": "0x60e0604052600d805461ffff1916905542600e5560006013556014805460ff191660011790553480156200003257600080fd5b5060405162003c2b38038062003c2b833981016040819052620000559162000329565b8751889088906200006e906002906020850190620001b6565b50805162000084906003906020840190620001b6565b506001600055505060016008556200009c33620000ec565b6009805460ff60a01b19169055608086905260a085905260c0849052600a8190558151620000d290600c906020850190620001b6565b50620000de836200013e565b505050505050505062000446565b600980546001600160a01b038381166001600160a01b0319831681179093556040519116919082907f8be0079c531659141344cd1fd0a4f28419497f9722a3daafe3b4186f6b6457e090600090a35050565b6009546001600160a01b031633146200019d5760405162461bcd60e51b815260206004820181905260248201527f4f776e61626c653a2063616c6c6572206973206e6f7420746865206f776e6572604482015260640160405180910390fd5b8051620001b290600b906020840190620001b6565b5050565b828054620001c49062000409565b90600052602060002090601f016020900481019282620001e8576000855562000233565b82601f106200020357805160ff191683800117855562000233565b8280016001018555821562000233579182015b828111156200023357825182559160200191906001019062000216565b506200024192915062000245565b5090565b5b8082111562000241576000815560010162000246565b634e487b7160e01b600052604160045260246000fd5b600082601f8301126200028457600080fd5b81516001600160401b0380821115620002a157620002a16200025c565b604051601f8301601f19908116603f01168101908282118183101715620002cc57620002cc6200025c565b81604052838152602092508683858801011115620002e957600080fd5b600091505b838210156200030d5785820183015181830184015290820190620002ee565b838211156200031f5760008385830101525b9695505050505050565b600080600080600080600080610100898b0312156200034757600080fd5b88516001600160401b03808211156200035f57600080fd5b6200036d8c838d0162000272565b995060208b01519150808211156200038457600080fd5b620003928c838d0162000272565b985060408b0151975060608b0151965060808b0151955060a08b0151915080821115620003be57600080fd5b620003cc8c838d0162000272565b945060c08b0151915080821115620003e357600080fd5b50620003f28b828c0162000272565b92505060e089015190509295985092959890939650565b600181811c908216806200041e57607f821691505b602082108114156200044057634e487b7160e01b600052602260045260246000fd5b50919050565b60805160a05160c051613784620004a76000396000818161095c01528181610fa2015261130601526000818161087f01528181610ef40152610ff601526000818161057201528181610ac201528181610e72015261127201526137846000f3fe60806040526004361061034a5760003560e01c80635f9be2ac116101bb578063b88d4fde116100f7578063dbcc1ab611610095578063e985e9c51161006f578063e985e9c51461097e578063ec83ebbd146109c7578063ed5a2ec1146109dc578063f2fde38b14610a0957600080fd5b8063dbcc1ab614610916578063dc12bbf714610930578063e0f9b4791461094a57600080fd5b8063c87b56dd116100d1578063c87b56dd146108a1578063c92dae4f146108c1578063ca7ce3ec146108e1578063d547cfb71461090157600080fd5b8063b88d4fde1461082d578063bbaac02f1461084d578063bf0d96c31461086d57600080fd5b8063751c1a8e116101645780638da5cb5b1161013e5780638da5cb5b146107c55780638e7170b0146107e357806395d89b41146107f8578063a22cb4651461080d57600080fd5b8063751c1a8e146107705780637f517369146107905780638456cb59146107b057600080fd5b80636aba899b116101955780636aba899b1461072557806370a082311461073b578063715018a61461075b57600080fd5b80635f9be2ac146106bc578063611f3f10146106e95780636352211e1461070557600080fd5b80632db115441161028a57806342966c68116102335780635a32baec1161020d5780635a32baec146106485780635aca1bb61461065d5780635c975abb1461067d5780635e03a6aa1461069c57600080fd5b806342966c68146105f357806352b50a2a1461061357806355f804b31461062857600080fd5b80633f4ba83a116102645780633f4ba83a146105a957806340e37ff1146105be57806342842e0e146105d357600080fd5b80632db115441461054d5780633007d626146105605780633a838c2a1461059457600080fd5b806318160ddd116102f757806323fa659b116102d157806323fa659b146104a5578063278ecde1146104db5780632904e6d9146104fb5780632a55205a1461050e57600080fd5b806318160ddd146104495780631a6949e31461046657806323b872dd1461048557600080fd5b8063081812fc11610328578063081812fc146103c8578063095ea7b31461040057806317e7f2951461042057600080fd5b806301ffc9a71461034f578063048266241461038457806306fdde03146103a6575b600080fd5b34801561035b57600080fd5b5061036f61036a366004613132565b610a29565b60405190151581526020015b60405180910390f35b34801561039057600080fd5b506103a461039f366004613172565b610a6d565b005b3480156103b257600080fd5b506103bb610b14565b60405161037b91906131f4565b3480156103d457600080fd5b506103e86103e3366004613207565b610ba6565b6040516001600160a01b03909116815260200161037b565b34801561040c57600080fd5b506103a461041b366004613172565b610c03565b34801561042c57600080fd5b5061043b669184e72a00000081565b60405190815260200161037b565b34801561045557600080fd5b50600154600054036000190161043b565b34801561047257600080fd5b50600d5461036f90610100900460ff1681565b34801561049157600080fd5b506103a46104a0366004613220565b610cc3565b3480156104b157600080fd5b506103e86104c0366004613207565b6012602052600090815260409020546001600160a01b031681565b3480156104e757600080fd5b506103a46104f6366004613207565b610cce565b6103a461050936600461325c565b610e12565b34801561051a57600080fd5b5061052e6105293660046132d7565b6111ab565b604080516001600160a01b03909316835260208301919091520161037b565b6103a461055b366004613207565b6111d1565b34801561056c57600080fd5b5061043b7f000000000000000000000000000000000000000000000000000000000000000081565b3480156105a057600080fd5b5060135461043b565b3480156105b557600080fd5b506103a461139d565b3480156105ca57600080fd5b5061043b600281565b3480156105df57600080fd5b506103a46105ee366004613220565b6113ef565b3480156105ff57600080fd5b506103a461060e366004613207565b61140a565b34801561061f57600080fd5b506103a4611487565b34801561063457600080fd5b506103a4610643366004613385565b611564565b34801561065457600080fd5b5061036f6115bf565b34801561066957600080fd5b506103a46106783660046133de565b6115db565b34801561068957600080fd5b50600954600160a01b900460ff1661036f565b3480156106a857600080fd5b5061043b6106b73660046133f9565b6116a7565b3480156106c857600080fd5b5061043b6106d73660046133f9565b60116020526000908152604090205481565b3480156106f557600080fd5b5061043b67012309ce5400000081565b34801561071157600080fd5b506103e8610720366004613207565b6116ec565b34801561073157600080fd5b5061043b600e5481565b34801561074757600080fd5b5061043b6107563660046133f9565b6116fe565b34801561076757600080fd5b506103a461174d565b34801561077c57600080fd5b506103a461078b366004613207565b61179f565b34801561079c57600080fd5b506103a46107ab3660046133de565b611951565b3480156107bc57600080fd5b506103a4611a04565b3480156107d157600080fd5b506009546001600160a01b03166103e8565b3480156107ef57600080fd5b5061043b611a54565b34801561080457600080fd5b506103bb611a64565b34801561081957600080fd5b506103a4610828366004613414565b611a73565b34801561083957600080fd5b506103a4610848366004613447565b611b22565b34801561085957600080fd5b506103a4610868366004613385565b611b73565b34801561087957600080fd5b5061043b7f000000000000000000000000000000000000000000000000000000000000000081565b3480156108ad57600080fd5b506103bb6108bc366004613207565b611bce565b3480156108cd57600080fd5b506103a46108dc3660046134c3565b611c55565b3480156108ed57600080fd5b506103a46108fc3660046133de565b611e59565b34801561090d57600080fd5b506103bb611f0c565b34801561092257600080fd5b5060145461036f9060ff1681565b34801561093c57600080fd5b50600d5461036f9060ff1681565b34801561095657600080fd5b5061043b7f000000000000000000000000000000000000000000000000000000000000000081565b34801561098a57600080fd5b5061036f6109993660046134e6565b6001600160a01b03918216600090815260076020908152604080832093909416825291909152205460ff1690565b3480156109d357600080fd5b506103bb611f9a565b3480156109e857600080fd5b506109fc6109f73660046133f9565b611fa7565b60405161037b9190613510565b348015610a1557600080fd5b506103a4610a243660046133f9565b6120b6565b60006001600160e01b031982167f2a55205a000000000000000000000000000000000000000000000000000000001480610a675750610a6782612183565b92915050565b6009546001600160a01b03163314610aba5760405162461bcd60e51b8152602060048201819052602482015260008051602061372f83398151915260448201526064015b60405180910390fd5b6001546000547f00000000000000000000000000000000000000000000000000000000000000009190036000190110610b065760405163355a428160e01b815260040160405180910390fd5b610b10828261221e565b5050565b606060028054610b2390613554565b80601f0160208091040260200160405190810160405280929190818152602001828054610b4f90613554565b8015610b9c5780601f10610b7157610100808354040283529160200191610b9c565b820191906000526020600020905b815481529060010190602001808311610b7f57829003601f168201915b5050505050905090565b6000610bb182612228565b610be7576040517fcf4700e400000000000000000000000000000000000000000000000000000000815260040160405180910390fd5b506000908152600660205260409020546001600160a01b031690565b6000610c0e826116ec565b9050806001600160a01b0316836001600160a01b03161415610c5c576040517f943f7b8c00000000000000000000000000000000000000000000000000000000815260040160405180910390fd5b336001600160a01b03821614801590610c7c5750610c7a8133610999565b155b15610cb3576040517fcfb3b94200000000000000000000000000000000000000000000000000000000815260040160405180910390fd5b610cbe838383612261565b505050565b610cbe8383836122ca565b60026008541415610d215760405162461bcd60e51b815260206004820152601f60248201527f5265656e7472616e637947756172643a207265656e7472616e742063616c6c006044820152606401610ab1565b6002600855610d2e6115bf565b610d64576040517fbab3da9800000000000000000000000000000000000000000000000000000000815260040160405180910390fd5b33610d6e826116ec565b6001600160a01b031614610d95576040516326da4a8160e21b815260040160405180910390fd5b610db133610dab6009546001600160a01b031690565b836113ef565b6000818152600f6020526040902054669184e72a0000009060ff16610ddb575067012309ce540000005b604051339082156108fc029083906000818181858888f19350505050158015610e08573d6000803e3d6000fd5b5050600160085550565b60026008541415610e655760405162461bcd60e51b815260206004820152601f60248201527f5265656e7472616e637947756172643a207265656e7472616e742063616c6c006044820152606401610ab1565b60026008556001546000547f00000000000000000000000000000000000000000000000000000000000000009190036000190110610eb65760405163355a428160e01b815260040160405180910390fd5b600d5460ff16610ef2576040517f3676e3ca00000000000000000000000000000000000000000000000000000000815260040160405180910390fd5b7f0000000000000000000000000000000000000000000000000000000000000000610f1b611a54565b10610f52576040517ff038e66500000000000000000000000000000000000000000000000000000000815260040160405180910390fd5b600954600160a01b900460ff1615610f9f5760405162461bcd60e51b815260206004820152601060248201526f14185d5cd8589b194e881c185d5cd95960821b6044820152606401610ab1565b337f000000000000000000000000000000000000000000000000000000000000000082610fcb836116fe565b610fd591906135a5565b1115610ff45760405163a053177960e01b815260040160405180910390fd5b7f00000000000000000000000000000000000000000000000000000000000000008261101e611a54565b61102891906135a5565b1115611060576040517f6d79ce3300000000000000000000000000000000000000000000000000000000815260040160405180910390fd5b61107182669184e72a0000006135bd565b3410156110915760405163daeb959760e01b815260040160405180910390fd5b6040516bffffffffffffffffffffffff19606083901b16602082015260009060340160405160208183030381529060405280519060200120905061110c85858080602002602001604051908101604052809392919081815260200183836020028082843760009201919091525050600a549150849050612520565b611142576040517f584a793800000000000000000000000000000000000000000000000000000000815260040160405180910390fd5b6000545b8360005461115491906135a5565b811015611194576000818152600f60205260409020805460ff19166001179055611182601080546001019055565b8061118c816135dc565b915050611146565b5061119f828461221e565b50506001600855505050565b6000803060646111bc6002866135bd565b6111c6919061360d565b915091509250929050565b600260085414156112245760405162461bcd60e51b815260206004820152601f60248201527f5265656e7472616e637947756172643a207265656e7472616e742063616c6c006044820152606401610ab1565b6002600855600d54610100900460ff1661126a576040517fdd4e010600000000000000000000000000000000000000000000000000000000815260040160405180910390fd5b6001546000547f000000000000000000000000000000000000000000000000000000000000000091900360001901106112b65760405163355a428160e01b815260040160405180910390fd5b600954600160a01b900460ff16156113035760405162461bcd60e51b815260206004820152601060248201526f14185d5cd8589b194e881c185d5cd95960821b6044820152606401610ab1565b337f00000000000000000000000000000000000000000000000000000000000000008261132f836116fe565b61133991906135a5565b11156113585760405163a053177960e01b815260040160405180910390fd5b61136a8267012309ce540000006135bd565b34101561138a5760405163daeb959760e01b815260040160405180910390fd5b611394818361221e565b50506001600855565b6009546001600160a01b031633146113e55760405162461bcd60e51b8152602060048201819052602482015260008051602061372f8339815191526044820152606401610ab1565b6113ed612536565b565b610cbe83838360405180602001604052806000815250611b22565b6000611415826125dc565b80519091506000906001600160a01b0316336001600160a01b03161480611443575081516114439033610999565b8061145e57503361145384610ba6565b6001600160a01b0316145b90508061147e57604051632ce44b5f60e11b815260040160405180910390fd5b610cbe8361271e565b6009546001600160a01b031633146114cf5760405162461bcd60e51b8152602060048201819052602482015260008051602061372f8339815191526044820152606401610ab1565b4780611507576040517f87e8dc8100000000000000000000000000000000000000000000000000000000815260040160405180910390fd5b61150f6115bf565b15611546576040517f2177733c00000000000000000000000000000000000000000000000000000000815260040160405180910390fd5b61156161155b6009546001600160a01b031690565b826128ea565b50565b6009546001600160a01b031633146115ac5760405162461bcd60e51b8152602060048201819052602482015260008051602061372f8339815191526044820152606401610ab1565b8051610b1090600b906020840190613083565b6000600e54640134fd90006115d491906135a5565b4210905090565b6009546001600160a01b031633146116235760405162461bcd60e51b8152602060048201819052602482015260008051602061372f8339815191526044820152606401610ab1565b600d5460ff6101009091041615158115151415611653576040516352cfd4a560e01b815260040160405180910390fd5b600d80548215156101000261ff00199091161790556040517f819bd618bf2c153d8a6d9e6174bc4b17fdff7d7e295b8a3242690b290bfc94a39061169c90831515815260200190565b60405180910390a150565b60006001600160a01b0382166116d0576040516323d3ad8160e21b815260040160405180910390fd5b506001600160a01b031660009081526011602052604090205490565b60006116f7826125dc565b5192915050565b60006001600160a01b038216611727576040516323d3ad8160e21b815260040160405180910390fd5b506001600160a01b031660009081526005602052604090205467ffffffffffffffff1690565b6009546001600160a01b031633146117955760405162461bcd60e51b8152602060048201819052602482015260008051602061372f8339815191526044820152606401610ab1565b6113ed6000612a03565b600260085414156117f25760405162461bcd60e51b815260206004820152601f60248201527f5265656e7472616e637947756172643a207265656e7472616e742063616c6c006044820152606401610ab1565b60026008556000611802826116ec565b90506001600160a01b038116331415611847576040517f38c28c8500000000000000000000000000000000000000000000000000000000815260040160405180910390fd5b6000828152601260205260409020546001600160a01b03163314611897576040517f264c585600000000000000000000000000000000000000000000000000000000815260040160405180910390fd5b6000828152601260209081526040808320805473ffffffffffffffffffffffffffffffffffffffff1916905533835260119091529020546118d9600182613621565b336000908152601160205260409020556013546118f890600190613621565b6013556119068233856113ef565b60405183815233906001600160a01b038416907f484cfdc469392f506ef19931236d4aa91abbd5e8e704f155c0a971ee8908bd5f906020015b60405180910390a35050600160085550565b6009546001600160a01b031633146119995760405162461bcd60e51b8152602060048201819052602482015260008051602061372f8339815191526044820152606401610ab1565b60145460ff16151581151514156119c3576040516352cfd4a560e01b815260040160405180910390fd5b6014805460ff19168215159081179091556040519081527fb2611291de5e2ebd057b8ead41f73c452adb9e52b8a0edf6c660f80a25a39ca49060200161169c565b6009546001600160a01b03163314611a4c5760405162461bcd60e51b8152602060048201819052602482015260008051602061372f8339815191526044820152606401610ab1565b6113ed612a62565b6000611a5f60105490565b905090565b606060038054610b2390613554565b6001600160a01b038216331415611ab6576040517fb06307db00000000000000000000000000000000000000000000000000000000815260040160405180910390fd5b3360008181526007602090815260408083206001600160a01b03871680855290835292819020805460ff191686151590811790915590519081529192917f17307eab39ab6107e8899845ad3d59bd9653f200f220920489ca2b5937696c31910160405180910390a35050565b611b2d8484846122ca565b6001600160a01b0383163b15158015611b4f5750611b4d84848484612aea565b155b15611b6d576040516368d2bf6b60e11b815260040160405180910390fd5b50505050565b6009546001600160a01b03163314611bbb5760405162461bcd60e51b8152602060048201819052602482015260008051602061372f8339815191526044820152606401610ab1565b8051610b1090600c906020840190613083565b60606000611bda612be1565b90506000611be6612bf0565b90508151600014158015611bf957508051155b611c225780604051602001611c0e9190613638565b604051602081830303815290604052611c4d565b81611c2c85612bff565b604051602001611c3d929190613654565b6040516020818303038152906040525b949350505050565b60026008541415611ca85760405162461bcd60e51b815260206004820152601f60248201527f5265656e7472616e637947756172643a207265656e7472616e742063616c6c006044820152606401610ab1565b600260085560145460ff1615611cea576040517ff29e09e100000000000000000000000000000000000000000000000000000000815260040160405180910390fd5b33611cf4836116ec565b6001600160a01b031614611d1b576040516326da4a8160e21b815260040160405180910390fd5b6001600160a01b038116611d5b576040517feb00a46300000000000000000000000000000000000000000000000000000000815260040160405180910390fd5b6000828152601260205260409020546001600160a01b031615611daa576040517f353f458e00000000000000000000000000000000000000000000000000000000815260040160405180910390fd5b611db53382846113ef565b6000828152601260209081526040808320805473ffffffffffffffffffffffffffffffffffffffff19163390811790915583526011909152902054611dfb8160016135a5565b33600090815260116020526040902055601354611e199060016135a5565b6013556040518381526001600160a01b0383169033907f4d699c2a3f40be9f50773ce2da5d80769decfefe6c4d557178af6e4a412d29a79060200161193f565b6009546001600160a01b03163314611ea15760405162461bcd60e51b8152602060048201819052602482015260008051602061372f8339815191526044820152606401610ab1565b600d5460ff1615158115151415611ecb576040516352cfd4a560e01b815260040160405180910390fd5b600d805460ff19168215159081179091556040519081527fbbfb0dda705aa1c7368a1e31138d53b5eebfd36eb343b4560d9bdf0a50e9a4ce9060200161169c565b600b8054611f1990613554565b80601f0160208091040260200160405190810160405280929190818152602001828054611f4590613554565b8015611f925780601f10611f6757610100808354040283529160200191611f92565b820191906000526020600020905b815481529060010190602001808311611f7557829003601f168201915b505050505081565b600c8054611f1990613554565b60606001600160a01b038216611fd0576040516323d3ad8160e21b815260040160405180910390fd5b6000611fdb836116a7565b6001546000805492935091036000190190506000808367ffffffffffffffff811115612009576120096132f9565b604051908082528060200260200182016040528015612032578160200160208202803683370190505b50905060005b83811080156120475750848314155b156120ac576000818152601260205260409020546001600160a01b038881169116141561209a5780828481518110612081576120816136ab565b602090810291909101015282612096816135dc565b9350505b806120a4816135dc565b915050612038565b5095945050505050565b6009546001600160a01b031633146120fe5760405162461bcd60e51b8152602060048201819052602482015260008051602061372f8339815191526044820152606401610ab1565b6001600160a01b03811661217a5760405162461bcd60e51b815260206004820152602660248201527f4f776e61626c653a206e6577206f776e657220697320746865207a65726f206160448201527f64647265737300000000000000000000000000000000000000000000000000006064820152608401610ab1565b61156181612a03565b60006001600160e01b031982167f80ac58cd0000000000000000000000000000000000000000000000000000000014806121e657506001600160e01b031982167f5b5e139f00000000000000000000000000000000000000000000000000000000145b80610a6757507f01ffc9a7000000000000000000000000000000000000000000000000000000006001600160e01b0319831614610a67565b610b108282612d31565b60008160011115801561223c575060005482105b8015610a67575050600090815260046020526040902054600160e01b900460ff161590565b600082815260066020526040808220805473ffffffffffffffffffffffffffffffffffffffff19166001600160a01b0387811691821790925591518593918516917f8c5be1e5ebec7d5bd14f71427d1e84f3dd0314c0f7b2291e5b200ac8c7c3b92591a4505050565b60006122d5826125dc565b80519091506000906001600160a01b0316336001600160a01b03161480612303575081516123039033610999565b8061231e57503361231384610ba6565b6001600160a01b0316145b90508061233e57604051632ce44b5f60e11b815260040160405180910390fd5b846001600160a01b031682600001516001600160a01b03161461238d576040517fa114810000000000000000000000000000000000000000000000000000000000815260040160405180910390fd5b6001600160a01b0384166123cd576040517fea553b3400000000000000000000000000000000000000000000000000000000815260040160405180910390fd5b6123da8585856001612d4b565b6123ea6000848460000151612261565b6001600160a01b038581166000908152600560209081526040808320805467ffffffffffffffff1980821667ffffffffffffffff92831660001901831617909255898616808652838620805493841693831660019081018416949094179055898652600490945282852080546001600160e01b031916909417600160a01b4290921691909102179092559086018083529120549091166124d6576000548110156124d6578251600082815260046020908152604090912080549186015167ffffffffffffffff16600160a01b026001600160e01b03199092166001600160a01b03909316929092171790555b5082846001600160a01b0316866001600160a01b03167fddf252ad1be2c89b69c2b068fc378daa952ba7f163c4a11628f55a4df523b3ef60405160405180910390a45b5050505050565b60008261252d8584612de7565b14949350505050565b600954600160a01b900460ff1661258f5760405162461bcd60e51b815260206004820152601460248201527f5061757361626c653a206e6f74207061757365640000000000000000000000006044820152606401610ab1565b6009805460ff60a01b191690557f5db9ee0a495bf2e6ff9c91a7834c1ba4fdd244a5e8aa4e537bd38aeae4b073aa335b6040516001600160a01b03909116815260200160405180910390a1565b6040805160608101825260008082526020820181905291810191909152818060011115801561260c575060005481105b156126ec57600081815260046020908152604091829020825160608101845290546001600160a01b0381168252600160a01b810467ffffffffffffffff1692820192909252600160e01b90910460ff161515918101829052906126ea5780516001600160a01b031615612680579392505050565b5060001901600081815260046020908152604091829020825160608101845290546001600160a01b038116808352600160a01b820467ffffffffffffffff1693830193909352600160e01b900460ff16151592810192909252156126e5579392505050565b612680565b505b6040517fdf2d9b4200000000000000000000000000000000000000000000000000000000815260040160405180910390fd5b6000612729826125dc565b905061273d81600001516000846001612d4b565b61274d6000838360000151612261565b80516001600160a01b039081166000908152600560209081526040808320805467ffffffffffffffff19811667ffffffffffffffff9182166000190182161790915585518516845281842080547fffffffffffffffff0000000000000000ffffffffffffffffffffffffffffffff81167001000000000000000000000000000000009182900484166001908101851690920217909155865188865260049094528285208054600160e01b9588166001600160e01b031990911617600160a01b4290941693909302929092177fffffff00ffffffffffffffffffffffffffffffffffffffffffffffffffffffff169390931790559085018083529120549091166128a2576000548110156128a2578151600082815260046020908152604090912080549185015167ffffffffffffffff16600160a01b026001600160e01b03199092166001600160a01b03909316929092171790555b50805160405183916000916001600160a01b03909116907fddf252ad1be2c89b69c2b068fc378daa952ba7f163c4a11628f55a4df523b3ef908390a450506001805481019055565b8047101561293a5760405162461bcd60e51b815260206004820152601d60248201527f416464726573733a20696e73756666696369656e742062616c616e63650000006044820152606401610ab1565b6000826001600160a01b03168260405160006040518083038185875af1925050503d8060008114612987576040519150601f19603f3d011682016040523d82523d6000602084013e61298c565b606091505b5050905080610cbe5760405162461bcd60e51b815260206004820152603a60248201527f416464726573733a20756e61626c6520746f2073656e642076616c75652c207260448201527f6563697069656e74206d617920686176652072657665727465640000000000006064820152608401610ab1565b600980546001600160a01b0383811673ffffffffffffffffffffffffffffffffffffffff19831681179093556040519116919082907f8be0079c531659141344cd1fd0a4f28419497f9722a3daafe3b4186f6b6457e090600090a35050565b600954600160a01b900460ff1615612aaf5760405162461bcd60e51b815260206004820152601060248201526f14185d5cd8589b194e881c185d5cd95960821b6044820152606401610ab1565b6009805460ff60a01b1916600160a01b1790557f62e78cea01bee320cd4e420270b5ea74000d11b0c9f74754ebdbfc544b05a2586125bf3390565b604051630a85bd0160e11b81526000906001600160a01b0385169063150b7a0290612b1f9033908990889088906004016136c1565b602060405180830381600087803b158015612b3957600080fd5b505af1925050508015612b69575060408051601f3d908101601f19168201909252612b66918101906136fd565b60015b612bc4573d808015612b97576040519150601f19603f3d011682016040523d82523d6000602084013e612b9c565b606091505b508051612bbc576040516368d2bf6b60e11b815260040160405180910390fd5b805181602001fd5b6001600160e01b031916630a85bd0160e11b149050949350505050565b6060600b8054610b2390613554565b6060600c8054610b2390613554565b606081612c3f57505060408051808201909152600181527f3000000000000000000000000000000000000000000000000000000000000000602082015290565b8160005b8115612c695780612c53816135dc565b9150612c629050600a8361360d565b9150612c43565b60008167ffffffffffffffff811115612c8457612c846132f9565b6040519080825280601f01601f191660200182016040528015612cae576020820181803683370190505b5090505b8415611c4d57612cc3600183613621565b9150612cd0600a8661371a565b612cdb9060306135a5565b60f81b818381518110612cf057612cf06136ab565b60200101907effffffffffffffffffffffffffffffffffffffffffffffffffffffffffffff1916908160001a905350612d2a600a8661360d565b9450612cb2565b610b10828260405180602001604052806000815250612e5b565b600954600160a01b900460ff1615612d985760405162461bcd60e51b815260206004820152601060248201526f14185d5cd8589b194e881c185d5cd95960821b6044820152606401610ab1565b6000828152601260205260409020546001600160a01b031615611b6d576040517f607483d900000000000000000000000000000000000000000000000000000000815260040160405180910390fd5b600081815b8451811015612e53576000858281518110612e0957612e096136ab565b60200260200101519050808311612e2f5760008381526020829052604090209250612e40565b600081815260208490526040902092505b5080612e4b816135dc565b915050612dec565b509392505050565b610cbe83838360016000546001600160a01b038516612ea6576040517f2e07630000000000000000000000000000000000000000000000000000000000815260040160405180910390fd5b83612edd576040517fb562e8dd00000000000000000000000000000000000000000000000000000000815260040160405180910390fd5b612eea6000868387612d4b565b6001600160a01b038516600081815260056020908152604080832080547fffffffffffffffffffffffffffffffff00000000000000000000000000000000811667ffffffffffffffff8083168c0181169182176801000000000000000067ffffffffffffffff1990941690921783900481168c01811690920217909155858452600490925290912080546001600160e01b031916909217600160a01b429092169190910217905580808501838015612fab57506001600160a01b0387163b15155b15613034575b60405182906001600160a01b038916906000907fddf252ad1be2c89b69c2b068fc378daa952ba7f163c4a11628f55a4df523b3ef908290a4612ffc6000888480600101955088612aea565b613019576040516368d2bf6b60e11b815260040160405180910390fd5b80821415612fb157826000541461302f57600080fd5b61307a565b5b6040516001830192906001600160a01b038916906000907fddf252ad1be2c89b69c2b068fc378daa952ba7f163c4a11628f55a4df523b3ef908290a480821415613035575b50600055612519565b82805461308f90613554565b90600052602060002090601f0160209004810192826130b157600085556130f7565b82601f106130ca57805160ff19168380011785556130f7565b828001600101855582156130f7579182015b828111156130f75782518255916020019190600101906130dc565b50613103929150613107565b5090565b5b808211156131035760008155600101613108565b6001600160e01b03198116811461156157600080fd5b60006020828403121561314457600080fd5b813561314f8161311c565b9392505050565b80356001600160a01b038116811461316d57600080fd5b919050565b6000806040838503121561318557600080fd5b61318e83613156565b946020939093013593505050565b60005b838110156131b757818101518382015260200161319f565b83811115611b6d5750506000910152565b600081518084526131e081602086016020860161319c565b601f01601f19169290920160200192915050565b60208152600061314f60208301846131c8565b60006020828403121561321957600080fd5b5035919050565b60008060006060848603121561323557600080fd5b61323e84613156565b925061324c60208501613156565b9150604084013590509250925092565b60008060006040848603121561327157600080fd5b833567ffffffffffffffff8082111561328957600080fd5b818601915086601f83011261329d57600080fd5b8135818111156132ac57600080fd5b8760208260051b85010111156132c157600080fd5b6020928301989097509590910135949350505050565b600080604083850312156132ea57600080fd5b50508035926020909101359150565b634e487b7160e01b600052604160045260246000fd5b600067ffffffffffffffff8084111561332a5761332a6132f9565b604051601f8501601f19908116603f01168101908282118183101715613352576133526132f9565b8160405280935085815286868601111561336b57600080fd5b858560208301376000602087830101525050509392505050565b60006020828403121561339757600080fd5b813567ffffffffffffffff8111156133ae57600080fd5b8201601f810184136133bf57600080fd5b611c4d8482356020840161330f565b8035801515811461316d57600080fd5b6000602082840312156133f057600080fd5b61314f826133ce565b60006020828403121561340b57600080fd5b61314f82613156565b6000806040838503121561342757600080fd5b61343083613156565b915061343e602084016133ce565b90509250929050565b6000806000806080858703121561345d57600080fd5b61346685613156565b935061347460208601613156565b925060408501359150606085013567ffffffffffffffff81111561349757600080fd5b8501601f810187136134a857600080fd5b6134b78782356020840161330f565b91505092959194509250565b600080604083850312156134d657600080fd5b8235915061343e60208401613156565b600080604083850312156134f957600080fd5b61350283613156565b915061343e60208401613156565b6020808252825182820181905260009190848201906040850190845b818110156135485783518352928401929184019160010161352c565b50909695505050505050565b600181811c9082168061356857607f821691505b6020821081141561358957634e487b7160e01b600052602260045260246000fd5b50919050565b634e487b7160e01b600052601160045260246000fd5b600082198211156135b8576135b861358f565b500190565b60008160001904831182151516156135d7576135d761358f565b500290565b60006000198214156135f0576135f061358f565b5060010190565b634e487b7160e01b600052601260045260246000fd5b60008261361c5761361c6135f7565b500490565b6000828210156136335761363361358f565b500390565b6000825161364a81846020870161319c565b9190910192915050565b6000835161366681846020880161319c565b83519083019061367a81836020880161319c565b7f2e6a736f6e0000000000000000000000000000000000000000000000000000009101908152600501949350505050565b634e487b7160e01b600052603260045260246000fd5b60006001600160a01b038087168352808616602084015250836040830152608060608301526136f360808301846131c8565b9695505050505050565b60006020828403121561370f57600080fd5b815161314f8161311c565b600082613729576137296135f7565b50069056fe4f776e61626c653a2063616c6c6572206973206e6f7420746865206f776e6572a2646970667358221220b2a779e9388afb76bcc6377c6e086e42b3669641541b46537f0f072861d80f6b64736f6c63430008090033",
  "linkReferences": {},
  "deployedLinkReferences": {}
}