{
  "contractName": "NoMaGuild",
  "abi": [
    {
      "inputs": [
        {
          "internalType": "string",
          "name": "_symbol",
          "type": "string"
        },
        {
          "internalType": "string",
          "name": "_name",
          "type": "string"
        },
        {
          "internalType": "uint256",
          "name": "_maxMummies",
          "type": "uint256"
        },
        {
          "internalType": "uint256",
          "name": "_maxWhitelist",
          "type": "uint256"
        },
        {
          "internalType": "uint256",
          "name": "_mintLimitPerWallet",
          "type": "uint256"
        },
        {
          "internalType": "string",
          "name": "baseURI",
          "type": "string"
        },
        {
          "internalType": "bytes32",
          "name": "_merkleRoot",
          "type": "bytes32"
        }
      ],
      "stateMutability": "nonpayable",
      "type": "constructor"
    },
    {
      "anonymous": false,
      "inputs": [
        {
          "indexed": true,
          "internalType": "address",
          "name": "owner",
          "type": "address"
        },
        {
          "indexed": true,
          "internalType": "address",
          "name": "approved",
          "type": "address"
        },
        {
          "indexed": true,
          "internalType": "uint256",
          "name": "tokenId",
          "type": "uint256"
        }
      ],
      "name": "Approval",
      "type": "event"
    },
    {
      "anonymous": false,
      "inputs": [
        {
          "indexed": true,
          "internalType": "address",
          "name": "owner",
          "type": "address"
        },
        {
          "indexed": true,
          "internalType": "address",
          "name": "operator",
          "type": "address"
        },
        {
          "indexed": false,
          "internalType": "bool",
          "name": "approved",
          "type": "bool"
        }
      ],
      "name": "ApprovalForAll",
      "type": "event"
    },
    {
      "anonymous": false,
      "inputs": [
        {
          "indexed": true,
          "internalType": "address",
          "name": "previousOwner",
          "type": "address"
        },
        {
          "indexed": true,
          "internalType": "address",
          "name": "newOwner",
          "type": "address"
        }
      ],
      "name": "OwnershipTransferred",
      "type": "event"
    },
    {
      "anonymous": false,
      "inputs": [
        {
          "indexed": false,
          "internalType": "address",
          "name": "account",
          "type": "address"
        }
      ],
      "name": "Paused",
      "type": "event"
    },
    {
      "anonymous": false,
      "inputs": [
        {
          "indexed": false,
          "internalType": "bool",
          "name": "pause",
          "type": "bool"
        }
      ],
      "name": "PublicSaleEvent",
      "type": "event"
    },
    {
      "anonymous": false,
      "inputs": [
        {
          "indexed": true,
          "internalType": "address",
          "name": "from",
          "type": "address"
        },
        {
          "indexed": true,
          "internalType": "address",
          "name": "to",
          "type": "address"
        },
        {
          "indexed": true,
          "internalType": "uint256",
          "name": "tokenId",
          "type": "uint256"
        }
      ],
      "name": "Transfer",
      "type": "event"
    },
    {
      "anonymous": false,
      "inputs": [
        {
          "indexed": false,
          "internalType": "address",
          "name": "account",
          "type": "address"
        }
      ],
      "name": "Unpaused",
      "type": "event"
    },
    {
      "anonymous": false,
      "inputs": [
        {
          "indexed": false,
          "internalType": "bool",
          "name": "pause",
          "type": "bool"
        }
      ],
      "name": "WhitelistSaleEvent",
      "type": "event"
    },
    {
      "inputs": [],
      "name": "PUBLIC_PRICE",
      "outputs": [
        {
          "internalType": "uint256",
          "name": "",
          "type": "uint256"
        }
      ],
      "stateMutability": "view",
      "type": "function",
      "constant": true
    },
    {
      "inputs": [],
      "name": "ROYALTY_RATE",
      "outputs": [
        {
          "internalType": "uint256",
          "name": "",
          "type": "uint256"
        }
      ],
      "stateMutability": "view",
      "type": "function",
      "constant": true
    },
    {
      "inputs": [],
      "name": "WHITELIST_PRICE",
      "outputs": [
        {
          "internalType": "uint256",
          "name": "",
          "type": "uint256"
        }
      ],
      "stateMutability": "view",
      "type": "function",
      "constant": true
    },
    {
      "inputs": [
        {
          "internalType": "address",
          "name": "to",
          "type": "address"
        },
        {
          "internalType": "uint256",
          "name": "tokenId",
          "type": "uint256"
        }
      ],
      "name": "approve",
      "outputs": [],
      "stateMutability": "nonpayable",
      "type": "function"
    },
    {
      "inputs": [
        {
          "internalType": "address",
          "name": "owner",
          "type": "address"
        }
      ],
      "name": "balanceOf",
      "outputs": [
        {
          "internalType": "uint256",
          "name": "",
          "type": "uint256"
        }
      ],
      "stateMutability": "view",
      "type": "function",
      "constant": true
    },
    {
      "inputs": [],
      "name": "baseTokenURI",
      "outputs": [
        {
          "internalType": "string",
          "name": "",
          "type": "string"
        }
      ],
      "stateMutability": "view",
      "type": "function",
      "constant": true
    },
    {
      "inputs": [
        {
          "internalType": "uint256",
          "name": "tokenId",
          "type": "uint256"
        }
      ],
      "name": "getApproved",
      "outputs": [
        {
          "internalType": "address",
          "name": "",
          "type": "address"
        }
      ],
      "stateMutability": "view",
      "type": "function",
      "constant": true
    },
    {
      "inputs": [
        {
          "internalType": "address",
          "name": "owner",
          "type": "address"
        },
        {
          "internalType": "address",
          "name": "operator",
          "type": "address"
        }
      ],
      "name": "isApprovedForAll",
      "outputs": [
        {
          "internalType": "bool",
          "name": "",
          "type": "bool"
        }
      ],
      "stateMutability": "view",
      "type": "function",
      "constant": true
    },
    {
      "inputs": [],
      "name": "maxMummies",
      "outputs": [
        {
          "internalType": "uint256",
          "name": "",
          "type": "uint256"
        }
      ],
      "stateMutability": "view",
      "type": "function",
      "constant": true
    },
    {
      "inputs": [],
      "name": "maxWhitelist",
      "outputs": [
        {
          "internalType": "uint256",
          "name": "",
          "type": "uint256"
        }
      ],
      "stateMutability": "view",
      "type": "function",
      "constant": true
    },
    {
      "inputs": [],
      "name": "mintLimitPerWallet",
      "outputs": [
        {
          "internalType": "uint256",
          "name": "",
          "type": "uint256"
        }
      ],
      "stateMutability": "view",
      "type": "function",
      "constant": true
    },
    {
      "inputs": [],
      "name": "name",
      "outputs": [
        {
          "internalType": "string",
          "name": "",
          "type": "string"
        }
      ],
      "stateMutability": "view",
      "type": "function",
      "constant": true
    },
    {
      "inputs": [],
      "name": "nextOwnerToExplicitlySet",
      "outputs": [
        {
          "internalType": "uint256",
          "name": "",
          "type": "uint256"
        }
      ],
      "stateMutability": "view",
      "type": "function",
      "constant": true
    },
    {
      "inputs": [],
      "name": "owner",
      "outputs": [
        {
          "internalType": "address",
          "name": "",
          "type": "address"
        }
      ],
      "stateMutability": "view",
      "type": "function",
      "constant": true
    },
    {
      "inputs": [
        {
          "internalType": "uint256",
          "name": "tokenId",
          "type": "uint256"
        }
      ],
      "name": "ownerOf",
      "outputs": [
        {
          "internalType": "address",
          "name": "",
          "type": "address"
        }
      ],
      "stateMutability": "view",
      "type": "function",
      "constant": true
    },
    {
      "inputs": [],
      "name": "paused",
      "outputs": [
        {
          "internalType": "bool",
          "name": "",
          "type": "bool"
        }
      ],
      "stateMutability": "view",
      "type": "function",
      "constant": true
    },
    {
      "inputs": [],
      "name": "renounceOwnership",
      "outputs": [],
      "stateMutability": "nonpayable",
      "type": "function"
    },
    {
      "inputs": [
        {
          "internalType": "address",
          "name": "from",
          "type": "address"
        },
        {
          "internalType": "address",
          "name": "to",
          "type": "address"
        },
        {
          "internalType": "uint256",
          "name": "tokenId",
          "type": "uint256"
        }
      ],
      "name": "safeTransferFrom",
      "outputs": [],
      "stateMutability": "nonpayable",
      "type": "function"
    },
    {
      "inputs": [
        {
          "internalType": "address",
          "name": "from",
          "type": "address"
        },
        {
          "internalType": "address",
          "name": "to",
          "type": "address"
        },
        {
          "internalType": "uint256",
          "name": "tokenId",
          "type": "uint256"
        },
        {
          "internalType": "bytes",
          "name": "_data",
          "type": "bytes"
        }
      ],
      "name": "safeTransferFrom",
      "outputs": [],
      "stateMutability": "nonpayable",
      "type": "function"
    },
    {
      "inputs": [
        {
          "internalType": "address",
          "name": "operator",
          "type": "address"
        },
        {
          "internalType": "bool",
          "name": "approved",
          "type": "bool"
        }
      ],
      "name": "setApprovalForAll",
      "outputs": [],
      "stateMutability": "nonpayable",
      "type": "function"
    },
    {
      "inputs": [],
      "name": "symbol",
      "outputs": [
        {
          "internalType": "string",
          "name": "",
          "type": "string"
        }
      ],
      "stateMutability": "view",
      "type": "function",
      "constant": true
    },
    {
      "inputs": [
        {
          "internalType": "uint256",
          "name": "index",
          "type": "uint256"
        }
      ],
      "name": "tokenByIndex",
      "outputs": [
        {
          "internalType": "uint256",
          "name": "",
          "type": "uint256"
        }
      ],
      "stateMutability": "view",
      "type": "function",
      "constant": true
    },
    {
      "inputs": [
        {
          "internalType": "address",
          "name": "owner",
          "type": "address"
        },
        {
          "internalType": "uint256",
          "name": "index",
          "type": "uint256"
        }
      ],
      "name": "tokenOfOwnerByIndex",
      "outputs": [
        {
          "internalType": "uint256",
          "name": "",
          "type": "uint256"
        }
      ],
      "stateMutability": "view",
      "type": "function",
      "constant": true
    },
    {
      "inputs": [
        {
          "internalType": "uint256",
          "name": "tokenId",
          "type": "uint256"
        }
      ],
      "name": "tokenURI",
      "outputs": [
        {
          "internalType": "string",
          "name": "",
          "type": "string"
        }
      ],
      "stateMutability": "view",
      "type": "function",
      "constant": true
    },
    {
      "inputs": [],
      "name": "totalSupply",
      "outputs": [
        {
          "internalType": "uint256",
          "name": "",
          "type": "uint256"
        }
      ],
      "stateMutability": "view",
      "type": "function",
      "constant": true
    },
    {
      "inputs": [
        {
          "internalType": "address",
          "name": "from",
          "type": "address"
        },
        {
          "internalType": "address",
          "name": "to",
          "type": "address"
        },
        {
          "internalType": "uint256",
          "name": "tokenId",
          "type": "uint256"
        }
      ],
      "name": "transferFrom",
      "outputs": [],
      "stateMutability": "nonpayable",
      "type": "function"
    },
    {
      "inputs": [
        {
          "internalType": "address",
          "name": "newOwner",
          "type": "address"
        }
      ],
      "name": "transferOwnership",
      "outputs": [],
      "stateMutability": "nonpayable",
      "type": "function"
    },
    {
      "inputs": [],
      "name": "whitelistedMummiesMinted",
      "outputs": [
        {
          "internalType": "uint256",
          "name": "",
          "type": "uint256"
        }
      ],
      "stateMutability": "view",
      "type": "function",
      "constant": true
    },
    {
      "inputs": [
        {
          "internalType": "string",
          "name": "baseURI",
          "type": "string"
        }
      ],
      "name": "setBaseURI",
      "outputs": [],
      "stateMutability": "nonpayable",
      "type": "function"
    },
    {
      "inputs": [
        {
          "internalType": "bytes32[]",
          "name": "_merkleProof",
          "type": "bytes32[]"
        },
        {
          "internalType": "uint256",
          "name": "_quantity",
          "type": "uint256"
        }
      ],
      "name": "whitelistMint",
      "outputs": [],
      "stateMutability": "payable",
      "type": "function",
      "payable": true
    },
    {
      "inputs": [
        {
          "internalType": "uint256",
          "name": "_quantity",
          "type": "uint256"
        }
      ],
      "name": "publicMint",
      "outputs": [],
      "stateMutability": "payable",
      "type": "function",
      "payable": true
    },
    {
      "inputs": [
        {
          "internalType": "address",
          "name": "_to",
          "type": "address"
        },
        {
          "internalType": "uint256",
          "name": "_quantity",
          "type": "uint256"
        }
      ],
      "name": "giveawayMint",
      "outputs": [],
      "stateMutability": "nonpayable",
      "type": "function"
    },
    {
      "inputs": [
        {
          "internalType": "bool",
          "name": "_b",
          "type": "bool"
        }
      ],
      "name": "setWhitelistSale",
      "outputs": [],
      "stateMutability": "nonpayable",
      "type": "function"
    },
    {
      "inputs": [
        {
          "internalType": "bool",
          "name": "_b",
          "type": "bool"
        }
      ],
      "name": "setPublicSale",
      "outputs": [],
      "stateMutability": "nonpayable",
      "type": "function"
    },
    {
      "inputs": [],
      "name": "widthdraw",
      "outputs": [],
      "stateMutability": "nonpayable",
      "type": "function"
    },
    {
      "inputs": [],
      "name": "pause",
      "outputs": [],
      "stateMutability": "nonpayable",
      "type": "function"
    },
    {
      "inputs": [],
      "name": "unpause",
      "outputs": [],
      "stateMutability": "nonpayable",
      "type": "function"
    },
    {
      "inputs": [
        {
          "internalType": "uint256",
          "name": "tokenId",
          "type": "uint256"
        }
      ],
      "name": "burn",
      "outputs": [],
      "stateMutability": "nonpayable",
      "type": "function"
    },
    {
      "inputs": [
        {
          "internalType": "uint256",
          "name": "",
          "type": "uint256"
        },
        {
          "internalType": "uint256",
          "name": "salePrice",
          "type": "uint256"
        }
      ],
      "name": "royaltyInfo",
      "outputs": [
        {
          "internalType": "address",
          "name": "receiver",
          "type": "address"
        },
        {
          "internalType": "uint256",
          "name": "royaltyAmount",
          "type": "uint256"
        }
      ],
      "stateMutability": "view",
      "type": "function",
      "constant": true
    },
    {
      "inputs": [
        {
          "internalType": "bytes4",
          "name": "interfaceId",
          "type": "bytes4"
        }
      ],
      "name": "supportsInterface",
      "outputs": [
        {
          "internalType": "bool",
          "name": "",
          "type": "bool"
        }
      ],
      "stateMutability": "view",
      "type": "function",
      "constant": true
    }
  ],
  "bytecode": "0x60c0604052600160005560006007556000600a556000600b556000600c556000600f60006101000a81548160ff0219169083151502179055506000600f60016101000a81548160ff0219169083151502179055503480156200006057600080fd5b50604051620066883803806200668883398181016040528101906200008691906200063f565b8686848760008111620000d0576040517f08c379a0000000000000000000000000000000000000000000000000000000008152600401620000c790620007d6565b60405180910390fd5b6000821162000116576040517f08c379a00000000000000000000000000000000000000000000000000000000081526004016200010d906200086e565b60405180910390fd5b83600190805190602001906200012e9291906200037c565b508260029080519060200190620001479291906200037c565b508160a0818152505080608081815250505050505060016008819055506200018462000178620001d960201b60201c565b620001e160201b60201c565b6000600960146101000a81548160ff02191690831515021790555084600a8190555083600b8190555082600c8190555080600d81905550620001cc82620002a760201b60201c565b5050505050505062000967565b600033905090565b6000600960009054906101000a900473ffffffffffffffffffffffffffffffffffffffff16905081600960006101000a81548173ffffffffffffffffffffffffffffffffffffffff021916908373ffffffffffffffffffffffffffffffffffffffff1602179055508173ffffffffffffffffffffffffffffffffffffffff168173ffffffffffffffffffffffffffffffffffffffff167f8be0079c531659141344cd1fd0a4f28419497f9722a3daafe3b4186f6b6457e060405160405180910390a35050565b620002b7620001d960201b60201c565b73ffffffffffffffffffffffffffffffffffffffff16620002dd6200035260201b60201c565b73ffffffffffffffffffffffffffffffffffffffff161462000336576040517f08c379a00000000000000000000000000000000000000000000000000000000081526004016200032d90620008e0565b60405180910390fd5b80600e90805190602001906200034e9291906200037c565b5050565b6000600960009054906101000a900473ffffffffffffffffffffffffffffffffffffffff16905090565b8280546200038a9062000931565b90600052602060002090601f016020900481019282620003ae5760008555620003fa565b82601f10620003c957805160ff1916838001178555620003fa565b82800160010185558215620003fa579182015b82811115620003f9578251825591602001919060010190620003dc565b5b5090506200040991906200040d565b5090565b5b80821115620004285760008160009055506001016200040e565b5090565b6000604051905090565b600080fd5b600080fd5b600080fd5b600080fd5b6000601f19601f8301169050919050565b7f4e487b7100000000000000000000000000000000000000000000000000000000600052604160045260246000fd5b62000495826200044a565b810181811067ffffffffffffffff82111715620004b757620004b66200045b565b5b80604052505050565b6000620004cc6200042c565b9050620004da82826200048a565b919050565b600067ffffffffffffffff821115620004fd57620004fc6200045b565b5b62000508826200044a565b9050602081019050919050565b60005b838110156200053557808201518184015260208101905062000518565b8381111562000545576000848401525b50505050565b6000620005626200055c84620004df565b620004c0565b90508281526020810184848401111562000581576200058062000445565b5b6200058e84828562000515565b509392505050565b600082601f830112620005ae57620005ad62000440565b5b8151620005c08482602086016200054b565b91505092915050565b6000819050919050565b620005de81620005c9565b8114620005ea57600080fd5b50565b600081519050620005fe81620005d3565b92915050565b6000819050919050565b620006198162000604565b81146200062557600080fd5b50565b60008151905062000639816200060e565b92915050565b600080600080600080600060e0888a03121562000661576200066062000436565b5b600088015167ffffffffffffffff8111156200068257620006816200043b565b5b620006908a828b0162000596565b975050602088015167ffffffffffffffff811115620006b457620006b36200043b565b5b620006c28a828b0162000596565b9650506040620006d58a828b01620005ed565b9550506060620006e88a828b01620005ed565b9450506080620006fb8a828b01620005ed565b93505060a088015167ffffffffffffffff8111156200071f576200071e6200043b565b5b6200072d8a828b0162000596565b92505060c0620007408a828b0162000628565b91505092959891949750929550565b600082825260208201905092915050565b7f455243373231413a20636f6c6c656374696f6e206d757374206861766520612060008201527f6e6f6e7a65726f20737570706c79000000000000000000000000000000000000602082015250565b6000620007be602e836200074f565b9150620007cb8262000760565b604082019050919050565b60006020820190508181036000830152620007f181620007af565b9050919050565b7f455243373231413a206d61782062617463682073697a65206d7573742062652060008201527f6e6f6e7a65726f00000000000000000000000000000000000000000000000000602082015250565b6000620008566027836200074f565b91506200086382620007f8565b604082019050919050565b60006020820190508181036000830152620008898162000847565b9050919050565b7f4f776e61626c653a2063616c6c6572206973206e6f7420746865206f776e6572600082015250565b6000620008c86020836200074f565b9150620008d58262000890565b602082019050919050565b60006020820190508181036000830152620008fb81620008b9565b9050919050565b7f4e487b7100000000000000000000000000000000000000000000000000000000600052602260045260246000fd5b600060028204905060018216806200094a57607f821691505b6020821081141562000961576200096062000902565b5b50919050565b60805160a051615ced6200099b60003960008181612df701528181612e2001526136b3015260006137160152615ced6000f3fe60806040526004361061023b5760003560e01c80635aca1bb61161012e578063a22cb465116100ab578063d547cfb71161006f578063d547cfb714610830578063d7224ba01461085b578063e0f9b47914610886578063e985e9c5146108b1578063f2fde38b146108ee5761023b565b8063a22cb4651461074d578063b88d4fde14610776578063bf0d96c31461079f578063c87b56dd146107ca578063ca7ce3ec146108075761023b565b8063715018a6116100f2578063715018a61461069e5780638456cb59146106b55780638da5cb5b146106cc5780638e7170b0146106f757806395d89b41146107225761023b565b80635aca1bb6146105a55780635c975abb146105ce578063611f3f10146105f95780636352211e1461062457806370a08231146106615761023b565b80632db11544116101bc57806342842e0e1161018057806342842e0e146104d657806342966c68146104ff5780634f6ccce71461052857806352b50a2a1461056557806355f804b31461057c5761023b565b80632db11544146104105780632f745c591461042c5780633007d626146104695780633f4ba83a1461049457806340e37ff1146104ab5761023b565b806317e7f2951161020357806317e7f2951461033757806318160ddd1461036257806323b872dd1461038d5780632904e6d9146103b65780632a55205a146103d25761023b565b806301ffc9a714610240578063048266241461027d57806306fdde03146102a6578063081812fc146102d1578063095ea7b31461030e575b600080fd5b34801561024c57600080fd5b5061026760048036038101906102629190613c8f565b610917565b6040516102749190613cd7565b60405180910390f35b34801561028957600080fd5b506102a4600480360381019061029f9190613d86565b610991565b005b3480156102b257600080fd5b506102bb610a67565b6040516102c89190613e5f565b60405180910390f35b3480156102dd57600080fd5b506102f860048036038101906102f39190613e81565b610af9565b6040516103059190613ebd565b60405180910390f35b34801561031a57600080fd5b5061033560048036038101906103309190613d86565b610b7e565b005b34801561034357600080fd5b5061034c610c97565b6040516103599190613ee7565b60405180910390f35b34801561036e57600080fd5b50610377610ca2565b6040516103849190613ee7565b60405180910390f35b34801561039957600080fd5b506103b460048036038101906103af9190613f02565b610cb8565b005b6103d060048036038101906103cb9190613fba565b610cc8565b005b3480156103de57600080fd5b506103f960048036038101906103f4919061401a565b6110a3565b60405161040792919061405a565b60405180910390f35b61042a60048036038101906104259190613e81565b6110cb565b005b34801561043857600080fd5b50610453600480360381019061044e9190613d86565b6112ca565b6040516104609190613ee7565b60405180910390f35b34801561047557600080fd5b5061047e6114c8565b60405161048b9190613ee7565b60405180910390f35b3480156104a057600080fd5b506104a96114ce565b005b3480156104b757600080fd5b506104c0611554565b6040516104cd9190613ee7565b60405180910390f35b3480156104e257600080fd5b506104fd60048036038101906104f89190613f02565b611559565b005b34801561050b57600080fd5b5061052660048036038101906105219190613e81565b611579565b005b34801561053457600080fd5b5061054f600480360381019061054a9190613e81565b61161d565b60405161055c9190613ee7565b60405180910390f35b34801561057157600080fd5b5061057a611670565b005b34801561058857600080fd5b506105a3600480360381019061059e91906141b3565b611712565b005b3480156105b157600080fd5b506105cc60048036038101906105c79190614228565b6117a8565b005b3480156105da57600080fd5b506105e3611878565b6040516105f09190613cd7565b60405180910390f35b34801561060557600080fd5b5061060e61188f565b60405161061b9190613ee7565b60405180910390f35b34801561063057600080fd5b5061064b60048036038101906106469190613e81565b61189b565b6040516106589190613ebd565b60405180910390f35b34801561066d57600080fd5b5061068860048036038101906106839190614255565b6118b1565b6040516106959190613ee7565b60405180910390f35b3480156106aa57600080fd5b506106b361199a565b005b3480156106c157600080fd5b506106ca611a22565b005b3480156106d857600080fd5b506106e1611aa8565b6040516106ee9190613ebd565b60405180910390f35b34801561070357600080fd5b5061070c611ad2565b6040516107199190613ee7565b60405180910390f35b34801561072e57600080fd5b50610737611ae3565b6040516107449190613e5f565b60405180910390f35b34801561075957600080fd5b50610774600480360381019061076f9190614282565b611b75565b005b34801561078257600080fd5b5061079d60048036038101906107989190614363565b611cf6565b005b3480156107ab57600080fd5b506107b4611d52565b6040516107c19190613ee7565b60405180910390f35b3480156107d657600080fd5b506107f160048036038101906107ec9190613e81565b611d58565b6040516107fe9190613e5f565b60405180910390f35b34801561081357600080fd5b5061082e60048036038101906108299190614228565b611dff565b005b34801561083c57600080fd5b50610845611ecf565b6040516108529190613e5f565b60405180910390f35b34801561086757600080fd5b50610870611f5d565b60405161087d9190613ee7565b60405180910390f35b34801561089257600080fd5b5061089b611f63565b6040516108a89190613ee7565b60405180910390f35b3480156108bd57600080fd5b506108d860048036038101906108d391906143e6565b611f69565b6040516108e59190613cd7565b60405180910390f35b3480156108fa57600080fd5b5061091560048036038101906109109190614255565b611ffd565b005b60007f2a55205a000000000000000000000000000000000000000000000000000000007bffffffffffffffffffffffffffffffffffffffffffffffffffffffff1916827bffffffffffffffffffffffffffffffffffffffffffffffffffffffff1916148061098a5750610989826120f5565b5b9050919050565b61099961223f565b73ffffffffffffffffffffffffffffffffffffffff166109b7611aa8565b73ffffffffffffffffffffffffffffffffffffffff1614610a0d576040517f08c379a0000000000000000000000000000000000000000000000000000000008152600401610a0490614472565b60405180910390fd5b600a54610a18610ca2565b1115610a59576040517f08c379a0000000000000000000000000000000000000000000000000000000008152600401610a50906144de565b60405180910390fd5b610a638282612247565b5050565b606060018054610a769061452d565b80601f0160208091040260200160405190810160405280929190818152602001828054610aa29061452d565b8015610aef5780601f10610ac457610100808354040283529160200191610aef565b820191906000526020600020905b815481529060010190602001808311610ad257829003601f168201915b5050505050905090565b6000610b0482612255565b610b43576040517f08c379a0000000000000000000000000000000000000000000000000000000008152600401610b3a906145d1565b60405180910390fd5b6005600083815260200190815260200160002060009054906101000a900473ffffffffffffffffffffffffffffffffffffffff169050919050565b6000610b898261189b565b90508073ffffffffffffffffffffffffffffffffffffffff168373ffffffffffffffffffffffffffffffffffffffff161415610bfa576040517f08c379a0000000000000000000000000000000000000000000000000000000008152600401610bf190614663565b60405180910390fd5b8073ffffffffffffffffffffffffffffffffffffffff16610c1961223f565b73ffffffffffffffffffffffffffffffffffffffff161480610c485750610c4781610c4261223f565b611f69565b5b610c87576040517f08c379a0000000000000000000000000000000000000000000000000000000008152600401610c7e906146f5565b60405180910390fd5b610c92838383612262565b505050565b669184e72a00000081565b60006001600054610cb39190614744565b905090565b610cc3838383612314565b505050565b60026008541415610d0e576040517f08c379a0000000000000000000000000000000000000000000000000000000008152600401610d05906147c4565b60405180910390fd5b60026008819055503373ffffffffffffffffffffffffffffffffffffffff163273ffffffffffffffffffffffffffffffffffffffff1614610d84576040517f08c379a0000000000000000000000000000000000000000000000000000000008152600401610d7b90614830565b60405180910390fd5b600f60009054906101000a900460ff16610dd3576040517f08c379a0000000000000000000000000000000000000000000000000000000008152600401610dca9061489c565b60405180910390fd5b600b54610dde611ad2565b1115610e1f576040517f08c379a0000000000000000000000000000000000000000000000000000000008152600401610e1690614908565b60405180910390fd5b600a54610e2a610ca2565b1115610e6b576040517f08c379a0000000000000000000000000000000000000000000000000000000008152600401610e62906144de565b60405180910390fd5b610e73611878565b15610eb3576040517f08c379a0000000000000000000000000000000000000000000000000000000008152600401610eaa90614974565b60405180910390fd5b600c54811115610ef8576040517f08c379a0000000000000000000000000000000000000000000000000000000008152600401610eef906149e0565b60405180910390fd5b600b5481610f04611ad2565b610f0e9190614a00565b1115610f4f576040517f08c379a0000000000000000000000000000000000000000000000000000000008152600401610f4690614aa2565b60405180910390fd5b80669184e72a000000610f629190614ac2565b341015610fa4576040517f08c379a0000000000000000000000000000000000000000000000000000000008152600401610f9b90614b68565b60405180910390fd5b6000339050600081604051602001610fbc9190614bd0565b604051602081830303815290604052805190602001209050611022858580806020026020016040519081016040528093929190818152602001838360200280828437600081840152601f19601f82011690508083019250505050505050600d54836128cd565b611061576040517f08c379a000000000000000000000000000000000000000000000000000000000815260040161105890614c37565b60405180910390fd5b60005b838110156110895761107660106128e4565b808061108190614c57565b915050611064565b506110948284612247565b50506001600881905550505050565b6000803060646002856110b69190614ac2565b6110c09190614ccf565b915091509250929050565b3373ffffffffffffffffffffffffffffffffffffffff163273ffffffffffffffffffffffffffffffffffffffff1614611139576040517f08c379a000000000000000000000000000000000000000000000000000000000815260040161113090614830565b60405180910390fd5b600f60019054906101000a900460ff16611188576040517f08c379a000000000000000000000000000000000000000000000000000000000815260040161117f90614d4c565b60405180910390fd5b600a54611193610ca2565b11156111d4576040517f08c379a00000000000000000000000000000000000000000000000000000000081526004016111cb906144de565b60405180910390fd5b6111dc611878565b1561121c576040517f08c379a000000000000000000000000000000000000000000000000000000000815260040161121390614974565b60405180910390fd5b600c54811115611261576040517f08c379a0000000000000000000000000000000000000000000000000000000008152600401611258906149e0565b60405180910390fd5b60003390508167012309ce5400000061127a9190614ac2565b3410156112bc576040517f08c379a00000000000000000000000000000000000000000000000000000000081526004016112b390614b68565b60405180910390fd5b6112c68183612247565b5050565b60006112d5836118b1565b8210611316576040517f08c379a000000000000000000000000000000000000000000000000000000000815260040161130d90614dde565b60405180910390fd5b6000611320610ca2565b905060008060005b83811015611486576000600360008381526020019081526020016000206040518060400160405290816000820160009054906101000a900473ffffffffffffffffffffffffffffffffffffffff1673ffffffffffffffffffffffffffffffffffffffff1673ffffffffffffffffffffffffffffffffffffffff1681526020016000820160149054906101000a900467ffffffffffffffff1667ffffffffffffffff1667ffffffffffffffff16815250509050600073ffffffffffffffffffffffffffffffffffffffff16816000015173ffffffffffffffffffffffffffffffffffffffff161461141a57806000015192505b8773ffffffffffffffffffffffffffffffffffffffff168373ffffffffffffffffffffffffffffffffffffffff16141561147257868414156114635781955050505050506114c2565b838061146e90614c57565b9450505b50808061147e90614c57565b915050611328565b506040517f08c379a00000000000000000000000000000000000000000000000000000000081526004016114b990614e70565b60405180910390fd5b92915050565b600a5481565b6114d661223f565b73ffffffffffffffffffffffffffffffffffffffff166114f4611aa8565b73ffffffffffffffffffffffffffffffffffffffff161461154a576040517f08c379a000000000000000000000000000000000000000000000000000000000815260040161154190614472565b60405180910390fd5b6115526128fa565b565b600281565b61157483838360405180602001604052806000815250611cf6565b505050565b611581611878565b156115c1576040517f08c379a00000000000000000000000000000000000000000000000000000000081526004016115b890614974565b60405180910390fd5b6115d26115cc61223f565b8261299c565b611611576040517f08c379a000000000000000000000000000000000000000000000000000000000815260040161160890614f02565b60405180910390fd5b61161a81612a7a565b50565b6000611627610ca2565b8210611668576040517f08c379a000000000000000000000000000000000000000000000000000000000815260040161165f90614f94565b60405180910390fd5b819050919050565b61167861223f565b73ffffffffffffffffffffffffffffffffffffffff16611696611aa8565b73ffffffffffffffffffffffffffffffffffffffff16146116ec576040517f08c379a00000000000000000000000000000000000000000000000000000000081526004016116e390614472565b60405180910390fd5b6000479050600081116116fe57600080fd5b61170f611709611aa8565b82612caf565b50565b61171a61223f565b73ffffffffffffffffffffffffffffffffffffffff16611738611aa8565b73ffffffffffffffffffffffffffffffffffffffff161461178e576040517f08c379a000000000000000000000000000000000000000000000000000000000815260040161178590614472565b60405180910390fd5b80600e90805190602001906117a4929190613b46565b5050565b6117b061223f565b73ffffffffffffffffffffffffffffffffffffffff166117ce611aa8565b73ffffffffffffffffffffffffffffffffffffffff1614611824576040517f08c379a000000000000000000000000000000000000000000000000000000000815260040161181b90614472565b60405180910390fd5b80600f60016101000a81548160ff0219169083151502179055507f819bd618bf2c153d8a6d9e6174bc4b17fdff7d7e295b8a3242690b290bfc94a38160405161186d9190613cd7565b60405180910390a150565b6000600960149054906101000a900460ff16905090565b67012309ce5400000081565b60006118a682612da3565b600001519050919050565b60008073ffffffffffffffffffffffffffffffffffffffff168273ffffffffffffffffffffffffffffffffffffffff161415611922576040517f08c379a000000000000000000000000000000000000000000000000000000000815260040161191990615026565b60405180910390fd5b600460008373ffffffffffffffffffffffffffffffffffffffff1673ffffffffffffffffffffffffffffffffffffffff16815260200190815260200160002060000160009054906101000a90046fffffffffffffffffffffffffffffffff166fffffffffffffffffffffffffffffffff169050919050565b6119a261223f565b73ffffffffffffffffffffffffffffffffffffffff166119c0611aa8565b73ffffffffffffffffffffffffffffffffffffffff1614611a16576040517f08c379a0000000000000000000000000000000000000000000000000000000008152600401611a0d90614472565b60405180910390fd5b611a206000612fa6565b565b611a2a61223f565b73ffffffffffffffffffffffffffffffffffffffff16611a48611aa8565b73ffffffffffffffffffffffffffffffffffffffff1614611a9e576040517f08c379a0000000000000000000000000000000000000000000000000000000008152600401611a9590614472565b60405180910390fd5b611aa661306c565b565b6000600960009054906101000a900473ffffffffffffffffffffffffffffffffffffffff16905090565b6000611ade601061310f565b905090565b606060028054611af29061452d565b80601f0160208091040260200160405190810160405280929190818152602001828054611b1e9061452d565b8015611b6b5780601f10611b4057610100808354040283529160200191611b6b565b820191906000526020600020905b815481529060010190602001808311611b4e57829003601f168201915b5050505050905090565b611b7d61223f565b73ffffffffffffffffffffffffffffffffffffffff168273ffffffffffffffffffffffffffffffffffffffff161415611beb576040517f08c379a0000000000000000000000000000000000000000000000000000000008152600401611be290615092565b60405180910390fd5b8060066000611bf861223f565b73ffffffffffffffffffffffffffffffffffffffff1673ffffffffffffffffffffffffffffffffffffffff16815260200190815260200160002060008473ffffffffffffffffffffffffffffffffffffffff1673ffffffffffffffffffffffffffffffffffffffff16815260200190815260200160002060006101000a81548160ff0219169083151502179055508173ffffffffffffffffffffffffffffffffffffffff16611ca561223f565b73ffffffffffffffffffffffffffffffffffffffff167f17307eab39ab6107e8899845ad3d59bd9653f200f220920489ca2b5937696c3183604051611cea9190613cd7565b60405180910390a35050565b611d01848484612314565b611d0d8484848461311d565b611d4c576040517f08c379a0000000000000000000000000000000000000000000000000000000008152600401611d4390615124565b60405180910390fd5b50505050565b600b5481565b6060611d6382612255565b611da2576040517f08c379a0000000000000000000000000000000000000000000000000000000008152600401611d99906151b6565b60405180910390fd5b6000611dac6132a5565b90506000815111611dcc5760405180602001604052806000815250611df7565b80611dd684613337565b604051602001611de792919061525e565b6040516020818303038152906040525b915050919050565b611e0761223f565b73ffffffffffffffffffffffffffffffffffffffff16611e25611aa8565b73ffffffffffffffffffffffffffffffffffffffff1614611e7b576040517f08c379a0000000000000000000000000000000000000000000000000000000008152600401611e7290614472565b60405180910390fd5b80600f60006101000a81548160ff0219169083151502179055507fbbfb0dda705aa1c7368a1e31138d53b5eebfd36eb343b4560d9bdf0a50e9a4ce81604051611ec49190613cd7565b60405180910390a150565b600e8054611edc9061452d565b80601f0160208091040260200160405190810160405280929190818152602001828054611f089061452d565b8015611f555780601f10611f2a57610100808354040283529160200191611f55565b820191906000526020600020905b815481529060010190602001808311611f3857829003601f168201915b505050505081565b60075481565b600c5481565b6000600660008473ffffffffffffffffffffffffffffffffffffffff1673ffffffffffffffffffffffffffffffffffffffff16815260200190815260200160002060008373ffffffffffffffffffffffffffffffffffffffff1673ffffffffffffffffffffffffffffffffffffffff16815260200190815260200160002060009054906101000a900460ff16905092915050565b61200561223f565b73ffffffffffffffffffffffffffffffffffffffff16612023611aa8565b73ffffffffffffffffffffffffffffffffffffffff1614612079576040517f08c379a000000000000000000000000000000000000000000000000000000000815260040161207090614472565b60405180910390fd5b600073ffffffffffffffffffffffffffffffffffffffff168173ffffffffffffffffffffffffffffffffffffffff1614156120e9576040517f08c379a00000000000000000000000000000000000000000000000000000000081526004016120e0906152ff565b60405180910390fd5b6120f281612fa6565b50565b60007f80ac58cd000000000000000000000000000000000000000000000000000000007bffffffffffffffffffffffffffffffffffffffffffffffffffffffff1916827bffffffffffffffffffffffffffffffffffffffffffffffffffffffff191614806121c057507f5b5e139f000000000000000000000000000000000000000000000000000000007bffffffffffffffffffffffffffffffffffffffffffffffffffffffff1916827bffffffffffffffffffffffffffffffffffffffffffffffffffffffff1916145b8061222857507f780e9d63000000000000000000000000000000000000000000000000000000007bffffffffffffffffffffffffffffffffffffffffffffffffffffffff1916827bffffffffffffffffffffffffffffffffffffffffffffffffffffffff1916145b80612238575061223782613498565b5b9050919050565b600033905090565b6122518282613502565b5050565b6000805482109050919050565b826005600084815260200190815260200160002060006101000a81548173ffffffffffffffffffffffffffffffffffffffff021916908373ffffffffffffffffffffffffffffffffffffffff160217905550818373ffffffffffffffffffffffffffffffffffffffff168273ffffffffffffffffffffffffffffffffffffffff167f8c5be1e5ebec7d5bd14f71427d1e84f3dd0314c0f7b2291e5b200ac8c7c3b92560405160405180910390a4505050565b600061231f82612da3565b90506000816000015173ffffffffffffffffffffffffffffffffffffffff1661234661223f565b73ffffffffffffffffffffffffffffffffffffffff1614806123a2575061236b61223f565b73ffffffffffffffffffffffffffffffffffffffff1661238a84610af9565b73ffffffffffffffffffffffffffffffffffffffff16145b806123be57506123bd82600001516123b861223f565b611f69565b5b905080612400576040517f08c379a00000000000000000000000000000000000000000000000000000000081526004016123f790615391565b60405180910390fd5b8473ffffffffffffffffffffffffffffffffffffffff16826000015173ffffffffffffffffffffffffffffffffffffffff1614612472576040517f08c379a000000000000000000000000000000000000000000000000000000000815260040161246990615423565b60405180910390fd5b600073ffffffffffffffffffffffffffffffffffffffff168473ffffffffffffffffffffffffffffffffffffffff1614156124e2576040517f08c379a00000000000000000000000000000000000000000000000000000000081526004016124d9906154b5565b60405180910390fd5b6124ef8585856001613520565b6124ff6000848460000151612262565b6001600460008773ffffffffffffffffffffffffffffffffffffffff1673ffffffffffffffffffffffffffffffffffffffff16815260200190815260200160002060000160008282829054906101000a90046fffffffffffffffffffffffffffffffff1661256d91906154f1565b92506101000a8154816fffffffffffffffffffffffffffffffff02191690836fffffffffffffffffffffffffffffffff1602179055506001600460008673ffffffffffffffffffffffffffffffffffffffff1673ffffffffffffffffffffffffffffffffffffffff16815260200190815260200160002060000160008282829054906101000a90046fffffffffffffffffffffffffffffffff166126119190615525565b92506101000a8154816fffffffffffffffffffffffffffffffff02191690836fffffffffffffffffffffffffffffffff16021790555060405180604001604052808573ffffffffffffffffffffffffffffffffffffffff1681526020014267ffffffffffffffff168152506003600085815260200190815260200160002060008201518160000160006101000a81548173ffffffffffffffffffffffffffffffffffffffff021916908373ffffffffffffffffffffffffffffffffffffffff16021790555060208201518160000160146101000a81548167ffffffffffffffff021916908367ffffffffffffffff16021790555090505060006001846127179190614a00565b9050600073ffffffffffffffffffffffffffffffffffffffff166003600083815260200190815260200160002060000160009054906101000a900473ffffffffffffffffffffffffffffffffffffffff1673ffffffffffffffffffffffffffffffffffffffff16141561285d5761278d81612255565b1561285c576040518060400160405280846000015173ffffffffffffffffffffffffffffffffffffffff168152602001846020015167ffffffffffffffff168152506003600083815260200190815260200160002060008201518160000160006101000a81548173ffffffffffffffffffffffffffffffffffffffff021916908373ffffffffffffffffffffffffffffffffffffffff16021790555060208201518160000160146101000a81548167ffffffffffffffff021916908367ffffffffffffffff1602179055509050505b5b838573ffffffffffffffffffffffffffffffffffffffff168773ffffffffffffffffffffffffffffffffffffffff167fddf252ad1be2c89b69c2b068fc378daa952ba7f163c4a11628f55a4df523b3ef60405160405180910390a46128c58686866001613526565b505050505050565b6000826128da858461352c565b1490509392505050565b6001816000016000828254019250508190555050565b612902611878565b612941576040517f08c379a0000000000000000000000000000000000000000000000000000000008152600401612938906155b7565b60405180910390fd5b6000600960146101000a81548160ff0219169083151502179055507f5db9ee0a495bf2e6ff9c91a7834c1ba4fdd244a5e8aa4e537bd38aeae4b073aa61298561223f565b6040516129929190613ebd565b60405180910390a1565b60006129a782612255565b6129e6576040517f08c379a00000000000000000000000000000000000000000000000000000000081526004016129dd90615649565b60405180910390fd5b60006129f18361189b565b90508073ffffffffffffffffffffffffffffffffffffffff168473ffffffffffffffffffffffffffffffffffffffff161480612a6057508373ffffffffffffffffffffffffffffffffffffffff16612a4884610af9565b73ffffffffffffffffffffffffffffffffffffffff16145b80612a715750612a708185611f69565b5b91505092915050565b6000612a858261189b565b9050612a95816000846001613520565b612aa160008383612262565b6001600460008373ffffffffffffffffffffffffffffffffffffffff1673ffffffffffffffffffffffffffffffffffffffff16815260200190815260200160002060000160008282829054906101000a90046fffffffffffffffffffffffffffffffff16612b0f91906154f1565b92506101000a8154816fffffffffffffffffffffffffffffffff02191690836fffffffffffffffffffffffffffffffff1602179055506001600460008373ffffffffffffffffffffffffffffffffffffffff1673ffffffffffffffffffffffffffffffffffffffff16815260200190815260200160002060000160108282829054906101000a90046fffffffffffffffffffffffffffffffff16612bb391906154f1565b92506101000a8154816fffffffffffffffffffffffffffffffff02191690836fffffffffffffffffffffffffffffffff16021790555060036000838152602001908152602001600020600080820160006101000a81549073ffffffffffffffffffffffffffffffffffffffff02191690556000820160146101000a81549067ffffffffffffffff0219169055505081600073ffffffffffffffffffffffffffffffffffffffff168273ffffffffffffffffffffffffffffffffffffffff167fddf252ad1be2c89b69c2b068fc378daa952ba7f163c4a11628f55a4df523b3ef60405160405180910390a4612cab816000846001613526565b5050565b80471015612cf2576040517f08c379a0000000000000000000000000000000000000000000000000000000008152600401612ce9906156b5565b60405180910390fd5b60008273ffffffffffffffffffffffffffffffffffffffff1682604051612d1890615706565b60006040518083038185875af1925050503d8060008114612d55576040519150601f19603f3d011682016040523d82523d6000602084013e612d5a565b606091505b5050905080612d9e576040517f08c379a0000000000000000000000000000000000000000000000000000000008152600401612d959061578d565b60405180910390fd5b505050565b612dab613bcc565b612db482612255565b612df3576040517f08c379a0000000000000000000000000000000000000000000000000000000008152600401612dea9061581f565b60405180910390fd5b60007f00000000000000000000000000000000000000000000000000000000000000008310612e575760017f000000000000000000000000000000000000000000000000000000000000000084612e4a9190614744565b612e549190614a00565b90505b60008390505b818110612f65576000600360008381526020019081526020016000206040518060400160405290816000820160009054906101000a900473ffffffffffffffffffffffffffffffffffffffff1673ffffffffffffffffffffffffffffffffffffffff1673ffffffffffffffffffffffffffffffffffffffff1681526020016000820160149054906101000a900467ffffffffffffffff1667ffffffffffffffff1667ffffffffffffffff16815250509050600073ffffffffffffffffffffffffffffffffffffffff16816000015173ffffffffffffffffffffffffffffffffffffffff1614612f5157809350505050612fa1565b508080612f5d9061583f565b915050612e5d565b506040517f08c379a0000000000000000000000000000000000000000000000000000000008152600401612f98906158db565b60405180910390fd5b919050565b6000600960009054906101000a900473ffffffffffffffffffffffffffffffffffffffff16905081600960006101000a81548173ffffffffffffffffffffffffffffffffffffffff021916908373ffffffffffffffffffffffffffffffffffffffff1602179055508173ffffffffffffffffffffffffffffffffffffffff168173ffffffffffffffffffffffffffffffffffffffff167f8be0079c531659141344cd1fd0a4f28419497f9722a3daafe3b4186f6b6457e060405160405180910390a35050565b613074611878565b156130b4576040517f08c379a00000000000000000000000000000000000000000000000000000000081526004016130ab90614974565b60405180910390fd5b6001600960146101000a81548160ff0219169083151502179055507f62e78cea01bee320cd4e420270b5ea74000d11b0c9f74754ebdbfc544b05a2586130f861223f565b6040516131059190613ebd565b60405180910390a1565b600081600001549050919050565b600061313e8473ffffffffffffffffffffffffffffffffffffffff166135df565b15613298578373ffffffffffffffffffffffffffffffffffffffff1663150b7a0261316761223f565b8786866040518563ffffffff1660e01b81526004016131899493929190615950565b6020604051808303816000875af19250505080156131c557506040513d601f19601f820116820180604052508101906131c291906159b1565b60015b613248573d80600081146131f5576040519150601f19603f3d011682016040523d82523d6000602084013e6131fa565b606091505b50600081511415613240576040517f08c379a000000000000000000000000000000000000000000000000000000000815260040161323790615124565b60405180910390fd5b805181602001fd5b63150b7a0260e01b7bffffffffffffffffffffffffffffffffffffffffffffffffffffffff1916817bffffffffffffffffffffffffffffffffffffffffffffffffffffffff19161491505061329d565b600190505b949350505050565b6060600e80546132b49061452d565b80601f01602080910402602001604051908101604052809291908181526020018280546132e09061452d565b801561332d5780601f106133025761010080835404028352916020019161332d565b820191906000526020600020905b81548152906001019060200180831161331057829003601f168201915b5050505050905090565b6060600082141561337f576040518060400160405280600181526020017f30000000000000000000000000000000000000000000000000000000000000008152509050613493565b600082905060005b600082146133b157808061339a90614c57565b915050600a826133aa9190614ccf565b9150613387565b60008167ffffffffffffffff8111156133cd576133cc614088565b5b6040519080825280601f01601f1916602001820160405280156133ff5781602001600182028036833780820191505090505b5090505b6000851461348c576001826134189190614744565b9150600a8561342791906159de565b60306134339190614a00565b60f81b81838151811061344957613448615a0f565b5b60200101907effffffffffffffffffffffffffffffffffffffffffffffffffffffffffffff1916908160001a905350600a856134859190614ccf565b9450613403565b8093505050505b919050565b60007f01ffc9a7000000000000000000000000000000000000000000000000000000007bffffffffffffffffffffffffffffffffffffffffffffffffffffffff1916827bffffffffffffffffffffffffffffffffffffffffffffffffffffffff1916149050919050565b61351c8282604051806020016040528060008152506135f2565b5050565b50505050565b50505050565b60008082905060005b84518110156135d457600085828151811061355357613552615a0f565b5b60200260200101519050808311613594578281604051602001613577929190615a69565b6040516020818303038152906040528051906020012092506135c0565b80836040516020016135a7929190615a69565b6040516020818303038152906040528051906020012092505b5080806135cc90614c57565b915050613535565b508091505092915050565b600080823b905060008111915050919050565b600080549050600073ffffffffffffffffffffffffffffffffffffffff168473ffffffffffffffffffffffffffffffffffffffff161415613668576040517f08c379a000000000000000000000000000000000000000000000000000000000815260040161365f90615b07565b60405180910390fd5b61367181612255565b156136b1576040517f08c379a00000000000000000000000000000000000000000000000000000000081526004016136a890615b73565b60405180910390fd5b7f0000000000000000000000000000000000000000000000000000000000000000831115613714576040517f08c379a000000000000000000000000000000000000000000000000000000000815260040161370b90615c05565b60405180910390fd5b7f00000000000000000000000000000000000000000000000000000000000000008361373e610ca2565b6137489190614a00565b1115613789576040517f08c379a000000000000000000000000000000000000000000000000000000000815260040161378090615c97565b60405180910390fd5b6137966000858386613520565b6000600460008673ffffffffffffffffffffffffffffffffffffffff1673ffffffffffffffffffffffffffffffffffffffff1681526020019081526020016000206040518060400160405290816000820160009054906101000a90046fffffffffffffffffffffffffffffffff166fffffffffffffffffffffffffffffffff166fffffffffffffffffffffffffffffffff1681526020016000820160109054906101000a90046fffffffffffffffffffffffffffffffff166fffffffffffffffffffffffffffffffff166fffffffffffffffffffffffffffffffff1681525050905060405180604001604052808583600001516138939190615525565b6fffffffffffffffffffffffffffffffff1681526020018583602001516138ba9190615525565b6fffffffffffffffffffffffffffffffff16815250600460008773ffffffffffffffffffffffffffffffffffffffff1673ffffffffffffffffffffffffffffffffffffffff16815260200190815260200160002060008201518160000160006101000a8154816fffffffffffffffffffffffffffffffff02191690836fffffffffffffffffffffffffffffffff16021790555060208201518160000160106101000a8154816fffffffffffffffffffffffffffffffff02191690836fffffffffffffffffffffffffffffffff16021790555090505060405180604001604052808673ffffffffffffffffffffffffffffffffffffffff1681526020014267ffffffffffffffff168152506003600084815260200190815260200160002060008201518160000160006101000a81548173ffffffffffffffffffffffffffffffffffffffff021916908373ffffffffffffffffffffffffffffffffffffffff16021790555060208201518160000160146101000a81548167ffffffffffffffff021916908367ffffffffffffffff160217905550905050600082905060005b85811015613b2957818773ffffffffffffffffffffffffffffffffffffffff16600073ffffffffffffffffffffffffffffffffffffffff167fddf252ad1be2c89b69c2b068fc378daa952ba7f163c4a11628f55a4df523b3ef60405160405180910390a4613ac9600088848861311d565b613b08576040517f08c379a0000000000000000000000000000000000000000000000000000000008152600401613aff90615124565b60405180910390fd5b8180613b1390614c57565b9250508080613b2190614c57565b915050613a58565b5080600081905550613b3e6000878588613526565b505050505050565b828054613b529061452d565b90600052602060002090601f016020900481019282613b745760008555613bbb565b82601f10613b8d57805160ff1916838001178555613bbb565b82800160010185558215613bbb579182015b82811115613bba578251825591602001919060010190613b9f565b5b509050613bc89190613c06565b5090565b6040518060400160405280600073ffffffffffffffffffffffffffffffffffffffff168152602001600067ffffffffffffffff1681525090565b5b80821115613c1f576000816000905550600101613c07565b5090565b6000604051905090565b600080fd5b600080fd5b60007fffffffff0000000000000000000000000000000000000000000000000000000082169050919050565b613c6c81613c37565b8114613c7757600080fd5b50565b600081359050613c8981613c63565b92915050565b600060208284031215613ca557613ca4613c2d565b5b6000613cb384828501613c7a565b91505092915050565b60008115159050919050565b613cd181613cbc565b82525050565b6000602082019050613cec6000830184613cc8565b92915050565b600073ffffffffffffffffffffffffffffffffffffffff82169050919050565b6000613d1d82613cf2565b9050919050565b613d2d81613d12565b8114613d3857600080fd5b50565b600081359050613d4a81613d24565b92915050565b6000819050919050565b613d6381613d50565b8114613d6e57600080fd5b50565b600081359050613d8081613d5a565b92915050565b60008060408385031215613d9d57613d9c613c2d565b5b6000613dab85828601613d3b565b9250506020613dbc85828601613d71565b9150509250929050565b600081519050919050565b600082825260208201905092915050565b60005b83811015613e00578082015181840152602081019050613de5565b83811115613e0f576000848401525b50505050565b6000601f19601f8301169050919050565b6000613e3182613dc6565b613e3b8185613dd1565b9350613e4b818560208601613de2565b613e5481613e15565b840191505092915050565b60006020820190508181036000830152613e798184613e26565b905092915050565b600060208284031215613e9757613e96613c2d565b5b6000613ea584828501613d71565b91505092915050565b613eb781613d12565b82525050565b6000602082019050613ed26000830184613eae565b92915050565b613ee181613d50565b82525050565b6000602082019050613efc6000830184613ed8565b92915050565b600080600060608486031215613f1b57613f1a613c2d565b5b6000613f2986828701613d3b565b9350506020613f3a86828701613d3b565b9250506040613f4b86828701613d71565b9150509250925092565b600080fd5b600080fd5b600080fd5b60008083601f840112613f7a57613f79613f55565b5b8235905067ffffffffffffffff811115613f9757613f96613f5a565b5b602083019150836020820283011115613fb357613fb2613f5f565b5b9250929050565b600080600060408486031215613fd357613fd2613c2d565b5b600084013567ffffffffffffffff811115613ff157613ff0613c32565b5b613ffd86828701613f64565b9350935050602061401086828701613d71565b9150509250925092565b6000806040838503121561403157614030613c2d565b5b600061403f85828601613d71565b925050602061405085828601613d71565b9150509250929050565b600060408201905061406f6000830185613eae565b61407c6020830184613ed8565b9392505050565b600080fd5b7f4e487b7100000000000000000000000000000000000000000000000000000000600052604160045260246000fd5b6140c082613e15565b810181811067ffffffffffffffff821117156140df576140de614088565b5b80604052505050565b60006140f2613c23565b90506140fe82826140b7565b919050565b600067ffffffffffffffff82111561411e5761411d614088565b5b61412782613e15565b9050602081019050919050565b82818337600083830152505050565b600061415661415184614103565b6140e8565b90508281526020810184848401111561417257614171614083565b5b61417d848285614134565b509392505050565b600082601f83011261419a57614199613f55565b5b81356141aa848260208601614143565b91505092915050565b6000602082840312156141c9576141c8613c2d565b5b600082013567ffffffffffffffff8111156141e7576141e6613c32565b5b6141f384828501614185565b91505092915050565b61420581613cbc565b811461421057600080fd5b50565b600081359050614222816141fc565b92915050565b60006020828403121561423e5761423d613c2d565b5b600061424c84828501614213565b91505092915050565b60006020828403121561426b5761426a613c2d565b5b600061427984828501613d3b565b91505092915050565b6000806040838503121561429957614298613c2d565b5b60006142a785828601613d3b565b92505060206142b885828601614213565b9150509250929050565b600067ffffffffffffffff8211156142dd576142dc614088565b5b6142e682613e15565b9050602081019050919050565b6000614306614301846142c2565b6140e8565b90508281526020810184848401111561432257614321614083565b5b61432d848285614134565b509392505050565b600082601f83011261434a57614349613f55565b5b813561435a8482602086016142f3565b91505092915050565b6000806000806080858703121561437d5761437c613c2d565b5b600061438b87828801613d3b565b945050602061439c87828801613d3b565b93505060406143ad87828801613d71565b925050606085013567ffffffffffffffff8111156143ce576143cd613c32565b5b6143da87828801614335565b91505092959194509250565b600080604083850312156143fd576143fc613c2d565b5b600061440b85828601613d3b565b925050602061441c85828601613d3b565b9150509250929050565b7f4f776e61626c653a2063616c6c6572206973206e6f7420746865206f776e6572600082015250565b600061445c602083613dd1565b915061446782614426565b602082019050919050565b6000602082019050818103600083015261448b8161444f565b9050919050565b7f536f6c646f757421000000000000000000000000000000000000000000000000600082015250565b60006144c8600883613dd1565b91506144d382614492565b602082019050919050565b600060208201905081810360008301526144f7816144bb565b9050919050565b7f4e487b7100000000000000000000000000000000000000000000000000000000600052602260045260246000fd5b6000600282049050600182168061454557607f821691505b60208210811415614559576145586144fe565b5b50919050565b7f455243373231413a20617070726f76656420717565727920666f72206e6f6e6560008201527f78697374656e7420746f6b656e00000000000000000000000000000000000000602082015250565b60006145bb602d83613dd1565b91506145c68261455f565b604082019050919050565b600060208201905081810360008301526145ea816145ae565b9050919050565b7f455243373231413a20617070726f76616c20746f2063757272656e74206f776e60008201527f6572000000000000000000000000000000000000000000000000000000000000602082015250565b600061464d602283613dd1565b9150614658826145f1565b604082019050919050565b6000602082019050818103600083015261467c81614640565b9050919050565b7f455243373231413a20617070726f76652063616c6c6572206973206e6f74206f60008201527f776e6572206e6f7220617070726f76656420666f7220616c6c00000000000000602082015250565b60006146df603983613dd1565b91506146ea82614683565b604082019050919050565b6000602082019050818103600083015261470e816146d2565b9050919050565b7f4e487b7100000000000000000000000000000000000000000000000000000000600052601160045260246000fd5b600061474f82613d50565b915061475a83613d50565b92508282101561476d5761476c614715565b5b828203905092915050565b7f5265656e7472616e637947756172643a207265656e7472616e742063616c6c00600082015250565b60006147ae601f83613dd1565b91506147b982614778565b602082019050919050565b600060208201905081810360008301526147dd816147a1565b9050919050565b7f5468652063616c6c657220697320616e6f7468657220636f6e74726163740000600082015250565b600061481a601e83613dd1565b9150614825826147e4565b602082019050919050565b600060208201905081810360008301526148498161480d565b9050919050565b7f57686974656c6973742073616c6573206e6f74206f70656e0000000000000000600082015250565b6000614886601883613dd1565b915061489182614850565b602082019050919050565b600060208201905081810360008301526148b581614879565b9050919050565b7f57686974656c69737420736f6c646f7574210000000000000000000000000000600082015250565b60006148f2601283613dd1565b91506148fd826148bc565b602082019050919050565b60006020820190508181036000830152614921816148e5565b9050919050565b7f5061757361626c653a2070617573656400000000000000000000000000000000600082015250565b600061495e601083613dd1565b915061496982614928565b602082019050919050565b6000602082019050818103600083015261498d81614951565b9050919050565b7f4578636565646564206c696d6974207065722077616c6c657421000000000000600082015250565b60006149ca601a83613dd1565b91506149d582614994565b602082019050919050565b600060208201905081810360008301526149f9816149bd565b9050919050565b6000614a0b82613d50565b9150614a1683613d50565b9250827fffffffffffffffffffffffffffffffffffffffffffffffffffffffffffffffff03821115614a4b57614a4a614715565b5b828201905092915050565b7f45786365656465642077686974656c69737420737570706c7921000000000000600082015250565b6000614a8c601a83613dd1565b9150614a9782614a56565b602082019050919050565b60006020820190508181036000830152614abb81614a7f565b9050919050565b6000614acd82613d50565b9150614ad883613d50565b9250817fffffffffffffffffffffffffffffffffffffffffffffffffffffffffffffffff0483118215151615614b1157614b10614715565b5b828202905092915050565b7f496e73756666696369656e74207061796d656e7420706572206974656d000000600082015250565b6000614b52601d83613dd1565b9150614b5d82614b1c565b602082019050919050565b60006020820190508181036000830152614b8181614b45565b9050919050565b60008160601b9050919050565b6000614ba082614b88565b9050919050565b6000614bb282614b95565b9050919050565b614bca614bc582613d12565b614ba7565b82525050565b6000614bdc8284614bb9565b60148201915081905092915050565b7f4e6f742077686974656c69737465640000000000000000000000000000000000600082015250565b6000614c21600f83613dd1565b9150614c2c82614beb565b602082019050919050565b60006020820190508181036000830152614c5081614c14565b9050919050565b6000614c6282613d50565b91507fffffffffffffffffffffffffffffffffffffffffffffffffffffffffffffffff821415614c9557614c94614715565b5b600182019050919050565b7f4e487b7100000000000000000000000000000000000000000000000000000000600052601260045260246000fd5b6000614cda82613d50565b9150614ce583613d50565b925082614cf557614cf4614ca0565b5b828204905092915050565b7f5075626c69632073616c6573206e6f74206f70656e0000000000000000000000600082015250565b6000614d36601583613dd1565b9150614d4182614d00565b602082019050919050565b60006020820190508181036000830152614d6581614d29565b9050919050565b7f455243373231413a206f776e657220696e646578206f7574206f6620626f756e60008201527f6473000000000000000000000000000000000000000000000000000000000000602082015250565b6000614dc8602283613dd1565b9150614dd382614d6c565b604082019050919050565b60006020820190508181036000830152614df781614dbb565b9050919050565b7f455243373231413a20756e61626c6520746f2067657420746f6b656e206f662060008201527f6f776e657220627920696e646578000000000000000000000000000000000000602082015250565b6000614e5a602e83613dd1565b9150614e6582614dfe565b604082019050919050565b60006020820190508181036000830152614e8981614e4d565b9050919050565b7f4552433732314275726e61626c653a2063616c6c6572206973206e6f74206f7760008201527f6e6572206e6f7220617070726f76656400000000000000000000000000000000602082015250565b6000614eec603083613dd1565b9150614ef782614e90565b604082019050919050565b60006020820190508181036000830152614f1b81614edf565b9050919050565b7f455243373231413a20676c6f62616c20696e646578206f7574206f6620626f7560008201527f6e64730000000000000000000000000000000000000000000000000000000000602082015250565b6000614f7e602383613dd1565b9150614f8982614f22565b604082019050919050565b60006020820190508181036000830152614fad81614f71565b9050919050565b7f455243373231413a2062616c616e636520717565727920666f7220746865207a60008201527f65726f2061646472657373000000000000000000000000000000000000000000602082015250565b6000615010602b83613dd1565b915061501b82614fb4565b604082019050919050565b6000602082019050818103600083015261503f81615003565b9050919050565b7f455243373231413a20617070726f766520746f2063616c6c6572000000000000600082015250565b600061507c601a83613dd1565b915061508782615046565b602082019050919050565b600060208201905081810360008301526150ab8161506f565b9050919050565b7f455243373231413a207472616e7366657220746f206e6f6e204552433732315260008201527f6563656976657220696d706c656d656e74657200000000000000000000000000602082015250565b600061510e603383613dd1565b9150615119826150b2565b604082019050919050565b6000602082019050818103600083015261513d81615101565b9050919050565b7f4552433732314d657461646174613a2055524920717565727920666f72206e6f60008201527f6e6578697374656e7420746f6b656e0000000000000000000000000000000000602082015250565b60006151a0602f83613dd1565b91506151ab82615144565b604082019050919050565b600060208201905081810360008301526151cf81615193565b9050919050565b600081905092915050565b60006151ec82613dc6565b6151f681856151d6565b9350615206818560208601613de2565b80840191505092915050565b7f2e6a736f6e000000000000000000000000000000000000000000000000000000600082015250565b60006152486005836151d6565b915061525382615212565b600582019050919050565b600061526a82856151e1565b915061527682846151e1565b91506152818261523b565b91508190509392505050565b7f4f776e61626c653a206e6577206f776e657220697320746865207a65726f206160008201527f6464726573730000000000000000000000000000000000000000000000000000602082015250565b60006152e9602683613dd1565b91506152f48261528d565b604082019050919050565b60006020820190508181036000830152615318816152dc565b9050919050565b7f455243373231413a207472616e736665722063616c6c6572206973206e6f742060008201527f6f776e6572206e6f7220617070726f7665640000000000000000000000000000602082015250565b600061537b603283613dd1565b91506153868261531f565b604082019050919050565b600060208201905081810360008301526153aa8161536e565b9050919050565b7f455243373231413a207472616e736665722066726f6d20696e636f727265637460008201527f206f776e65720000000000000000000000000000000000000000000000000000602082015250565b600061540d602683613dd1565b9150615418826153b1565b604082019050919050565b6000602082019050818103600083015261543c81615400565b9050919050565b7f455243373231413a207472616e7366657220746f20746865207a65726f20616460008201527f6472657373000000000000000000000000000000000000000000000000000000602082015250565b600061549f602583613dd1565b91506154aa82615443565b604082019050919050565b600060208201905081810360008301526154ce81615492565b9050919050565b60006fffffffffffffffffffffffffffffffff82169050919050565b60006154fc826154d5565b9150615507836154d5565b92508282101561551a57615519614715565b5b828203905092915050565b6000615530826154d5565b915061553b836154d5565b9250826fffffffffffffffffffffffffffffffff038211156155605761555f614715565b5b828201905092915050565b7f5061757361626c653a206e6f7420706175736564000000000000000000000000600082015250565b60006155a1601483613dd1565b91506155ac8261556b565b602082019050919050565b600060208201905081810360008301526155d081615594565b9050919050565b7f4552433732313a206f70657261746f7220717565727920666f72206e6f6e657860008201527f697374656e7420746f6b656e0000000000000000000000000000000000000000602082015250565b6000615633602c83613dd1565b915061563e826155d7565b604082019050919050565b6000602082019050818103600083015261566281615626565b9050919050565b7f416464726573733a20696e73756666696369656e742062616c616e6365000000600082015250565b600061569f601d83613dd1565b91506156aa82615669565b602082019050919050565b600060208201905081810360008301526156ce81615692565b9050919050565b600081905092915050565b50565b60006156f06000836156d5565b91506156fb826156e0565b600082019050919050565b6000615711826156e3565b9150819050919050565b7f416464726573733a20756e61626c6520746f2073656e642076616c75652c207260008201527f6563697069656e74206d61792068617665207265766572746564000000000000602082015250565b6000615777603a83613dd1565b91506157828261571b565b604082019050919050565b600060208201905081810360008301526157a68161576a565b9050919050565b7f455243373231413a206f776e657220717565727920666f72206e6f6e6578697360008201527f74656e7420746f6b656e00000000000000000000000000000000000000000000602082015250565b6000615809602a83613dd1565b9150615814826157ad565b604082019050919050565b60006020820190508181036000830152615838816157fc565b9050919050565b600061584a82613d50565b9150600082141561585e5761585d614715565b5b600182039050919050565b7f455243373231413a20756e61626c6520746f2064657465726d696e652074686560008201527f206f776e6572206f6620746f6b656e0000000000000000000000000000000000602082015250565b60006158c5602f83613dd1565b91506158d082615869565b604082019050919050565b600060208201905081810360008301526158f4816158b8565b9050919050565b600081519050919050565b600082825260208201905092915050565b6000615922826158fb565b61592c8185615906565b935061593c818560208601613de2565b61594581613e15565b840191505092915050565b60006080820190506159656000830187613eae565b6159726020830186613eae565b61597f6040830185613ed8565b81810360608301526159918184615917565b905095945050505050565b6000815190506159ab81613c63565b92915050565b6000602082840312156159c7576159c6613c2d565b5b60006159d58482850161599c565b91505092915050565b60006159e982613d50565b91506159f483613d50565b925082615a0457615a03614ca0565b5b828206905092915050565b7f4e487b7100000000000000000000000000000000000000000000000000000000600052603260045260246000fd5b6000819050919050565b6000819050919050565b615a63615a5e82615a3e565b615a48565b82525050565b6000615a758285615a52565b602082019150615a858284615a52565b6020820191508190509392505050565b7f455243373231413a206d696e7420746f20746865207a65726f2061646472657360008201527f7300000000000000000000000000000000000000000000000000000000000000602082015250565b6000615af1602183613dd1565b9150615afc82615a95565b604082019050919050565b60006020820190508181036000830152615b2081615ae4565b9050919050565b7f455243373231413a20746f6b656e20616c7265616479206d696e746564000000600082015250565b6000615b5d601d83613dd1565b9150615b6882615b27565b602082019050919050565b60006020820190508181036000830152615b8c81615b50565b9050919050565b7f455243373231413a207175616e7469747920746f206d696e7420746f6f20686960008201527f6768000000000000000000000000000000000000000000000000000000000000602082015250565b6000615bef602283613dd1565b9150615bfa82615b93565b604082019050919050565b60006020820190508181036000830152615c1e81615be2565b9050919050565b7f455243373231413a207175616e7469747920746f206d696e742065786365656460008201527f696e6720636f6c6c656369746f6e2073697a652e000000000000000000000000602082015250565b6000615c81603483613dd1565b9150615c8c82615c25565b604082019050919050565b60006020820190508181036000830152615cb081615c74565b905091905056fea2646970667358221220ec433560235abf538a6b074e624ae70d6641251bfa4495f2c425bf1b98ad8dc864736f6c634300080a0033",
  "immutableReferences": {
    "1212": [
      {
        "length": 32,
        "start": 14102
      }
    ],
    "1214": [
      {
        "length": 32,
        "start": 11767
      },
      {
        "length": 32,
        "start": 11808
      },
      {
        "length": 32,
        "start": 14003
      }
    ]
  },
  "source": "// SPDX-License-Identifier: MIT\npragma solidity ^0.8.9;\n\nimport \"@openzeppelin/contracts/utils/cryptography/MerkleProof.sol\";\nimport \"@openzeppelin/contracts/access/Ownable.sol\";\nimport \"@openzeppelin/contracts/security/ReentrancyGuard.sol\";\nimport \"@openzeppelin/contracts/interfaces/IERC2981.sol\";\nimport \"@openzeppelin/contracts/utils/Counters.sol\";\nimport \"@openzeppelin/contracts/utils/Address.sol\";\nimport '@openzeppelin/contracts/security/Pausable.sol';\nimport \"./ERC721A.sol\";\n\ncontract NoMaGuild is ERC721A, IERC2981, ReentrancyGuard, Ownable, Pausable  {\n    using Counters for Counters.Counter;\n\n    // Contract immutables\n    uint256 public maxMummies = 0;\n    uint256 public maxWhitelist = 0;\n    uint256 public mintLimitPerWallet = 0;\n\n    // Constants\n    uint256 public constant ROYALTY_RATE = 2; // 2%\n    uint256 public constant WHITELIST_PRICE = 0.04096 ether;\n    uint256 public constant PUBLIC_PRICE = 0.08192 ether;\n\n    // Constructur set constants\n    bytes32 internal merkleRoot;\n    string public baseTokenURI;\n\n    // Switches\n    bool internal IS_WHITELIST_SALE_OPEN = false;\n    bool internal IS_PUBLIC_SALE_OPEN = false;\n\n    Counters.Counter private whitelistedMummyCounter;\n\n    event WhitelistSaleEvent(bool pause);\n    event PublicSaleEvent(bool pause);\n\n    constructor(\n        string memory _symbol,\n        string memory _name,\n        uint256 _maxMummies,\n        uint256 _maxWhitelist,\n        uint256 _mintLimitPerWallet,\n        string memory baseURI,\n        bytes32 _merkleRoot\n    ) ERC721A(_symbol, _name, _mintLimitPerWallet, _maxMummies) {\n        maxMummies = _maxMummies;\n        maxWhitelist = _maxWhitelist;\n        mintLimitPerWallet = _mintLimitPerWallet;\n        merkleRoot = _merkleRoot;\n        setBaseURI(baseURI);\n    }\n\n    modifier notSoldOut() {\n        require(totalSupply() <= maxMummies, \"Soldout!\");\n        _;\n    }\n\n    modifier whitelistSaleIsOpen() {\n        require(IS_WHITELIST_SALE_OPEN, \"Whitelist sales not open\");\n        require(whitelistedMummiesMinted() <= maxWhitelist, \"Whitelist soldout!\");\n        require(totalSupply() <= maxMummies, \"Soldout!\");\n        _;\n    }\n\n    modifier publicSaleIsOpen() {\n        require(IS_PUBLIC_SALE_OPEN, \"Public sales not open\");\n        require(totalSupply() <= maxMummies, \"Soldout!\");\n        _;\n    }\n\n   modifier callerIsUser() {\n        require(tx.origin == msg.sender, \"The caller is another contract\");\n        _;\n   }\n\n    function whitelistedMummiesMinted() public view returns (uint256) {\n        return whitelistedMummyCounter.current();\n    }\n\n    function setBaseURI(string memory baseURI) public onlyOwner {\n        baseTokenURI = baseURI;\n    }\n\n    function _baseURI() internal view virtual override returns (string memory) {\n        return baseTokenURI;\n    }\n\n    function whitelistMint(bytes32[] calldata _merkleProof, uint256 _quantity)\n        public\n        payable\n        nonReentrant\n        callerIsUser\n        whitelistSaleIsOpen\n        whenNotPaused\n    {\n        require(_quantity <= mintLimitPerWallet, \"Exceeded limit per wallet!\");\n        require(whitelistedMummiesMinted() + _quantity <= maxWhitelist, \"Exceeded whitelist supply!\");\n        require(msg.value >= WHITELIST_PRICE * _quantity, \"Insufficient payment per item\");\n\n        address _to = msg.sender;\n\n        // Verify whitelisted address with MerkleProof\n        bytes32 leaf = keccak256(abi.encodePacked(_to));\n        require(\n            MerkleProof.verify(_merkleProof, merkleRoot, leaf),\n            \"Not whitelisted\"\n        );\n\n        // Mint\n        for (uint256 i = 0; i < _quantity; i++) {\n            whitelistedMummyCounter.increment();\n        }\n        _mintMummy(_to, _quantity);\n    }\n\n    function publicMint(uint256 _quantity) public payable callerIsUser publicSaleIsOpen whenNotPaused {\n        require(_quantity <= mintLimitPerWallet, \"Exceeded limit per wallet!\");\n\n        address _to = msg.sender;\n\n        // Verify there's enough money sent\n        require(msg.value >= PUBLIC_PRICE * _quantity, \"Insufficient payment per item\");\n\n        // Mint\n        _mintMummy(_to, _quantity);\n    }\n\n    // Only OWNER\n\n    function giveawayMint(address _to, uint256 _quantity) public onlyOwner notSoldOut {\n        _mintMummy(_to, _quantity);\n    }\n\n    function setWhitelistSale(bool _b) public onlyOwner {\n        IS_WHITELIST_SALE_OPEN = _b;\n        emit WhitelistSaleEvent(_b);\n    }\n\n    function setPublicSale(bool _b) public onlyOwner {\n        IS_PUBLIC_SALE_OPEN = _b;\n        emit PublicSaleEvent(_b);\n    }\n\n    function widthdraw() public onlyOwner {\n        uint256 balance = address(this).balance;\n        require(balance > 0);\n        Address.sendValue(payable(owner()), balance);\n    }\n\n    function pause() external onlyOwner {\n        _pause();\n    }\n\n    function unpause() external onlyOwner {\n        _unpause();\n    }\n\n    function burn(uint256 tokenId) whenNotPaused public {\n        //solhint-disable-next-line max-line-length\n        require(_isApprovedOrOwner(_msgSender(), tokenId), \"ERC721Burnable: caller is not owner nor approved\");\n        _burn(tokenId);\n    }\n\n    // ROYALTIES\n\n    function royaltyInfo(uint256, uint256 salePrice) external view override\n        returns (address receiver, uint256 royaltyAmount)\n    {\n        return (address(this), (salePrice * ROYALTY_RATE) / 100);\n    }\n\n    function supportsInterface(bytes4 interfaceId)\n        public\n        view\n        virtual\n        override(ERC721A, IERC165)\n        returns (bool)\n    {\n        return (\n            interfaceId == type(IERC2981).interfaceId ||\n            super.supportsInterface(interfaceId)\n        );\n    }\n\n    // PRIVATE\n\n    function _mintMummy(address _to, uint256 _quantity) private {\n        _safeMint(_to, _quantity);\n    }\n}\n",
  "sourcePath": "/Users/martincik/Projects/amenti/nft/nomaguild/contracts/mint/contracts/NoMaGuild.sol",
  "compiler": {
    "name": "solc",
    "version": "0.8.10+commit.fc410830.Emscripten.clang"
  },
  "schemaVersion": "3.4.4",
  "updatedAt": "2022-02-18T11:48:59.621Z",
  "networkType": "ethereum",
  "devdoc": {
    "kind": "dev",
    "methods": {
      "approve(address,uint256)": {
        "details": "See {IERC721-approve}."
      },
      "balanceOf(address)": {
        "details": "See {IERC721-balanceOf}."
      },
      "getApproved(uint256)": {
        "details": "See {IERC721-getApproved}."
      },
      "isApprovedForAll(address,address)": {
        "details": "See {IERC721-isApprovedForAll}."
      },
      "name()": {
        "details": "See {IERC721Metadata-name}."
      },
      "owner()": {
        "details": "Returns the address of the current owner."
      },
      "ownerOf(uint256)": {
        "details": "See {IERC721-ownerOf}."
      },
      "paused()": {
        "details": "Returns true if the contract is paused, and false otherwise."
      },
      "renounceOwnership()": {
        "details": "Leaves the contract without owner. It will not be possible to call `onlyOwner` functions anymore. Can only be called by the current owner. NOTE: Renouncing ownership will leave the contract without an owner, thereby removing any functionality that is only available to the owner."
      },
      "safeTransferFrom(address,address,uint256)": {
        "details": "See {IERC721-safeTransferFrom}."
      },
      "safeTransferFrom(address,address,uint256,bytes)": {
        "details": "See {IERC721-safeTransferFrom}."
      },
      "setApprovalForAll(address,bool)": {
        "details": "See {IERC721-setApprovalForAll}."
      },
      "symbol()": {
        "details": "See {IERC721Metadata-symbol}."
      },
      "tokenByIndex(uint256)": {
        "details": "See {IERC721Enumerable-tokenByIndex}."
      },
      "tokenOfOwnerByIndex(address,uint256)": {
        "details": "See {IERC721Enumerable-tokenOfOwnerByIndex}. This read function is O(collectionSize). If calling from a separate contract, be sure to test gas first. It may also degrade with extremely large collection sizes (e.g >> 10000), test for your use case."
      },
      "tokenURI(uint256)": {
        "details": "See {IERC721Metadata-tokenURI}."
      },
      "totalSupply()": {
        "details": "See {IERC721Enumerable-totalSupply}."
      },
      "transferFrom(address,address,uint256)": {
        "details": "See {IERC721-transferFrom}."
      },
      "transferOwnership(address)": {
        "details": "Transfers ownership of the contract to a new account (`newOwner`). Can only be called by the current owner."
      }
    },
    "version": 1
  },
  "userdoc": {
    "kind": "user",
    "methods": {},
    "version": 1
  }
}