{
  "contractName": "NoMaGuild",
  "abi": [
    {
      "inputs": [
        {
          "internalType": "string",
          "name": "_symbol",
          "type": "string"
        },
        {
          "internalType": "string",
          "name": "_name",
          "type": "string"
        },
        {
          "internalType": "string",
          "name": "baseURI",
          "type": "string"
        },
        {
          "internalType": "bytes32",
          "name": "_merkleRoot",
          "type": "bytes32"
        },
        {
          "internalType": "address",
          "name": "_creatorsAdreess",
          "type": "address"
        }
      ],
      "stateMutability": "nonpayable",
      "type": "constructor"
    },
    {
      "anonymous": false,
      "inputs": [
        {
          "indexed": true,
          "internalType": "address",
          "name": "owner",
          "type": "address"
        },
        {
          "indexed": true,
          "internalType": "address",
          "name": "approved",
          "type": "address"
        },
        {
          "indexed": true,
          "internalType": "uint256",
          "name": "tokenId",
          "type": "uint256"
        }
      ],
      "name": "Approval",
      "type": "event"
    },
    {
      "anonymous": false,
      "inputs": [
        {
          "indexed": true,
          "internalType": "address",
          "name": "owner",
          "type": "address"
        },
        {
          "indexed": true,
          "internalType": "address",
          "name": "operator",
          "type": "address"
        },
        {
          "indexed": false,
          "internalType": "bool",
          "name": "approved",
          "type": "bool"
        }
      ],
      "name": "ApprovalForAll",
      "type": "event"
    },
    {
      "anonymous": false,
      "inputs": [
        {
          "indexed": true,
          "internalType": "uint256",
          "name": "id",
          "type": "uint256"
        },
        {
          "indexed": false,
          "internalType": "address",
          "name": "_to",
          "type": "address"
        }
      ],
      "name": "MummyMinted",
      "type": "event"
    },
    {
      "anonymous": false,
      "inputs": [
        {
          "indexed": true,
          "internalType": "address",
          "name": "previousOwner",
          "type": "address"
        },
        {
          "indexed": true,
          "internalType": "address",
          "name": "newOwner",
          "type": "address"
        }
      ],
      "name": "OwnershipTransferred",
      "type": "event"
    },
    {
      "anonymous": false,
      "inputs": [
        {
          "indexed": false,
          "internalType": "bool",
          "name": "pause",
          "type": "bool"
        }
      ],
      "name": "PublicSaleEvent",
      "type": "event"
    },
    {
      "anonymous": false,
      "inputs": [
        {
          "indexed": true,
          "internalType": "address",
          "name": "from",
          "type": "address"
        },
        {
          "indexed": true,
          "internalType": "address",
          "name": "to",
          "type": "address"
        },
        {
          "indexed": true,
          "internalType": "uint256",
          "name": "tokenId",
          "type": "uint256"
        }
      ],
      "name": "Transfer",
      "type": "event"
    },
    {
      "anonymous": false,
      "inputs": [
        {
          "indexed": false,
          "internalType": "bool",
          "name": "pause",
          "type": "bool"
        }
      ],
      "name": "WhitelistSaleEvent",
      "type": "event"
    },
    {
      "inputs": [],
      "name": "MAX_MUMMIES",
      "outputs": [
        {
          "internalType": "uint256",
          "name": "",
          "type": "uint256"
        }
      ],
      "stateMutability": "view",
      "type": "function"
    },
    {
      "inputs": [],
      "name": "PRICE",
      "outputs": [
        {
          "internalType": "uint256",
          "name": "",
          "type": "uint256"
        }
      ],
      "stateMutability": "view",
      "type": "function"
    },
    {
      "inputs": [
        {
          "internalType": "address",
          "name": "to",
          "type": "address"
        },
        {
          "internalType": "uint256",
          "name": "tokenId",
          "type": "uint256"
        }
      ],
      "name": "approve",
      "outputs": [],
      "stateMutability": "nonpayable",
      "type": "function"
    },
    {
      "inputs": [
        {
          "internalType": "address",
          "name": "owner",
          "type": "address"
        }
      ],
      "name": "balanceOf",
      "outputs": [
        {
          "internalType": "uint256",
          "name": "",
          "type": "uint256"
        }
      ],
      "stateMutability": "view",
      "type": "function"
    },
    {
      "inputs": [],
      "name": "creatorAddress",
      "outputs": [
        {
          "internalType": "address",
          "name": "",
          "type": "address"
        }
      ],
      "stateMutability": "view",
      "type": "function"
    },
    {
      "inputs": [
        {
          "internalType": "uint256",
          "name": "tokenId",
          "type": "uint256"
        }
      ],
      "name": "getApproved",
      "outputs": [
        {
          "internalType": "address",
          "name": "",
          "type": "address"
        }
      ],
      "stateMutability": "view",
      "type": "function"
    },
    {
      "inputs": [
        {
          "internalType": "address",
          "name": "owner",
          "type": "address"
        },
        {
          "internalType": "address",
          "name": "operator",
          "type": "address"
        }
      ],
      "name": "isApprovedForAll",
      "outputs": [
        {
          "internalType": "bool",
          "name": "",
          "type": "bool"
        }
      ],
      "stateMutability": "view",
      "type": "function"
    },
    {
      "inputs": [],
      "name": "merkleRoot",
      "outputs": [
        {
          "internalType": "bytes32",
          "name": "",
          "type": "bytes32"
        }
      ],
      "stateMutability": "view",
      "type": "function"
    },
    {
      "inputs": [],
      "name": "name",
      "outputs": [
        {
          "internalType": "string",
          "name": "",
          "type": "string"
        }
      ],
      "stateMutability": "view",
      "type": "function"
    },
    {
      "inputs": [],
      "name": "owner",
      "outputs": [
        {
          "internalType": "address",
          "name": "",
          "type": "address"
        }
      ],
      "stateMutability": "view",
      "type": "function"
    },
    {
      "inputs": [
        {
          "internalType": "uint256",
          "name": "tokenId",
          "type": "uint256"
        }
      ],
      "name": "ownerOf",
      "outputs": [
        {
          "internalType": "address",
          "name": "",
          "type": "address"
        }
      ],
      "stateMutability": "view",
      "type": "function"
    },
    {
      "inputs": [
        {
          "internalType": "uint256",
          "name": "tokenId",
          "type": "uint256"
        }
      ],
      "name": "rawOwnerOf",
      "outputs": [
        {
          "internalType": "address",
          "name": "",
          "type": "address"
        }
      ],
      "stateMutability": "view",
      "type": "function"
    },
    {
      "inputs": [],
      "name": "renounceOwnership",
      "outputs": [],
      "stateMutability": "nonpayable",
      "type": "function"
    },
    {
      "inputs": [
        {
          "internalType": "address",
          "name": "from",
          "type": "address"
        },
        {
          "internalType": "address",
          "name": "to",
          "type": "address"
        },
        {
          "internalType": "uint256",
          "name": "tokenId",
          "type": "uint256"
        }
      ],
      "name": "safeTransferFrom",
      "outputs": [],
      "stateMutability": "nonpayable",
      "type": "function"
    },
    {
      "inputs": [
        {
          "internalType": "address",
          "name": "from",
          "type": "address"
        },
        {
          "internalType": "address",
          "name": "to",
          "type": "address"
        },
        {
          "internalType": "uint256",
          "name": "tokenId",
          "type": "uint256"
        },
        {
          "internalType": "bytes",
          "name": "_data",
          "type": "bytes"
        }
      ],
      "name": "safeTransferFrom",
      "outputs": [],
      "stateMutability": "nonpayable",
      "type": "function"
    },
    {
      "inputs": [
        {
          "internalType": "address",
          "name": "",
          "type": "address"
        }
      ],
      "name": "saleClaimed",
      "outputs": [
        {
          "internalType": "bool",
          "name": "",
          "type": "bool"
        }
      ],
      "stateMutability": "view",
      "type": "function"
    },
    {
      "inputs": [
        {
          "internalType": "address",
          "name": "operator",
          "type": "address"
        },
        {
          "internalType": "bool",
          "name": "approved",
          "type": "bool"
        }
      ],
      "name": "setApprovalForAll",
      "outputs": [],
      "stateMutability": "nonpayable",
      "type": "function"
    },
    {
      "inputs": [
        {
          "internalType": "bytes4",
          "name": "interfaceId",
          "type": "bytes4"
        }
      ],
      "name": "supportsInterface",
      "outputs": [
        {
          "internalType": "bool",
          "name": "",
          "type": "bool"
        }
      ],
      "stateMutability": "view",
      "type": "function"
    },
    {
      "inputs": [],
      "name": "symbol",
      "outputs": [
        {
          "internalType": "string",
          "name": "",
          "type": "string"
        }
      ],
      "stateMutability": "view",
      "type": "function"
    },
    {
      "inputs": [
        {
          "internalType": "uint256",
          "name": "index",
          "type": "uint256"
        }
      ],
      "name": "tokenByIndex",
      "outputs": [
        {
          "internalType": "uint256",
          "name": "",
          "type": "uint256"
        }
      ],
      "stateMutability": "view",
      "type": "function"
    },
    {
      "inputs": [
        {
          "internalType": "address",
          "name": "owner",
          "type": "address"
        },
        {
          "internalType": "uint256",
          "name": "index",
          "type": "uint256"
        }
      ],
      "name": "tokenOfOwnerByIndex",
      "outputs": [
        {
          "internalType": "uint256",
          "name": "",
          "type": "uint256"
        }
      ],
      "stateMutability": "view",
      "type": "function"
    },
    {
      "inputs": [
        {
          "internalType": "uint256",
          "name": "tokenId",
          "type": "uint256"
        }
      ],
      "name": "tokenURI",
      "outputs": [
        {
          "internalType": "string",
          "name": "",
          "type": "string"
        }
      ],
      "stateMutability": "view",
      "type": "function"
    },
    {
      "inputs": [],
      "name": "totalSupply",
      "outputs": [
        {
          "internalType": "uint256",
          "name": "",
          "type": "uint256"
        }
      ],
      "stateMutability": "view",
      "type": "function"
    },
    {
      "inputs": [
        {
          "internalType": "address",
          "name": "from",
          "type": "address"
        },
        {
          "internalType": "address",
          "name": "to",
          "type": "address"
        },
        {
          "internalType": "uint256",
          "name": "tokenId",
          "type": "uint256"
        }
      ],
      "name": "transferFrom",
      "outputs": [],
      "stateMutability": "nonpayable",
      "type": "function"
    },
    {
      "inputs": [
        {
          "internalType": "address",
          "name": "newOwner",
          "type": "address"
        }
      ],
      "name": "transferOwnership",
      "outputs": [],
      "stateMutability": "nonpayable",
      "type": "function"
    },
    {
      "inputs": [
        {
          "internalType": "string",
          "name": "baseURI",
          "type": "string"
        }
      ],
      "name": "setBaseURI",
      "outputs": [],
      "stateMutability": "nonpayable",
      "type": "function"
    },
    {
      "inputs": [],
      "name": "mummiesMinted",
      "outputs": [
        {
          "internalType": "uint256",
          "name": "",
          "type": "uint256"
        }
      ],
      "stateMutability": "view",
      "type": "function"
    },
    {
      "inputs": [
        {
          "internalType": "bytes32[]",
          "name": "_merkleProof",
          "type": "bytes32[]"
        }
      ],
      "name": "whitelistMint",
      "outputs": [],
      "stateMutability": "payable",
      "type": "function"
    },
    {
      "inputs": [],
      "name": "publicMint",
      "outputs": [],
      "stateMutability": "payable",
      "type": "function"
    },
    {
      "inputs": [
        {
          "internalType": "address",
          "name": "_to",
          "type": "address"
        }
      ],
      "name": "giveawayMint",
      "outputs": [],
      "stateMutability": "nonpayable",
      "type": "function"
    },
    {
      "inputs": [
        {
          "internalType": "bool",
          "name": "_b",
          "type": "bool"
        }
      ],
      "name": "setWhitelistSale",
      "outputs": [],
      "stateMutability": "nonpayable",
      "type": "function"
    },
    {
      "inputs": [
        {
          "internalType": "bool",
          "name": "_b",
          "type": "bool"
        }
      ],
      "name": "setPublicSale",
      "outputs": [],
      "stateMutability": "nonpayable",
      "type": "function"
    },
    {
      "inputs": [],
      "name": "withdrawAll",
      "outputs": [],
      "stateMutability": "nonpayable",
      "type": "function"
    }
  ],
  "bytecode": "0x60806040526000600e60006101000a81548160ff0219169083151502179055506000600e60016101000a81548160ff0219169083151502179055503480156200004757600080fd5b5060405162004f8938038062004f8983398181016040528101906200006d9190620005b7565b8484816000908051906020019062000087929190620002ca565b508060019080519060200190620000a0929190620002ca565b505050620000c3620000b76200012760201b60201c565b6200012f60201b60201c565b80600b60006101000a81548173ffffffffffffffffffffffffffffffffffffffff021916908373ffffffffffffffffffffffffffffffffffffffff16021790555081600c819055506200011c83620001f560201b60201c565b505050505062000784565b600033905090565b6000600a60009054906101000a900473ffffffffffffffffffffffffffffffffffffffff16905081600a60006101000a81548173ffffffffffffffffffffffffffffffffffffffff021916908373ffffffffffffffffffffffffffffffffffffffff1602179055508173ffffffffffffffffffffffffffffffffffffffff168173ffffffffffffffffffffffffffffffffffffffff167f8be0079c531659141344cd1fd0a4f28419497f9722a3daafe3b4186f6b6457e060405160405180910390a35050565b620002056200012760201b60201c565b73ffffffffffffffffffffffffffffffffffffffff166200022b620002a060201b60201c565b73ffffffffffffffffffffffffffffffffffffffff161462000284576040517f08c379a00000000000000000000000000000000000000000000000000000000081526004016200027b90620006fd565b60405180910390fd5b80600f90805190602001906200029c929190620002ca565b5050565b6000600a60009054906101000a900473ffffffffffffffffffffffffffffffffffffffff16905090565b828054620002d8906200074e565b90600052602060002090601f016020900481019282620002fc576000855562000348565b82601f106200031757805160ff191683800117855562000348565b8280016001018555821562000348579182015b82811115620003475782518255916020019190600101906200032a565b5b5090506200035791906200035b565b5090565b5b80821115620003765760008160009055506001016200035c565b5090565b6000604051905090565b600080fd5b600080fd5b600080fd5b600080fd5b6000601f19601f8301169050919050565b7f4e487b7100000000000000000000000000000000000000000000000000000000600052604160045260246000fd5b620003e38262000398565b810181811067ffffffffffffffff82111715620004055762000404620003a9565b5b80604052505050565b60006200041a6200037a565b9050620004288282620003d8565b919050565b600067ffffffffffffffff8211156200044b576200044a620003a9565b5b620004568262000398565b9050602081019050919050565b60005b838110156200048357808201518184015260208101905062000466565b8381111562000493576000848401525b50505050565b6000620004b0620004aa846200042d565b6200040e565b905082815260208101848484011115620004cf57620004ce62000393565b5b620004dc84828562000463565b509392505050565b600082601f830112620004fc57620004fb6200038e565b5b81516200050e84826020860162000499565b91505092915050565b6000819050919050565b6200052c8162000517565b81146200053857600080fd5b50565b6000815190506200054c8162000521565b92915050565b600073ffffffffffffffffffffffffffffffffffffffff82169050919050565b60006200057f8262000552565b9050919050565b620005918162000572565b81146200059d57600080fd5b50565b600081519050620005b18162000586565b92915050565b600080600080600060a08688031215620005d657620005d562000384565b5b600086015167ffffffffffffffff811115620005f757620005f662000389565b5b6200060588828901620004e4565b955050602086015167ffffffffffffffff81111562000629576200062862000389565b5b6200063788828901620004e4565b945050604086015167ffffffffffffffff8111156200065b576200065a62000389565b5b6200066988828901620004e4565b93505060606200067c888289016200053b565b92505060806200068f88828901620005a0565b9150509295509295909350565b600082825260208201905092915050565b7f4f776e61626c653a2063616c6c6572206973206e6f7420746865206f776e6572600082015250565b6000620006e56020836200069c565b9150620006f282620006ad565b602082019050919050565b600060208201905081810360008301526200071881620006d6565b9050919050565b7f4e487b7100000000000000000000000000000000000000000000000000000000600052602260045260246000fd5b600060028204905060018216806200076757607f821691505b602082108114156200077e576200077d6200071f565b5b50919050565b6147f580620007946000396000f3fe6080604052600436106101ee5760003560e01c806370a082311161010d578063a22cb465116100a0578063ca7ce3ec1161006f578063ca7ce3ec146106e1578063e927fc5c1461070a578063e985e9c514610735578063eab091dd14610772578063f2fde38b1461079d576101ee565b8063a22cb46514610629578063b88d4fde14610652578063c50d0b631461067b578063c87b56dd146106a4576101ee565b806385c0deb5116100dc57806385c0deb51461057d5780638d859f3e146105a85780638da5cb5b146105d357806395d89b41146105fe576101ee565b806370a08231146104d5578063715018a6146105125780637f81be6914610529578063853828b614610566576101ee565b80632f745c59116101855780634f6ccce7116101545780634f6ccce71461040957806355f804b3146104465780635aca1bb61461046f5780636352211e14610498576101ee565b80632f745c591461034a578063372f657c1461038757806342842e0e146103a35780634c0dab04146103cc576101ee565b806318160ddd116101c157806318160ddd146102c157806323b872dd146102ec57806326092b83146103155780632eb4a7ab1461031f576101ee565b806301ffc9a7146101f357806306fdde0314610230578063081812fc1461025b578063095ea7b314610298575b600080fd5b3480156101ff57600080fd5b5061021a60048036038101906102159190612f45565b6107c6565b6040516102279190612f8d565b60405180910390f35b34801561023c57600080fd5b50610245610840565b6040516102529190613041565b60405180910390f35b34801561026757600080fd5b50610282600480360381019061027d9190613099565b6108d2565b60405161028f9190613107565b60405180910390f35b3480156102a457600080fd5b506102bf60048036038101906102ba919061314e565b610957565b005b3480156102cd57600080fd5b506102d6610a6f565b6040516102e3919061319d565b60405180910390f35b3480156102f857600080fd5b50610313600480360381019061030e91906131b8565b610a7c565b005b61031d610adc565b005b34801561032b57600080fd5b50610334610cbf565b6040516103419190613224565b60405180910390f35b34801561035657600080fd5b50610371600480360381019061036c919061314e565b610cc5565b60405161037e919061319d565b60405180910390f35b6103a1600480360381019061039c91906132a4565b610d6a565b005b3480156103af57600080fd5b506103ca60048036038101906103c591906131b8565b611008565b005b3480156103d857600080fd5b506103f360048036038101906103ee91906132f1565b611028565b6040516104009190612f8d565b60405180910390f35b34801561041557600080fd5b50610430600480360381019061042b9190613099565b611048565b60405161043d919061319d565b60405180910390f35b34801561045257600080fd5b5061046d6004803603810190610468919061344e565b6110b9565b005b34801561047b57600080fd5b50610496600480360381019061049191906134c3565b61114f565b005b3480156104a457600080fd5b506104bf60048036038101906104ba9190613099565b61121f565b6040516104cc9190613107565b60405180910390f35b3480156104e157600080fd5b506104fc60048036038101906104f791906132f1565b6112d1565b604051610509919061319d565b60405180910390f35b34801561051e57600080fd5b50610527611389565b005b34801561053557600080fd5b50610550600480360381019061054b9190613099565b611411565b60405161055d9190613107565b60405180910390f35b34801561057257600080fd5b5061057b61144e565b005b34801561058957600080fd5b5061059261150b565b60405161059f919061319d565b60405180910390f35b3480156105b457600080fd5b506105bd611511565b6040516105ca919061319d565b60405180910390f35b3480156105df57600080fd5b506105e861151c565b6040516105f59190613107565b60405180910390f35b34801561060a57600080fd5b50610613611546565b6040516106209190613041565b60405180910390f35b34801561063557600080fd5b50610650600480360381019061064b91906134f0565b6115d8565b005b34801561065e57600080fd5b50610679600480360381019061067491906135d1565b611759565b005b34801561068757600080fd5b506106a2600480360381019061069d91906132f1565b6117bb565b005b3480156106b057600080fd5b506106cb60048036038101906106c69190613099565b6118ef565b6040516106d89190613041565b60405180910390f35b3480156106ed57600080fd5b50610708600480360381019061070391906134c3565b611996565b005b34801561071657600080fd5b5061071f611a66565b60405161072c9190613107565b60405180910390f35b34801561074157600080fd5b5061075c60048036038101906107579190613654565b611a8c565b6040516107699190612f8d565b60405180910390f35b34801561077e57600080fd5b50610787611b20565b604051610794919061319d565b60405180910390f35b3480156107a957600080fd5b506107c460048036038101906107bf91906132f1565b611b2f565b005b60007f780e9d63000000000000000000000000000000000000000000000000000000007bffffffffffffffffffffffffffffffffffffffffffffffffffffffff1916827bffffffffffffffffffffffffffffffffffffffffffffffffffffffff19161480610839575061083882611c27565b5b9050919050565b60606000805461084f906136c3565b80601f016020809104026020016040519081016040528092919081815260200182805461087b906136c3565b80156108c85780601f1061089d576101008083540402835291602001916108c8565b820191906000526020600020905b8154815290600101906020018083116108ab57829003601f168201915b5050505050905090565b60006108dd82611d09565b61091c576040517f08c379a000000000000000000000000000000000000000000000000000000000815260040161091390613767565b60405180910390fd5b6004600083815260200190815260200160002060009054906101000a900473ffffffffffffffffffffffffffffffffffffffff169050919050565b60006109628261121f565b90508073ffffffffffffffffffffffffffffffffffffffff168373ffffffffffffffffffffffffffffffffffffffff1614156109d3576040517f08c379a00000000000000000000000000000000000000000000000000000000081526004016109ca906137f9565b60405180910390fd5b8073ffffffffffffffffffffffffffffffffffffffff166109f2611d75565b73ffffffffffffffffffffffffffffffffffffffff161480610a215750610a2081610a1b611d75565b611a8c565b5b610a60576040517f08c379a0000000000000000000000000000000000000000000000000000000008152600401610a579061388b565b60405180910390fd5b610a6a8383611d7d565b505050565b6000600880549050905090565b610a8d610a87611d75565b82611e36565b610acc576040517f08c379a0000000000000000000000000000000000000000000000000000000008152600401610ac39061391d565b60405180910390fd5b610ad7838383611f14565b505050565b612000610ae7611b20565b1115610b28576040517f08c379a0000000000000000000000000000000000000000000000000000000008152600401610b1f90613989565b60405180910390fd5b600e60019054906101000a900460ff16610b77576040517f08c379a0000000000000000000000000000000000000000000000000000000008152600401610b6e906139f5565b60405180910390fd5b6000339050600d60008273ffffffffffffffffffffffffffffffffffffffff1673ffffffffffffffffffffffffffffffffffffffff16815260200190815260200160002060009054906101000a900460ff1615610c09576040517f08c379a0000000000000000000000000000000000000000000000000000000008152600401610c0090613a61565b60405180910390fd5b66b1a2bc2ec50000341015610c53576040517f08c379a0000000000000000000000000000000000000000000000000000000008152600401610c4a90613acd565b60405180910390fd5b6001600d60008373ffffffffffffffffffffffffffffffffffffffff1673ffffffffffffffffffffffffffffffffffffffff16815260200190815260200160002060006101000a81548160ff021916908315150217905550610cbc81610cb7611b20565b612170565b50565b600c5481565b6000610cd0836112d1565b8210610d11576040517f08c379a0000000000000000000000000000000000000000000000000000000008152600401610d0890613b5f565b60405180910390fd5b600660008473ffffffffffffffffffffffffffffffffffffffff1673ffffffffffffffffffffffffffffffffffffffff168152602001908152602001600020600083815260200190815260200160002054905092915050565b612000610d75611b20565b1115610db6576040517f08c379a0000000000000000000000000000000000000000000000000000000008152600401610dad90613989565b60405180910390fd5b600e60009054906101000a900460ff16610e05576040517f08c379a0000000000000000000000000000000000000000000000000000000008152600401610dfc90613bcb565b60405180910390fd5b6000339050600d60008273ffffffffffffffffffffffffffffffffffffffff1673ffffffffffffffffffffffffffffffffffffffff16815260200190815260200160002060009054906101000a900460ff1615610e97576040517f08c379a0000000000000000000000000000000000000000000000000000000008152600401610e8e90613a61565b60405180910390fd5b66b1a2bc2ec50000341015610ee1576040517f08c379a0000000000000000000000000000000000000000000000000000000008152600401610ed890613acd565b60405180910390fd5b600081604051602001610ef49190613c33565b604051602081830303815290604052805190602001209050610f5a848480806020026020016040519081016040528093929190818152602001838360200280828437600081840152601f19601f82011690508083019250505050505050600c54836121b6565b610f99576040517f08c379a0000000000000000000000000000000000000000000000000000000008152600401610f9090613c9a565b60405180910390fd5b6001600d60008473ffffffffffffffffffffffffffffffffffffffff1673ffffffffffffffffffffffffffffffffffffffff16815260200190815260200160002060006101000a81548160ff02191690831515021790555061100282610ffd611b20565b612170565b50505050565b61102383838360405180602001604052806000815250611759565b505050565b600d6020528060005260406000206000915054906101000a900460ff1681565b6000611052610a6f565b8210611093576040517f08c379a000000000000000000000000000000000000000000000000000000000815260040161108a90613d2c565b60405180910390fd5b600882815481106110a7576110a6613d4c565b5b90600052602060002001549050919050565b6110c1611d75565b73ffffffffffffffffffffffffffffffffffffffff166110df61151c565b73ffffffffffffffffffffffffffffffffffffffff1614611135576040517f08c379a000000000000000000000000000000000000000000000000000000000815260040161112c90613dc7565b60405180910390fd5b80600f908051906020019061114b929190612e36565b5050565b611157611d75565b73ffffffffffffffffffffffffffffffffffffffff1661117561151c565b73ffffffffffffffffffffffffffffffffffffffff16146111cb576040517f08c379a00000000000000000000000000000000000000000000000000000000081526004016111c290613dc7565b60405180910390fd5b80600e60016101000a81548160ff0219169083151502179055507f819bd618bf2c153d8a6d9e6174bc4b17fdff7d7e295b8a3242690b290bfc94a3816040516112149190612f8d565b60405180910390a150565b6000806002600084815260200190815260200160002060009054906101000a900473ffffffffffffffffffffffffffffffffffffffff169050600073ffffffffffffffffffffffffffffffffffffffff168173ffffffffffffffffffffffffffffffffffffffff1614156112c8576040517f08c379a00000000000000000000000000000000000000000000000000000000081526004016112bf90613e59565b60405180910390fd5b80915050919050565b60008073ffffffffffffffffffffffffffffffffffffffff168273ffffffffffffffffffffffffffffffffffffffff161415611342576040517f08c379a000000000000000000000000000000000000000000000000000000000815260040161133990613eeb565b60405180910390fd5b600360008373ffffffffffffffffffffffffffffffffffffffff1673ffffffffffffffffffffffffffffffffffffffff168152602001908152602001600020549050919050565b611391611d75565b73ffffffffffffffffffffffffffffffffffffffff166113af61151c565b73ffffffffffffffffffffffffffffffffffffffff1614611405576040517f08c379a00000000000000000000000000000000000000000000000000000000081526004016113fc90613dc7565b60405180910390fd5b61140f60006121cd565b565b60006002600083815260200190815260200160002060009054906101000a900473ffffffffffffffffffffffffffffffffffffffff169050919050565b611456611d75565b73ffffffffffffffffffffffffffffffffffffffff1661147461151c565b73ffffffffffffffffffffffffffffffffffffffff16146114ca576040517f08c379a00000000000000000000000000000000000000000000000000000000081526004016114c190613dc7565b60405180910390fd5b6000479050600081116114dc57600080fd5b611508600b60009054906101000a900473ffffffffffffffffffffffffffffffffffffffff1647612293565b50565b61200081565b66b1a2bc2ec5000081565b6000600a60009054906101000a900473ffffffffffffffffffffffffffffffffffffffff16905090565b606060018054611555906136c3565b80601f0160208091040260200160405190810160405280929190818152602001828054611581906136c3565b80156115ce5780601f106115a3576101008083540402835291602001916115ce565b820191906000526020600020905b8154815290600101906020018083116115b157829003601f168201915b5050505050905090565b6115e0611d75565b73ffffffffffffffffffffffffffffffffffffffff168273ffffffffffffffffffffffffffffffffffffffff16141561164e576040517f08c379a000000000000000000000000000000000000000000000000000000000815260040161164590613f57565b60405180910390fd5b806005600061165b611d75565b73ffffffffffffffffffffffffffffffffffffffff1673ffffffffffffffffffffffffffffffffffffffff16815260200190815260200160002060008473ffffffffffffffffffffffffffffffffffffffff1673ffffffffffffffffffffffffffffffffffffffff16815260200190815260200160002060006101000a81548160ff0219169083151502179055508173ffffffffffffffffffffffffffffffffffffffff16611708611d75565b73ffffffffffffffffffffffffffffffffffffffff167f17307eab39ab6107e8899845ad3d59bd9653f200f220920489ca2b5937696c318360405161174d9190612f8d565b60405180910390a35050565b61176a611764611d75565b83611e36565b6117a9576040517f08c379a00000000000000000000000000000000000000000000000000000000081526004016117a09061391d565b60405180910390fd5b6117b584848484612344565b50505050565b6117c3611d75565b73ffffffffffffffffffffffffffffffffffffffff166117e161151c565b73ffffffffffffffffffffffffffffffffffffffff1614611837576040517f08c379a000000000000000000000000000000000000000000000000000000000815260040161182e90613dc7565b60405180910390fd5b612000611842611b20565b1115611883576040517f08c379a000000000000000000000000000000000000000000000000000000000815260040161187a90613989565b60405180910390fd5b6001600d60008373ffffffffffffffffffffffffffffffffffffffff1673ffffffffffffffffffffffffffffffffffffffff16815260200190815260200160002060006101000a81548160ff0219169083151502179055506118ec816118e7611b20565b612170565b50565b60606118fa82611d09565b611939576040517f08c379a000000000000000000000000000000000000000000000000000000000815260040161193090613fe9565b60405180910390fd5b60006119436123a0565b90506000815111611963576040518060200160405280600081525061198e565b8061196d846123b7565b60405160200161197e929190614045565b6040516020818303038152906040525b915050919050565b61199e611d75565b73ffffffffffffffffffffffffffffffffffffffff166119bc61151c565b73ffffffffffffffffffffffffffffffffffffffff1614611a12576040517f08c379a0000000000000000000000000000000000000000000000000000000008152600401611a0990613dc7565b60405180910390fd5b80600e60006101000a81548160ff0219169083151502179055507fbbfb0dda705aa1c7368a1e31138d53b5eebfd36eb343b4560d9bdf0a50e9a4ce81604051611a5b9190612f8d565b60405180910390a150565b600b60009054906101000a900473ffffffffffffffffffffffffffffffffffffffff1681565b6000600560008473ffffffffffffffffffffffffffffffffffffffff1673ffffffffffffffffffffffffffffffffffffffff16815260200190815260200160002060008373ffffffffffffffffffffffffffffffffffffffff1673ffffffffffffffffffffffffffffffffffffffff16815260200190815260200160002060009054906101000a900460ff16905092915050565b6000611b2a610a6f565b905090565b611b37611d75565b73ffffffffffffffffffffffffffffffffffffffff16611b5561151c565b73ffffffffffffffffffffffffffffffffffffffff1614611bab576040517f08c379a0000000000000000000000000000000000000000000000000000000008152600401611ba290613dc7565b60405180910390fd5b600073ffffffffffffffffffffffffffffffffffffffff168173ffffffffffffffffffffffffffffffffffffffff161415611c1b576040517f08c379a0000000000000000000000000000000000000000000000000000000008152600401611c12906140db565b60405180910390fd5b611c24816121cd565b50565b60007f80ac58cd000000000000000000000000000000000000000000000000000000007bffffffffffffffffffffffffffffffffffffffffffffffffffffffff1916827bffffffffffffffffffffffffffffffffffffffffffffffffffffffff19161480611cf257507f5b5e139f000000000000000000000000000000000000000000000000000000007bffffffffffffffffffffffffffffffffffffffffffffffffffffffff1916827bffffffffffffffffffffffffffffffffffffffffffffffffffffffff1916145b80611d025750611d0182612518565b5b9050919050565b60008073ffffffffffffffffffffffffffffffffffffffff166002600084815260200190815260200160002060009054906101000a900473ffffffffffffffffffffffffffffffffffffffff1673ffffffffffffffffffffffffffffffffffffffff1614159050919050565b600033905090565b816004600083815260200190815260200160002060006101000a81548173ffffffffffffffffffffffffffffffffffffffff021916908373ffffffffffffffffffffffffffffffffffffffff160217905550808273ffffffffffffffffffffffffffffffffffffffff16611df08361121f565b73ffffffffffffffffffffffffffffffffffffffff167f8c5be1e5ebec7d5bd14f71427d1e84f3dd0314c0f7b2291e5b200ac8c7c3b92560405160405180910390a45050565b6000611e4182611d09565b611e80576040517f08c379a0000000000000000000000000000000000000000000000000000000008152600401611e779061416d565b60405180910390fd5b6000611e8b8361121f565b90508073ffffffffffffffffffffffffffffffffffffffff168473ffffffffffffffffffffffffffffffffffffffff161480611efa57508373ffffffffffffffffffffffffffffffffffffffff16611ee2846108d2565b73ffffffffffffffffffffffffffffffffffffffff16145b80611f0b5750611f0a8185611a8c565b5b91505092915050565b8273ffffffffffffffffffffffffffffffffffffffff16611f348261121f565b73ffffffffffffffffffffffffffffffffffffffff1614611f8a576040517f08c379a0000000000000000000000000000000000000000000000000000000008152600401611f81906141ff565b60405180910390fd5b600073ffffffffffffffffffffffffffffffffffffffff168273ffffffffffffffffffffffffffffffffffffffff161415611ffa576040517f08c379a0000000000000000000000000000000000000000000000000000000008152600401611ff190614291565b60405180910390fd5b612005838383612582565b612010600082611d7d565b6001600360008573ffffffffffffffffffffffffffffffffffffffff1673ffffffffffffffffffffffffffffffffffffffff168152602001908152602001600020600082825461206091906142e0565b925050819055506001600360008473ffffffffffffffffffffffffffffffffffffffff1673ffffffffffffffffffffffffffffffffffffffff16815260200190815260200160002060008282546120b79190614314565b92505081905550816002600083815260200190815260200160002060006101000a81548173ffffffffffffffffffffffffffffffffffffffff021916908373ffffffffffffffffffffffffffffffffffffffff160217905550808273ffffffffffffffffffffffffffffffffffffffff168473ffffffffffffffffffffffffffffffffffffffff167fddf252ad1be2c89b69c2b068fc378daa952ba7f163c4a11628f55a4df523b3ef60405160405180910390a4505050565b61217a8282612696565b807ff72feeb971437bfd09e83e056c4109a74b098b7c85901cfa1b57002d7b44994f836040516121aa9190613107565b60405180910390a25050565b6000826121c385846126b4565b1490509392505050565b6000600a60009054906101000a900473ffffffffffffffffffffffffffffffffffffffff16905081600a60006101000a81548173ffffffffffffffffffffffffffffffffffffffff021916908373ffffffffffffffffffffffffffffffffffffffff1602179055508173ffffffffffffffffffffffffffffffffffffffff168173ffffffffffffffffffffffffffffffffffffffff167f8be0079c531659141344cd1fd0a4f28419497f9722a3daafe3b4186f6b6457e060405160405180910390a35050565b60008273ffffffffffffffffffffffffffffffffffffffff16826040516122b99061439b565b60006040518083038185875af1925050503d80600081146122f6576040519150601f19603f3d011682016040523d82523d6000602084013e6122fb565b606091505b505090508061233f576040517f08c379a0000000000000000000000000000000000000000000000000000000008152600401612336906143fc565b60405180910390fd5b505050565b61234f848484611f14565b61235b84848484612767565b61239a576040517f08c379a00000000000000000000000000000000000000000000000000000000081526004016123919061448e565b60405180910390fd5b50505050565b606060405180602001604052806000815250905090565b606060008214156123ff576040518060400160405280600181526020017f30000000000000000000000000000000000000000000000000000000000000008152509050612513565b600082905060005b6000821461243157808061241a906144ae565b915050600a8261242a9190614526565b9150612407565b60008167ffffffffffffffff81111561244d5761244c613323565b5b6040519080825280601f01601f19166020018201604052801561247f5781602001600182028036833780820191505090505b5090505b6000851461250c5760018261249891906142e0565b9150600a856124a79190614557565b60306124b39190614314565b60f81b8183815181106124c9576124c8613d4c565b5b60200101907effffffffffffffffffffffffffffffffffffffffffffffffffffffffffffff1916908160001a905350600a856125059190614526565b9450612483565b8093505050505b919050565b60007f01ffc9a7000000000000000000000000000000000000000000000000000000007bffffffffffffffffffffffffffffffffffffffffffffffffffffffff1916827bffffffffffffffffffffffffffffffffffffffffffffffffffffffff1916149050919050565b61258d8383836128ef565b600073ffffffffffffffffffffffffffffffffffffffff168373ffffffffffffffffffffffffffffffffffffffff1614156125d0576125cb816128f4565b61260f565b8173ffffffffffffffffffffffffffffffffffffffff168373ffffffffffffffffffffffffffffffffffffffff161461260e5761260d838261293d565b5b5b600073ffffffffffffffffffffffffffffffffffffffff168273ffffffffffffffffffffffffffffffffffffffff1614156126525761264d81612aaa565b612691565b8273ffffffffffffffffffffffffffffffffffffffff168273ffffffffffffffffffffffffffffffffffffffff16146126905761268f8282612b7b565b5b5b505050565b6126b0828260405180602001604052806000815250612bfa565b5050565b60008082905060005b845181101561275c5760008582815181106126db576126da613d4c565b5b6020026020010151905080831161271c5782816040516020016126ff9291906145a9565b604051602081830303815290604052805190602001209250612748565b808360405160200161272f9291906145a9565b6040516020818303038152906040528051906020012092505b508080612754906144ae565b9150506126bd565b508091505092915050565b60006127888473ffffffffffffffffffffffffffffffffffffffff16612c55565b156128e2578373ffffffffffffffffffffffffffffffffffffffff1663150b7a026127b1611d75565b8786866040518563ffffffff1660e01b81526004016127d3949392919061462a565b6020604051808303816000875af192505050801561280f57506040513d601f19601f8201168201806040525081019061280c919061468b565b60015b612892573d806000811461283f576040519150601f19603f3d011682016040523d82523d6000602084013e612844565b606091505b5060008151141561288a576040517f08c379a00000000000000000000000000000000000000000000000000000000081526004016128819061448e565b60405180910390fd5b805181602001fd5b63150b7a0260e01b7bffffffffffffffffffffffffffffffffffffffffffffffffffffffff1916817bffffffffffffffffffffffffffffffffffffffffffffffffffffffff1916149150506128e7565b600190505b949350505050565b505050565b6008805490506009600083815260200190815260200160002081905550600881908060018154018082558091505060019003906000526020600020016000909190919091505550565b6000600161294a846112d1565b61295491906142e0565b9050600060076000848152602001908152602001600020549050818114612a39576000600660008673ffffffffffffffffffffffffffffffffffffffff1673ffffffffffffffffffffffffffffffffffffffff168152602001908152602001600020600084815260200190815260200160002054905080600660008773ffffffffffffffffffffffffffffffffffffffff1673ffffffffffffffffffffffffffffffffffffffff168152602001908152602001600020600084815260200190815260200160002081905550816007600083815260200190815260200160002081905550505b6007600084815260200190815260200160002060009055600660008573ffffffffffffffffffffffffffffffffffffffff1673ffffffffffffffffffffffffffffffffffffffff16815260200190815260200160002060008381526020019081526020016000206000905550505050565b60006001600880549050612abe91906142e0565b9050600060096000848152602001908152602001600020549050600060088381548110612aee57612aed613d4c565b5b906000526020600020015490508060088381548110612b1057612b0f613d4c565b5b906000526020600020018190555081600960008381526020019081526020016000208190555060096000858152602001908152602001600020600090556008805480612b5f57612b5e6146b8565b5b6001900381819060005260206000200160009055905550505050565b6000612b86836112d1565b905081600660008573ffffffffffffffffffffffffffffffffffffffff1673ffffffffffffffffffffffffffffffffffffffff168152602001908152602001600020600083815260200190815260200160002081905550806007600084815260200190815260200160002081905550505050565b612c048383612c68565b612c116000848484612767565b612c50576040517f08c379a0000000000000000000000000000000000000000000000000000000008152600401612c479061448e565b60405180910390fd5b505050565b600080823b905060008111915050919050565b600073ffffffffffffffffffffffffffffffffffffffff168273ffffffffffffffffffffffffffffffffffffffff161415612cd8576040517f08c379a0000000000000000000000000000000000000000000000000000000008152600401612ccf90614733565b60405180910390fd5b612ce181611d09565b15612d21576040517f08c379a0000000000000000000000000000000000000000000000000000000008152600401612d189061479f565b60405180910390fd5b612d2d60008383612582565b6001600360008473ffffffffffffffffffffffffffffffffffffffff1673ffffffffffffffffffffffffffffffffffffffff1681526020019081526020016000206000828254612d7d9190614314565b92505081905550816002600083815260200190815260200160002060006101000a81548173ffffffffffffffffffffffffffffffffffffffff021916908373ffffffffffffffffffffffffffffffffffffffff160217905550808273ffffffffffffffffffffffffffffffffffffffff16600073ffffffffffffffffffffffffffffffffffffffff167fddf252ad1be2c89b69c2b068fc378daa952ba7f163c4a11628f55a4df523b3ef60405160405180910390a45050565b828054612e42906136c3565b90600052602060002090601f016020900481019282612e645760008555612eab565b82601f10612e7d57805160ff1916838001178555612eab565b82800160010185558215612eab579182015b82811115612eaa578251825591602001919060010190612e8f565b5b509050612eb89190612ebc565b5090565b5b80821115612ed5576000816000905550600101612ebd565b5090565b6000604051905090565b600080fd5b600080fd5b60007fffffffff0000000000000000000000000000000000000000000000000000000082169050919050565b612f2281612eed565b8114612f2d57600080fd5b50565b600081359050612f3f81612f19565b92915050565b600060208284031215612f5b57612f5a612ee3565b5b6000612f6984828501612f30565b91505092915050565b60008115159050919050565b612f8781612f72565b82525050565b6000602082019050612fa26000830184612f7e565b92915050565b600081519050919050565b600082825260208201905092915050565b60005b83811015612fe2578082015181840152602081019050612fc7565b83811115612ff1576000848401525b50505050565b6000601f19601f8301169050919050565b600061301382612fa8565b61301d8185612fb3565b935061302d818560208601612fc4565b61303681612ff7565b840191505092915050565b6000602082019050818103600083015261305b8184613008565b905092915050565b6000819050919050565b61307681613063565b811461308157600080fd5b50565b6000813590506130938161306d565b92915050565b6000602082840312156130af576130ae612ee3565b5b60006130bd84828501613084565b91505092915050565b600073ffffffffffffffffffffffffffffffffffffffff82169050919050565b60006130f1826130c6565b9050919050565b613101816130e6565b82525050565b600060208201905061311c60008301846130f8565b92915050565b61312b816130e6565b811461313657600080fd5b50565b60008135905061314881613122565b92915050565b6000806040838503121561316557613164612ee3565b5b600061317385828601613139565b925050602061318485828601613084565b9150509250929050565b61319781613063565b82525050565b60006020820190506131b2600083018461318e565b92915050565b6000806000606084860312156131d1576131d0612ee3565b5b60006131df86828701613139565b93505060206131f086828701613139565b925050604061320186828701613084565b9150509250925092565b6000819050919050565b61321e8161320b565b82525050565b60006020820190506132396000830184613215565b92915050565b600080fd5b600080fd5b600080fd5b60008083601f8401126132645761326361323f565b5b8235905067ffffffffffffffff81111561328157613280613244565b5b60208301915083602082028301111561329d5761329c613249565b5b9250929050565b600080602083850312156132bb576132ba612ee3565b5b600083013567ffffffffffffffff8111156132d9576132d8612ee8565b5b6132e58582860161324e565b92509250509250929050565b60006020828403121561330757613306612ee3565b5b600061331584828501613139565b91505092915050565b600080fd5b7f4e487b7100000000000000000000000000000000000000000000000000000000600052604160045260246000fd5b61335b82612ff7565b810181811067ffffffffffffffff8211171561337a57613379613323565b5b80604052505050565b600061338d612ed9565b90506133998282613352565b919050565b600067ffffffffffffffff8211156133b9576133b8613323565b5b6133c282612ff7565b9050602081019050919050565b82818337600083830152505050565b60006133f16133ec8461339e565b613383565b90508281526020810184848401111561340d5761340c61331e565b5b6134188482856133cf565b509392505050565b600082601f8301126134355761343461323f565b5b81356134458482602086016133de565b91505092915050565b60006020828403121561346457613463612ee3565b5b600082013567ffffffffffffffff81111561348257613481612ee8565b5b61348e84828501613420565b91505092915050565b6134a081612f72565b81146134ab57600080fd5b50565b6000813590506134bd81613497565b92915050565b6000602082840312156134d9576134d8612ee3565b5b60006134e7848285016134ae565b91505092915050565b6000806040838503121561350757613506612ee3565b5b600061351585828601613139565b9250506020613526858286016134ae565b9150509250929050565b600067ffffffffffffffff82111561354b5761354a613323565b5b61355482612ff7565b9050602081019050919050565b600061357461356f84613530565b613383565b9050828152602081018484840111156135905761358f61331e565b5b61359b8482856133cf565b509392505050565b600082601f8301126135b8576135b761323f565b5b81356135c8848260208601613561565b91505092915050565b600080600080608085870312156135eb576135ea612ee3565b5b60006135f987828801613139565b945050602061360a87828801613139565b935050604061361b87828801613084565b925050606085013567ffffffffffffffff81111561363c5761363b612ee8565b5b613648878288016135a3565b91505092959194509250565b6000806040838503121561366b5761366a612ee3565b5b600061367985828601613139565b925050602061368a85828601613139565b9150509250929050565b7f4e487b7100000000000000000000000000000000000000000000000000000000600052602260045260246000fd5b600060028204905060018216806136db57607f821691505b602082108114156136ef576136ee613694565b5b50919050565b7f4552433732313a20617070726f76656420717565727920666f72206e6f6e657860008201527f697374656e7420746f6b656e0000000000000000000000000000000000000000602082015250565b6000613751602c83612fb3565b915061375c826136f5565b604082019050919050565b6000602082019050818103600083015261378081613744565b9050919050565b7f4552433732313a20617070726f76616c20746f2063757272656e74206f776e6560008201527f7200000000000000000000000000000000000000000000000000000000000000602082015250565b60006137e3602183612fb3565b91506137ee82613787565b604082019050919050565b60006020820190508181036000830152613812816137d6565b9050919050565b7f4552433732313a20617070726f76652063616c6c6572206973206e6f74206f7760008201527f6e6572206e6f7220617070726f76656420666f7220616c6c0000000000000000602082015250565b6000613875603883612fb3565b915061388082613819565b604082019050919050565b600060208201905081810360008301526138a481613868565b9050919050565b7f4552433732313a207472616e736665722063616c6c6572206973206e6f74206f60008201527f776e6572206e6f7220617070726f766564000000000000000000000000000000602082015250565b6000613907603183612fb3565b9150613912826138ab565b604082019050919050565b60006020820190508181036000830152613936816138fa565b9050919050565b7f536f6c646f757421000000000000000000000000000000000000000000000000600082015250565b6000613973600883612fb3565b915061397e8261393d565b602082019050919050565b600060208201905081810360008301526139a281613966565b9050919050565b7f5075626c69632073616c6573206e6f74206f70656e0000000000000000000000600082015250565b60006139df601583612fb3565b91506139ea826139a9565b602082019050919050565b60006020820190508181036000830152613a0e816139d2565b9050919050565b7f416c7265616479206d696e746564000000000000000000000000000000000000600082015250565b6000613a4b600e83612fb3565b9150613a5682613a15565b602082019050919050565b60006020820190508181036000830152613a7a81613a3e565b9050919050565b7f56616c75652062656c6f77207072696365000000000000000000000000000000600082015250565b6000613ab7601183612fb3565b9150613ac282613a81565b602082019050919050565b60006020820190508181036000830152613ae681613aaa565b9050919050565b7f455243373231456e756d657261626c653a206f776e657220696e646578206f7560008201527f74206f6620626f756e6473000000000000000000000000000000000000000000602082015250565b6000613b49602b83612fb3565b9150613b5482613aed565b604082019050919050565b60006020820190508181036000830152613b7881613b3c565b9050919050565b7f57686974656c6973742073616c6573206e6f74206f70656e0000000000000000600082015250565b6000613bb5601883612fb3565b9150613bc082613b7f565b602082019050919050565b60006020820190508181036000830152613be481613ba8565b9050919050565b60008160601b9050919050565b6000613c0382613beb565b9050919050565b6000613c1582613bf8565b9050919050565b613c2d613c28826130e6565b613c0a565b82525050565b6000613c3f8284613c1c565b60148201915081905092915050565b7f4e6f742077686974656c69737465640000000000000000000000000000000000600082015250565b6000613c84600f83612fb3565b9150613c8f82613c4e565b602082019050919050565b60006020820190508181036000830152613cb381613c77565b9050919050565b7f455243373231456e756d657261626c653a20676c6f62616c20696e646578206f60008201527f7574206f6620626f756e64730000000000000000000000000000000000000000602082015250565b6000613d16602c83612fb3565b9150613d2182613cba565b604082019050919050565b60006020820190508181036000830152613d4581613d09565b9050919050565b7f4e487b7100000000000000000000000000000000000000000000000000000000600052603260045260246000fd5b7f4f776e61626c653a2063616c6c6572206973206e6f7420746865206f776e6572600082015250565b6000613db1602083612fb3565b9150613dbc82613d7b565b602082019050919050565b60006020820190508181036000830152613de081613da4565b9050919050565b7f4552433732313a206f776e657220717565727920666f72206e6f6e657869737460008201527f656e7420746f6b656e0000000000000000000000000000000000000000000000602082015250565b6000613e43602983612fb3565b9150613e4e82613de7565b604082019050919050565b60006020820190508181036000830152613e7281613e36565b9050919050565b7f4552433732313a2062616c616e636520717565727920666f7220746865207a6560008201527f726f206164647265737300000000000000000000000000000000000000000000602082015250565b6000613ed5602a83612fb3565b9150613ee082613e79565b604082019050919050565b60006020820190508181036000830152613f0481613ec8565b9050919050565b7f4552433732313a20617070726f766520746f2063616c6c657200000000000000600082015250565b6000613f41601983612fb3565b9150613f4c82613f0b565b602082019050919050565b60006020820190508181036000830152613f7081613f34565b9050919050565b7f4552433732314d657461646174613a2055524920717565727920666f72206e6f60008201527f6e6578697374656e7420746f6b656e0000000000000000000000000000000000602082015250565b6000613fd3602f83612fb3565b9150613fde82613f77565b604082019050919050565b6000602082019050818103600083015261400281613fc6565b9050919050565b600081905092915050565b600061401f82612fa8565b6140298185614009565b9350614039818560208601612fc4565b80840191505092915050565b60006140518285614014565b915061405d8284614014565b91508190509392505050565b7f4f776e61626c653a206e6577206f776e657220697320746865207a65726f206160008201527f6464726573730000000000000000000000000000000000000000000000000000602082015250565b60006140c5602683612fb3565b91506140d082614069565b604082019050919050565b600060208201905081810360008301526140f4816140b8565b9050919050565b7f4552433732313a206f70657261746f7220717565727920666f72206e6f6e657860008201527f697374656e7420746f6b656e0000000000000000000000000000000000000000602082015250565b6000614157602c83612fb3565b9150614162826140fb565b604082019050919050565b600060208201905081810360008301526141868161414a565b9050919050565b7f4552433732313a207472616e73666572206f6620746f6b656e2074686174206960008201527f73206e6f74206f776e0000000000000000000000000000000000000000000000602082015250565b60006141e9602983612fb3565b91506141f48261418d565b604082019050919050565b60006020820190508181036000830152614218816141dc565b9050919050565b7f4552433732313a207472616e7366657220746f20746865207a65726f2061646460008201527f7265737300000000000000000000000000000000000000000000000000000000602082015250565b600061427b602483612fb3565b91506142868261421f565b604082019050919050565b600060208201905081810360008301526142aa8161426e565b9050919050565b7f4e487b7100000000000000000000000000000000000000000000000000000000600052601160045260246000fd5b60006142eb82613063565b91506142f683613063565b925082821015614309576143086142b1565b5b828203905092915050565b600061431f82613063565b915061432a83613063565b9250827fffffffffffffffffffffffffffffffffffffffffffffffffffffffffffffffff0382111561435f5761435e6142b1565b5b828201905092915050565b600081905092915050565b50565b600061438560008361436a565b915061439082614375565b600082019050919050565b60006143a682614378565b9150819050919050565b7f5472616e73666572206661696c65642e00000000000000000000000000000000600082015250565b60006143e6601083612fb3565b91506143f1826143b0565b602082019050919050565b60006020820190508181036000830152614415816143d9565b9050919050565b7f4552433732313a207472616e7366657220746f206e6f6e20455243373231526560008201527f63656976657220696d706c656d656e7465720000000000000000000000000000602082015250565b6000614478603283612fb3565b91506144838261441c565b604082019050919050565b600060208201905081810360008301526144a78161446b565b9050919050565b60006144b982613063565b91507fffffffffffffffffffffffffffffffffffffffffffffffffffffffffffffffff8214156144ec576144eb6142b1565b5b600182019050919050565b7f4e487b7100000000000000000000000000000000000000000000000000000000600052601260045260246000fd5b600061453182613063565b915061453c83613063565b92508261454c5761454b6144f7565b5b828204905092915050565b600061456282613063565b915061456d83613063565b92508261457d5761457c6144f7565b5b828206905092915050565b6000819050919050565b6145a361459e8261320b565b614588565b82525050565b60006145b58285614592565b6020820191506145c58284614592565b6020820191508190509392505050565b600081519050919050565b600082825260208201905092915050565b60006145fc826145d5565b61460681856145e0565b9350614616818560208601612fc4565b61461f81612ff7565b840191505092915050565b600060808201905061463f60008301876130f8565b61464c60208301866130f8565b614659604083018561318e565b818103606083015261466b81846145f1565b905095945050505050565b60008151905061468581612f19565b92915050565b6000602082840312156146a1576146a0612ee3565b5b60006146af84828501614676565b91505092915050565b7f4e487b7100000000000000000000000000000000000000000000000000000000600052603160045260246000fd5b7f4552433732313a206d696e7420746f20746865207a65726f2061646472657373600082015250565b600061471d602083612fb3565b9150614728826146e7565b602082019050919050565b6000602082019050818103600083015261474c81614710565b9050919050565b7f4552433732313a20746f6b656e20616c7265616479206d696e74656400000000600082015250565b6000614789601c83612fb3565b915061479482614753565b602082019050919050565b600060208201905081810360008301526147b88161477c565b905091905056fea2646970667358221220c91b42be27c8045f626ffd8ba7d80d1edd7586e44df9d88d05842492223f4a3964736f6c634300080a0033",
  "immutableReferences": {},
  "source": "// SPDX-License-Identifier: MIT\npragma solidity ^0.8.0;\n\nimport \"./ERC721Enumerable.sol\";\nimport \"@openzeppelin/contracts/access/Ownable.sol\";\nimport \"@openzeppelin/contracts/utils/math/SafeMath.sol\";\nimport \"@openzeppelin/contracts/utils/Counters.sol\";\nimport \"@openzeppelin/contracts/utils/cryptography/MerkleProof.sol\";\n\n// TODO: Make Burnable + use Counter\ncontract NoMaGuild is ERC721Enumerable, Ownable {\n    using SafeMath for uint256;\n\n    uint256 public constant MAX_MUMMIES = 8192;\n    uint256 public constant PRICE = 0.05 ether;\n    address public creatorAddress;\n    bytes32 public merkleRoot;\n\n    mapping(address => bool) public saleClaimed;\n\n    bool internal WHITELIST_SALE = false;\n    bool internal PUBLIC_SALE = false;\n\n    string internal baseTokenURI;\n\n    event WhitelistSaleEvent(bool pause);\n    event PublicSaleEvent(bool pause);\n    event MummyMinted(uint256 indexed id, address _to);\n\n    constructor(\n        string memory _symbol,\n        string memory _name,\n        string memory baseURI,\n        bytes32 _merkleRoot,\n        address _creatorsAdreess\n    ) ERC721(_symbol, _name) {\n        creatorAddress = _creatorsAdreess;\n        merkleRoot = _merkleRoot;\n        setBaseURI(baseURI);\n    }\n\n    modifier notSoldOut() {\n        require(mummiesMinted() <= MAX_MUMMIES, \"Soldout!\");\n        _;\n    }\n\n    modifier whitelistSaleIsOpen() {\n        require(mummiesMinted() <= MAX_MUMMIES, \"Soldout!\");\n        require(WHITELIST_SALE, \"Whitelist sales not open\");\n        _;\n    }\n\n    modifier publicSaleIsOpen() {\n        require(mummiesMinted() <= MAX_MUMMIES, \"Soldout!\");\n        require(PUBLIC_SALE, \"Public sales not open\");\n        _;\n    }\n\n    function setBaseURI(string memory baseURI) public onlyOwner {\n        baseTokenURI = baseURI;\n    }\n\n    function mummiesMinted() public view returns (uint256) {\n        return totalSupply();\n    }\n\n    function whitelistMint(bytes32[] calldata _merkleProof)\n        public\n        payable\n        whitelistSaleIsOpen\n    {\n        address _to = msg.sender;\n\n        // Verify not minted yet\n        require(!saleClaimed[_to], \"Already minted\");\n        // Verify there's enough money sent\n        require(msg.value >= PRICE, \"Value below price\");\n\n        // Verify whitelisted address with MerkleProof\n        bytes32 leaf = keccak256(abi.encodePacked(_to));\n        require(\n            MerkleProof.verify(_merkleProof, merkleRoot, leaf),\n            \"Not whitelisted\"\n        );\n\n        // Mint\n        saleClaimed[_to] = true;\n        _mintAnMummy(_to, mummiesMinted());\n    }\n\n    function publicMint() public payable publicSaleIsOpen {\n        address _to = msg.sender;\n\n        // Verify not minted yet\n        require(!saleClaimed[_to], \"Already minted\");\n        // Verify there's enough money sent\n        require(msg.value >= PRICE, \"Value below price\");\n\n        // Mint\n        saleClaimed[_to] = true;\n        _mintAnMummy(_to, mummiesMinted());\n    }\n\n    // Only OWNER\n\n    function giveawayMint(address _to) public onlyOwner notSoldOut {\n        saleClaimed[_to] = true;\n        _mintAnMummy(_to, mummiesMinted());\n    }\n\n    function setWhitelistSale(bool _b) public onlyOwner {\n        WHITELIST_SALE = _b;\n        emit WhitelistSaleEvent(_b);\n    }\n\n    function setPublicSale(bool _b) public onlyOwner {\n        PUBLIC_SALE = _b;\n        emit PublicSaleEvent(_b);\n    }\n\n    function withdrawAll() public onlyOwner {\n        uint256 balance = address(this).balance;\n        require(balance > 0);\n        _widthdraw(creatorAddress, address(this).balance);\n    }\n\n    // PRIVATE\n\n    function _widthdraw(address _address, uint256 _amount) private {\n        (bool success, ) = _address.call{value: _amount}(\"\");\n        require(success, \"Transfer failed.\");\n    }\n\n    function _mintAnMummy(address _to, uint256 _mummyId) private {\n        _safeMint(_to, _mummyId);\n\n        emit MummyMinted(_mummyId, _to);\n    }\n}\n",
  "sourcePath": "/Users/martincik/Projects/amenti/nft/NoMaGuild/contracts/mint/contracts/NoMaGuild.sol",
  "compiler": {
    "name": "solc",
    "version": "0.8.10+commit.fc410830.Emscripten.clang"
  },
  "schemaVersion": "3.4.4",
  "updatedAt": "2022-01-28T09:46:24.224Z",
  "devdoc": {
    "kind": "dev",
    "methods": {
      "approve(address,uint256)": {
        "details": "See {IERC721-approve}."
      },
      "balanceOf(address)": {
        "details": "See {IERC721-balanceOf}."
      },
      "getApproved(uint256)": {
        "details": "See {IERC721-getApproved}."
      },
      "isApprovedForAll(address,address)": {
        "details": "See {IERC721-isApprovedForAll}."
      },
      "name()": {
        "details": "See {IERC721Metadata-name}."
      },
      "owner()": {
        "details": "Returns the address of the current owner."
      },
      "ownerOf(uint256)": {
        "details": "See {IERC721-ownerOf}."
      },
      "rawOwnerOf(uint256)": {
        "details": "Edit for rawOwnerOf token"
      },
      "renounceOwnership()": {
        "details": "Leaves the contract without owner. It will not be possible to call `onlyOwner` functions anymore. Can only be called by the current owner. NOTE: Renouncing ownership will leave the contract without an owner, thereby removing any functionality that is only available to the owner."
      },
      "safeTransferFrom(address,address,uint256)": {
        "details": "See {IERC721-safeTransferFrom}."
      },
      "safeTransferFrom(address,address,uint256,bytes)": {
        "details": "See {IERC721-safeTransferFrom}."
      },
      "setApprovalForAll(address,bool)": {
        "details": "See {IERC721-setApprovalForAll}."
      },
      "supportsInterface(bytes4)": {
        "details": "See {IERC165-supportsInterface}."
      },
      "symbol()": {
        "details": "See {IERC721Metadata-symbol}."
      },
      "tokenByIndex(uint256)": {
        "details": "See {IERC721Enumerable-tokenByIndex}."
      },
      "tokenOfOwnerByIndex(address,uint256)": {
        "details": "See {IERC721Enumerable-tokenOfOwnerByIndex}."
      },
      "tokenURI(uint256)": {
        "details": "See {IERC721Metadata-tokenURI}."
      },
      "totalSupply()": {
        "details": "See {IERC721Enumerable-totalSupply}."
      },
      "transferFrom(address,address,uint256)": {
        "details": "See {IERC721-transferFrom}."
      },
      "transferOwnership(address)": {
        "details": "Transfers ownership of the contract to a new account (`newOwner`). Can only be called by the current owner."
      }
    },
    "version": 1
  },
  "userdoc": {
    "kind": "user",
    "methods": {},
    "version": 1
  }
}