{
  "contractName": "NoMaGuild",
  "abi": [
    {
      "inputs": [
        {
          "internalType": "string",
          "name": "_symbol",
          "type": "string"
        },
        {
          "internalType": "string",
          "name": "_name",
          "type": "string"
        },
        {
          "internalType": "uint256",
          "name": "_maxMummies",
          "type": "uint256"
        },
        {
          "internalType": "uint256",
          "name": "_maxWhitelist",
          "type": "uint256"
        },
        {
          "internalType": "uint256",
          "name": "_mintLimitPerWallet",
          "type": "uint256"
        },
        {
          "internalType": "string",
          "name": "baseURI",
          "type": "string"
        },
        {
          "internalType": "bytes32",
          "name": "_merkleRoot",
          "type": "bytes32"
        }
      ],
      "stateMutability": "nonpayable",
      "type": "constructor"
    },
    {
      "inputs": [],
      "name": "ApprovalCallerNotOwnerNorApproved",
      "type": "error"
    },
    {
      "inputs": [],
      "name": "ApprovalQueryForNonexistentToken",
      "type": "error"
    },
    {
      "inputs": [],
      "name": "ApprovalToCurrentOwner",
      "type": "error"
    },
    {
      "inputs": [],
      "name": "ApproveToCaller",
      "type": "error"
    },
    {
      "inputs": [],
      "name": "BalanceQueryForZeroAddress",
      "type": "error"
    },
    {
      "inputs": [],
      "name": "MintToZeroAddress",
      "type": "error"
    },
    {
      "inputs": [],
      "name": "MintZeroQuantity",
      "type": "error"
    },
    {
      "inputs": [],
      "name": "OwnerIndexOutOfBounds",
      "type": "error"
    },
    {
      "inputs": [],
      "name": "OwnerQueryForNonexistentToken",
      "type": "error"
    },
    {
      "inputs": [],
      "name": "TokenIndexOutOfBounds",
      "type": "error"
    },
    {
      "inputs": [],
      "name": "TransferCallerNotOwnerNorApproved",
      "type": "error"
    },
    {
      "inputs": [],
      "name": "TransferFromIncorrectOwner",
      "type": "error"
    },
    {
      "inputs": [],
      "name": "TransferToNonERC721ReceiverImplementer",
      "type": "error"
    },
    {
      "inputs": [],
      "name": "TransferToZeroAddress",
      "type": "error"
    },
    {
      "inputs": [],
      "name": "URIQueryForNonexistentToken",
      "type": "error"
    },
    {
      "anonymous": false,
      "inputs": [
        {
          "indexed": true,
          "internalType": "address",
          "name": "owner",
          "type": "address"
        },
        {
          "indexed": true,
          "internalType": "address",
          "name": "approved",
          "type": "address"
        },
        {
          "indexed": true,
          "internalType": "uint256",
          "name": "tokenId",
          "type": "uint256"
        }
      ],
      "name": "Approval",
      "type": "event"
    },
    {
      "anonymous": false,
      "inputs": [
        {
          "indexed": true,
          "internalType": "address",
          "name": "owner",
          "type": "address"
        },
        {
          "indexed": true,
          "internalType": "address",
          "name": "operator",
          "type": "address"
        },
        {
          "indexed": false,
          "internalType": "bool",
          "name": "approved",
          "type": "bool"
        }
      ],
      "name": "ApprovalForAll",
      "type": "event"
    },
    {
      "anonymous": false,
      "inputs": [
        {
          "indexed": true,
          "internalType": "address",
          "name": "previousOwner",
          "type": "address"
        },
        {
          "indexed": true,
          "internalType": "address",
          "name": "newOwner",
          "type": "address"
        }
      ],
      "name": "OwnershipTransferred",
      "type": "event"
    },
    {
      "anonymous": false,
      "inputs": [
        {
          "indexed": false,
          "internalType": "address",
          "name": "account",
          "type": "address"
        }
      ],
      "name": "Paused",
      "type": "event"
    },
    {
      "anonymous": false,
      "inputs": [
        {
          "indexed": false,
          "internalType": "bool",
          "name": "pause",
          "type": "bool"
        }
      ],
      "name": "PublicSaleEvent",
      "type": "event"
    },
    {
      "anonymous": false,
      "inputs": [
        {
          "indexed": true,
          "internalType": "address",
          "name": "from",
          "type": "address"
        },
        {
          "indexed": true,
          "internalType": "address",
          "name": "to",
          "type": "address"
        },
        {
          "indexed": true,
          "internalType": "uint256",
          "name": "tokenId",
          "type": "uint256"
        }
      ],
      "name": "Transfer",
      "type": "event"
    },
    {
      "anonymous": false,
      "inputs": [
        {
          "indexed": false,
          "internalType": "address",
          "name": "account",
          "type": "address"
        }
      ],
      "name": "Unpaused",
      "type": "event"
    },
    {
      "anonymous": false,
      "inputs": [
        {
          "indexed": false,
          "internalType": "bool",
          "name": "pause",
          "type": "bool"
        }
      ],
      "name": "WhitelistSaleEvent",
      "type": "event"
    },
    {
      "inputs": [],
      "name": "PUBLIC_PRICE",
      "outputs": [
        {
          "internalType": "uint256",
          "name": "",
          "type": "uint256"
        }
      ],
      "stateMutability": "view",
      "type": "function"
    },
    {
      "inputs": [],
      "name": "ROYALTY_RATE",
      "outputs": [
        {
          "internalType": "uint256",
          "name": "",
          "type": "uint256"
        }
      ],
      "stateMutability": "view",
      "type": "function"
    },
    {
      "inputs": [],
      "name": "WHITELIST_PRICE",
      "outputs": [
        {
          "internalType": "uint256",
          "name": "",
          "type": "uint256"
        }
      ],
      "stateMutability": "view",
      "type": "function"
    },
    {
      "inputs": [
        {
          "internalType": "address",
          "name": "to",
          "type": "address"
        },
        {
          "internalType": "uint256",
          "name": "tokenId",
          "type": "uint256"
        }
      ],
      "name": "approve",
      "outputs": [],
      "stateMutability": "nonpayable",
      "type": "function"
    },
    {
      "inputs": [
        {
          "internalType": "address",
          "name": "owner",
          "type": "address"
        }
      ],
      "name": "balanceOf",
      "outputs": [
        {
          "internalType": "uint256",
          "name": "",
          "type": "uint256"
        }
      ],
      "stateMutability": "view",
      "type": "function"
    },
    {
      "inputs": [],
      "name": "baseTokenURI",
      "outputs": [
        {
          "internalType": "string",
          "name": "",
          "type": "string"
        }
      ],
      "stateMutability": "view",
      "type": "function"
    },
    {
      "inputs": [
        {
          "internalType": "uint256",
          "name": "tokenId",
          "type": "uint256"
        }
      ],
      "name": "burn",
      "outputs": [],
      "stateMutability": "nonpayable",
      "type": "function"
    },
    {
      "inputs": [
        {
          "internalType": "uint256",
          "name": "tokenId",
          "type": "uint256"
        }
      ],
      "name": "getApproved",
      "outputs": [
        {
          "internalType": "address",
          "name": "",
          "type": "address"
        }
      ],
      "stateMutability": "view",
      "type": "function"
    },
    {
      "inputs": [
        {
          "internalType": "address",
          "name": "owner",
          "type": "address"
        },
        {
          "internalType": "address",
          "name": "operator",
          "type": "address"
        }
      ],
      "name": "isApprovedForAll",
      "outputs": [
        {
          "internalType": "bool",
          "name": "",
          "type": "bool"
        }
      ],
      "stateMutability": "view",
      "type": "function"
    },
    {
      "inputs": [],
      "name": "maxMummies",
      "outputs": [
        {
          "internalType": "uint256",
          "name": "",
          "type": "uint256"
        }
      ],
      "stateMutability": "view",
      "type": "function"
    },
    {
      "inputs": [],
      "name": "maxWhitelist",
      "outputs": [
        {
          "internalType": "uint256",
          "name": "",
          "type": "uint256"
        }
      ],
      "stateMutability": "view",
      "type": "function"
    },
    {
      "inputs": [],
      "name": "mintLimitPerWallet",
      "outputs": [
        {
          "internalType": "uint256",
          "name": "",
          "type": "uint256"
        }
      ],
      "stateMutability": "view",
      "type": "function"
    },
    {
      "inputs": [],
      "name": "name",
      "outputs": [
        {
          "internalType": "string",
          "name": "",
          "type": "string"
        }
      ],
      "stateMutability": "view",
      "type": "function"
    },
    {
      "inputs": [],
      "name": "owner",
      "outputs": [
        {
          "internalType": "address",
          "name": "",
          "type": "address"
        }
      ],
      "stateMutability": "view",
      "type": "function"
    },
    {
      "inputs": [
        {
          "internalType": "uint256",
          "name": "tokenId",
          "type": "uint256"
        }
      ],
      "name": "ownerOf",
      "outputs": [
        {
          "internalType": "address",
          "name": "",
          "type": "address"
        }
      ],
      "stateMutability": "view",
      "type": "function"
    },
    {
      "inputs": [],
      "name": "paused",
      "outputs": [
        {
          "internalType": "bool",
          "name": "",
          "type": "bool"
        }
      ],
      "stateMutability": "view",
      "type": "function"
    },
    {
      "inputs": [],
      "name": "renounceOwnership",
      "outputs": [],
      "stateMutability": "nonpayable",
      "type": "function"
    },
    {
      "inputs": [
        {
          "internalType": "address",
          "name": "from",
          "type": "address"
        },
        {
          "internalType": "address",
          "name": "to",
          "type": "address"
        },
        {
          "internalType": "uint256",
          "name": "tokenId",
          "type": "uint256"
        }
      ],
      "name": "safeTransferFrom",
      "outputs": [],
      "stateMutability": "nonpayable",
      "type": "function"
    },
    {
      "inputs": [
        {
          "internalType": "address",
          "name": "from",
          "type": "address"
        },
        {
          "internalType": "address",
          "name": "to",
          "type": "address"
        },
        {
          "internalType": "uint256",
          "name": "tokenId",
          "type": "uint256"
        },
        {
          "internalType": "bytes",
          "name": "_data",
          "type": "bytes"
        }
      ],
      "name": "safeTransferFrom",
      "outputs": [],
      "stateMutability": "nonpayable",
      "type": "function"
    },
    {
      "inputs": [
        {
          "internalType": "address",
          "name": "operator",
          "type": "address"
        },
        {
          "internalType": "bool",
          "name": "approved",
          "type": "bool"
        }
      ],
      "name": "setApprovalForAll",
      "outputs": [],
      "stateMutability": "nonpayable",
      "type": "function"
    },
    {
      "inputs": [],
      "name": "symbol",
      "outputs": [
        {
          "internalType": "string",
          "name": "",
          "type": "string"
        }
      ],
      "stateMutability": "view",
      "type": "function"
    },
    {
      "inputs": [
        {
          "internalType": "uint256",
          "name": "index",
          "type": "uint256"
        }
      ],
      "name": "tokenByIndex",
      "outputs": [
        {
          "internalType": "uint256",
          "name": "",
          "type": "uint256"
        }
      ],
      "stateMutability": "view",
      "type": "function"
    },
    {
      "inputs": [
        {
          "internalType": "address",
          "name": "owner",
          "type": "address"
        },
        {
          "internalType": "uint256",
          "name": "index",
          "type": "uint256"
        }
      ],
      "name": "tokenOfOwnerByIndex",
      "outputs": [
        {
          "internalType": "uint256",
          "name": "",
          "type": "uint256"
        }
      ],
      "stateMutability": "view",
      "type": "function"
    },
    {
      "inputs": [
        {
          "internalType": "uint256",
          "name": "tokenId",
          "type": "uint256"
        }
      ],
      "name": "tokenURI",
      "outputs": [
        {
          "internalType": "string",
          "name": "",
          "type": "string"
        }
      ],
      "stateMutability": "view",
      "type": "function"
    },
    {
      "inputs": [],
      "name": "totalSupply",
      "outputs": [
        {
          "internalType": "uint256",
          "name": "",
          "type": "uint256"
        }
      ],
      "stateMutability": "view",
      "type": "function"
    },
    {
      "inputs": [
        {
          "internalType": "address",
          "name": "from",
          "type": "address"
        },
        {
          "internalType": "address",
          "name": "to",
          "type": "address"
        },
        {
          "internalType": "uint256",
          "name": "tokenId",
          "type": "uint256"
        }
      ],
      "name": "transferFrom",
      "outputs": [],
      "stateMutability": "nonpayable",
      "type": "function"
    },
    {
      "inputs": [
        {
          "internalType": "address",
          "name": "newOwner",
          "type": "address"
        }
      ],
      "name": "transferOwnership",
      "outputs": [],
      "stateMutability": "nonpayable",
      "type": "function"
    },
    {
      "inputs": [],
      "name": "whitelistedMummiesMinted",
      "outputs": [
        {
          "internalType": "uint256",
          "name": "",
          "type": "uint256"
        }
      ],
      "stateMutability": "view",
      "type": "function"
    },
    {
      "inputs": [
        {
          "internalType": "string",
          "name": "baseURI",
          "type": "string"
        }
      ],
      "name": "setBaseURI",
      "outputs": [],
      "stateMutability": "nonpayable",
      "type": "function"
    },
    {
      "inputs": [
        {
          "internalType": "bytes32[]",
          "name": "_merkleProof",
          "type": "bytes32[]"
        },
        {
          "internalType": "uint256",
          "name": "_quantity",
          "type": "uint256"
        }
      ],
      "name": "whitelistMint",
      "outputs": [],
      "stateMutability": "payable",
      "type": "function"
    },
    {
      "inputs": [
        {
          "internalType": "uint256",
          "name": "_quantity",
          "type": "uint256"
        }
      ],
      "name": "publicMint",
      "outputs": [],
      "stateMutability": "payable",
      "type": "function"
    },
    {
      "inputs": [
        {
          "internalType": "address",
          "name": "_to",
          "type": "address"
        },
        {
          "internalType": "uint256",
          "name": "_quantity",
          "type": "uint256"
        }
      ],
      "name": "giveawayMint",
      "outputs": [],
      "stateMutability": "nonpayable",
      "type": "function"
    },
    {
      "inputs": [
        {
          "internalType": "bool",
          "name": "_b",
          "type": "bool"
        }
      ],
      "name": "setWhitelistSale",
      "outputs": [],
      "stateMutability": "nonpayable",
      "type": "function"
    },
    {
      "inputs": [
        {
          "internalType": "bool",
          "name": "_b",
          "type": "bool"
        }
      ],
      "name": "setPublicSale",
      "outputs": [],
      "stateMutability": "nonpayable",
      "type": "function"
    },
    {
      "inputs": [],
      "name": "widthdraw",
      "outputs": [],
      "stateMutability": "nonpayable",
      "type": "function"
    },
    {
      "inputs": [],
      "name": "pause",
      "outputs": [],
      "stateMutability": "nonpayable",
      "type": "function"
    },
    {
      "inputs": [],
      "name": "unpause",
      "outputs": [],
      "stateMutability": "nonpayable",
      "type": "function"
    },
    {
      "inputs": [
        {
          "internalType": "uint256",
          "name": "",
          "type": "uint256"
        },
        {
          "internalType": "uint256",
          "name": "salePrice",
          "type": "uint256"
        }
      ],
      "name": "royaltyInfo",
      "outputs": [
        {
          "internalType": "address",
          "name": "receiver",
          "type": "address"
        },
        {
          "internalType": "uint256",
          "name": "royaltyAmount",
          "type": "uint256"
        }
      ],
      "stateMutability": "view",
      "type": "function"
    },
    {
      "inputs": [
        {
          "internalType": "bytes4",
          "name": "interfaceId",
          "type": "bytes4"
        }
      ],
      "name": "supportsInterface",
      "outputs": [
        {
          "internalType": "bool",
          "name": "",
          "type": "bool"
        }
      ],
      "stateMutability": "view",
      "type": "function"
    }
  ],
  "bytecode": "0x608060405260006009556000600a556000600b556000600e60006101000a81548160ff0219169083151502179055506000600e60016101000a81548160ff0219169083151502179055503480156200005657600080fd5b50604051620059623803806200596283398181016040528101906200007c919062000595565b8686816001908051906020019062000096929190620002d2565b508060029080519060200190620000af929190620002d2565b5050506001600781905550620000da620000ce6200012f60201b60201c565b6200013760201b60201c565b6000600860146101000a81548160ff0219169083151502179055508460098190555083600a8190555082600b8190555080600c819055506200012282620001fd60201b60201c565b505050505050506200078d565b600033905090565b6000600860009054906101000a900473ffffffffffffffffffffffffffffffffffffffff16905081600860006101000a81548173ffffffffffffffffffffffffffffffffffffffff021916908373ffffffffffffffffffffffffffffffffffffffff1602179055508173ffffffffffffffffffffffffffffffffffffffff168173ffffffffffffffffffffffffffffffffffffffff167f8be0079c531659141344cd1fd0a4f28419497f9722a3daafe3b4186f6b6457e060405160405180910390a35050565b6200020d6200012f60201b60201c565b73ffffffffffffffffffffffffffffffffffffffff1662000233620002a860201b60201c565b73ffffffffffffffffffffffffffffffffffffffff16146200028c576040517f08c379a0000000000000000000000000000000000000000000000000000000008152600401620002839062000706565b60405180910390fd5b80600d9080519060200190620002a4929190620002d2565b5050565b6000600860009054906101000a900473ffffffffffffffffffffffffffffffffffffffff16905090565b828054620002e09062000757565b90600052602060002090601f01602090048101928262000304576000855562000350565b82601f106200031f57805160ff191683800117855562000350565b8280016001018555821562000350579182015b828111156200034f57825182559160200191906001019062000332565b5b5090506200035f919062000363565b5090565b5b808211156200037e57600081600090555060010162000364565b5090565b6000604051905090565b600080fd5b600080fd5b600080fd5b600080fd5b6000601f19601f8301169050919050565b7f4e487b7100000000000000000000000000000000000000000000000000000000600052604160045260246000fd5b620003eb82620003a0565b810181811067ffffffffffffffff821117156200040d576200040c620003b1565b5b80604052505050565b60006200042262000382565b9050620004308282620003e0565b919050565b600067ffffffffffffffff821115620004535762000452620003b1565b5b6200045e82620003a0565b9050602081019050919050565b60005b838110156200048b5780820151818401526020810190506200046e565b838111156200049b576000848401525b50505050565b6000620004b8620004b28462000435565b62000416565b905082815260208101848484011115620004d757620004d66200039b565b5b620004e48482856200046b565b509392505050565b600082601f83011262000504576200050362000396565b5b815162000516848260208601620004a1565b91505092915050565b6000819050919050565b62000534816200051f565b81146200054057600080fd5b50565b600081519050620005548162000529565b92915050565b6000819050919050565b6200056f816200055a565b81146200057b57600080fd5b50565b6000815190506200058f8162000564565b92915050565b600080600080600080600060e0888a031215620005b757620005b66200038c565b5b600088015167ffffffffffffffff811115620005d857620005d762000391565b5b620005e68a828b01620004ec565b975050602088015167ffffffffffffffff8111156200060a576200060962000391565b5b620006188a828b01620004ec565b96505060406200062b8a828b0162000543565b95505060606200063e8a828b0162000543565b9450506080620006518a828b0162000543565b93505060a088015167ffffffffffffffff81111562000675576200067462000391565b5b620006838a828b01620004ec565b92505060c0620006968a828b016200057e565b91505092959891949750929550565b600082825260208201905092915050565b7f4f776e61626c653a2063616c6c6572206973206e6f7420746865206f776e6572600082015250565b6000620006ee602083620006a5565b9150620006fb82620006b6565b602082019050919050565b600060208201905081810360008301526200072181620006df565b9050919050565b7f4e487b7100000000000000000000000000000000000000000000000000000000600052602260045260246000fd5b600060028204905060018216806200077057607f821691505b6020821081141562000787576200078662000728565b5b50919050565b6151c5806200079d6000396000f3fe6080604052600436106102305760003560e01c806355f804b31161012e57806395d89b41116100ab578063ca7ce3ec1161006f578063ca7ce3ec146107fc578063d547cfb714610825578063e0f9b47914610850578063e985e9c51461087b578063f2fde38b146108b857610230565b806395d89b4114610717578063a22cb46514610742578063b88d4fde1461076b578063bf0d96c314610794578063c87b56dd146107bf57610230565b806370a08231116100f257806370a0823114610656578063715018a6146106935780638456cb59146106aa5780638da5cb5b146106c15780638e7170b0146106ec57610230565b806355f804b3146105715780635aca1bb61461059a5780635c975abb146105c3578063611f3f10146105ee5780636352211e1461061957610230565b80632a55205a116101bc57806340e37ff11161018057806340e37ff1146104a057806342842e0e146104cb57806342966c68146104f45780634f6ccce71461051d57806352b50a2a1461055a57610230565b80632a55205a146103c75780632db11544146104055780632f745c59146104215780633007d6261461045e5780633f4ba83a1461048957610230565b8063095ea7b311610203578063095ea7b31461030357806317e7f2951461032c57806318160ddd1461035757806323b872dd146103825780632904e6d9146103ab57610230565b806301ffc9a714610235578063048266241461027257806306fdde031461029b578063081812fc146102c6575b600080fd5b34801561024157600080fd5b5061025c60048036038101906102579190613e2c565b6108e1565b6040516102699190613e74565b60405180910390f35b34801561027e57600080fd5b5061029960048036038101906102949190613f23565b61095b565b005b3480156102a757600080fd5b506102b0610a31565b6040516102bd9190613ffc565b60405180910390f35b3480156102d257600080fd5b506102ed60048036038101906102e8919061401e565b610ac3565b6040516102fa919061405a565b60405180910390f35b34801561030f57600080fd5b5061032a60048036038101906103259190613f23565b610b3f565b005b34801561033857600080fd5b50610341610c4a565b60405161034e9190614084565b60405180910390f35b34801561036357600080fd5b5061036c610c55565b6040516103799190614084565b60405180910390f35b34801561038e57600080fd5b506103a960048036038101906103a4919061409f565b610caa565b005b6103c560048036038101906103c09190614157565b610cba565b005b3480156103d357600080fd5b506103ee60048036038101906103e991906141b7565b6110ec565b6040516103fc9291906141f7565b60405180910390f35b61041f600480360381019061041a919061401e565b611114565b005b34801561042d57600080fd5b5061044860048036038101906104439190613f23565b61136a565b6040516104559190614084565b60405180910390f35b34801561046a57600080fd5b50610473611571565b6040516104809190614084565b60405180910390f35b34801561049557600080fd5b5061049e611577565b005b3480156104ac57600080fd5b506104b56115fd565b6040516104c29190614084565b60405180910390f35b3480156104d757600080fd5b506104f260048036038101906104ed919061409f565b611602565b005b34801561050057600080fd5b5061051b6004803603810190610516919061401e565b611622565b005b34801561052957600080fd5b50610544600480360381019061053f919061401e565b611713565b6040516105519190614084565b60405180910390f35b34801561056657600080fd5b5061056f611884565b005b34801561057d57600080fd5b5061059860048036038101906105939190614350565b611926565b005b3480156105a657600080fd5b506105c160048036038101906105bc91906143c5565b6119bc565b005b3480156105cf57600080fd5b506105d8611a8c565b6040516105e59190613e74565b60405180910390f35b3480156105fa57600080fd5b50610603611aa3565b6040516106109190614084565b60405180910390f35b34801561062557600080fd5b50610640600480360381019061063b919061401e565b611aaf565b60405161064d919061405a565b60405180910390f35b34801561066257600080fd5b5061067d600480360381019061067891906143f2565b611ac5565b60405161068a9190614084565b60405180910390f35b34801561069f57600080fd5b506106a8611b95565b005b3480156106b657600080fd5b506106bf611c1d565b005b3480156106cd57600080fd5b506106d6611ca3565b6040516106e3919061405a565b60405180910390f35b3480156106f857600080fd5b50610701611ccd565b60405161070e9190614084565b60405180910390f35b34801561072357600080fd5b5061072c611cde565b6040516107399190613ffc565b60405180910390f35b34801561074e57600080fd5b506107696004803603810190610764919061441f565b611d70565b005b34801561077757600080fd5b50610792600480360381019061078d9190614500565b611ee8565b005b3480156107a057600080fd5b506107a9611f3b565b6040516107b69190614084565b60405180910390f35b3480156107cb57600080fd5b506107e660048036038101906107e1919061401e565b611f41565b6040516107f39190613ffc565b60405180910390f35b34801561080857600080fd5b50610823600480360381019061081e91906143c5565b611fe0565b005b34801561083157600080fd5b5061083a6120b0565b6040516108479190613ffc565b60405180910390f35b34801561085c57600080fd5b5061086561213e565b6040516108729190614084565b60405180910390f35b34801561088757600080fd5b506108a2600480360381019061089d9190614583565b612144565b6040516108af9190613e74565b60405180910390f35b3480156108c457600080fd5b506108df60048036038101906108da91906143f2565b6121d8565b005b60007f2a55205a000000000000000000000000000000000000000000000000000000007bffffffffffffffffffffffffffffffffffffffffffffffffffffffff1916827bffffffffffffffffffffffffffffffffffffffffffffffffffffffff191614806109545750610953826122d0565b5b9050919050565b61096361241a565b73ffffffffffffffffffffffffffffffffffffffff16610981611ca3565b73ffffffffffffffffffffffffffffffffffffffff16146109d7576040517f08c379a00000000000000000000000000000000000000000000000000000000081526004016109ce9061460f565b60405180910390fd5b6009546109e2610c55565b1115610a23576040517f08c379a0000000000000000000000000000000000000000000000000000000008152600401610a1a9061467b565b60405180910390fd5b610a2d8282612422565b5050565b606060018054610a40906146ca565b80601f0160208091040260200160405190810160405280929190818152602001828054610a6c906146ca565b8015610ab95780601f10610a8e57610100808354040283529160200191610ab9565b820191906000526020600020905b815481529060010190602001808311610a9c57829003601f168201915b5050505050905090565b6000610ace82612430565b610b04576040517fcf4700e400000000000000000000000000000000000000000000000000000000815260040160405180910390fd5b6005600083815260200190815260200160002060009054906101000a900473ffffffffffffffffffffffffffffffffffffffff169050919050565b6000610b4a82611aaf565b90508073ffffffffffffffffffffffffffffffffffffffff168373ffffffffffffffffffffffffffffffffffffffff161415610bb2576040517f943f7b8c00000000000000000000000000000000000000000000000000000000815260040160405180910390fd5b8073ffffffffffffffffffffffffffffffffffffffff16610bd161241a565b73ffffffffffffffffffffffffffffffffffffffff1614158015610c035750610c0181610bfc61241a565b612144565b155b15610c3a576040517fcfb3b94200000000000000000000000000000000000000000000000000000000815260040160405180910390fd5b610c45838383612498565b505050565b669184e72a00000081565b60008060109054906101000a90046fffffffffffffffffffffffffffffffff1660008054906101000a90046fffffffffffffffffffffffffffffffff16036fffffffffffffffffffffffffffffffff16905090565b610cb583838361254a565b505050565b60026007541415610d00576040517f08c379a0000000000000000000000000000000000000000000000000000000008152600401610cf790614748565b60405180910390fd5b60026007819055503373ffffffffffffffffffffffffffffffffffffffff163273ffffffffffffffffffffffffffffffffffffffff1614610d76576040517f08c379a0000000000000000000000000000000000000000000000000000000008152600401610d6d906147b4565b60405180910390fd5b600e60009054906101000a900460ff16610dc5576040517f08c379a0000000000000000000000000000000000000000000000000000000008152600401610dbc90614820565b60405180910390fd5b600a54610dd0611ccd565b1115610e11576040517f08c379a0000000000000000000000000000000000000000000000000000000008152600401610e089061488c565b60405180910390fd5b600954610e1c610c55565b10610e5c576040517f08c379a0000000000000000000000000000000000000000000000000000000008152600401610e539061467b565b60405180910390fd5b610e64611a8c565b15610ea4576040517f08c379a0000000000000000000000000000000000000000000000000000000008152600401610e9b906148f8565b60405180910390fd5b600b54811115610ee9576040517f08c379a0000000000000000000000000000000000000000000000000000000008152600401610ee090614964565b60405180910390fd5b600a5481610ef5611ccd565b610eff91906149b3565b1115610f40576040517f08c379a0000000000000000000000000000000000000000000000000000000008152600401610f3790614a55565b60405180910390fd5b80669184e72a000000610f539190614a75565b341015610f95576040517f08c379a0000000000000000000000000000000000000000000000000000000008152600401610f8c90614b1b565b60405180910390fd5b6000339050600b5482610fa783611ac5565b610fb191906149b3565b1115610ff2576040517f08c379a0000000000000000000000000000000000000000000000000000000008152600401610fe990614964565b60405180910390fd5b6000816040516020016110059190614b83565b60405160208183030381529060405280519060200120905061106b858580806020026020016040519081016040528093929190818152602001838360200280828437600081840152601f19601f82011690508083019250505050505050600c5483612a67565b6110aa576040517f08c379a00000000000000000000000000000000000000000000000000000000081526004016110a190614bea565b60405180910390fd5b60005b838110156110d2576110bf600f612a7e565b80806110ca90614c0a565b9150506110ad565b506110dd8284612422565b50506001600781905550505050565b6000803060646002856110ff9190614a75565b6111099190614c82565b915091509250929050565b3373ffffffffffffffffffffffffffffffffffffffff163273ffffffffffffffffffffffffffffffffffffffff1614611182576040517f08c379a0000000000000000000000000000000000000000000000000000000008152600401611179906147b4565b60405180910390fd5b600e60019054906101000a900460ff166111d1576040517f08c379a00000000000000000000000000000000000000000000000000000000081526004016111c890614cff565b60405180910390fd5b6009546111dc610c55565b1061121c576040517f08c379a00000000000000000000000000000000000000000000000000000000081526004016112139061467b565b60405180910390fd5b611224611a8c565b15611264576040517f08c379a000000000000000000000000000000000000000000000000000000000815260040161125b906148f8565b60405180910390fd5b600b548111156112a9576040517f08c379a00000000000000000000000000000000000000000000000000000000081526004016112a090614964565b60405180910390fd5b6000339050600b54826112bb83611ac5565b6112c591906149b3565b1115611306576040517f08c379a00000000000000000000000000000000000000000000000000000000081526004016112fd90614964565b60405180910390fd5b8167012309ce5400000061131a9190614a75565b34101561135c576040517f08c379a000000000000000000000000000000000000000000000000000000000815260040161135390614b1b565b60405180910390fd5b6113668183612422565b5050565b600061137583611ac5565b82106113ad576040517f0ddac30e00000000000000000000000000000000000000000000000000000000815260040160405180910390fd5b60008060009054906101000a90046fffffffffffffffffffffffffffffffff166fffffffffffffffffffffffffffffffff16905060008060005b83811015611565576000600360008381526020019081526020016000206040518060600160405290816000820160009054906101000a900473ffffffffffffffffffffffffffffffffffffffff1673ffffffffffffffffffffffffffffffffffffffff1673ffffffffffffffffffffffffffffffffffffffff1681526020016000820160149054906101000a900467ffffffffffffffff1667ffffffffffffffff1667ffffffffffffffff16815260200160008201601c9054906101000a900460ff16151515158152505090508060400151156114c45750611558565b600073ffffffffffffffffffffffffffffffffffffffff16816000015173ffffffffffffffffffffffffffffffffffffffff161461150457806000015192505b8773ffffffffffffffffffffffffffffffffffffffff168373ffffffffffffffffffffffffffffffffffffffff161415611556578684141561154d57819550505050505061156b565b83806001019450505b505b80806001019150506113e7565b50600080fd5b92915050565b60095481565b61157f61241a565b73ffffffffffffffffffffffffffffffffffffffff1661159d611ca3565b73ffffffffffffffffffffffffffffffffffffffff16146115f3576040517f08c379a00000000000000000000000000000000000000000000000000000000081526004016115ea9061460f565b60405180910390fd5b6115fb612a94565b565b600281565b61161d83838360405180602001604052806000815250611ee8565b505050565b600061162d82612b36565b90506000816000015173ffffffffffffffffffffffffffffffffffffffff1661165461241a565b73ffffffffffffffffffffffffffffffffffffffff1614806116875750611686826000015161168161241a565b612144565b5b806116cc575061169561241a565b73ffffffffffffffffffffffffffffffffffffffff166116b484610ac3565b73ffffffffffffffffffffffffffffffffffffffff16145b905080611705576040517f59c896be00000000000000000000000000000000000000000000000000000000815260040160405180910390fd5b61170e83612dde565b505050565b60008060008054906101000a90046fffffffffffffffffffffffffffffffff166fffffffffffffffffffffffffffffffff1690506000805b8281101561184c576000600360008381526020019081526020016000206040518060600160405290816000820160009054906101000a900473ffffffffffffffffffffffffffffffffffffffff1673ffffffffffffffffffffffffffffffffffffffff1673ffffffffffffffffffffffffffffffffffffffff1681526020016000820160149054906101000a900467ffffffffffffffff1667ffffffffffffffff1667ffffffffffffffff16815260200160008201601c9054906101000a900460ff1615151515815250509050806040015161183e5785831415611835578194505050505061187f565b82806001019350505b50808060010191505061174b565b506040517fa723001c00000000000000000000000000000000000000000000000000000000815260040160405180910390fd5b919050565b61188c61241a565b73ffffffffffffffffffffffffffffffffffffffff166118aa611ca3565b73ffffffffffffffffffffffffffffffffffffffff1614611900576040517f08c379a00000000000000000000000000000000000000000000000000000000081526004016118f79061460f565b60405180910390fd5b60004790506000811161191257600080fd5b61192361191d611ca3565b826131fb565b50565b61192e61241a565b73ffffffffffffffffffffffffffffffffffffffff1661194c611ca3565b73ffffffffffffffffffffffffffffffffffffffff16146119a2576040517f08c379a00000000000000000000000000000000000000000000000000000000081526004016119999061460f565b60405180910390fd5b80600d90805190602001906119b8929190613cda565b5050565b6119c461241a565b73ffffffffffffffffffffffffffffffffffffffff166119e2611ca3565b73ffffffffffffffffffffffffffffffffffffffff1614611a38576040517f08c379a0000000000000000000000000000000000000000000000000000000008152600401611a2f9061460f565b60405180910390fd5b80600e60016101000a81548160ff0219169083151502179055507f819bd618bf2c153d8a6d9e6174bc4b17fdff7d7e295b8a3242690b290bfc94a381604051611a819190613e74565b60405180910390a150565b6000600860149054906101000a900460ff16905090565b67012309ce5400000081565b6000611aba82612b36565b600001519050919050565b60008073ffffffffffffffffffffffffffffffffffffffff168273ffffffffffffffffffffffffffffffffffffffff161415611b2d576040517f8f4eb60400000000000000000000000000000000000000000000000000000000815260040160405180910390fd5b600460008373ffffffffffffffffffffffffffffffffffffffff1673ffffffffffffffffffffffffffffffffffffffff16815260200190815260200160002060000160009054906101000a900467ffffffffffffffff1667ffffffffffffffff169050919050565b611b9d61241a565b73ffffffffffffffffffffffffffffffffffffffff16611bbb611ca3565b73ffffffffffffffffffffffffffffffffffffffff1614611c11576040517f08c379a0000000000000000000000000000000000000000000000000000000008152600401611c089061460f565b60405180910390fd5b611c1b60006132ef565b565b611c2561241a565b73ffffffffffffffffffffffffffffffffffffffff16611c43611ca3565b73ffffffffffffffffffffffffffffffffffffffff1614611c99576040517f08c379a0000000000000000000000000000000000000000000000000000000008152600401611c909061460f565b60405180910390fd5b611ca16133b5565b565b6000600860009054906101000a900473ffffffffffffffffffffffffffffffffffffffff16905090565b6000611cd9600f613458565b905090565b606060028054611ced906146ca565b80601f0160208091040260200160405190810160405280929190818152602001828054611d19906146ca565b8015611d665780601f10611d3b57610100808354040283529160200191611d66565b820191906000526020600020905b815481529060010190602001808311611d4957829003601f168201915b5050505050905090565b611d7861241a565b73ffffffffffffffffffffffffffffffffffffffff168273ffffffffffffffffffffffffffffffffffffffff161415611ddd576040517fb06307db00000000000000000000000000000000000000000000000000000000815260040160405180910390fd5b8060066000611dea61241a565b73ffffffffffffffffffffffffffffffffffffffff1673ffffffffffffffffffffffffffffffffffffffff16815260200190815260200160002060008473ffffffffffffffffffffffffffffffffffffffff1673ffffffffffffffffffffffffffffffffffffffff16815260200190815260200160002060006101000a81548160ff0219169083151502179055508173ffffffffffffffffffffffffffffffffffffffff16611e9761241a565b73ffffffffffffffffffffffffffffffffffffffff167f17307eab39ab6107e8899845ad3d59bd9653f200f220920489ca2b5937696c3183604051611edc9190613e74565b60405180910390a35050565b611ef384848461254a565b611eff84848484613466565b611f35576040517fd1a57ed600000000000000000000000000000000000000000000000000000000815260040160405180910390fd5b50505050565b600a5481565b6060611f4c82612430565b611f82576040517fa14c4b5000000000000000000000000000000000000000000000000000000000815260040160405180910390fd5b6000611f8c6135e5565b9050600081511415611fad5760405180602001604052806000815250611fd8565b80611fb784613677565b604051602001611fc8929190614d5b565b6040516020818303038152906040525b915050919050565b611fe861241a565b73ffffffffffffffffffffffffffffffffffffffff16612006611ca3565b73ffffffffffffffffffffffffffffffffffffffff161461205c576040517f08c379a00000000000000000000000000000000000000000000000000000000081526004016120539061460f565b60405180910390fd5b80600e60006101000a81548160ff0219169083151502179055507fbbfb0dda705aa1c7368a1e31138d53b5eebfd36eb343b4560d9bdf0a50e9a4ce816040516120a59190613e74565b60405180910390a150565b600d80546120bd906146ca565b80601f01602080910402602001604051908101604052809291908181526020018280546120e9906146ca565b80156121365780601f1061210b57610100808354040283529160200191612136565b820191906000526020600020905b81548152906001019060200180831161211957829003601f168201915b505050505081565b600b5481565b6000600660008473ffffffffffffffffffffffffffffffffffffffff1673ffffffffffffffffffffffffffffffffffffffff16815260200190815260200160002060008373ffffffffffffffffffffffffffffffffffffffff1673ffffffffffffffffffffffffffffffffffffffff16815260200190815260200160002060009054906101000a900460ff16905092915050565b6121e061241a565b73ffffffffffffffffffffffffffffffffffffffff166121fe611ca3565b73ffffffffffffffffffffffffffffffffffffffff1614612254576040517f08c379a000000000000000000000000000000000000000000000000000000000815260040161224b9061460f565b60405180910390fd5b600073ffffffffffffffffffffffffffffffffffffffff168173ffffffffffffffffffffffffffffffffffffffff1614156122c4576040517f08c379a00000000000000000000000000000000000000000000000000000000081526004016122bb90614df1565b60405180910390fd5b6122cd816132ef565b50565b60007f80ac58cd000000000000000000000000000000000000000000000000000000007bffffffffffffffffffffffffffffffffffffffffffffffffffffffff1916827bffffffffffffffffffffffffffffffffffffffffffffffffffffffff1916148061239b57507f5b5e139f000000000000000000000000000000000000000000000000000000007bffffffffffffffffffffffffffffffffffffffffffffffffffffffff1916827bffffffffffffffffffffffffffffffffffffffffffffffffffffffff1916145b8061240357507f780e9d63000000000000000000000000000000000000000000000000000000007bffffffffffffffffffffffffffffffffffffffffffffffffffffffff1916827bffffffffffffffffffffffffffffffffffffffffffffffffffffffff1916145b806124135750612412826137d8565b5b9050919050565b600033905090565b61242c8282613842565b5050565b60008060009054906101000a90046fffffffffffffffffffffffffffffffff166fffffffffffffffffffffffffffffffff1682108015612491575060036000838152602001908152602001600020600001601c9054906101000a900460ff16155b9050919050565b826005600084815260200190815260200160002060006101000a81548173ffffffffffffffffffffffffffffffffffffffff021916908373ffffffffffffffffffffffffffffffffffffffff160217905550818373ffffffffffffffffffffffffffffffffffffffff168273ffffffffffffffffffffffffffffffffffffffff167f8c5be1e5ebec7d5bd14f71427d1e84f3dd0314c0f7b2291e5b200ac8c7c3b92560405160405180910390a4505050565b600061255582612b36565b90506000816000015173ffffffffffffffffffffffffffffffffffffffff1661257c61241a565b73ffffffffffffffffffffffffffffffffffffffff1614806125af57506125ae82600001516125a961241a565b612144565b5b806125f457506125bd61241a565b73ffffffffffffffffffffffffffffffffffffffff166125dc84610ac3565b73ffffffffffffffffffffffffffffffffffffffff16145b90508061262d576040517f59c896be00000000000000000000000000000000000000000000000000000000815260040160405180910390fd5b8473ffffffffffffffffffffffffffffffffffffffff16826000015173ffffffffffffffffffffffffffffffffffffffff1614612696576040517fa114810000000000000000000000000000000000000000000000000000000000815260040160405180910390fd5b600073ffffffffffffffffffffffffffffffffffffffff168473ffffffffffffffffffffffffffffffffffffffff1614156126fd576040517fea553b3400000000000000000000000000000000000000000000000000000000815260040160405180910390fd5b61270a8585856001613860565b61271a6000848460000151612498565b6001600460008773ffffffffffffffffffffffffffffffffffffffff1673ffffffffffffffffffffffffffffffffffffffff16815260200190815260200160002060000160008282829054906101000a900467ffffffffffffffff160392506101000a81548167ffffffffffffffff021916908367ffffffffffffffff1602179055506001600460008673ffffffffffffffffffffffffffffffffffffffff1673ffffffffffffffffffffffffffffffffffffffff16815260200190815260200160002060000160008282829054906101000a900467ffffffffffffffff160192506101000a81548167ffffffffffffffff021916908367ffffffffffffffff160217905550836003600085815260200190815260200160002060000160006101000a81548173ffffffffffffffffffffffffffffffffffffffff021916908373ffffffffffffffffffffffffffffffffffffffff160217905550426003600085815260200190815260200160002060000160146101000a81548167ffffffffffffffff021916908367ffffffffffffffff1602179055506000600184019050600073ffffffffffffffffffffffffffffffffffffffff166003600083815260200190815260200160002060000160009054906101000a900473ffffffffffffffffffffffffffffffffffffffff1673ffffffffffffffffffffffffffffffffffffffff1614156129f75760008054906101000a90046fffffffffffffffffffffffffffffffff166fffffffffffffffffffffffffffffffff168110156129f65782600001516003600083815260200190815260200160002060000160006101000a81548173ffffffffffffffffffffffffffffffffffffffff021916908373ffffffffffffffffffffffffffffffffffffffff16021790555082602001516003600083815260200190815260200160002060000160146101000a81548167ffffffffffffffff021916908367ffffffffffffffff1602179055505b5b50828473ffffffffffffffffffffffffffffffffffffffff168673ffffffffffffffffffffffffffffffffffffffff167fddf252ad1be2c89b69c2b068fc378daa952ba7f163c4a11628f55a4df523b3ef60405160405180910390a4612a608585856001613866565b5050505050565b600082612a74858461386c565b1490509392505050565b6001816000016000828254019250508190555050565b612a9c611a8c565b612adb576040517f08c379a0000000000000000000000000000000000000000000000000000000008152600401612ad290614e5d565b60405180910390fd5b6000600860146101000a81548160ff0219169083151502179055507f5db9ee0a495bf2e6ff9c91a7834c1ba4fdd244a5e8aa4e537bd38aeae4b073aa612b1f61241a565b604051612b2c919061405a565b60405180910390a1565b612b3e613d60565b600082905060008054906101000a90046fffffffffffffffffffffffffffffffff166fffffffffffffffffffffffffffffffff16811015612da7576000600360008381526020019081526020016000206040518060600160405290816000820160009054906101000a900473ffffffffffffffffffffffffffffffffffffffff1673ffffffffffffffffffffffffffffffffffffffff1673ffffffffffffffffffffffffffffffffffffffff1681526020016000820160149054906101000a900467ffffffffffffffff1667ffffffffffffffff1667ffffffffffffffff16815260200160008201601c9054906101000a900460ff16151515158152505090508060400151612da557600073ffffffffffffffffffffffffffffffffffffffff16816000015173ffffffffffffffffffffffffffffffffffffffff1614612c89578092505050612dd9565b5b600115612da457818060019003925050600360008381526020019081526020016000206040518060600160405290816000820160009054906101000a900473ffffffffffffffffffffffffffffffffffffffff1673ffffffffffffffffffffffffffffffffffffffff1673ffffffffffffffffffffffffffffffffffffffff1681526020016000820160149054906101000a900467ffffffffffffffff1667ffffffffffffffff1667ffffffffffffffff16815260200160008201601c9054906101000a900460ff1615151515815250509050600073ffffffffffffffffffffffffffffffffffffffff16816000015173ffffffffffffffffffffffffffffffffffffffff1614612d9f578092505050612dd9565b612c8a565b5b505b6040517fdf2d9b4200000000000000000000000000000000000000000000000000000000815260040160405180910390fd5b919050565b6000612de982612b36565b9050612dfd81600001516000846001613860565b612e0d6000838360000151612498565b600160046000836000015173ffffffffffffffffffffffffffffffffffffffff1673ffffffffffffffffffffffffffffffffffffffff16815260200190815260200160002060000160008282829054906101000a900467ffffffffffffffff160392506101000a81548167ffffffffffffffff021916908367ffffffffffffffff160217905550600160046000836000015173ffffffffffffffffffffffffffffffffffffffff1673ffffffffffffffffffffffffffffffffffffffff16815260200190815260200160002060000160108282829054906101000a900467ffffffffffffffff160192506101000a81548167ffffffffffffffff021916908367ffffffffffffffff16021790555080600001516003600084815260200190815260200160002060000160006101000a81548173ffffffffffffffffffffffffffffffffffffffff021916908373ffffffffffffffffffffffffffffffffffffffff160217905550426003600084815260200190815260200160002060000160146101000a81548167ffffffffffffffff021916908367ffffffffffffffff160217905550600160036000848152602001908152602001600020600001601c6101000a81548160ff0219169083151502179055506000600183019050600073ffffffffffffffffffffffffffffffffffffffff166003600083815260200190815260200160002060000160009054906101000a900473ffffffffffffffffffffffffffffffffffffffff1673ffffffffffffffffffffffffffffffffffffffff1614156131255760008054906101000a90046fffffffffffffffffffffffffffffffff166fffffffffffffffffffffffffffffffff168110156131245781600001516003600083815260200190815260200160002060000160006101000a81548173ffffffffffffffffffffffffffffffffffffffff021916908373ffffffffffffffffffffffffffffffffffffffff16021790555081602001516003600083815260200190815260200160002060000160146101000a81548167ffffffffffffffff021916908367ffffffffffffffff1602179055505b5b5081600073ffffffffffffffffffffffffffffffffffffffff16826000015173ffffffffffffffffffffffffffffffffffffffff167fddf252ad1be2c89b69c2b068fc378daa952ba7f163c4a11628f55a4df523b3ef60405160405180910390a461319881600001516000846001613866565b6000601081819054906101000a90046fffffffffffffffffffffffffffffffff168092919060010191906101000a8154816fffffffffffffffffffffffffffffffff02191690836fffffffffffffffffffffffffffffffff160217905550505050565b8047101561323e576040517f08c379a000000000000000000000000000000000000000000000000000000000815260040161323590614ec9565b60405180910390fd5b60008273ffffffffffffffffffffffffffffffffffffffff168260405161326490614f1a565b60006040518083038185875af1925050503d80600081146132a1576040519150601f19603f3d011682016040523d82523d6000602084013e6132a6565b606091505b50509050806132ea576040517f08c379a00000000000000000000000000000000000000000000000000000000081526004016132e190614fa1565b60405180910390fd5b505050565b6000600860009054906101000a900473ffffffffffffffffffffffffffffffffffffffff16905081600860006101000a81548173ffffffffffffffffffffffffffffffffffffffff021916908373ffffffffffffffffffffffffffffffffffffffff1602179055508173ffffffffffffffffffffffffffffffffffffffff168173ffffffffffffffffffffffffffffffffffffffff167f8be0079c531659141344cd1fd0a4f28419497f9722a3daafe3b4186f6b6457e060405160405180910390a35050565b6133bd611a8c565b156133fd576040517f08c379a00000000000000000000000000000000000000000000000000000000081526004016133f4906148f8565b60405180910390fd5b6001600860146101000a81548160ff0219169083151502179055507f62e78cea01bee320cd4e420270b5ea74000d11b0c9f74754ebdbfc544b05a25861344161241a565b60405161344e919061405a565b60405180910390a1565b600081600001549050919050565b60006134878473ffffffffffffffffffffffffffffffffffffffff1661391f565b156135d8578373ffffffffffffffffffffffffffffffffffffffff1663150b7a026134b061241a565b8786866040518563ffffffff1660e01b81526004016134d29493929190615016565b6020604051808303816000875af192505050801561350e57506040513d601f19601f8201168201806040525081019061350b9190615077565b60015b613588573d806000811461353e576040519150601f19603f3d011682016040523d82523d6000602084013e613543565b606091505b50600081511415613580576040517fd1a57ed600000000000000000000000000000000000000000000000000000000815260040160405180910390fd5b805181602001fd5b63150b7a0260e01b7bffffffffffffffffffffffffffffffffffffffffffffffffffffffff1916817bffffffffffffffffffffffffffffffffffffffffffffffffffffffff1916149150506135dd565b600190505b949350505050565b6060600d80546135f4906146ca565b80601f0160208091040260200160405190810160405280929190818152602001828054613620906146ca565b801561366d5780601f106136425761010080835404028352916020019161366d565b820191906000526020600020905b81548152906001019060200180831161365057829003601f168201915b5050505050905090565b606060008214156136bf576040518060400160405280600181526020017f300000000000000000000000000000000000000000000000000000000000000081525090506137d3565b600082905060005b600082146136f15780806136da90614c0a565b915050600a826136ea9190614c82565b91506136c7565b60008167ffffffffffffffff81111561370d5761370c614225565b5b6040519080825280601f01601f19166020018201604052801561373f5781602001600182028036833780820191505090505b5090505b600085146137cc5760018261375891906150a4565b9150600a8561376791906150d8565b603061377391906149b3565b60f81b81838151811061378957613788615109565b5b60200101907effffffffffffffffffffffffffffffffffffffffffffffffffffffffffffff1916908160001a905350600a856137c59190614c82565b9450613743565b8093505050505b919050565b60007f01ffc9a7000000000000000000000000000000000000000000000000000000007bffffffffffffffffffffffffffffffffffffffffffffffffffffffff1916827bffffffffffffffffffffffffffffffffffffffffffffffffffffffff1916149050919050565b61385c828260405180602001604052806000815250613932565b5050565b50505050565b50505050565b60008082905060005b845181101561391457600085828151811061389357613892615109565b5b602002602001015190508083116138d45782816040516020016138b7929190615163565b604051602081830303815290604052805190602001209250613900565b80836040516020016138e7929190615163565b6040516020818303038152906040528051906020012092505b50808061390c90614c0a565b915050613875565b508091505092915050565b600080823b905060008111915050919050565b61393f8383836001613944565b505050565b60008060009054906101000a90046fffffffffffffffffffffffffffffffff166fffffffffffffffffffffffffffffffff169050600073ffffffffffffffffffffffffffffffffffffffff168573ffffffffffffffffffffffffffffffffffffffff1614156139df576040517f2e07630000000000000000000000000000000000000000000000000000000000815260040160405180910390fd5b6000841415613a1a576040517fb562e8dd00000000000000000000000000000000000000000000000000000000815260040160405180910390fd5b613a276000868387613860565b83600460008773ffffffffffffffffffffffffffffffffffffffff1673ffffffffffffffffffffffffffffffffffffffff16815260200190815260200160002060000160008282829054906101000a900467ffffffffffffffff160192506101000a81548167ffffffffffffffff021916908367ffffffffffffffff16021790555083600460008773ffffffffffffffffffffffffffffffffffffffff1673ffffffffffffffffffffffffffffffffffffffff16815260200190815260200160002060000160088282829054906101000a900467ffffffffffffffff160192506101000a81548167ffffffffffffffff021916908367ffffffffffffffff160217905550846003600083815260200190815260200160002060000160006101000a81548173ffffffffffffffffffffffffffffffffffffffff021916908373ffffffffffffffffffffffffffffffffffffffff160217905550426003600083815260200190815260200160002060000160146101000a81548167ffffffffffffffff021916908367ffffffffffffffff160217905550600081905060005b85811015613c8c57818773ffffffffffffffffffffffffffffffffffffffff16600073ffffffffffffffffffffffffffffffffffffffff167fddf252ad1be2c89b69c2b068fc378daa952ba7f163c4a11628f55a4df523b3ef60405160405180910390a4838015613c405750613c3e6000888488613466565b155b15613c77576040517fd1a57ed600000000000000000000000000000000000000000000000000000000815260040160405180910390fd5b81806001019250508080600101915050613bc5565b50806000806101000a8154816fffffffffffffffffffffffffffffffff02191690836fffffffffffffffffffffffffffffffff16021790555050613cd36000868387613866565b5050505050565b828054613ce6906146ca565b90600052602060002090601f016020900481019282613d085760008555613d4f565b82601f10613d2157805160ff1916838001178555613d4f565b82800160010185558215613d4f579182015b82811115613d4e578251825591602001919060010190613d33565b5b509050613d5c9190613da3565b5090565b6040518060600160405280600073ffffffffffffffffffffffffffffffffffffffff168152602001600067ffffffffffffffff1681526020016000151581525090565b5b80821115613dbc576000816000905550600101613da4565b5090565b6000604051905090565b600080fd5b600080fd5b60007fffffffff0000000000000000000000000000000000000000000000000000000082169050919050565b613e0981613dd4565b8114613e1457600080fd5b50565b600081359050613e2681613e00565b92915050565b600060208284031215613e4257613e41613dca565b5b6000613e5084828501613e17565b91505092915050565b60008115159050919050565b613e6e81613e59565b82525050565b6000602082019050613e896000830184613e65565b92915050565b600073ffffffffffffffffffffffffffffffffffffffff82169050919050565b6000613eba82613e8f565b9050919050565b613eca81613eaf565b8114613ed557600080fd5b50565b600081359050613ee781613ec1565b92915050565b6000819050919050565b613f0081613eed565b8114613f0b57600080fd5b50565b600081359050613f1d81613ef7565b92915050565b60008060408385031215613f3a57613f39613dca565b5b6000613f4885828601613ed8565b9250506020613f5985828601613f0e565b9150509250929050565b600081519050919050565b600082825260208201905092915050565b60005b83811015613f9d578082015181840152602081019050613f82565b83811115613fac576000848401525b50505050565b6000601f19601f8301169050919050565b6000613fce82613f63565b613fd88185613f6e565b9350613fe8818560208601613f7f565b613ff181613fb2565b840191505092915050565b600060208201905081810360008301526140168184613fc3565b905092915050565b60006020828403121561403457614033613dca565b5b600061404284828501613f0e565b91505092915050565b61405481613eaf565b82525050565b600060208201905061406f600083018461404b565b92915050565b61407e81613eed565b82525050565b60006020820190506140996000830184614075565b92915050565b6000806000606084860312156140b8576140b7613dca565b5b60006140c686828701613ed8565b93505060206140d786828701613ed8565b92505060406140e886828701613f0e565b9150509250925092565b600080fd5b600080fd5b600080fd5b60008083601f840112614117576141166140f2565b5b8235905067ffffffffffffffff811115614134576141336140f7565b5b6020830191508360208202830111156141505761414f6140fc565b5b9250929050565b6000806000604084860312156141705761416f613dca565b5b600084013567ffffffffffffffff81111561418e5761418d613dcf565b5b61419a86828701614101565b935093505060206141ad86828701613f0e565b9150509250925092565b600080604083850312156141ce576141cd613dca565b5b60006141dc85828601613f0e565b92505060206141ed85828601613f0e565b9150509250929050565b600060408201905061420c600083018561404b565b6142196020830184614075565b9392505050565b600080fd5b7f4e487b7100000000000000000000000000000000000000000000000000000000600052604160045260246000fd5b61425d82613fb2565b810181811067ffffffffffffffff8211171561427c5761427b614225565b5b80604052505050565b600061428f613dc0565b905061429b8282614254565b919050565b600067ffffffffffffffff8211156142bb576142ba614225565b5b6142c482613fb2565b9050602081019050919050565b82818337600083830152505050565b60006142f36142ee846142a0565b614285565b90508281526020810184848401111561430f5761430e614220565b5b61431a8482856142d1565b509392505050565b600082601f830112614337576143366140f2565b5b81356143478482602086016142e0565b91505092915050565b60006020828403121561436657614365613dca565b5b600082013567ffffffffffffffff81111561438457614383613dcf565b5b61439084828501614322565b91505092915050565b6143a281613e59565b81146143ad57600080fd5b50565b6000813590506143bf81614399565b92915050565b6000602082840312156143db576143da613dca565b5b60006143e9848285016143b0565b91505092915050565b60006020828403121561440857614407613dca565b5b600061441684828501613ed8565b91505092915050565b6000806040838503121561443657614435613dca565b5b600061444485828601613ed8565b9250506020614455858286016143b0565b9150509250929050565b600067ffffffffffffffff82111561447a57614479614225565b5b61448382613fb2565b9050602081019050919050565b60006144a361449e8461445f565b614285565b9050828152602081018484840111156144bf576144be614220565b5b6144ca8482856142d1565b509392505050565b600082601f8301126144e7576144e66140f2565b5b81356144f7848260208601614490565b91505092915050565b6000806000806080858703121561451a57614519613dca565b5b600061452887828801613ed8565b945050602061453987828801613ed8565b935050604061454a87828801613f0e565b925050606085013567ffffffffffffffff81111561456b5761456a613dcf565b5b614577878288016144d2565b91505092959194509250565b6000806040838503121561459a57614599613dca565b5b60006145a885828601613ed8565b92505060206145b985828601613ed8565b9150509250929050565b7f4f776e61626c653a2063616c6c6572206973206e6f7420746865206f776e6572600082015250565b60006145f9602083613f6e565b9150614604826145c3565b602082019050919050565b60006020820190508181036000830152614628816145ec565b9050919050565b7f536f6c646f757421000000000000000000000000000000000000000000000000600082015250565b6000614665600883613f6e565b91506146708261462f565b602082019050919050565b6000602082019050818103600083015261469481614658565b9050919050565b7f4e487b7100000000000000000000000000000000000000000000000000000000600052602260045260246000fd5b600060028204905060018216806146e257607f821691505b602082108114156146f6576146f561469b565b5b50919050565b7f5265656e7472616e637947756172643a207265656e7472616e742063616c6c00600082015250565b6000614732601f83613f6e565b915061473d826146fc565b602082019050919050565b6000602082019050818103600083015261476181614725565b9050919050565b7f5468652063616c6c657220697320616e6f7468657220636f6e74726163740000600082015250565b600061479e601e83613f6e565b91506147a982614768565b602082019050919050565b600060208201905081810360008301526147cd81614791565b9050919050565b7f57686974656c6973742073616c6573206e6f74206f70656e0000000000000000600082015250565b600061480a601883613f6e565b9150614815826147d4565b602082019050919050565b60006020820190508181036000830152614839816147fd565b9050919050565b7f57686974656c69737420736f6c646f7574210000000000000000000000000000600082015250565b6000614876601283613f6e565b915061488182614840565b602082019050919050565b600060208201905081810360008301526148a581614869565b9050919050565b7f5061757361626c653a2070617573656400000000000000000000000000000000600082015250565b60006148e2601083613f6e565b91506148ed826148ac565b602082019050919050565b60006020820190508181036000830152614911816148d5565b9050919050565b7f4578636565646564206c696d6974207065722077616c6c657421000000000000600082015250565b600061494e601a83613f6e565b915061495982614918565b602082019050919050565b6000602082019050818103600083015261497d81614941565b9050919050565b7f4e487b7100000000000000000000000000000000000000000000000000000000600052601160045260246000fd5b60006149be82613eed565b91506149c983613eed565b9250827fffffffffffffffffffffffffffffffffffffffffffffffffffffffffffffffff038211156149fe576149fd614984565b5b828201905092915050565b7f45786365656465642077686974656c69737420737570706c7921000000000000600082015250565b6000614a3f601a83613f6e565b9150614a4a82614a09565b602082019050919050565b60006020820190508181036000830152614a6e81614a32565b9050919050565b6000614a8082613eed565b9150614a8b83613eed565b9250817fffffffffffffffffffffffffffffffffffffffffffffffffffffffffffffffff0483118215151615614ac457614ac3614984565b5b828202905092915050565b7f496e73756666696369656e74207061796d656e7420706572206974656d000000600082015250565b6000614b05601d83613f6e565b9150614b1082614acf565b602082019050919050565b60006020820190508181036000830152614b3481614af8565b9050919050565b60008160601b9050919050565b6000614b5382614b3b565b9050919050565b6000614b6582614b48565b9050919050565b614b7d614b7882613eaf565b614b5a565b82525050565b6000614b8f8284614b6c565b60148201915081905092915050565b7f4e6f742077686974656c69737465640000000000000000000000000000000000600082015250565b6000614bd4600f83613f6e565b9150614bdf82614b9e565b602082019050919050565b60006020820190508181036000830152614c0381614bc7565b9050919050565b6000614c1582613eed565b91507fffffffffffffffffffffffffffffffffffffffffffffffffffffffffffffffff821415614c4857614c47614984565b5b600182019050919050565b7f4e487b7100000000000000000000000000000000000000000000000000000000600052601260045260246000fd5b6000614c8d82613eed565b9150614c9883613eed565b925082614ca857614ca7614c53565b5b828204905092915050565b7f5075626c69632073616c6573206e6f74206f70656e0000000000000000000000600082015250565b6000614ce9601583613f6e565b9150614cf482614cb3565b602082019050919050565b60006020820190508181036000830152614d1881614cdc565b9050919050565b600081905092915050565b6000614d3582613f63565b614d3f8185614d1f565b9350614d4f818560208601613f7f565b80840191505092915050565b6000614d678285614d2a565b9150614d738284614d2a565b91508190509392505050565b7f4f776e61626c653a206e6577206f776e657220697320746865207a65726f206160008201527f6464726573730000000000000000000000000000000000000000000000000000602082015250565b6000614ddb602683613f6e565b9150614de682614d7f565b604082019050919050565b60006020820190508181036000830152614e0a81614dce565b9050919050565b7f5061757361626c653a206e6f7420706175736564000000000000000000000000600082015250565b6000614e47601483613f6e565b9150614e5282614e11565b602082019050919050565b60006020820190508181036000830152614e7681614e3a565b9050919050565b7f416464726573733a20696e73756666696369656e742062616c616e6365000000600082015250565b6000614eb3601d83613f6e565b9150614ebe82614e7d565b602082019050919050565b60006020820190508181036000830152614ee281614ea6565b9050919050565b600081905092915050565b50565b6000614f04600083614ee9565b9150614f0f82614ef4565b600082019050919050565b6000614f2582614ef7565b9150819050919050565b7f416464726573733a20756e61626c6520746f2073656e642076616c75652c207260008201527f6563697069656e74206d61792068617665207265766572746564000000000000602082015250565b6000614f8b603a83613f6e565b9150614f9682614f2f565b604082019050919050565b60006020820190508181036000830152614fba81614f7e565b9050919050565b600081519050919050565b600082825260208201905092915050565b6000614fe882614fc1565b614ff28185614fcc565b9350615002818560208601613f7f565b61500b81613fb2565b840191505092915050565b600060808201905061502b600083018761404b565b615038602083018661404b565b6150456040830185614075565b81810360608301526150578184614fdd565b905095945050505050565b60008151905061507181613e00565b92915050565b60006020828403121561508d5761508c613dca565b5b600061509b84828501615062565b91505092915050565b60006150af82613eed565b91506150ba83613eed565b9250828210156150cd576150cc614984565b5b828203905092915050565b60006150e382613eed565b91506150ee83613eed565b9250826150fe576150fd614c53565b5b828206905092915050565b7f4e487b7100000000000000000000000000000000000000000000000000000000600052603260045260246000fd5b6000819050919050565b6000819050919050565b61515d61515882615138565b615142565b82525050565b600061516f828561514c565b60208201915061517f828461514c565b602082019150819050939250505056fea26469706673582212208b899e649630bed267ad079f47c03e14047d72f222bcc2933c0e94fc25f14f1264736f6c634300080a0033",
  "immutableReferences": {},
  "source": "// SPDX-License-Identifier: MIT\npragma solidity ^0.8.9;\n\nimport \"@openzeppelin/contracts/utils/cryptography/MerkleProof.sol\";\nimport \"@openzeppelin/contracts/access/Ownable.sol\";\nimport \"@openzeppelin/contracts/security/ReentrancyGuard.sol\";\nimport \"@openzeppelin/contracts/interfaces/IERC2981.sol\";\nimport \"@openzeppelin/contracts/utils/Counters.sol\";\nimport \"@openzeppelin/contracts/utils/Address.sol\";\nimport '@openzeppelin/contracts/security/Pausable.sol';\nimport \"erc721a/contracts/ERC721A.sol\";\nimport \"erc721a/contracts/extensions/ERC721ABurnable.sol\";\n\ncontract NoMaGuild is ERC721A, ERC721ABurnable, IERC2981, ReentrancyGuard, Ownable, Pausable  {\n    using Counters for Counters.Counter;\n\n    // Contract immutables\n    uint256 public maxMummies = 0;\n    uint256 public maxWhitelist = 0;\n    uint256 public mintLimitPerWallet = 0;\n\n    // Constants\n    uint256 public constant ROYALTY_RATE = 2; // 2%\n    uint256 public constant WHITELIST_PRICE = 0.04096 ether;\n    uint256 public constant PUBLIC_PRICE = 0.08192 ether;\n\n    // Constructur set constants\n    bytes32 internal merkleRoot;\n    string public baseTokenURI;\n\n    // Switches\n    bool internal IS_WHITELIST_SALE_OPEN = false;\n    bool internal IS_PUBLIC_SALE_OPEN = false;\n\n    Counters.Counter private whitelistedMummyCounter;\n\n    event WhitelistSaleEvent(bool pause);\n    event PublicSaleEvent(bool pause);\n\n    constructor(\n        string memory _symbol,\n        string memory _name,\n        uint256 _maxMummies,\n        uint256 _maxWhitelist,\n        uint256 _mintLimitPerWallet,\n        string memory baseURI,\n        bytes32 _merkleRoot\n    ) ERC721A(_symbol, _name) {\n        maxMummies = _maxMummies;\n        maxWhitelist = _maxWhitelist;\n        mintLimitPerWallet = _mintLimitPerWallet;\n        merkleRoot = _merkleRoot;\n        setBaseURI(baseURI);\n    }\n\n    modifier notSoldOut() {\n        require(totalSupply() <= maxMummies, \"Soldout!\");\n        _;\n    }\n\n    modifier whitelistSaleIsOpen() {\n        require(IS_WHITELIST_SALE_OPEN, \"Whitelist sales not open\");\n        require(whitelistedMummiesMinted() <= maxWhitelist, \"Whitelist soldout!\");\n        require(totalSupply() < maxMummies, \"Soldout!\");\n        _;\n    }\n\n    modifier publicSaleIsOpen() {\n        require(IS_PUBLIC_SALE_OPEN, \"Public sales not open\");\n        require(totalSupply() < maxMummies, \"Soldout!\");\n        _;\n    }\n\n   modifier callerIsUser() {\n        require(tx.origin == msg.sender, \"The caller is another contract\");\n        _;\n   }\n\n    function whitelistedMummiesMinted() public view returns (uint256) {\n        return whitelistedMummyCounter.current();\n    }\n\n    function setBaseURI(string memory baseURI) public onlyOwner {\n        baseTokenURI = baseURI;\n    }\n\n    function _baseURI() internal view virtual override returns (string memory) {\n        return baseTokenURI;\n    }\n\n    function whitelistMint(bytes32[] calldata _merkleProof, uint256 _quantity)\n        public\n        payable\n        nonReentrant\n        callerIsUser\n        whitelistSaleIsOpen\n        whenNotPaused\n    {\n        require(_quantity <= mintLimitPerWallet, \"Exceeded limit per wallet!\");\n        require(whitelistedMummiesMinted() + _quantity <= maxWhitelist, \"Exceeded whitelist supply!\");\n        require(msg.value >= WHITELIST_PRICE * _quantity, \"Insufficient payment per item\");\n\n        address _to = msg.sender;\n\n        require(balanceOf(_to) + _quantity <= mintLimitPerWallet, \"Exceeded limit per wallet!\");\n\n        // Verify whitelisted address with MerkleProof\n        bytes32 leaf = keccak256(abi.encodePacked(_to));\n        require(\n            MerkleProof.verify(_merkleProof, merkleRoot, leaf),\n            \"Not whitelisted\"\n        );\n\n        // Mint\n        for (uint256 i = 0; i < _quantity; i++) {\n            whitelistedMummyCounter.increment();\n        }\n        _mintMummy(_to, _quantity);\n    }\n\n    function publicMint(uint256 _quantity) public payable callerIsUser publicSaleIsOpen whenNotPaused {\n        require(_quantity <= mintLimitPerWallet, \"Exceeded limit per wallet!\");\n\n        address _to = msg.sender;\n\n        require(balanceOf(_to) + _quantity <= mintLimitPerWallet, \"Exceeded limit per wallet!\");\n\n        // Verify there's enough money sent\n        require(msg.value >= PUBLIC_PRICE * _quantity, \"Insufficient payment per item\");\n\n        // Mint\n        _mintMummy(_to, _quantity);\n    }\n\n    // Only OWNER\n\n    function giveawayMint(address _to, uint256 _quantity) public onlyOwner notSoldOut {\n        _mintMummy(_to, _quantity);\n    }\n\n    function setWhitelistSale(bool _b) public onlyOwner {\n        IS_WHITELIST_SALE_OPEN = _b;\n        emit WhitelistSaleEvent(_b);\n    }\n\n    function setPublicSale(bool _b) public onlyOwner {\n        IS_PUBLIC_SALE_OPEN = _b;\n        emit PublicSaleEvent(_b);\n    }\n\n    function widthdraw() public onlyOwner {\n        uint256 balance = address(this).balance;\n        require(balance > 0);\n        Address.sendValue(payable(owner()), balance);\n    }\n\n    function pause() external onlyOwner {\n        _pause();\n    }\n\n    function unpause() external onlyOwner {\n        _unpause();\n    }\n\n    // ROYALTIES\n\n    function royaltyInfo(uint256, uint256 salePrice) external view override\n        returns (address receiver, uint256 royaltyAmount)\n    {\n        return (address(this), (salePrice * ROYALTY_RATE) / 100);\n    }\n\n    function supportsInterface(bytes4 interfaceId)\n        public\n        view\n        virtual\n        override(ERC721A, IERC165)\n        returns (bool)\n    {\n        return (\n            interfaceId == type(IERC2981).interfaceId ||\n            super.supportsInterface(interfaceId)\n        );\n    }\n\n    // PRIVATE\n\n    function _mintMummy(address _to, uint256 _quantity) private {\n        _safeMint(_to, _quantity);\n    }\n}\n",
  "sourcePath": "/Users/martincik/Projects/amenti/nft/nomaguild/contracts/mint/contracts/NoMaGuild.sol",
  "compiler": {
    "name": "solc",
    "version": "0.8.10+commit.fc410830.Emscripten.clang"
  },
  "schemaVersion": "3.4.4",
  "updatedAt": "2022-02-22T10:04:17.746Z",
  "devdoc": {
    "kind": "dev",
    "methods": {
      "approve(address,uint256)": {
        "details": "See {IERC721-approve}."
      },
      "balanceOf(address)": {
        "details": "See {IERC721-balanceOf}."
      },
      "burn(uint256)": {
        "details": "Burns `tokenId`. See {ERC721A-_burn}. Requirements: - The caller must own `tokenId` or be an approved operator."
      },
      "getApproved(uint256)": {
        "details": "See {IERC721-getApproved}."
      },
      "isApprovedForAll(address,address)": {
        "details": "See {IERC721-isApprovedForAll}."
      },
      "name()": {
        "details": "See {IERC721Metadata-name}."
      },
      "owner()": {
        "details": "Returns the address of the current owner."
      },
      "ownerOf(uint256)": {
        "details": "See {IERC721-ownerOf}."
      },
      "paused()": {
        "details": "Returns true if the contract is paused, and false otherwise."
      },
      "renounceOwnership()": {
        "details": "Leaves the contract without owner. It will not be possible to call `onlyOwner` functions anymore. Can only be called by the current owner. NOTE: Renouncing ownership will leave the contract without an owner, thereby removing any functionality that is only available to the owner."
      },
      "safeTransferFrom(address,address,uint256)": {
        "details": "See {IERC721-safeTransferFrom}."
      },
      "safeTransferFrom(address,address,uint256,bytes)": {
        "details": "See {IERC721-safeTransferFrom}."
      },
      "setApprovalForAll(address,bool)": {
        "details": "See {IERC721-setApprovalForAll}."
      },
      "symbol()": {
        "details": "See {IERC721Metadata-symbol}."
      },
      "tokenByIndex(uint256)": {
        "details": "See {IERC721Enumerable-tokenByIndex}. This read function is O(totalSupply). If calling from a separate contract, be sure to test gas first. It may also degrade with extremely large collection sizes (e.g >> 10000), test for your use case."
      },
      "tokenOfOwnerByIndex(address,uint256)": {
        "details": "See {IERC721Enumerable-tokenOfOwnerByIndex}. This read function is O(totalSupply). If calling from a separate contract, be sure to test gas first. It may also degrade with extremely large collection sizes (e.g >> 10000), test for your use case."
      },
      "tokenURI(uint256)": {
        "details": "See {IERC721Metadata-tokenURI}."
      },
      "totalSupply()": {
        "details": "See {IERC721Enumerable-totalSupply}."
      },
      "transferFrom(address,address,uint256)": {
        "details": "See {IERC721-transferFrom}."
      },
      "transferOwnership(address)": {
        "details": "Transfers ownership of the contract to a new account (`newOwner`). Can only be called by the current owner."
      }
    },
    "version": 1
  },
  "userdoc": {
    "kind": "user",
    "methods": {},
    "version": 1
  }
}