{
  "_format": "hh-sol-artifact-1",
  "contractName": "NoMaGuild",
  "sourceName": "contracts/NoMaGuild.sol",
  "abi": [
    {
      "inputs": [
        {
          "internalType": "string",
          "name": "__symbol",
          "type": "string"
        },
        {
          "internalType": "string",
          "name": "__name",
          "type": "string"
        },
        {
          "internalType": "uint256",
          "name": "_maxMummies",
          "type": "uint256"
        },
        {
          "internalType": "uint256",
          "name": "_maxWhitelist",
          "type": "uint256"
        },
        {
          "internalType": "uint256",
          "name": "_mintLimitPerWallet",
          "type": "uint256"
        },
        {
          "internalType": "string",
          "name": "baseURI",
          "type": "string"
        },
        {
          "internalType": "string",
          "name": "_hiddenTokenURI",
          "type": "string"
        },
        {
          "internalType": "bytes32",
          "name": "_merkleRoot",
          "type": "bytes32"
        }
      ],
      "stateMutability": "nonpayable",
      "type": "constructor"
    },
    {
      "inputs": [],
      "name": "AlreadyLoaned",
      "type": "error"
    },
    {
      "inputs": [],
      "name": "ApprovalCallerNotOwnerNorApproved",
      "type": "error"
    },
    {
      "inputs": [],
      "name": "ApprovalQueryForNonexistentToken",
      "type": "error"
    },
    {
      "inputs": [],
      "name": "ApprovalToCurrentOwner",
      "type": "error"
    },
    {
      "inputs": [],
      "name": "ApproveToCaller",
      "type": "error"
    },
    {
      "inputs": [],
      "name": "BalanceQueryForZeroAddress",
      "type": "error"
    },
    {
      "inputs": [],
      "name": "CantRetriveLoanOfOtherOwner",
      "type": "error"
    },
    {
      "inputs": [],
      "name": "CantRetriveLoanToYourself",
      "type": "error"
    },
    {
      "inputs": [],
      "name": "CantTransferTokenOnLoan",
      "type": "error"
    },
    {
      "inputs": [],
      "name": "ExceededLimitPerWallet",
      "type": "error"
    },
    {
      "inputs": [],
      "name": "ExceededWhitelistSupply",
      "type": "error"
    },
    {
      "inputs": [],
      "name": "IdenticalState",
      "type": "error"
    },
    {
      "inputs": [],
      "name": "InsufficientPaymentPerItem",
      "type": "error"
    },
    {
      "inputs": [],
      "name": "LoansPaused",
      "type": "error"
    },
    {
      "inputs": [],
      "name": "MintToZeroAddress",
      "type": "error"
    },
    {
      "inputs": [],
      "name": "MintZeroQuantity",
      "type": "error"
    },
    {
      "inputs": [],
      "name": "MustOwnToken",
      "type": "error"
    },
    {
      "inputs": [],
      "name": "NoLoansToZeroAddress",
      "type": "error"
    },
    {
      "inputs": [],
      "name": "NonZeroWitdraw",
      "type": "error"
    },
    {
      "inputs": [],
      "name": "NotWhitelisted",
      "type": "error"
    },
    {
      "inputs": [],
      "name": "OwnerQueryForNonexistentToken",
      "type": "error"
    },
    {
      "inputs": [],
      "name": "PublicSaleClosed",
      "type": "error"
    },
    {
      "inputs": [],
      "name": "RefundGuaranteeExpired",
      "type": "error"
    },
    {
      "inputs": [],
      "name": "RefundGuaranteeStillActive",
      "type": "error"
    },
    {
      "inputs": [],
      "name": "Soldout",
      "type": "error"
    },
    {
      "inputs": [],
      "name": "TransferCallerNotOwnerNorApproved",
      "type": "error"
    },
    {
      "inputs": [],
      "name": "TransferFromIncorrectOwner",
      "type": "error"
    },
    {
      "inputs": [],
      "name": "TransferToNonERC721ReceiverImplementer",
      "type": "error"
    },
    {
      "inputs": [],
      "name": "TransferToZeroAddress",
      "type": "error"
    },
    {
      "inputs": [],
      "name": "WhitelistSaleNotOpen",
      "type": "error"
    },
    {
      "inputs": [],
      "name": "WhitelistSoldout",
      "type": "error"
    },
    {
      "anonymous": false,
      "inputs": [
        {
          "indexed": true,
          "internalType": "address",
          "name": "owner",
          "type": "address"
        },
        {
          "indexed": true,
          "internalType": "address",
          "name": "approved",
          "type": "address"
        },
        {
          "indexed": true,
          "internalType": "uint256",
          "name": "tokenId",
          "type": "uint256"
        }
      ],
      "name": "Approval",
      "type": "event"
    },
    {
      "anonymous": false,
      "inputs": [
        {
          "indexed": true,
          "internalType": "address",
          "name": "owner",
          "type": "address"
        },
        {
          "indexed": true,
          "internalType": "address",
          "name": "operator",
          "type": "address"
        },
        {
          "indexed": false,
          "internalType": "bool",
          "name": "approved",
          "type": "bool"
        }
      ],
      "name": "ApprovalForAll",
      "type": "event"
    },
    {
      "anonymous": false,
      "inputs": [
        {
          "indexed": true,
          "internalType": "address",
          "name": "from",
          "type": "address"
        },
        {
          "indexed": true,
          "internalType": "address",
          "name": "to",
          "type": "address"
        },
        {
          "indexed": false,
          "internalType": "uint256",
          "name": "value",
          "type": "uint256"
        }
      ],
      "name": "Loan",
      "type": "event"
    },
    {
      "anonymous": false,
      "inputs": [
        {
          "indexed": true,
          "internalType": "address",
          "name": "from",
          "type": "address"
        },
        {
          "indexed": true,
          "internalType": "address",
          "name": "to",
          "type": "address"
        },
        {
          "indexed": false,
          "internalType": "uint256",
          "name": "value",
          "type": "uint256"
        }
      ],
      "name": "LoanRetrieved",
      "type": "event"
    },
    {
      "anonymous": false,
      "inputs": [
        {
          "indexed": false,
          "internalType": "bool",
          "name": "pause",
          "type": "bool"
        }
      ],
      "name": "LoansOpenEvent",
      "type": "event"
    },
    {
      "anonymous": false,
      "inputs": [
        {
          "indexed": true,
          "internalType": "address",
          "name": "previousOwner",
          "type": "address"
        },
        {
          "indexed": true,
          "internalType": "address",
          "name": "newOwner",
          "type": "address"
        }
      ],
      "name": "OwnershipTransferred",
      "type": "event"
    },
    {
      "anonymous": false,
      "inputs": [
        {
          "indexed": false,
          "internalType": "address",
          "name": "account",
          "type": "address"
        }
      ],
      "name": "Paused",
      "type": "event"
    },
    {
      "anonymous": false,
      "inputs": [
        {
          "indexed": false,
          "internalType": "bool",
          "name": "pause",
          "type": "bool"
        }
      ],
      "name": "PublicSaleEvent",
      "type": "event"
    },
    {
      "anonymous": false,
      "inputs": [
        {
          "indexed": true,
          "internalType": "address",
          "name": "from",
          "type": "address"
        },
        {
          "indexed": true,
          "internalType": "address",
          "name": "to",
          "type": "address"
        },
        {
          "indexed": true,
          "internalType": "uint256",
          "name": "tokenId",
          "type": "uint256"
        }
      ],
      "name": "Transfer",
      "type": "event"
    },
    {
      "anonymous": false,
      "inputs": [
        {
          "indexed": false,
          "internalType": "address",
          "name": "account",
          "type": "address"
        }
      ],
      "name": "Unpaused",
      "type": "event"
    },
    {
      "anonymous": false,
      "inputs": [
        {
          "indexed": false,
          "internalType": "bool",
          "name": "pause",
          "type": "bool"
        }
      ],
      "name": "WhitelistSaleEvent",
      "type": "event"
    },
    {
      "inputs": [],
      "name": "PUBLIC_PRICE",
      "outputs": [
        {
          "internalType": "uint256",
          "name": "",
          "type": "uint256"
        }
      ],
      "stateMutability": "view",
      "type": "function"
    },
    {
      "inputs": [],
      "name": "ROYALTY_RATE",
      "outputs": [
        {
          "internalType": "uint256",
          "name": "",
          "type": "uint256"
        }
      ],
      "stateMutability": "view",
      "type": "function"
    },
    {
      "inputs": [],
      "name": "WHITELIST_PRICE",
      "outputs": [
        {
          "internalType": "uint256",
          "name": "",
          "type": "uint256"
        }
      ],
      "stateMutability": "view",
      "type": "function"
    },
    {
      "inputs": [
        {
          "internalType": "address",
          "name": "to",
          "type": "address"
        },
        {
          "internalType": "uint256",
          "name": "tokenId",
          "type": "uint256"
        }
      ],
      "name": "approve",
      "outputs": [],
      "stateMutability": "nonpayable",
      "type": "function"
    },
    {
      "inputs": [],
      "name": "areLoansPaused",
      "outputs": [
        {
          "internalType": "bool",
          "name": "",
          "type": "bool"
        }
      ],
      "stateMutability": "view",
      "type": "function"
    },
    {
      "inputs": [
        {
          "internalType": "address",
          "name": "owner",
          "type": "address"
        }
      ],
      "name": "balanceOf",
      "outputs": [
        {
          "internalType": "uint256",
          "name": "",
          "type": "uint256"
        }
      ],
      "stateMutability": "view",
      "type": "function"
    },
    {
      "inputs": [],
      "name": "baseTokenURI",
      "outputs": [
        {
          "internalType": "string",
          "name": "",
          "type": "string"
        }
      ],
      "stateMutability": "view",
      "type": "function"
    },
    {
      "inputs": [
        {
          "internalType": "uint256",
          "name": "tokenId",
          "type": "uint256"
        }
      ],
      "name": "burn",
      "outputs": [],
      "stateMutability": "nonpayable",
      "type": "function"
    },
    {
      "inputs": [
        {
          "internalType": "uint256",
          "name": "tokenId",
          "type": "uint256"
        }
      ],
      "name": "getApproved",
      "outputs": [
        {
          "internalType": "address",
          "name": "",
          "type": "address"
        }
      ],
      "stateMutability": "view",
      "type": "function"
    },
    {
      "inputs": [
        {
          "internalType": "address",
          "name": "_to",
          "type": "address"
        },
        {
          "internalType": "uint256",
          "name": "_quantity",
          "type": "uint256"
        }
      ],
      "name": "giveawayMint",
      "outputs": [],
      "stateMutability": "nonpayable",
      "type": "function"
    },
    {
      "inputs": [],
      "name": "hiddenTokenURI",
      "outputs": [
        {
          "internalType": "string",
          "name": "",
          "type": "string"
        }
      ],
      "stateMutability": "view",
      "type": "function"
    },
    {
      "inputs": [
        {
          "internalType": "address",
          "name": "owner",
          "type": "address"
        },
        {
          "internalType": "address",
          "name": "operator",
          "type": "address"
        }
      ],
      "name": "isApprovedForAll",
      "outputs": [
        {
          "internalType": "bool",
          "name": "",
          "type": "bool"
        }
      ],
      "stateMutability": "view",
      "type": "function"
    },
    {
      "inputs": [],
      "name": "isPublicSaleOpen",
      "outputs": [
        {
          "internalType": "bool",
          "name": "",
          "type": "bool"
        }
      ],
      "stateMutability": "view",
      "type": "function"
    },
    {
      "inputs": [],
      "name": "isWhitelistSaleOpen",
      "outputs": [
        {
          "internalType": "bool",
          "name": "",
          "type": "bool"
        }
      ],
      "stateMutability": "view",
      "type": "function"
    },
    {
      "inputs": [
        {
          "internalType": "uint256",
          "name": "tokenId",
          "type": "uint256"
        },
        {
          "internalType": "address",
          "name": "receiver",
          "type": "address"
        }
      ],
      "name": "loan",
      "outputs": [],
      "stateMutability": "nonpayable",
      "type": "function"
    },
    {
      "inputs": [
        {
          "internalType": "address",
          "name": "owner",
          "type": "address"
        }
      ],
      "name": "loanedBalanceOf",
      "outputs": [
        {
          "internalType": "uint256",
          "name": "",
          "type": "uint256"
        }
      ],
      "stateMutability": "view",
      "type": "function"
    },
    {
      "inputs": [
        {
          "internalType": "address",
          "name": "owner",
          "type": "address"
        }
      ],
      "name": "loanedTokensByAddress",
      "outputs": [
        {
          "internalType": "uint256[]",
          "name": "",
          "type": "uint256[]"
        }
      ],
      "stateMutability": "view",
      "type": "function"
    },
    {
      "inputs": [],
      "name": "maxMummies",
      "outputs": [
        {
          "internalType": "uint256",
          "name": "",
          "type": "uint256"
        }
      ],
      "stateMutability": "view",
      "type": "function"
    },
    {
      "inputs": [],
      "name": "maxWhitelist",
      "outputs": [
        {
          "internalType": "uint256",
          "name": "",
          "type": "uint256"
        }
      ],
      "stateMutability": "view",
      "type": "function"
    },
    {
      "inputs": [],
      "name": "mintLimitPerWallet",
      "outputs": [
        {
          "internalType": "uint256",
          "name": "",
          "type": "uint256"
        }
      ],
      "stateMutability": "view",
      "type": "function"
    },
    {
      "inputs": [],
      "name": "name",
      "outputs": [
        {
          "internalType": "string",
          "name": "",
          "type": "string"
        }
      ],
      "stateMutability": "view",
      "type": "function"
    },
    {
      "inputs": [],
      "name": "owner",
      "outputs": [
        {
          "internalType": "address",
          "name": "",
          "type": "address"
        }
      ],
      "stateMutability": "view",
      "type": "function"
    },
    {
      "inputs": [
        {
          "internalType": "uint256",
          "name": "tokenId",
          "type": "uint256"
        }
      ],
      "name": "ownerOf",
      "outputs": [
        {
          "internalType": "address",
          "name": "",
          "type": "address"
        }
      ],
      "stateMutability": "view",
      "type": "function"
    },
    {
      "inputs": [],
      "name": "pause",
      "outputs": [],
      "stateMutability": "nonpayable",
      "type": "function"
    },
    {
      "inputs": [],
      "name": "paused",
      "outputs": [
        {
          "internalType": "bool",
          "name": "",
          "type": "bool"
        }
      ],
      "stateMutability": "view",
      "type": "function"
    },
    {
      "inputs": [
        {
          "internalType": "uint256",
          "name": "_quantity",
          "type": "uint256"
        }
      ],
      "name": "publicMint",
      "outputs": [],
      "stateMutability": "payable",
      "type": "function"
    },
    {
      "inputs": [
        {
          "internalType": "uint256",
          "name": "_tokenId",
          "type": "uint256"
        }
      ],
      "name": "refund",
      "outputs": [],
      "stateMutability": "nonpayable",
      "type": "function"
    },
    {
      "inputs": [],
      "name": "refundGuaranteeActive",
      "outputs": [
        {
          "internalType": "bool",
          "name": "",
          "type": "bool"
        }
      ],
      "stateMutability": "view",
      "type": "function"
    },
    {
      "inputs": [],
      "name": "refundStartTime",
      "outputs": [
        {
          "internalType": "uint256",
          "name": "",
          "type": "uint256"
        }
      ],
      "stateMutability": "view",
      "type": "function"
    },
    {
      "inputs": [],
      "name": "refundUntil",
      "outputs": [
        {
          "internalType": "uint256",
          "name": "",
          "type": "uint256"
        }
      ],
      "stateMutability": "view",
      "type": "function"
    },
    {
      "inputs": [],
      "name": "refundUntil2",
      "outputs": [
        {
          "internalType": "uint256",
          "name": "",
          "type": "uint256"
        }
      ],
      "stateMutability": "view",
      "type": "function"
    },
    {
      "inputs": [],
      "name": "renounceOwnership",
      "outputs": [],
      "stateMutability": "nonpayable",
      "type": "function"
    },
    {
      "inputs": [
        {
          "internalType": "uint256",
          "name": "tokenId",
          "type": "uint256"
        }
      ],
      "name": "retrieveLoan",
      "outputs": [],
      "stateMutability": "nonpayable",
      "type": "function"
    },
    {
      "inputs": [
        {
          "internalType": "uint256",
          "name": "",
          "type": "uint256"
        },
        {
          "internalType": "uint256",
          "name": "salePrice",
          "type": "uint256"
        }
      ],
      "name": "royaltyInfo",
      "outputs": [
        {
          "internalType": "address",
          "name": "receiver",
          "type": "address"
        },
        {
          "internalType": "uint256",
          "name": "royaltyAmount",
          "type": "uint256"
        }
      ],
      "stateMutability": "view",
      "type": "function"
    },
    {
      "inputs": [
        {
          "internalType": "address",
          "name": "from",
          "type": "address"
        },
        {
          "internalType": "address",
          "name": "to",
          "type": "address"
        },
        {
          "internalType": "uint256",
          "name": "tokenId",
          "type": "uint256"
        }
      ],
      "name": "safeTransferFrom",
      "outputs": [],
      "stateMutability": "nonpayable",
      "type": "function"
    },
    {
      "inputs": [
        {
          "internalType": "address",
          "name": "from",
          "type": "address"
        },
        {
          "internalType": "address",
          "name": "to",
          "type": "address"
        },
        {
          "internalType": "uint256",
          "name": "tokenId",
          "type": "uint256"
        },
        {
          "internalType": "bytes",
          "name": "_data",
          "type": "bytes"
        }
      ],
      "name": "safeTransferFrom",
      "outputs": [],
      "stateMutability": "nonpayable",
      "type": "function"
    },
    {
      "inputs": [
        {
          "internalType": "address",
          "name": "operator",
          "type": "address"
        },
        {
          "internalType": "bool",
          "name": "approved",
          "type": "bool"
        }
      ],
      "name": "setApprovalForAll",
      "outputs": [],
      "stateMutability": "nonpayable",
      "type": "function"
    },
    {
      "inputs": [
        {
          "internalType": "string",
          "name": "baseURI",
          "type": "string"
        }
      ],
      "name": "setBaseURI",
      "outputs": [],
      "stateMutability": "nonpayable",
      "type": "function"
    },
    {
      "inputs": [
        {
          "internalType": "string",
          "name": "hiddenURI",
          "type": "string"
        }
      ],
      "name": "setHiddenURI",
      "outputs": [],
      "stateMutability": "nonpayable",
      "type": "function"
    },
    {
      "inputs": [
        {
          "internalType": "bool",
          "name": "_b",
          "type": "bool"
        }
      ],
      "name": "setLoansPaused",
      "outputs": [],
      "stateMutability": "nonpayable",
      "type": "function"
    },
    {
      "inputs": [
        {
          "internalType": "bool",
          "name": "_b",
          "type": "bool"
        }
      ],
      "name": "setPublicSale",
      "outputs": [],
      "stateMutability": "nonpayable",
      "type": "function"
    },
    {
      "inputs": [
        {
          "internalType": "bool",
          "name": "_b",
          "type": "bool"
        }
      ],
      "name": "setWhitelistSale",
      "outputs": [],
      "stateMutability": "nonpayable",
      "type": "function"
    },
    {
      "inputs": [
        {
          "internalType": "bytes4",
          "name": "interfaceId",
          "type": "bytes4"
        }
      ],
      "name": "supportsInterface",
      "outputs": [
        {
          "internalType": "bool",
          "name": "",
          "type": "bool"
        }
      ],
      "stateMutability": "view",
      "type": "function"
    },
    {
      "inputs": [],
      "name": "symbol",
      "outputs": [
        {
          "internalType": "string",
          "name": "",
          "type": "string"
        }
      ],
      "stateMutability": "view",
      "type": "function"
    },
    {
      "inputs": [
        {
          "internalType": "uint256",
          "name": "",
          "type": "uint256"
        }
      ],
      "name": "tokenOwnersOnLoan",
      "outputs": [
        {
          "internalType": "address",
          "name": "",
          "type": "address"
        }
      ],
      "stateMutability": "view",
      "type": "function"
    },
    {
      "inputs": [
        {
          "internalType": "uint256",
          "name": "tokenId",
          "type": "uint256"
        }
      ],
      "name": "tokenURI",
      "outputs": [
        {
          "internalType": "string",
          "name": "",
          "type": "string"
        }
      ],
      "stateMutability": "view",
      "type": "function"
    },
    {
      "inputs": [],
      "name": "totalLoaned",
      "outputs": [
        {
          "internalType": "uint256",
          "name": "",
          "type": "uint256"
        }
      ],
      "stateMutability": "view",
      "type": "function"
    },
    {
      "inputs": [
        {
          "internalType": "address",
          "name": "",
          "type": "address"
        }
      ],
      "name": "totalLoanedPerAddress",
      "outputs": [
        {
          "internalType": "uint256",
          "name": "",
          "type": "uint256"
        }
      ],
      "stateMutability": "view",
      "type": "function"
    },
    {
      "inputs": [],
      "name": "totalSupply",
      "outputs": [
        {
          "internalType": "uint256",
          "name": "",
          "type": "uint256"
        }
      ],
      "stateMutability": "view",
      "type": "function"
    },
    {
      "inputs": [
        {
          "internalType": "address",
          "name": "from",
          "type": "address"
        },
        {
          "internalType": "address",
          "name": "to",
          "type": "address"
        },
        {
          "internalType": "uint256",
          "name": "tokenId",
          "type": "uint256"
        }
      ],
      "name": "transferFrom",
      "outputs": [],
      "stateMutability": "nonpayable",
      "type": "function"
    },
    {
      "inputs": [
        {
          "internalType": "address",
          "name": "newOwner",
          "type": "address"
        }
      ],
      "name": "transferOwnership",
      "outputs": [],
      "stateMutability": "nonpayable",
      "type": "function"
    },
    {
      "inputs": [],
      "name": "unpause",
      "outputs": [],
      "stateMutability": "nonpayable",
      "type": "function"
    },
    {
      "inputs": [
        {
          "internalType": "bytes32[]",
          "name": "_merkleProof",
          "type": "bytes32[]"
        },
        {
          "internalType": "uint256",
          "name": "_quantity",
          "type": "uint256"
        }
      ],
      "name": "whitelistMint",
      "outputs": [],
      "stateMutability": "payable",
      "type": "function"
    },
    {
      "inputs": [],
      "name": "whitelistedMummiesMinted",
      "outputs": [
        {
          "internalType": "uint256",
          "name": "",
          "type": "uint256"
        }
      ],
      "stateMutability": "view",
      "type": "function"
    },
    {
      "inputs": [],
      "name": "widthdraw",
      "outputs": [],
      "stateMutability": "nonpayable",
      "type": "function"
    }
  ],
  "bytecode": "0x60e0604052600d805461ffff1916905542600e5560006013556014805460ff191660011790553480156200003257600080fd5b5060405162003c9338038062003c93833981016040819052620000559162000329565b8751889088906200006e906002906020850190620001b6565b50805162000084906003906020840190620001b6565b506001600055505060016008556200009c33620000ec565b6009805460ff60a01b19169055608086905260a085905260c0849052600a8190558151620000d290600c906020850190620001b6565b50620000de836200013e565b505050505050505062000446565b600980546001600160a01b038381166001600160a01b0319831681179093556040519116919082907f8be0079c531659141344cd1fd0a4f28419497f9722a3daafe3b4186f6b6457e090600090a35050565b6009546001600160a01b031633146200019d5760405162461bcd60e51b815260206004820181905260248201527f4f776e61626c653a2063616c6c6572206973206e6f7420746865206f776e6572604482015260640160405180910390fd5b8051620001b290600b906020840190620001b6565b5050565b828054620001c49062000409565b90600052602060002090601f016020900481019282620001e8576000855562000233565b82601f106200020357805160ff191683800117855562000233565b8280016001018555821562000233579182015b828111156200023357825182559160200191906001019062000216565b506200024192915062000245565b5090565b5b8082111562000241576000815560010162000246565b634e487b7160e01b600052604160045260246000fd5b600082601f8301126200028457600080fd5b81516001600160401b0380821115620002a157620002a16200025c565b604051601f8301601f19908116603f01168101908282118183101715620002cc57620002cc6200025c565b81604052838152602092508683858801011115620002e957600080fd5b600091505b838210156200030d5785820183015181830184015290820190620002ee565b838211156200031f5760008385830101525b9695505050505050565b600080600080600080600080610100898b0312156200034757600080fd5b88516001600160401b03808211156200035f57600080fd5b6200036d8c838d0162000272565b995060208b01519150808211156200038457600080fd5b620003928c838d0162000272565b985060408b0151975060608b0151965060808b0151955060a08b0151915080821115620003be57600080fd5b620003cc8c838d0162000272565b945060c08b0151915080821115620003e357600080fd5b50620003f28b828c0162000272565b92505060e089015190509295985092959890939650565b600181811c908216806200041e57607f821691505b602082108114156200044057634e487b7160e01b600052602260045260246000fd5b50919050565b60805160a05160c0516137ec620004a76000396000818161099c01528181610fe201526113460152600081816108aa01528181610f34015261103601526000818161058801528181610b0201528181610eb201526112b201526137ec6000f3fe6080604052600436106103605760003560e01c80635f9be2ac116101c6578063bbaac02f116100f7578063dbcc1ab611610095578063e985e9c51161006f578063e985e9c5146109be578063ec83ebbd14610a07578063ed5a2ec114610a1c578063f2fde38b14610a4957600080fd5b8063dbcc1ab614610956578063dc12bbf714610970578063e0f9b4791461098a57600080fd5b8063c92dae4f116100d1578063c92dae4f146108ec578063ca7ce3ec1461090c578063cebec5881461092c578063d547cfb71461094157600080fd5b8063bbaac02f14610878578063bf0d96c314610898578063c87b56dd146108cc57600080fd5b80637f517369116101645780638e7170b01161013e5780638e7170b01461080e57806395d89b4114610823578063a22cb46514610838578063b88d4fde1461085857600080fd5b80637f517369146107bb5780638456cb59146107db5780638da5cb5b146107f057600080fd5b80636aba899b116101a05780636aba899b1461075057806370a0823114610766578063715018a614610786578063751c1a8e1461079b57600080fd5b80635f9be2ac146106e7578063611f3f10146107145780636352211e1461073057600080fd5b80632db11544116102a057806352b50a2a1161023e5780635aca1bb6116102185780635aca1bb6146106735780635b94e175146106935780635c975abb146106a85780635e03a6aa146106c757600080fd5b806352b50a2a1461062957806355f804b31461063e5780635a32baec1461065e57600080fd5b80633f4ba83a1161027a5780633f4ba83a146105bf57806340e37ff1146105d457806342842e0e146105e957806342966c681461060957600080fd5b80632db11544146105635780633007d626146105765780633a838c2a146105aa57600080fd5b806318160ddd1161030d57806323fa659b116102e757806323fa659b146104bb578063278ecde1146104f15780632904e6d9146105115780632a55205a1461052457600080fd5b806318160ddd1461045f5780631a6949e31461047c57806323b872dd1461049b57600080fd5b8063081812fc1161033e578063081812fc146103de578063095ea7b31461041657806317e7f2951461043657600080fd5b806301ffc9a714610365578063048266241461039a57806306fdde03146103bc575b600080fd5b34801561037157600080fd5b5061038561038036600461319a565b610a69565b60405190151581526020015b60405180910390f35b3480156103a657600080fd5b506103ba6103b53660046131da565b610aad565b005b3480156103c857600080fd5b506103d1610b54565b604051610391919061325c565b3480156103ea57600080fd5b506103fe6103f936600461326f565b610be6565b6040516001600160a01b039091168152602001610391565b34801561042257600080fd5b506103ba6104313660046131da565b610c43565b34801561044257600080fd5b50610451669184e72a00000081565b604051908152602001610391565b34801561046b57600080fd5b506001546000540360001901610451565b34801561048857600080fd5b50600d5461038590610100900460ff1681565b3480156104a757600080fd5b506103ba6104b6366004613288565b610d03565b3480156104c757600080fd5b506103fe6104d636600461326f565b6012602052600090815260409020546001600160a01b031681565b3480156104fd57600080fd5b506103ba61050c36600461326f565b610d0e565b6103ba61051f3660046132c4565b610e52565b34801561053057600080fd5b5061054461053f36600461333f565b6111eb565b604080516001600160a01b039093168352602083019190915201610391565b6103ba61057136600461326f565b611211565b34801561058257600080fd5b506104517f000000000000000000000000000000000000000000000000000000000000000081565b3480156105b657600080fd5b50601354610451565b3480156105cb57600080fd5b506103ba6113dd565b3480156105e057600080fd5b50610451600281565b3480156105f557600080fd5b506103ba610604366004613288565b61142f565b34801561061557600080fd5b506103ba61062436600461326f565b61144a565b34801561063557600080fd5b506103ba6114c7565b34801561064a57600080fd5b506103ba6106593660046133ed565b6115a4565b34801561066a57600080fd5b506103856115ff565b34801561067f57600080fd5b506103ba61068e366004613446565b61161b565b34801561069f57600080fd5b506104516116e7565b3480156106b457600080fd5b50600954600160a01b900460ff16610385565b3480156106d357600080fd5b506104516106e2366004613461565b611701565b3480156106f357600080fd5b50610451610702366004613461565b60116020526000908152604090205481565b34801561072057600080fd5b5061045167012309ce5400000081565b34801561073c57600080fd5b506103fe61074b36600461326f565b611746565b34801561075c57600080fd5b50610451600e5481565b34801561077257600080fd5b50610451610781366004613461565b611758565b34801561079257600080fd5b506103ba6117a7565b3480156107a757600080fd5b506103ba6107b636600461326f565b6117f9565b3480156107c757600080fd5b506103ba6107d6366004613446565b6119ab565b3480156107e757600080fd5b506103ba611a5e565b3480156107fc57600080fd5b506009546001600160a01b03166103fe565b34801561081a57600080fd5b50610451611aae565b34801561082f57600080fd5b506103d1611ab9565b34801561084457600080fd5b506103ba61085336600461347c565b611ac8565b34801561086457600080fd5b506103ba6108733660046134af565b611b77565b34801561088457600080fd5b506103ba6108933660046133ed565b611bc8565b3480156108a457600080fd5b506104517f000000000000000000000000000000000000000000000000000000000000000081565b3480156108d857600080fd5b506103d16108e736600461326f565b611c23565b3480156108f857600080fd5b506103ba61090736600461352b565b611caa565b34801561091857600080fd5b506103ba610927366004613446565b611eae565b34801561093857600080fd5b50610451611f61565b34801561094d57600080fd5b506103d1611f74565b34801561096257600080fd5b506014546103859060ff1681565b34801561097c57600080fd5b50600d546103859060ff1681565b34801561099657600080fd5b506104517f000000000000000000000000000000000000000000000000000000000000000081565b3480156109ca57600080fd5b506103856109d936600461354e565b6001600160a01b03918216600090815260076020908152604080832093909416825291909152205460ff1690565b348015610a1357600080fd5b506103d1612002565b348015610a2857600080fd5b50610a3c610a37366004613461565b61200f565b6040516103919190613578565b348015610a5557600080fd5b506103ba610a64366004613461565b61211e565b60006001600160e01b031982167f2a55205a000000000000000000000000000000000000000000000000000000001480610aa75750610aa7826121eb565b92915050565b6009546001600160a01b03163314610afa5760405162461bcd60e51b8152602060048201819052602482015260008051602061379783398151915260448201526064015b60405180910390fd5b6001546000547f00000000000000000000000000000000000000000000000000000000000000009190036000190110610b465760405163355a428160e01b815260040160405180910390fd5b610b508282612286565b5050565b606060028054610b63906135bc565b80601f0160208091040260200160405190810160405280929190818152602001828054610b8f906135bc565b8015610bdc5780601f10610bb157610100808354040283529160200191610bdc565b820191906000526020600020905b815481529060010190602001808311610bbf57829003601f168201915b5050505050905090565b6000610bf182612290565b610c27576040517fcf4700e400000000000000000000000000000000000000000000000000000000815260040160405180910390fd5b506000908152600660205260409020546001600160a01b031690565b6000610c4e82611746565b9050806001600160a01b0316836001600160a01b03161415610c9c576040517f943f7b8c00000000000000000000000000000000000000000000000000000000815260040160405180910390fd5b336001600160a01b03821614801590610cbc5750610cba81336109d9565b155b15610cf3576040517fcfb3b94200000000000000000000000000000000000000000000000000000000815260040160405180910390fd5b610cfe8383836122c9565b505050565b610cfe838383612332565b60026008541415610d615760405162461bcd60e51b815260206004820152601f60248201527f5265656e7472616e637947756172643a207265656e7472616e742063616c6c006044820152606401610af1565b6002600855610d6e6115ff565b610da4576040517fbab3da9800000000000000000000000000000000000000000000000000000000815260040160405180910390fd5b33610dae82611746565b6001600160a01b031614610dd5576040516326da4a8160e21b815260040160405180910390fd5b610df133610deb6009546001600160a01b031690565b8361142f565b6000818152600f6020526040902054669184e72a0000009060ff16610e1b575067012309ce540000005b604051339082156108fc029083906000818181858888f19350505050158015610e48573d6000803e3d6000fd5b5050600160085550565b60026008541415610ea55760405162461bcd60e51b815260206004820152601f60248201527f5265656e7472616e637947756172643a207265656e7472616e742063616c6c006044820152606401610af1565b60026008556001546000547f00000000000000000000000000000000000000000000000000000000000000009190036000190110610ef65760405163355a428160e01b815260040160405180910390fd5b600d5460ff16610f32576040517f3676e3ca00000000000000000000000000000000000000000000000000000000815260040160405180910390fd5b7f0000000000000000000000000000000000000000000000000000000000000000610f5b611aae565b10610f92576040517ff038e66500000000000000000000000000000000000000000000000000000000815260040160405180910390fd5b600954600160a01b900460ff1615610fdf5760405162461bcd60e51b815260206004820152601060248201526f14185d5cd8589b194e881c185d5cd95960821b6044820152606401610af1565b337f00000000000000000000000000000000000000000000000000000000000000008261100b83611758565b611015919061360d565b11156110345760405163a053177960e01b815260040160405180910390fd5b7f00000000000000000000000000000000000000000000000000000000000000008261105e611aae565b611068919061360d565b11156110a0576040517f6d79ce3300000000000000000000000000000000000000000000000000000000815260040160405180910390fd5b6110b182669184e72a000000613625565b3410156110d15760405163daeb959760e01b815260040160405180910390fd5b6040516bffffffffffffffffffffffff19606083901b16602082015260009060340160405160208183030381529060405280519060200120905061114c85858080602002602001604051908101604052809392919081815260200183836020028082843760009201919091525050600a549150849050612588565b611182576040517f584a793800000000000000000000000000000000000000000000000000000000815260040160405180910390fd5b6000545b83600054611194919061360d565b8110156111d4576000818152600f60205260409020805460ff191660011790556111c2601080546001019055565b806111cc81613644565b915050611186565b506111df8284612286565b50506001600855505050565b6000803060646111fc600286613625565b6112069190613675565b915091509250929050565b600260085414156112645760405162461bcd60e51b815260206004820152601f60248201527f5265656e7472616e637947756172643a207265656e7472616e742063616c6c006044820152606401610af1565b6002600855600d54610100900460ff166112aa576040517fdd4e010600000000000000000000000000000000000000000000000000000000815260040160405180910390fd5b6001546000547f000000000000000000000000000000000000000000000000000000000000000091900360001901106112f65760405163355a428160e01b815260040160405180910390fd5b600954600160a01b900460ff16156113435760405162461bcd60e51b815260206004820152601060248201526f14185d5cd8589b194e881c185d5cd95960821b6044820152606401610af1565b337f00000000000000000000000000000000000000000000000000000000000000008261136f83611758565b611379919061360d565b11156113985760405163a053177960e01b815260040160405180910390fd5b6113aa8267012309ce54000000613625565b3410156113ca5760405163daeb959760e01b815260040160405180910390fd5b6113d48183612286565b50506001600855565b6009546001600160a01b031633146114255760405162461bcd60e51b815260206004820181905260248201526000805160206137978339815191526044820152606401610af1565b61142d61259e565b565b610cfe83838360405180602001604052806000815250611b77565b600061145582612644565b80519091506000906001600160a01b0316336001600160a01b031614806114835750815161148390336109d9565b8061149e57503361149384610be6565b6001600160a01b0316145b9050806114be57604051632ce44b5f60e11b815260040160405180910390fd5b610cfe83612786565b6009546001600160a01b0316331461150f5760405162461bcd60e51b815260206004820181905260248201526000805160206137978339815191526044820152606401610af1565b4780611547576040517f87e8dc8100000000000000000000000000000000000000000000000000000000815260040160405180910390fd5b61154f6115ff565b15611586576040517f2177733c00000000000000000000000000000000000000000000000000000000815260040160405180910390fd5b6115a161159b6009546001600160a01b031690565b82612952565b50565b6009546001600160a01b031633146115ec5760405162461bcd60e51b815260206004820181905260248201526000805160206137978339815191526044820152606401610af1565b8051610b5090600b9060208401906130eb565b6000600e54640134fd9000611614919061360d565b4210905090565b6009546001600160a01b031633146116635760405162461bcd60e51b815260206004820181905260248201526000805160206137978339815191526044820152606401610af1565b600d5460ff6101009091041615158115151415611693576040516352cfd4a560e01b815260040160405180910390fd5b600d80548215156101000261ff00199091161790556040517f819bd618bf2c153d8a6d9e6174bc4b17fdff7d7e295b8a3242690b290bfc94a3906116dc90831515815260200190565b60405180910390a150565b6000600e54640134fd90006116fc919061360d565b905090565b60006001600160a01b03821661172a576040516323d3ad8160e21b815260040160405180910390fd5b506001600160a01b031660009081526011602052604090205490565b600061175182612644565b5192915050565b60006001600160a01b038216611781576040516323d3ad8160e21b815260040160405180910390fd5b506001600160a01b031660009081526005602052604090205467ffffffffffffffff1690565b6009546001600160a01b031633146117ef5760405162461bcd60e51b815260206004820181905260248201526000805160206137978339815191526044820152606401610af1565b61142d6000612a6b565b6002600854141561184c5760405162461bcd60e51b815260206004820152601f60248201527f5265656e7472616e637947756172643a207265656e7472616e742063616c6c006044820152606401610af1565b6002600855600061185c82611746565b90506001600160a01b0381163314156118a1576040517f38c28c8500000000000000000000000000000000000000000000000000000000815260040160405180910390fd5b6000828152601260205260409020546001600160a01b031633146118f1576040517f264c585600000000000000000000000000000000000000000000000000000000815260040160405180910390fd5b6000828152601260209081526040808320805473ffffffffffffffffffffffffffffffffffffffff191690553383526011909152902054611933600182613689565b3360009081526011602052604090205560135461195290600190613689565b60135561196082338561142f565b60405183815233906001600160a01b038416907f484cfdc469392f506ef19931236d4aa91abbd5e8e704f155c0a971ee8908bd5f906020015b60405180910390a35050600160085550565b6009546001600160a01b031633146119f35760405162461bcd60e51b815260206004820181905260248201526000805160206137978339815191526044820152606401610af1565b60145460ff1615158115151415611a1d576040516352cfd4a560e01b815260040160405180910390fd5b6014805460ff19168215159081179091556040519081527fb2611291de5e2ebd057b8ead41f73c452adb9e52b8a0edf6c660f80a25a39ca4906020016116dc565b6009546001600160a01b03163314611aa65760405162461bcd60e51b815260206004820181905260248201526000805160206137978339815191526044820152606401610af1565b61142d612aca565b60006116fc60105490565b606060038054610b63906135bc565b6001600160a01b038216331415611b0b576040517fb06307db00000000000000000000000000000000000000000000000000000000815260040160405180910390fd5b3360008181526007602090815260408083206001600160a01b03871680855290835292819020805460ff191686151590811790915590519081529192917f17307eab39ab6107e8899845ad3d59bd9653f200f220920489ca2b5937696c31910160405180910390a35050565b611b82848484612332565b6001600160a01b0383163b15158015611ba45750611ba284848484612b52565b155b15611bc2576040516368d2bf6b60e11b815260040160405180910390fd5b50505050565b6009546001600160a01b03163314611c105760405162461bcd60e51b815260206004820181905260248201526000805160206137978339815191526044820152606401610af1565b8051610b5090600c9060208401906130eb565b60606000611c2f612c49565b90506000611c3b612c58565b90508151600014158015611c4e57508051155b611c775780604051602001611c6391906136a0565b604051602081830303815290604052611ca2565b81611c8185612c67565b604051602001611c929291906136bc565b6040516020818303038152906040525b949350505050565b60026008541415611cfd5760405162461bcd60e51b815260206004820152601f60248201527f5265656e7472616e637947756172643a207265656e7472616e742063616c6c006044820152606401610af1565b600260085560145460ff1615611d3f576040517ff29e09e100000000000000000000000000000000000000000000000000000000815260040160405180910390fd5b33611d4983611746565b6001600160a01b031614611d70576040516326da4a8160e21b815260040160405180910390fd5b6001600160a01b038116611db0576040517feb00a46300000000000000000000000000000000000000000000000000000000815260040160405180910390fd5b6000828152601260205260409020546001600160a01b031615611dff576040517f353f458e00000000000000000000000000000000000000000000000000000000815260040160405180910390fd5b611e0a33828461142f565b6000828152601260209081526040808320805473ffffffffffffffffffffffffffffffffffffffff19163390811790915583526011909152902054611e5081600161360d565b33600090815260116020526040902055601354611e6e90600161360d565b6013556040518381526001600160a01b0383169033907f4d699c2a3f40be9f50773ce2da5d80769decfefe6c4d557178af6e4a412d29a790602001611999565b6009546001600160a01b03163314611ef65760405162461bcd60e51b815260206004820181905260248201526000805160206137978339815191526044820152606401610af1565b600d5460ff1615158115151415611f20576040516352cfd4a560e01b815260040160405180910390fd5b600d805460ff19168215159081179091556040519081527fbbfb0dda705aa1c7368a1e31138d53b5eebfd36eb343b4560d9bdf0a50e9a4ce906020016116dc565b6000600e54624f1a006116fc919061360d565b600b8054611f81906135bc565b80601f0160208091040260200160405190810160405280929190818152602001828054611fad906135bc565b8015611ffa5780601f10611fcf57610100808354040283529160200191611ffa565b820191906000526020600020905b815481529060010190602001808311611fdd57829003601f168201915b505050505081565b600c8054611f81906135bc565b60606001600160a01b038216612038576040516323d3ad8160e21b815260040160405180910390fd5b600061204383611701565b6001546000805492935091036000190190506000808367ffffffffffffffff81111561207157612071613361565b60405190808252806020026020018201604052801561209a578160200160208202803683370190505b50905060005b83811080156120af5750848314155b15612114576000818152601260205260409020546001600160a01b038881169116141561210257808284815181106120e9576120e9613713565b6020908102919091010152826120fe81613644565b9350505b8061210c81613644565b9150506120a0565b5095945050505050565b6009546001600160a01b031633146121665760405162461bcd60e51b815260206004820181905260248201526000805160206137978339815191526044820152606401610af1565b6001600160a01b0381166121e25760405162461bcd60e51b815260206004820152602660248201527f4f776e61626c653a206e6577206f776e657220697320746865207a65726f206160448201527f64647265737300000000000000000000000000000000000000000000000000006064820152608401610af1565b6115a181612a6b565b60006001600160e01b031982167f80ac58cd00000000000000000000000000000000000000000000000000000000148061224e57506001600160e01b031982167f5b5e139f00000000000000000000000000000000000000000000000000000000145b80610aa757507f01ffc9a7000000000000000000000000000000000000000000000000000000006001600160e01b0319831614610aa7565b610b508282612d99565b6000816001111580156122a4575060005482105b8015610aa7575050600090815260046020526040902054600160e01b900460ff161590565b600082815260066020526040808220805473ffffffffffffffffffffffffffffffffffffffff19166001600160a01b0387811691821790925591518593918516917f8c5be1e5ebec7d5bd14f71427d1e84f3dd0314c0f7b2291e5b200ac8c7c3b92591a4505050565b600061233d82612644565b80519091506000906001600160a01b0316336001600160a01b0316148061236b5750815161236b90336109d9565b8061238657503361237b84610be6565b6001600160a01b0316145b9050806123a657604051632ce44b5f60e11b815260040160405180910390fd5b846001600160a01b031682600001516001600160a01b0316146123f5576040517fa114810000000000000000000000000000000000000000000000000000000000815260040160405180910390fd5b6001600160a01b038416612435576040517fea553b3400000000000000000000000000000000000000000000000000000000815260040160405180910390fd5b6124428585856001612db3565b61245260008484600001516122c9565b6001600160a01b038581166000908152600560209081526040808320805467ffffffffffffffff1980821667ffffffffffffffff92831660001901831617909255898616808652838620805493841693831660019081018416949094179055898652600490945282852080546001600160e01b031916909417600160a01b42909216919091021790925590860180835291205490911661253e5760005481101561253e578251600082815260046020908152604090912080549186015167ffffffffffffffff16600160a01b026001600160e01b03199092166001600160a01b03909316929092171790555b5082846001600160a01b0316866001600160a01b03167fddf252ad1be2c89b69c2b068fc378daa952ba7f163c4a11628f55a4df523b3ef60405160405180910390a45b5050505050565b6000826125958584612e4f565b14949350505050565b600954600160a01b900460ff166125f75760405162461bcd60e51b815260206004820152601460248201527f5061757361626c653a206e6f74207061757365640000000000000000000000006044820152606401610af1565b6009805460ff60a01b191690557f5db9ee0a495bf2e6ff9c91a7834c1ba4fdd244a5e8aa4e537bd38aeae4b073aa335b6040516001600160a01b03909116815260200160405180910390a1565b60408051606081018252600080825260208201819052918101919091528180600111158015612674575060005481105b1561275457600081815260046020908152604091829020825160608101845290546001600160a01b0381168252600160a01b810467ffffffffffffffff1692820192909252600160e01b90910460ff161515918101829052906127525780516001600160a01b0316156126e8579392505050565b5060001901600081815260046020908152604091829020825160608101845290546001600160a01b038116808352600160a01b820467ffffffffffffffff1693830193909352600160e01b900460ff161515928101929092521561274d579392505050565b6126e8565b505b6040517fdf2d9b4200000000000000000000000000000000000000000000000000000000815260040160405180910390fd5b600061279182612644565b90506127a581600001516000846001612db3565b6127b560008383600001516122c9565b80516001600160a01b039081166000908152600560209081526040808320805467ffffffffffffffff19811667ffffffffffffffff9182166000190182161790915585518516845281842080547fffffffffffffffff0000000000000000ffffffffffffffffffffffffffffffff81167001000000000000000000000000000000009182900484166001908101851690920217909155865188865260049094528285208054600160e01b9588166001600160e01b031990911617600160a01b4290941693909302929092177fffffff00ffffffffffffffffffffffffffffffffffffffffffffffffffffffff1693909317905590850180835291205490911661290a5760005481101561290a578151600082815260046020908152604090912080549185015167ffffffffffffffff16600160a01b026001600160e01b03199092166001600160a01b03909316929092171790555b50805160405183916000916001600160a01b03909116907fddf252ad1be2c89b69c2b068fc378daa952ba7f163c4a11628f55a4df523b3ef908390a450506001805481019055565b804710156129a25760405162461bcd60e51b815260206004820152601d60248201527f416464726573733a20696e73756666696369656e742062616c616e63650000006044820152606401610af1565b6000826001600160a01b03168260405160006040518083038185875af1925050503d80600081146129ef576040519150601f19603f3d011682016040523d82523d6000602084013e6129f4565b606091505b5050905080610cfe5760405162461bcd60e51b815260206004820152603a60248201527f416464726573733a20756e61626c6520746f2073656e642076616c75652c207260448201527f6563697069656e74206d617920686176652072657665727465640000000000006064820152608401610af1565b600980546001600160a01b0383811673ffffffffffffffffffffffffffffffffffffffff19831681179093556040519116919082907f8be0079c531659141344cd1fd0a4f28419497f9722a3daafe3b4186f6b6457e090600090a35050565b600954600160a01b900460ff1615612b175760405162461bcd60e51b815260206004820152601060248201526f14185d5cd8589b194e881c185d5cd95960821b6044820152606401610af1565b6009805460ff60a01b1916600160a01b1790557f62e78cea01bee320cd4e420270b5ea74000d11b0c9f74754ebdbfc544b05a2586126273390565b604051630a85bd0160e11b81526000906001600160a01b0385169063150b7a0290612b87903390899088908890600401613729565b602060405180830381600087803b158015612ba157600080fd5b505af1925050508015612bd1575060408051601f3d908101601f19168201909252612bce91810190613765565b60015b612c2c573d808015612bff576040519150601f19603f3d011682016040523d82523d6000602084013e612c04565b606091505b508051612c24576040516368d2bf6b60e11b815260040160405180910390fd5b805181602001fd5b6001600160e01b031916630a85bd0160e11b149050949350505050565b6060600b8054610b63906135bc565b6060600c8054610b63906135bc565b606081612ca757505060408051808201909152600181527f3000000000000000000000000000000000000000000000000000000000000000602082015290565b8160005b8115612cd15780612cbb81613644565b9150612cca9050600a83613675565b9150612cab565b60008167ffffffffffffffff811115612cec57612cec613361565b6040519080825280601f01601f191660200182016040528015612d16576020820181803683370190505b5090505b8415611ca257612d2b600183613689565b9150612d38600a86613782565b612d4390603061360d565b60f81b818381518110612d5857612d58613713565b60200101907effffffffffffffffffffffffffffffffffffffffffffffffffffffffffffff1916908160001a905350612d92600a86613675565b9450612d1a565b610b50828260405180602001604052806000815250612ec3565b600954600160a01b900460ff1615612e005760405162461bcd60e51b815260206004820152601060248201526f14185d5cd8589b194e881c185d5cd95960821b6044820152606401610af1565b6000828152601260205260409020546001600160a01b031615611bc2576040517f607483d900000000000000000000000000000000000000000000000000000000815260040160405180910390fd5b600081815b8451811015612ebb576000858281518110612e7157612e71613713565b60200260200101519050808311612e975760008381526020829052604090209250612ea8565b600081815260208490526040902092505b5080612eb381613644565b915050612e54565b509392505050565b610cfe83838360016000546001600160a01b038516612f0e576040517f2e07630000000000000000000000000000000000000000000000000000000000815260040160405180910390fd5b83612f45576040517fb562e8dd00000000000000000000000000000000000000000000000000000000815260040160405180910390fd5b612f526000868387612db3565b6001600160a01b038516600081815260056020908152604080832080547fffffffffffffffffffffffffffffffff00000000000000000000000000000000811667ffffffffffffffff8083168c0181169182176801000000000000000067ffffffffffffffff1990941690921783900481168c01811690920217909155858452600490925290912080546001600160e01b031916909217600160a01b42909216919091021790558080850183801561301357506001600160a01b0387163b15155b1561309c575b60405182906001600160a01b038916906000907fddf252ad1be2c89b69c2b068fc378daa952ba7f163c4a11628f55a4df523b3ef908290a46130646000888480600101955088612b52565b613081576040516368d2bf6b60e11b815260040160405180910390fd5b8082141561301957826000541461309757600080fd5b6130e2565b5b6040516001830192906001600160a01b038916906000907fddf252ad1be2c89b69c2b068fc378daa952ba7f163c4a11628f55a4df523b3ef908290a48082141561309d575b50600055612581565b8280546130f7906135bc565b90600052602060002090601f016020900481019282613119576000855561315f565b82601f1061313257805160ff191683800117855561315f565b8280016001018555821561315f579182015b8281111561315f578251825591602001919060010190613144565b5061316b92915061316f565b5090565b5b8082111561316b5760008155600101613170565b6001600160e01b0319811681146115a157600080fd5b6000602082840312156131ac57600080fd5b81356131b781613184565b9392505050565b80356001600160a01b03811681146131d557600080fd5b919050565b600080604083850312156131ed57600080fd5b6131f6836131be565b946020939093013593505050565b60005b8381101561321f578181015183820152602001613207565b83811115611bc25750506000910152565b60008151808452613248816020860160208601613204565b601f01601f19169290920160200192915050565b6020815260006131b76020830184613230565b60006020828403121561328157600080fd5b5035919050565b60008060006060848603121561329d57600080fd5b6132a6846131be565b92506132b4602085016131be565b9150604084013590509250925092565b6000806000604084860312156132d957600080fd5b833567ffffffffffffffff808211156132f157600080fd5b818601915086601f83011261330557600080fd5b81358181111561331457600080fd5b8760208260051b850101111561332957600080fd5b6020928301989097509590910135949350505050565b6000806040838503121561335257600080fd5b50508035926020909101359150565b634e487b7160e01b600052604160045260246000fd5b600067ffffffffffffffff8084111561339257613392613361565b604051601f8501601f19908116603f011681019082821181831017156133ba576133ba613361565b816040528093508581528686860111156133d357600080fd5b858560208301376000602087830101525050509392505050565b6000602082840312156133ff57600080fd5b813567ffffffffffffffff81111561341657600080fd5b8201601f8101841361342757600080fd5b611ca284823560208401613377565b803580151581146131d557600080fd5b60006020828403121561345857600080fd5b6131b782613436565b60006020828403121561347357600080fd5b6131b7826131be565b6000806040838503121561348f57600080fd5b613498836131be565b91506134a660208401613436565b90509250929050565b600080600080608085870312156134c557600080fd5b6134ce856131be565b93506134dc602086016131be565b925060408501359150606085013567ffffffffffffffff8111156134ff57600080fd5b8501601f8101871361351057600080fd5b61351f87823560208401613377565b91505092959194509250565b6000806040838503121561353e57600080fd5b823591506134a6602084016131be565b6000806040838503121561356157600080fd5b61356a836131be565b91506134a6602084016131be565b6020808252825182820181905260009190848201906040850190845b818110156135b057835183529284019291840191600101613594565b50909695505050505050565b600181811c908216806135d057607f821691505b602082108114156135f157634e487b7160e01b600052602260045260246000fd5b50919050565b634e487b7160e01b600052601160045260246000fd5b60008219821115613620576136206135f7565b500190565b600081600019048311821515161561363f5761363f6135f7565b500290565b6000600019821415613658576136586135f7565b5060010190565b634e487b7160e01b600052601260045260246000fd5b6000826136845761368461365f565b500490565b60008282101561369b5761369b6135f7565b500390565b600082516136b2818460208701613204565b9190910192915050565b600083516136ce818460208801613204565b8351908301906136e2818360208801613204565b7f2e6a736f6e0000000000000000000000000000000000000000000000000000009101908152600501949350505050565b634e487b7160e01b600052603260045260246000fd5b60006001600160a01b0380871683528086166020840152508360408301526080606083015261375b6080830184613230565b9695505050505050565b60006020828403121561377757600080fd5b81516131b781613184565b6000826137915761379161365f565b50069056fe4f776e61626c653a2063616c6c6572206973206e6f7420746865206f776e6572a2646970667358221220809e3e3dabd46a7b5d7a315670b2888236bbbbdafc9cc41b0aed82f2fa92605964736f6c63430008090033",
  "linkReferences": {},
  "deployedLinkReferences": {}
}