{
  "contractName": "Mummy",
  "abi": [
    {
      "inputs": [
        {
          "internalType": "string",
          "name": "baseURI",
          "type": "string"
        }
      ],
      "stateMutability": "nonpayable",
      "type": "constructor"
    },
    {
      "anonymous": false,
      "inputs": [
        {
          "indexed": true,
          "internalType": "address",
          "name": "owner",
          "type": "address"
        },
        {
          "indexed": true,
          "internalType": "address",
          "name": "approved",
          "type": "address"
        },
        {
          "indexed": true,
          "internalType": "uint256",
          "name": "tokenId",
          "type": "uint256"
        }
      ],
      "name": "Approval",
      "type": "event"
    },
    {
      "anonymous": false,
      "inputs": [
        {
          "indexed": true,
          "internalType": "address",
          "name": "owner",
          "type": "address"
        },
        {
          "indexed": true,
          "internalType": "address",
          "name": "operator",
          "type": "address"
        },
        {
          "indexed": false,
          "internalType": "bool",
          "name": "approved",
          "type": "bool"
        }
      ],
      "name": "ApprovalForAll",
      "type": "event"
    },
    {
      "anonymous": false,
      "inputs": [
        {
          "indexed": true,
          "internalType": "address",
          "name": "previousOwner",
          "type": "address"
        },
        {
          "indexed": true,
          "internalType": "address",
          "name": "newOwner",
          "type": "address"
        }
      ],
      "name": "OwnershipTransferred",
      "type": "event"
    },
    {
      "anonymous": false,
      "inputs": [
        {
          "indexed": false,
          "internalType": "bool",
          "name": "pause",
          "type": "bool"
        }
      ],
      "name": "PauseEvent",
      "type": "event"
    },
    {
      "anonymous": false,
      "inputs": [
        {
          "indexed": true,
          "internalType": "address",
          "name": "from",
          "type": "address"
        },
        {
          "indexed": true,
          "internalType": "address",
          "name": "to",
          "type": "address"
        },
        {
          "indexed": true,
          "internalType": "uint256",
          "name": "tokenId",
          "type": "uint256"
        }
      ],
      "name": "Transfer",
      "type": "event"
    },
    {
      "anonymous": false,
      "inputs": [
        {
          "indexed": true,
          "internalType": "uint256",
          "name": "id",
          "type": "uint256"
        }
      ],
      "name": "welcomeToMekaVerse",
      "type": "event"
    },
    {
      "inputs": [],
      "name": "MAX_ELEMENTS",
      "outputs": [
        {
          "internalType": "uint256",
          "name": "",
          "type": "uint256"
        }
      ],
      "stateMutability": "view",
      "type": "function",
      "constant": true
    },
    {
      "inputs": [],
      "name": "MAX_TO_BUY",
      "outputs": [
        {
          "internalType": "uint256",
          "name": "",
          "type": "uint256"
        }
      ],
      "stateMutability": "view",
      "type": "function",
      "constant": true
    },
    {
      "inputs": [],
      "name": "PRICE",
      "outputs": [
        {
          "internalType": "uint256",
          "name": "",
          "type": "uint256"
        }
      ],
      "stateMutability": "view",
      "type": "function",
      "constant": true
    },
    {
      "inputs": [],
      "name": "START_AT",
      "outputs": [
        {
          "internalType": "uint256",
          "name": "",
          "type": "uint256"
        }
      ],
      "stateMutability": "view",
      "type": "function",
      "constant": true
    },
    {
      "inputs": [
        {
          "internalType": "address",
          "name": "to",
          "type": "address"
        },
        {
          "internalType": "uint256",
          "name": "tokenId",
          "type": "uint256"
        }
      ],
      "name": "approve",
      "outputs": [],
      "stateMutability": "nonpayable",
      "type": "function"
    },
    {
      "inputs": [
        {
          "internalType": "address",
          "name": "owner",
          "type": "address"
        }
      ],
      "name": "balanceOf",
      "outputs": [
        {
          "internalType": "uint256",
          "name": "",
          "type": "uint256"
        }
      ],
      "stateMutability": "view",
      "type": "function",
      "constant": true
    },
    {
      "inputs": [],
      "name": "baseTokenURI",
      "outputs": [
        {
          "internalType": "string",
          "name": "",
          "type": "string"
        }
      ],
      "stateMutability": "view",
      "type": "function",
      "constant": true
    },
    {
      "inputs": [],
      "name": "creator1Address",
      "outputs": [
        {
          "internalType": "address",
          "name": "",
          "type": "address"
        }
      ],
      "stateMutability": "view",
      "type": "function",
      "constant": true
    },
    {
      "inputs": [
        {
          "internalType": "uint256",
          "name": "tokenId",
          "type": "uint256"
        }
      ],
      "name": "getApproved",
      "outputs": [
        {
          "internalType": "address",
          "name": "",
          "type": "address"
        }
      ],
      "stateMutability": "view",
      "type": "function",
      "constant": true
    },
    {
      "inputs": [
        {
          "internalType": "address",
          "name": "owner",
          "type": "address"
        },
        {
          "internalType": "address",
          "name": "operator",
          "type": "address"
        }
      ],
      "name": "isApprovedForAll",
      "outputs": [
        {
          "internalType": "bool",
          "name": "",
          "type": "bool"
        }
      ],
      "stateMutability": "view",
      "type": "function",
      "constant": true
    },
    {
      "inputs": [],
      "name": "merkleRoot",
      "outputs": [
        {
          "internalType": "bytes32",
          "name": "",
          "type": "bytes32"
        }
      ],
      "stateMutability": "view",
      "type": "function",
      "constant": true
    },
    {
      "inputs": [],
      "name": "name",
      "outputs": [
        {
          "internalType": "string",
          "name": "",
          "type": "string"
        }
      ],
      "stateMutability": "view",
      "type": "function",
      "constant": true
    },
    {
      "inputs": [],
      "name": "owner",
      "outputs": [
        {
          "internalType": "address",
          "name": "",
          "type": "address"
        }
      ],
      "stateMutability": "view",
      "type": "function",
      "constant": true
    },
    {
      "inputs": [
        {
          "internalType": "uint256",
          "name": "tokenId",
          "type": "uint256"
        }
      ],
      "name": "ownerOf",
      "outputs": [
        {
          "internalType": "address",
          "name": "",
          "type": "address"
        }
      ],
      "stateMutability": "view",
      "type": "function",
      "constant": true
    },
    {
      "inputs": [
        {
          "internalType": "uint256",
          "name": "tokenId",
          "type": "uint256"
        }
      ],
      "name": "rawOwnerOf",
      "outputs": [
        {
          "internalType": "address",
          "name": "",
          "type": "address"
        }
      ],
      "stateMutability": "view",
      "type": "function",
      "constant": true
    },
    {
      "inputs": [],
      "name": "renounceOwnership",
      "outputs": [],
      "stateMutability": "nonpayable",
      "type": "function"
    },
    {
      "inputs": [
        {
          "internalType": "address",
          "name": "from",
          "type": "address"
        },
        {
          "internalType": "address",
          "name": "to",
          "type": "address"
        },
        {
          "internalType": "uint256",
          "name": "tokenId",
          "type": "uint256"
        }
      ],
      "name": "safeTransferFrom",
      "outputs": [],
      "stateMutability": "nonpayable",
      "type": "function"
    },
    {
      "inputs": [
        {
          "internalType": "address",
          "name": "from",
          "type": "address"
        },
        {
          "internalType": "address",
          "name": "to",
          "type": "address"
        },
        {
          "internalType": "uint256",
          "name": "tokenId",
          "type": "uint256"
        },
        {
          "internalType": "bytes",
          "name": "_data",
          "type": "bytes"
        }
      ],
      "name": "safeTransferFrom",
      "outputs": [],
      "stateMutability": "nonpayable",
      "type": "function"
    },
    {
      "inputs": [
        {
          "internalType": "address",
          "name": "operator",
          "type": "address"
        },
        {
          "internalType": "bool",
          "name": "approved",
          "type": "bool"
        }
      ],
      "name": "setApprovalForAll",
      "outputs": [],
      "stateMutability": "nonpayable",
      "type": "function"
    },
    {
      "inputs": [
        {
          "internalType": "bytes4",
          "name": "interfaceId",
          "type": "bytes4"
        }
      ],
      "name": "supportsInterface",
      "outputs": [
        {
          "internalType": "bool",
          "name": "",
          "type": "bool"
        }
      ],
      "stateMutability": "view",
      "type": "function",
      "constant": true
    },
    {
      "inputs": [],
      "name": "symbol",
      "outputs": [
        {
          "internalType": "string",
          "name": "",
          "type": "string"
        }
      ],
      "stateMutability": "view",
      "type": "function",
      "constant": true
    },
    {
      "inputs": [
        {
          "internalType": "uint256",
          "name": "index",
          "type": "uint256"
        }
      ],
      "name": "tokenByIndex",
      "outputs": [
        {
          "internalType": "uint256",
          "name": "",
          "type": "uint256"
        }
      ],
      "stateMutability": "view",
      "type": "function",
      "constant": true
    },
    {
      "inputs": [
        {
          "internalType": "address",
          "name": "owner",
          "type": "address"
        },
        {
          "internalType": "uint256",
          "name": "index",
          "type": "uint256"
        }
      ],
      "name": "tokenOfOwnerByIndex",
      "outputs": [
        {
          "internalType": "uint256",
          "name": "",
          "type": "uint256"
        }
      ],
      "stateMutability": "view",
      "type": "function",
      "constant": true
    },
    {
      "inputs": [
        {
          "internalType": "uint256",
          "name": "tokenId",
          "type": "uint256"
        }
      ],
      "name": "tokenURI",
      "outputs": [
        {
          "internalType": "string",
          "name": "",
          "type": "string"
        }
      ],
      "stateMutability": "view",
      "type": "function",
      "constant": true
    },
    {
      "inputs": [],
      "name": "totalSupply",
      "outputs": [
        {
          "internalType": "uint256",
          "name": "",
          "type": "uint256"
        }
      ],
      "stateMutability": "view",
      "type": "function",
      "constant": true
    },
    {
      "inputs": [
        {
          "internalType": "address",
          "name": "from",
          "type": "address"
        },
        {
          "internalType": "address",
          "name": "to",
          "type": "address"
        },
        {
          "internalType": "uint256",
          "name": "tokenId",
          "type": "uint256"
        }
      ],
      "name": "transferFrom",
      "outputs": [],
      "stateMutability": "nonpayable",
      "type": "function"
    },
    {
      "inputs": [
        {
          "internalType": "address",
          "name": "newOwner",
          "type": "address"
        }
      ],
      "name": "transferOwnership",
      "outputs": [],
      "stateMutability": "nonpayable",
      "type": "function"
    },
    {
      "inputs": [
        {
          "internalType": "address",
          "name": "",
          "type": "address"
        }
      ],
      "name": "whitelistClaimed",
      "outputs": [
        {
          "internalType": "bool",
          "name": "",
          "type": "bool"
        }
      ],
      "stateMutability": "view",
      "type": "function",
      "constant": true
    },
    {
      "inputs": [
        {
          "internalType": "string",
          "name": "baseURI",
          "type": "string"
        }
      ],
      "name": "setBaseURI",
      "outputs": [],
      "stateMutability": "nonpayable",
      "type": "function"
    },
    {
      "inputs": [],
      "name": "totalToken",
      "outputs": [
        {
          "internalType": "uint256",
          "name": "",
          "type": "uint256"
        }
      ],
      "stateMutability": "view",
      "type": "function",
      "constant": true
    },
    {
      "inputs": [
        {
          "internalType": "bytes32[]",
          "name": "_merkleProof",
          "type": "bytes32[]"
        }
      ],
      "name": "mint",
      "outputs": [],
      "stateMutability": "payable",
      "type": "function",
      "payable": true
    },
    {
      "inputs": [
        {
          "internalType": "uint256",
          "name": "_count",
          "type": "uint256"
        }
      ],
      "name": "price",
      "outputs": [
        {
          "internalType": "uint256",
          "name": "",
          "type": "uint256"
        }
      ],
      "stateMutability": "pure",
      "type": "function",
      "constant": true
    },
    {
      "inputs": [
        {
          "internalType": "address",
          "name": "_owner",
          "type": "address"
        }
      ],
      "name": "walletOfOwner",
      "outputs": [
        {
          "internalType": "uint256[]",
          "name": "",
          "type": "uint256[]"
        }
      ],
      "stateMutability": "view",
      "type": "function",
      "constant": true
    },
    {
      "inputs": [
        {
          "internalType": "bool",
          "name": "_pause",
          "type": "bool"
        }
      ],
      "name": "setPause",
      "outputs": [],
      "stateMutability": "nonpayable",
      "type": "function"
    },
    {
      "inputs": [],
      "name": "withdrawAll",
      "outputs": [],
      "stateMutability": "nonpayable",
      "type": "function"
    },
    {
      "inputs": [
        {
          "internalType": "uint256",
          "name": "offset",
          "type": "uint256"
        },
        {
          "internalType": "uint256",
          "name": "limit",
          "type": "uint256"
        }
      ],
      "name": "getUnsoldTokens",
      "outputs": [
        {
          "internalType": "uint256[]",
          "name": "",
          "type": "uint256[]"
        }
      ],
      "stateMutability": "view",
      "type": "function",
      "constant": true
    },
    {
      "inputs": [
        {
          "internalType": "uint256[]",
          "name": "_tokensId",
          "type": "uint256[]"
        }
      ],
      "name": "mintUnsoldTokens",
      "outputs": [],
      "stateMutability": "nonpayable",
      "type": "function"
    }
  ],
  "bytecode": "0x60806040526040518060200160405280600060ff16815250600b906001620000299291906200031a565b507fa5715b39ad4d979c476ba3ffb57edfc8462c0df59ff58bfafa0cfe22c1be3c3660001b600c556001600e60006101000a81548160ff0219169083151502179055503480156200007957600080fd5b506040516200510c3803806200510c83398181016040528101906200009f9190620005be565b6040518060400160405280600581526020017f4d756d6d790000000000000000000000000000000000000000000000000000008152506040518060400160405280600581526020017f4d554d4d5900000000000000000000000000000000000000000000000000000081525081600090805190602001906200012392919062000371565b5080600190805190602001906200013c92919062000371565b5050506200015f620001536200017760201b60201c565b6200017f60201b60201c565b62000170816200024560201b60201c565b50620006f7565b600033905090565b6000600a60009054906101000a900473ffffffffffffffffffffffffffffffffffffffff16905081600a60006101000a81548173ffffffffffffffffffffffffffffffffffffffff021916908373ffffffffffffffffffffffffffffffffffffffff1602179055508173ffffffffffffffffffffffffffffffffffffffff168173ffffffffffffffffffffffffffffffffffffffff167f8be0079c531659141344cd1fd0a4f28419497f9722a3daafe3b4186f6b6457e060405160405180910390a35050565b620002556200017760201b60201c565b73ffffffffffffffffffffffffffffffffffffffff166200027b620002f060201b60201c565b73ffffffffffffffffffffffffffffffffffffffff1614620002d4576040517f08c379a0000000000000000000000000000000000000000000000000000000008152600401620002cb9062000670565b60405180910390fd5b8060109080519060200190620002ec92919062000371565b5050565b6000600a60009054906101000a900473ffffffffffffffffffffffffffffffffffffffff16905090565b8280548282559060005260206000209081019282156200035e579160200282015b828111156200035d578251829060ff169055916020019190600101906200033b565b5b5090506200036d919062000402565b5090565b8280546200037f90620006c1565b90600052602060002090601f016020900481019282620003a35760008555620003ef565b82601f10620003be57805160ff1916838001178555620003ef565b82800160010185558215620003ef579182015b82811115620003ee578251825591602001919060010190620003d1565b5b509050620003fe919062000402565b5090565b5b808211156200041d57600081600090555060010162000403565b5090565b6000604051905090565b600080fd5b600080fd5b600080fd5b600080fd5b6000601f19601f8301169050919050565b7f4e487b7100000000000000000000000000000000000000000000000000000000600052604160045260246000fd5b6200048a826200043f565b810181811067ffffffffffffffff82111715620004ac57620004ab62000450565b5b80604052505050565b6000620004c162000421565b9050620004cf82826200047f565b919050565b600067ffffffffffffffff821115620004f257620004f162000450565b5b620004fd826200043f565b9050602081019050919050565b60005b838110156200052a5780820151818401526020810190506200050d565b838111156200053a576000848401525b50505050565b6000620005576200055184620004d4565b620004b5565b9050828152602081018484840111156200057657620005756200043a565b5b620005838482856200050a565b509392505050565b600082601f830112620005a357620005a262000435565b5b8151620005b584826020860162000540565b91505092915050565b600060208284031215620005d757620005d66200042b565b5b600082015167ffffffffffffffff811115620005f857620005f762000430565b5b62000606848285016200058b565b91505092915050565b600082825260208201905092915050565b7f4f776e61626c653a2063616c6c6572206973206e6f7420746865206f776e6572600082015250565b6000620006586020836200060f565b9150620006658262000620565b602082019050919050565b600060208201905081810360008301526200068b8162000649565b9050919050565b7f4e487b7100000000000000000000000000000000000000000000000000000000600052602260045260246000fd5b60006002820490506001821680620006da57607f821691505b60208210811415620006f157620006f062000692565b5b50919050565b614a0580620007076000396000f3fe60806040526004361061021a5760003560e01c8063715018a611610123578063b77a147b116100ab578063d09135051161006f578063d0913505146107fe578063d547cfb714610829578063db4bec4414610854578063e985e9c514610891578063f2fde38b146108ce5761021a565b8063b77a147b14610728578063b88d4fde14610744578063bedb86fb1461076d578063bf7b766d14610796578063c87b56dd146107c15761021a565b80638da5cb5b116100f25780638da5cb5b1461064357806395d89b411461066e578063967d61d914610699578063a22cb465146106d6578063b2992bb0146106ff5761021a565b8063715018a6146105ad5780637f81be69146105c4578063853828b6146106015780638d859f3e146106185761021a565b80632f745c59116101a65780634f6ccce7116101755780634f6ccce7146104a257806355f804b3146104df578063626be567146105085780636352211e1461053357806370a08231146105705761021a565b80632f745c59146103d45780633502a7161461041157806342842e0e1461043c578063438b6300146104655761021a565b8063095ea7b3116101ed578063095ea7b3146102ef57806318160ddd1461031857806323b872dd1461034357806326a49e371461036c5780632eb4a7ab146103a95761021a565b806301ffc9a71461021f578063027542841461025c57806306fdde0314610287578063081812fc146102b2575b600080fd5b34801561022b57600080fd5b5061024660048036038101906102419190612fa7565b6108f7565b6040516102539190612fef565b60405180910390f35b34801561026857600080fd5b50610271610971565b60405161027e9190613023565b60405180910390f35b34801561029357600080fd5b5061029c610976565b6040516102a991906130d7565b60405180910390f35b3480156102be57600080fd5b506102d960048036038101906102d49190613125565b610a08565b6040516102e69190613193565b60405180910390f35b3480156102fb57600080fd5b50610316600480360381019061031191906131da565b610a8d565b005b34801561032457600080fd5b5061032d610ba5565b60405161033a9190613023565b60405180910390f35b34801561034f57600080fd5b5061036a6004803603810190610365919061321a565b610bb2565b005b34801561037857600080fd5b50610393600480360381019061038e9190613125565b610c12565b6040516103a09190613023565b60405180910390f35b3480156103b557600080fd5b506103be610c36565b6040516103cb9190613286565b60405180910390f35b3480156103e057600080fd5b506103fb60048036038101906103f691906131da565b610c3c565b6040516104089190613023565b60405180910390f35b34801561041d57600080fd5b50610426610ce1565b6040516104339190613023565b60405180910390f35b34801561044857600080fd5b50610463600480360381019061045e919061321a565b610ce7565b005b34801561047157600080fd5b5061048c600480360381019061048791906132a1565b610d07565b604051610499919061338c565b60405180910390f35b3480156104ae57600080fd5b506104c960048036038101906104c49190613125565b610db5565b6040516104d69190613023565b60405180910390f35b3480156104eb57600080fd5b50610506600480360381019061050191906134e3565b610e26565b005b34801561051457600080fd5b5061051d610ebc565b60405161052a9190613023565b60405180910390f35b34801561053f57600080fd5b5061055a60048036038101906105559190613125565b610ecd565b6040516105679190613193565b60405180910390f35b34801561057c57600080fd5b50610597600480360381019061059291906132a1565b610f7f565b6040516105a49190613023565b60405180910390f35b3480156105b957600080fd5b506105c2611037565b005b3480156105d057600080fd5b506105eb60048036038101906105e69190613125565b6110bf565b6040516105f89190613193565b60405180910390f35b34801561060d57600080fd5b506106166110fc565b005b34801561062457600080fd5b5061062d6111ab565b60405161063a9190613023565b60405180910390f35b34801561064f57600080fd5b506106586111b7565b6040516106659190613193565b60405180910390f35b34801561067a57600080fd5b506106836111e1565b60405161069091906130d7565b60405180910390f35b3480156106a557600080fd5b506106c060048036038101906106bb919061352c565b611273565b6040516106cd919061338c565b60405180910390f35b3480156106e257600080fd5b506106fd60048036038101906106f89190613598565b61135a565b005b34801561070b57600080fd5b50610726600480360381019061072191906136a0565b6114db565b005b610742600480360381019061073d9190613744565b61164c565b005b34801561075057600080fd5b5061076b60048036038101906107669190613832565b6117c3565b005b34801561077957600080fd5b50610794600480360381019061078f91906138b5565b611825565b005b3480156107a257600080fd5b506107ab611904565b6040516107b89190613023565b60405180910390f35b3480156107cd57600080fd5b506107e860048036038101906107e39190613125565b611909565b6040516107f591906130d7565b60405180910390f35b34801561080a57600080fd5b506108136119b0565b6040516108209190613193565b60405180910390f35b34801561083557600080fd5b5061083e6119c8565b60405161084b91906130d7565b60405180910390f35b34801561086057600080fd5b5061087b600480360381019061087691906132a1565b611a56565b6040516108889190612fef565b60405180910390f35b34801561089d57600080fd5b506108b860048036038101906108b391906138e2565b611a76565b6040516108c59190612fef565b60405180910390f35b3480156108da57600080fd5b506108f560048036038101906108f091906132a1565b611b0a565b005b60007f780e9d63000000000000000000000000000000000000000000000000000000007bffffffffffffffffffffffffffffffffffffffffffffffffffffffff1916827bffffffffffffffffffffffffffffffffffffffffffffffffffffffff1916148061096a575061096982611c02565b5b9050919050565b600281565b60606000805461098590613951565b80601f01602080910402602001604051908101604052809291908181526020018280546109b190613951565b80156109fe5780601f106109d3576101008083540402835291602001916109fe565b820191906000526020600020905b8154815290600101906020018083116109e157829003601f168201915b5050505050905090565b6000610a1382611ce4565b610a52576040517f08c379a0000000000000000000000000000000000000000000000000000000008152600401610a49906139f5565b60405180910390fd5b6004600083815260200190815260200160002060009054906101000a900473ffffffffffffffffffffffffffffffffffffffff169050919050565b6000610a9882610ecd565b90508073ffffffffffffffffffffffffffffffffffffffff168373ffffffffffffffffffffffffffffffffffffffff161415610b09576040517f08c379a0000000000000000000000000000000000000000000000000000000008152600401610b0090613a87565b60405180910390fd5b8073ffffffffffffffffffffffffffffffffffffffff16610b28611d50565b73ffffffffffffffffffffffffffffffffffffffff161480610b575750610b5681610b51611d50565b611a76565b5b610b96576040517f08c379a0000000000000000000000000000000000000000000000000000000008152600401610b8d90613b19565b60405180910390fd5b610ba08383611d58565b505050565b6000600880549050905090565b610bc3610bbd611d50565b82611e11565b610c02576040517f08c379a0000000000000000000000000000000000000000000000000000000008152600401610bf990613bab565b60405180910390fd5b610c0d838383611eef565b505050565b6000610c2f826702c68af0bb14000061214b90919063ffffffff16565b9050919050565b600c5481565b6000610c4783610f7f565b8210610c88576040517f08c379a0000000000000000000000000000000000000000000000000000000008152600401610c7f90613c3d565b60405180910390fd5b600660008473ffffffffffffffffffffffffffffffffffffffff1673ffffffffffffffffffffffffffffffffffffffff168152602001908152602001600020600083815260200190815260200160002054905092915050565b61271081565b610d02838383604051806020016040528060008152506117c3565b505050565b60606000610d1483610f7f565b905060008167ffffffffffffffff811115610d3257610d316133b8565b5b604051908082528060200260200182016040528015610d605781602001602082028036833780820191505090505b50905060005b82811015610daa57610d788582610c3c565b828281518110610d8b57610d8a613c5d565b5b6020026020010181815250508080610da290613cbb565b915050610d66565b508092505050919050565b6000610dbf610ba5565b8210610e00576040517f08c379a0000000000000000000000000000000000000000000000000000000008152600401610df790613d76565b60405180910390fd5b60088281548110610e1457610e13613c5d565b5b90600052602060002001549050919050565b610e2e611d50565b73ffffffffffffffffffffffffffffffffffffffff16610e4c6111b7565b73ffffffffffffffffffffffffffffffffffffffff1614610ea2576040517f08c379a0000000000000000000000000000000000000000000000000000000008152600401610e9990613de2565b60405180910390fd5b8060109080519060200190610eb8929190612e98565b5050565b6000610ec8600f612161565b905090565b6000806002600084815260200190815260200160002060009054906101000a900473ffffffffffffffffffffffffffffffffffffffff169050600073ffffffffffffffffffffffffffffffffffffffff168173ffffffffffffffffffffffffffffffffffffffff161415610f76576040517f08c379a0000000000000000000000000000000000000000000000000000000008152600401610f6d90613e74565b60405180910390fd5b80915050919050565b60008073ffffffffffffffffffffffffffffffffffffffff168273ffffffffffffffffffffffffffffffffffffffff161415610ff0576040517f08c379a0000000000000000000000000000000000000000000000000000000008152600401610fe790613f06565b60405180910390fd5b600360008373ffffffffffffffffffffffffffffffffffffffff1673ffffffffffffffffffffffffffffffffffffffff168152602001908152602001600020549050919050565b61103f611d50565b73ffffffffffffffffffffffffffffffffffffffff1661105d6111b7565b73ffffffffffffffffffffffffffffffffffffffff16146110b3576040517f08c379a00000000000000000000000000000000000000000000000000000000081526004016110aa90613de2565b60405180910390fd5b6110bd600061216f565b565b60006002600083815260200190815260200160002060009054906101000a900473ffffffffffffffffffffffffffffffffffffffff169050919050565b611104611d50565b73ffffffffffffffffffffffffffffffffffffffff166111226111b7565b73ffffffffffffffffffffffffffffffffffffffff1614611178576040517f08c379a000000000000000000000000000000000000000000000000000000000815260040161116f90613de2565b60405180910390fd5b60004790506000811161118a57600080fd5b6111a8731f794dfb9bf6a540def3f2540c76a08d46d1abe547612235565b50565b6702c68af0bb14000081565b6000600a60009054906101000a900473ffffffffffffffffffffffffffffffffffffffff16905090565b6060600180546111f090613951565b80601f016020809104026020016040519081016040528092919081815260200182805461121c90613951565b80156112695780601f1061123e57610100808354040283529160200191611269565b820191906000526020600020905b81548152906001019060200180831161124c57829003601f168201915b5050505050905090565b606060008267ffffffffffffffff811115611291576112906133b8565b5b6040519080825280602002602001820160405280156112bf5781602001602082028036833780820191505090505b50905060005b8381101561134f57600085826112db9190613f26565b9050600073ffffffffffffffffffffffffffffffffffffffff166112fe826110bf565b73ffffffffffffffffffffffffffffffffffffffff16141561133b578083838151811061132e5761132d613c5d565b5b6020026020010181815250505b50808061134790613cbb565b9150506112c5565b508091505092915050565b611362611d50565b73ffffffffffffffffffffffffffffffffffffffff168273ffffffffffffffffffffffffffffffffffffffff1614156113d0576040517f08c379a00000000000000000000000000000000000000000000000000000000081526004016113c790613fc8565b60405180910390fd5b80600560006113dd611d50565b73ffffffffffffffffffffffffffffffffffffffff1673ffffffffffffffffffffffffffffffffffffffff16815260200190815260200160002060008473ffffffffffffffffffffffffffffffffffffffff1673ffffffffffffffffffffffffffffffffffffffff16815260200190815260200160002060006101000a81548160ff0219169083151502179055508173ffffffffffffffffffffffffffffffffffffffff1661148a611d50565b73ffffffffffffffffffffffffffffffffffffffff167f17307eab39ab6107e8899845ad3d59bd9653f200f220920489ca2b5937696c31836040516114cf9190612fef565b60405180910390a35050565b6114e3611d50565b73ffffffffffffffffffffffffffffffffffffffff166115016111b7565b73ffffffffffffffffffffffffffffffffffffffff1614611557576040517f08c379a000000000000000000000000000000000000000000000000000000000815260040161154e90613de2565b60405180910390fd5b600e60009054906101000a900460ff166115a6576040517f08c379a000000000000000000000000000000000000000000000000000000000815260040161159d90614034565b60405180910390fd5b60005b815181101561164857600073ffffffffffffffffffffffffffffffffffffffff166115ed8383815181106115e0576115df613c5d565b5b60200260200101516110bf565b73ffffffffffffffffffffffffffffffffffffffff161415611635576116346116146111b7565b83838151811061162757611626613c5d565b5b60200260200101516122e6565b5b808061164090613cbb565b9150506115a9565b5050565b612710611657610ebc565b1115611698576040517f08c379a000000000000000000000000000000000000000000000000000000000815260040161168f906140a0565b60405180910390fd5b600e60009054906101000a900460ff16156116e8576040517f08c379a00000000000000000000000000000000000000000000000000000000081526004016116df9061410c565b60405180910390fd5b60006116f2610ebc565b90506000336040516020016117079190614174565b60405160208183030381529060405280519060200120905061176d848480806020026020016040519081016040528093929190818152602001838360200280828437600081840152601f19601f82011690508083019250505050505050600c54836122fe565b6117ac576040517f08c379a00000000000000000000000000000000000000000000000000000000081526004016117a3906141db565b60405180910390fd5b6117bd336117b8610ebc565b6122e6565b50505050565b6117d46117ce611d50565b83611e11565b611813576040517f08c379a000000000000000000000000000000000000000000000000000000000815260040161180a90613bab565b60405180910390fd5b61181f84848484612315565b50505050565b61182d611d50565b73ffffffffffffffffffffffffffffffffffffffff1661184b6111b7565b73ffffffffffffffffffffffffffffffffffffffff16146118a1576040517f08c379a000000000000000000000000000000000000000000000000000000000815260040161189890613de2565b60405180910390fd5b80600e60006101000a81548160ff0219169083151502179055507f10e1c3fcaff06b68391033547e8f9bb8067d7c4a2e32659b0629153814d242d3600e60009054906101000a900460ff166040516118f99190612fef565b60405180910390a150565b600181565b606061191482611ce4565b611953576040517f08c379a000000000000000000000000000000000000000000000000000000000815260040161194a9061426d565b60405180910390fd5b600061195d612371565b9050600081511161197d57604051806020016040528060008152506119a8565b8061198784612403565b6040516020016119989291906142c9565b6040516020818303038152906040525b915050919050565b731f794dfb9bf6a540def3f2540c76a08d46d1abe581565b601080546119d590613951565b80601f0160208091040260200160405190810160405280929190818152602001828054611a0190613951565b8015611a4e5780601f10611a2357610100808354040283529160200191611a4e565b820191906000526020600020905b815481529060010190602001808311611a3157829003601f168201915b505050505081565b600d6020528060005260406000206000915054906101000a900460ff1681565b6000600560008473ffffffffffffffffffffffffffffffffffffffff1673ffffffffffffffffffffffffffffffffffffffff16815260200190815260200160002060008373ffffffffffffffffffffffffffffffffffffffff1673ffffffffffffffffffffffffffffffffffffffff16815260200190815260200160002060009054906101000a900460ff16905092915050565b611b12611d50565b73ffffffffffffffffffffffffffffffffffffffff16611b306111b7565b73ffffffffffffffffffffffffffffffffffffffff1614611b86576040517f08c379a0000000000000000000000000000000000000000000000000000000008152600401611b7d90613de2565b60405180910390fd5b600073ffffffffffffffffffffffffffffffffffffffff168173ffffffffffffffffffffffffffffffffffffffff161415611bf6576040517f08c379a0000000000000000000000000000000000000000000000000000000008152600401611bed9061435f565b60405180910390fd5b611bff8161216f565b50565b60007f80ac58cd000000000000000000000000000000000000000000000000000000007bffffffffffffffffffffffffffffffffffffffffffffffffffffffff1916827bffffffffffffffffffffffffffffffffffffffffffffffffffffffff19161480611ccd57507f5b5e139f000000000000000000000000000000000000000000000000000000007bffffffffffffffffffffffffffffffffffffffffffffffffffffffff1916827bffffffffffffffffffffffffffffffffffffffffffffffffffffffff1916145b80611cdd5750611cdc82612564565b5b9050919050565b60008073ffffffffffffffffffffffffffffffffffffffff166002600084815260200190815260200160002060009054906101000a900473ffffffffffffffffffffffffffffffffffffffff1673ffffffffffffffffffffffffffffffffffffffff1614159050919050565b600033905090565b816004600083815260200190815260200160002060006101000a81548173ffffffffffffffffffffffffffffffffffffffff021916908373ffffffffffffffffffffffffffffffffffffffff160217905550808273ffffffffffffffffffffffffffffffffffffffff16611dcb83610ecd565b73ffffffffffffffffffffffffffffffffffffffff167f8c5be1e5ebec7d5bd14f71427d1e84f3dd0314c0f7b2291e5b200ac8c7c3b92560405160405180910390a45050565b6000611e1c82611ce4565b611e5b576040517f08c379a0000000000000000000000000000000000000000000000000000000008152600401611e52906143f1565b60405180910390fd5b6000611e6683610ecd565b90508073ffffffffffffffffffffffffffffffffffffffff168473ffffffffffffffffffffffffffffffffffffffff161480611ed557508373ffffffffffffffffffffffffffffffffffffffff16611ebd84610a08565b73ffffffffffffffffffffffffffffffffffffffff16145b80611ee65750611ee58185611a76565b5b91505092915050565b8273ffffffffffffffffffffffffffffffffffffffff16611f0f82610ecd565b73ffffffffffffffffffffffffffffffffffffffff1614611f65576040517f08c379a0000000000000000000000000000000000000000000000000000000008152600401611f5c90614483565b60405180910390fd5b600073ffffffffffffffffffffffffffffffffffffffff168273ffffffffffffffffffffffffffffffffffffffff161415611fd5576040517f08c379a0000000000000000000000000000000000000000000000000000000008152600401611fcc90614515565b60405180910390fd5b611fe08383836125ce565b611feb600082611d58565b6001600360008573ffffffffffffffffffffffffffffffffffffffff1673ffffffffffffffffffffffffffffffffffffffff168152602001908152602001600020600082825461203b9190614535565b925050819055506001600360008473ffffffffffffffffffffffffffffffffffffffff1673ffffffffffffffffffffffffffffffffffffffff16815260200190815260200160002060008282546120929190613f26565b92505081905550816002600083815260200190815260200160002060006101000a81548173ffffffffffffffffffffffffffffffffffffffff021916908373ffffffffffffffffffffffffffffffffffffffff160217905550808273ffffffffffffffffffffffffffffffffffffffff168473ffffffffffffffffffffffffffffffffffffffff167fddf252ad1be2c89b69c2b068fc378daa952ba7f163c4a11628f55a4df523b3ef60405160405180910390a4505050565b600081836121599190614569565b905092915050565b600081600001549050919050565b6000600a60009054906101000a900473ffffffffffffffffffffffffffffffffffffffff16905081600a60006101000a81548173ffffffffffffffffffffffffffffffffffffffff021916908373ffffffffffffffffffffffffffffffffffffffff1602179055508173ffffffffffffffffffffffffffffffffffffffff168173ffffffffffffffffffffffffffffffffffffffff167f8be0079c531659141344cd1fd0a4f28419497f9722a3daafe3b4186f6b6457e060405160405180910390a35050565b60008273ffffffffffffffffffffffffffffffffffffffff168260405161225b906145f4565b60006040518083038185875af1925050503d8060008114612298576040519150601f19603f3d011682016040523d82523d6000602084013e61229d565b606091505b50509050806122e1576040517f08c379a00000000000000000000000000000000000000000000000000000000081526004016122d890614655565b60405180910390fd5b505050565b6122f0600f6126e2565b6122fa82826126f8565b5050565b60008261230b8584612716565b1490509392505050565b612320848484611eef565b61232c848484846127c9565b61236b576040517f08c379a0000000000000000000000000000000000000000000000000000000008152600401612362906146e7565b60405180910390fd5b50505050565b60606010805461238090613951565b80601f01602080910402602001604051908101604052809291908181526020018280546123ac90613951565b80156123f95780601f106123ce576101008083540402835291602001916123f9565b820191906000526020600020905b8154815290600101906020018083116123dc57829003601f168201915b5050505050905090565b6060600082141561244b576040518060400160405280600181526020017f3000000000000000000000000000000000000000000000000000000000000000815250905061255f565b600082905060005b6000821461247d57808061246690613cbb565b915050600a826124769190614736565b9150612453565b60008167ffffffffffffffff811115612499576124986133b8565b5b6040519080825280601f01601f1916602001820160405280156124cb5781602001600182028036833780820191505090505b5090505b60008514612558576001826124e49190614535565b9150600a856124f39190614767565b60306124ff9190613f26565b60f81b81838151811061251557612514613c5d565b5b60200101907effffffffffffffffffffffffffffffffffffffffffffffffffffffffffffff1916908160001a905350600a856125519190614736565b94506124cf565b8093505050505b919050565b60007f01ffc9a7000000000000000000000000000000000000000000000000000000007bffffffffffffffffffffffffffffffffffffffffffffffffffffffff1916827bffffffffffffffffffffffffffffffffffffffffffffffffffffffff1916149050919050565b6125d9838383612951565b600073ffffffffffffffffffffffffffffffffffffffff168373ffffffffffffffffffffffffffffffffffffffff16141561261c5761261781612956565b61265b565b8173ffffffffffffffffffffffffffffffffffffffff168373ffffffffffffffffffffffffffffffffffffffff161461265a57612659838261299f565b5b5b600073ffffffffffffffffffffffffffffffffffffffff168273ffffffffffffffffffffffffffffffffffffffff16141561269e5761269981612b0c565b6126dd565b8273ffffffffffffffffffffffffffffffffffffffff168273ffffffffffffffffffffffffffffffffffffffff16146126dc576126db8282612bdd565b5b5b505050565b6001816000016000828254019250508190555050565b612712828260405180602001604052806000815250612c5c565b5050565b60008082905060005b84518110156127be57600085828151811061273d5761273c613c5d565b5b6020026020010151905080831161277e5782816040516020016127619291906147b9565b6040516020818303038152906040528051906020012092506127aa565b80836040516020016127919291906147b9565b6040516020818303038152906040528051906020012092505b5080806127b690613cbb565b91505061271f565b508091505092915050565b60006127ea8473ffffffffffffffffffffffffffffffffffffffff16612cb7565b15612944578373ffffffffffffffffffffffffffffffffffffffff1663150b7a02612813611d50565b8786866040518563ffffffff1660e01b8152600401612835949392919061483a565b6020604051808303816000875af192505050801561287157506040513d601f19601f8201168201806040525081019061286e919061489b565b60015b6128f4573d80600081146128a1576040519150601f19603f3d011682016040523d82523d6000602084013e6128a6565b606091505b506000815114156128ec576040517f08c379a00000000000000000000000000000000000000000000000000000000081526004016128e3906146e7565b60405180910390fd5b805181602001fd5b63150b7a0260e01b7bffffffffffffffffffffffffffffffffffffffffffffffffffffffff1916817bffffffffffffffffffffffffffffffffffffffffffffffffffffffff191614915050612949565b600190505b949350505050565b505050565b6008805490506009600083815260200190815260200160002081905550600881908060018154018082558091505060019003906000526020600020016000909190919091505550565b600060016129ac84610f7f565b6129b69190614535565b9050600060076000848152602001908152602001600020549050818114612a9b576000600660008673ffffffffffffffffffffffffffffffffffffffff1673ffffffffffffffffffffffffffffffffffffffff168152602001908152602001600020600084815260200190815260200160002054905080600660008773ffffffffffffffffffffffffffffffffffffffff1673ffffffffffffffffffffffffffffffffffffffff168152602001908152602001600020600084815260200190815260200160002081905550816007600083815260200190815260200160002081905550505b6007600084815260200190815260200160002060009055600660008573ffffffffffffffffffffffffffffffffffffffff1673ffffffffffffffffffffffffffffffffffffffff16815260200190815260200160002060008381526020019081526020016000206000905550505050565b60006001600880549050612b209190614535565b9050600060096000848152602001908152602001600020549050600060088381548110612b5057612b4f613c5d565b5b906000526020600020015490508060088381548110612b7257612b71613c5d565b5b906000526020600020018190555081600960008381526020019081526020016000208190555060096000858152602001908152602001600020600090556008805480612bc157612bc06148c8565b5b6001900381819060005260206000200160009055905550505050565b6000612be883610f7f565b905081600660008573ffffffffffffffffffffffffffffffffffffffff1673ffffffffffffffffffffffffffffffffffffffff168152602001908152602001600020600083815260200190815260200160002081905550806007600084815260200190815260200160002081905550505050565b612c668383612cca565b612c7360008484846127c9565b612cb2576040517f08c379a0000000000000000000000000000000000000000000000000000000008152600401612ca9906146e7565b60405180910390fd5b505050565b600080823b905060008111915050919050565b600073ffffffffffffffffffffffffffffffffffffffff168273ffffffffffffffffffffffffffffffffffffffff161415612d3a576040517f08c379a0000000000000000000000000000000000000000000000000000000008152600401612d3190614943565b60405180910390fd5b612d4381611ce4565b15612d83576040517f08c379a0000000000000000000000000000000000000000000000000000000008152600401612d7a906149af565b60405180910390fd5b612d8f600083836125ce565b6001600360008473ffffffffffffffffffffffffffffffffffffffff1673ffffffffffffffffffffffffffffffffffffffff1681526020019081526020016000206000828254612ddf9190613f26565b92505081905550816002600083815260200190815260200160002060006101000a81548173ffffffffffffffffffffffffffffffffffffffff021916908373ffffffffffffffffffffffffffffffffffffffff160217905550808273ffffffffffffffffffffffffffffffffffffffff16600073ffffffffffffffffffffffffffffffffffffffff167fddf252ad1be2c89b69c2b068fc378daa952ba7f163c4a11628f55a4df523b3ef60405160405180910390a45050565b828054612ea490613951565b90600052602060002090601f016020900481019282612ec65760008555612f0d565b82601f10612edf57805160ff1916838001178555612f0d565b82800160010185558215612f0d579182015b82811115612f0c578251825591602001919060010190612ef1565b5b509050612f1a9190612f1e565b5090565b5b80821115612f37576000816000905550600101612f1f565b5090565b6000604051905090565b600080fd5b600080fd5b60007fffffffff0000000000000000000000000000000000000000000000000000000082169050919050565b612f8481612f4f565b8114612f8f57600080fd5b50565b600081359050612fa181612f7b565b92915050565b600060208284031215612fbd57612fbc612f45565b5b6000612fcb84828501612f92565b91505092915050565b60008115159050919050565b612fe981612fd4565b82525050565b60006020820190506130046000830184612fe0565b92915050565b6000819050919050565b61301d8161300a565b82525050565b60006020820190506130386000830184613014565b92915050565b600081519050919050565b600082825260208201905092915050565b60005b8381101561307857808201518184015260208101905061305d565b83811115613087576000848401525b50505050565b6000601f19601f8301169050919050565b60006130a98261303e565b6130b38185613049565b93506130c381856020860161305a565b6130cc8161308d565b840191505092915050565b600060208201905081810360008301526130f1818461309e565b905092915050565b6131028161300a565b811461310d57600080fd5b50565b60008135905061311f816130f9565b92915050565b60006020828403121561313b5761313a612f45565b5b600061314984828501613110565b91505092915050565b600073ffffffffffffffffffffffffffffffffffffffff82169050919050565b600061317d82613152565b9050919050565b61318d81613172565b82525050565b60006020820190506131a86000830184613184565b92915050565b6131b781613172565b81146131c257600080fd5b50565b6000813590506131d4816131ae565b92915050565b600080604083850312156131f1576131f0612f45565b5b60006131ff858286016131c5565b925050602061321085828601613110565b9150509250929050565b60008060006060848603121561323357613232612f45565b5b6000613241868287016131c5565b9350506020613252868287016131c5565b925050604061326386828701613110565b9150509250925092565b6000819050919050565b6132808161326d565b82525050565b600060208201905061329b6000830184613277565b92915050565b6000602082840312156132b7576132b6612f45565b5b60006132c5848285016131c5565b91505092915050565b600081519050919050565b600082825260208201905092915050565b6000819050602082019050919050565b6133038161300a565b82525050565b600061331583836132fa565b60208301905092915050565b6000602082019050919050565b6000613339826132ce565b61334381856132d9565b935061334e836132ea565b8060005b8381101561337f5781516133668882613309565b975061337183613321565b925050600181019050613352565b5085935050505092915050565b600060208201905081810360008301526133a6818461332e565b905092915050565b600080fd5b600080fd5b7f4e487b7100000000000000000000000000000000000000000000000000000000600052604160045260246000fd5b6133f08261308d565b810181811067ffffffffffffffff8211171561340f5761340e6133b8565b5b80604052505050565b6000613422612f3b565b905061342e82826133e7565b919050565b600067ffffffffffffffff82111561344e5761344d6133b8565b5b6134578261308d565b9050602081019050919050565b82818337600083830152505050565b600061348661348184613433565b613418565b9050828152602081018484840111156134a2576134a16133b3565b5b6134ad848285613464565b509392505050565b600082601f8301126134ca576134c96133ae565b5b81356134da848260208601613473565b91505092915050565b6000602082840312156134f9576134f8612f45565b5b600082013567ffffffffffffffff81111561351757613516612f4a565b5b613523848285016134b5565b91505092915050565b6000806040838503121561354357613542612f45565b5b600061355185828601613110565b925050602061356285828601613110565b9150509250929050565b61357581612fd4565b811461358057600080fd5b50565b6000813590506135928161356c565b92915050565b600080604083850312156135af576135ae612f45565b5b60006135bd858286016131c5565b92505060206135ce85828601613583565b9150509250929050565b600067ffffffffffffffff8211156135f3576135f26133b8565b5b602082029050602081019050919050565b600080fd5b600061361c613617846135d8565b613418565b9050808382526020820190506020840283018581111561363f5761363e613604565b5b835b8181101561366857806136548882613110565b845260208401935050602081019050613641565b5050509392505050565b600082601f830112613687576136866133ae565b5b8135613697848260208601613609565b91505092915050565b6000602082840312156136b6576136b5612f45565b5b600082013567ffffffffffffffff8111156136d4576136d3612f4a565b5b6136e084828501613672565b91505092915050565b600080fd5b60008083601f840112613704576137036133ae565b5b8235905067ffffffffffffffff811115613721576137206136e9565b5b60208301915083602082028301111561373d5761373c613604565b5b9250929050565b6000806020838503121561375b5761375a612f45565b5b600083013567ffffffffffffffff81111561377957613778612f4a565b5b613785858286016136ee565b92509250509250929050565b600067ffffffffffffffff8211156137ac576137ab6133b8565b5b6137b58261308d565b9050602081019050919050565b60006137d56137d084613791565b613418565b9050828152602081018484840111156137f1576137f06133b3565b5b6137fc848285613464565b509392505050565b600082601f830112613819576138186133ae565b5b81356138298482602086016137c2565b91505092915050565b6000806000806080858703121561384c5761384b612f45565b5b600061385a878288016131c5565b945050602061386b878288016131c5565b935050604061387c87828801613110565b925050606085013567ffffffffffffffff81111561389d5761389c612f4a565b5b6138a987828801613804565b91505092959194509250565b6000602082840312156138cb576138ca612f45565b5b60006138d984828501613583565b91505092915050565b600080604083850312156138f9576138f8612f45565b5b6000613907858286016131c5565b9250506020613918858286016131c5565b9150509250929050565b7f4e487b7100000000000000000000000000000000000000000000000000000000600052602260045260246000fd5b6000600282049050600182168061396957607f821691505b6020821081141561397d5761397c613922565b5b50919050565b7f4552433732313a20617070726f76656420717565727920666f72206e6f6e657860008201527f697374656e7420746f6b656e0000000000000000000000000000000000000000602082015250565b60006139df602c83613049565b91506139ea82613983565b604082019050919050565b60006020820190508181036000830152613a0e816139d2565b9050919050565b7f4552433732313a20617070726f76616c20746f2063757272656e74206f776e6560008201527f7200000000000000000000000000000000000000000000000000000000000000602082015250565b6000613a71602183613049565b9150613a7c82613a15565b604082019050919050565b60006020820190508181036000830152613aa081613a64565b9050919050565b7f4552433732313a20617070726f76652063616c6c6572206973206e6f74206f7760008201527f6e6572206e6f7220617070726f76656420666f7220616c6c0000000000000000602082015250565b6000613b03603883613049565b9150613b0e82613aa7565b604082019050919050565b60006020820190508181036000830152613b3281613af6565b9050919050565b7f4552433732313a207472616e736665722063616c6c6572206973206e6f74206f60008201527f776e6572206e6f7220617070726f766564000000000000000000000000000000602082015250565b6000613b95603183613049565b9150613ba082613b39565b604082019050919050565b60006020820190508181036000830152613bc481613b88565b9050919050565b7f455243373231456e756d657261626c653a206f776e657220696e646578206f7560008201527f74206f6620626f756e6473000000000000000000000000000000000000000000602082015250565b6000613c27602b83613049565b9150613c3282613bcb565b604082019050919050565b60006020820190508181036000830152613c5681613c1a565b9050919050565b7f4e487b7100000000000000000000000000000000000000000000000000000000600052603260045260246000fd5b7f4e487b7100000000000000000000000000000000000000000000000000000000600052601160045260246000fd5b6000613cc68261300a565b91507fffffffffffffffffffffffffffffffffffffffffffffffffffffffffffffffff821415613cf957613cf8613c8c565b5b600182019050919050565b7f455243373231456e756d657261626c653a20676c6f62616c20696e646578206f60008201527f7574206f6620626f756e64730000000000000000000000000000000000000000602082015250565b6000613d60602c83613049565b9150613d6b82613d04565b604082019050919050565b60006020820190508181036000830152613d8f81613d53565b9050919050565b7f4f776e61626c653a2063616c6c6572206973206e6f7420746865206f776e6572600082015250565b6000613dcc602083613049565b9150613dd782613d96565b602082019050919050565b60006020820190508181036000830152613dfb81613dbf565b9050919050565b7f4552433732313a206f776e657220717565727920666f72206e6f6e657869737460008201527f656e7420746f6b656e0000000000000000000000000000000000000000000000602082015250565b6000613e5e602983613049565b9150613e6982613e02565b604082019050919050565b60006020820190508181036000830152613e8d81613e51565b9050919050565b7f4552433732313a2062616c616e636520717565727920666f7220746865207a6560008201527f726f206164647265737300000000000000000000000000000000000000000000602082015250565b6000613ef0602a83613049565b9150613efb82613e94565b604082019050919050565b60006020820190508181036000830152613f1f81613ee3565b9050919050565b6000613f318261300a565b9150613f3c8361300a565b9250827fffffffffffffffffffffffffffffffffffffffffffffffffffffffffffffffff03821115613f7157613f70613c8c565b5b828201905092915050565b7f4552433732313a20617070726f766520746f2063616c6c657200000000000000600082015250565b6000613fb2601983613049565b9150613fbd82613f7c565b602082019050919050565b60006020820190508181036000830152613fe181613fa5565b9050919050565b7f50617573652069732064697361626c6500000000000000000000000000000000600082015250565b600061401e601083613049565b915061402982613fe8565b602082019050919050565b6000602082019050818103600083015261404d81614011565b9050919050565b7f536f6c646f757421000000000000000000000000000000000000000000000000600082015250565b600061408a600883613049565b915061409582614054565b602082019050919050565b600060208201905081810360008301526140b98161407d565b9050919050565b7f53616c6573206e6f74206f70656e000000000000000000000000000000000000600082015250565b60006140f6600e83613049565b9150614101826140c0565b602082019050919050565b60006020820190508181036000830152614125816140e9565b9050919050565b60008160601b9050919050565b60006141448261412c565b9050919050565b600061415682614139565b9050919050565b61416e61416982613172565b61414b565b82525050565b6000614180828461415d565b60148201915081905092915050565b7f496e76616c69642070726f6f662e000000000000000000000000000000000000600082015250565b60006141c5600e83613049565b91506141d08261418f565b602082019050919050565b600060208201905081810360008301526141f4816141b8565b9050919050565b7f4552433732314d657461646174613a2055524920717565727920666f72206e6f60008201527f6e6578697374656e7420746f6b656e0000000000000000000000000000000000602082015250565b6000614257602f83613049565b9150614262826141fb565b604082019050919050565b600060208201905081810360008301526142868161424a565b9050919050565b600081905092915050565b60006142a38261303e565b6142ad818561428d565b93506142bd81856020860161305a565b80840191505092915050565b60006142d58285614298565b91506142e18284614298565b91508190509392505050565b7f4f776e61626c653a206e6577206f776e657220697320746865207a65726f206160008201527f6464726573730000000000000000000000000000000000000000000000000000602082015250565b6000614349602683613049565b9150614354826142ed565b604082019050919050565b600060208201905081810360008301526143788161433c565b9050919050565b7f4552433732313a206f70657261746f7220717565727920666f72206e6f6e657860008201527f697374656e7420746f6b656e0000000000000000000000000000000000000000602082015250565b60006143db602c83613049565b91506143e68261437f565b604082019050919050565b6000602082019050818103600083015261440a816143ce565b9050919050565b7f4552433732313a207472616e73666572206f6620746f6b656e2074686174206960008201527f73206e6f74206f776e0000000000000000000000000000000000000000000000602082015250565b600061446d602983613049565b915061447882614411565b604082019050919050565b6000602082019050818103600083015261449c81614460565b9050919050565b7f4552433732313a207472616e7366657220746f20746865207a65726f2061646460008201527f7265737300000000000000000000000000000000000000000000000000000000602082015250565b60006144ff602483613049565b915061450a826144a3565b604082019050919050565b6000602082019050818103600083015261452e816144f2565b9050919050565b60006145408261300a565b915061454b8361300a565b92508282101561455e5761455d613c8c565b5b828203905092915050565b60006145748261300a565b915061457f8361300a565b9250817fffffffffffffffffffffffffffffffffffffffffffffffffffffffffffffffff04831182151516156145b8576145b7613c8c565b5b828202905092915050565b600081905092915050565b50565b60006145de6000836145c3565b91506145e9826145ce565b600082019050919050565b60006145ff826145d1565b9150819050919050565b7f5472616e73666572206661696c65642e00000000000000000000000000000000600082015250565b600061463f601083613049565b915061464a82614609565b602082019050919050565b6000602082019050818103600083015261466e81614632565b9050919050565b7f4552433732313a207472616e7366657220746f206e6f6e20455243373231526560008201527f63656976657220696d706c656d656e7465720000000000000000000000000000602082015250565b60006146d1603283613049565b91506146dc82614675565b604082019050919050565b60006020820190508181036000830152614700816146c4565b9050919050565b7f4e487b7100000000000000000000000000000000000000000000000000000000600052601260045260246000fd5b60006147418261300a565b915061474c8361300a565b92508261475c5761475b614707565b5b828204905092915050565b60006147728261300a565b915061477d8361300a565b92508261478d5761478c614707565b5b828206905092915050565b6000819050919050565b6147b36147ae8261326d565b614798565b82525050565b60006147c582856147a2565b6020820191506147d582846147a2565b6020820191508190509392505050565b600081519050919050565b600082825260208201905092915050565b600061480c826147e5565b61481681856147f0565b935061482681856020860161305a565b61482f8161308d565b840191505092915050565b600060808201905061484f6000830187613184565b61485c6020830186613184565b6148696040830185613014565b818103606083015261487b8184614801565b905095945050505050565b60008151905061489581612f7b565b92915050565b6000602082840312156148b1576148b0612f45565b5b60006148bf84828501614886565b91505092915050565b7f4e487b7100000000000000000000000000000000000000000000000000000000600052603160045260246000fd5b7f4552433732313a206d696e7420746f20746865207a65726f2061646472657373600082015250565b600061492d602083613049565b9150614938826148f7565b602082019050919050565b6000602082019050818103600083015261495c81614920565b9050919050565b7f4552433732313a20746f6b656e20616c7265616479206d696e74656400000000600082015250565b6000614999601c83613049565b91506149a482614963565b602082019050919050565b600060208201905081810360008301526149c88161498c565b905091905056fea26469706673582212200288045619b53b6ed33d91cb9a7eda23e07c1d4124eae3944f2fee91957b781164736f6c634300080a0033",
  "immutableReferences": {},
  "source": "// SPDX-License-Identifier: MIT\npragma solidity ^0.8.0;\n\nimport \"./ERC721Enumerable.sol\";\nimport \"./MerkleProofVerify.sol\";\nimport \"@openzeppelin/contracts/access/Ownable.sol\";\nimport \"@openzeppelin/contracts/utils/math/SafeMath.sol\";\nimport \"@openzeppelin/contracts/utils/Counters.sol\";\nimport \"@openzeppelin/contracts/utils/cryptography/MerkleProof.sol\";\n\ncontract Mummy is ERC721Enumerable, Ownable {\n    using SafeMath for uint256;\n    using Counters for Counters.Counter;\n\n    uint256 public constant MAX_ELEMENTS = 10000;\n    uint256 public constant MAX_TO_BUY = 2;\n    uint256 public constant PRICE = 0.2 ether;\n    uint256 public constant START_AT = 1;\n    uint256[] _tokensId = [0];\n    address public constant creator1Address = 0x1f794DFb9Bf6a540dEf3f2540c76a08d46D1abE5;\n    bytes32 public merkleRoot = 0xa5715b39ad4d979c476ba3ffb57edfc8462c0df59ff58bfafa0cfe22c1be3c36;\n\n    mapping(address => bool) public whitelistClaimed;\n\n    bool private PAUSE = true;\n\n    Counters.Counter private _tokenIdTracker;\n\n    string public baseTokenURI;\n\n    event PauseEvent(bool pause);\n    event welcomeToMekaVerse(uint256 indexed id);\n\n    constructor(string memory baseURI) ERC721(\"Mummy\", \"MUMMY\"){\n        setBaseURI(baseURI);\n    }\n\n    modifier saleIsOpen {\n        require(totalToken() <= MAX_ELEMENTS, \"Soldout!\");\n        require(!PAUSE, \"Sales not open\");\n        _;\n    }\n\n    function _baseURI() internal view virtual override returns (string memory) {\n        return baseTokenURI;\n    }\n\n    function setBaseURI(string memory baseURI) public onlyOwner {\n        baseTokenURI = baseURI;\n    }\n\n    function totalToken() public view returns (uint256) {\n        return _tokenIdTracker.current();\n    }\n\n    // function mint(uint256[] memory _tokensId, bytes32[] calldata _merkleProof) public payable saleIsOpen {\n    function mint(bytes32[] calldata _merkleProof) public payable saleIsOpen {\n        uint256 tokenToMint = totalToken();\n        // uint256[] tokensBought = walletOfOwner(msg.sender);\n        // require(_tokensId.length <= 2, \"Max limit\");\n        // require(tokensBought.length <= MAX_TO_BUY, \"Max limit\");\n        // require(msg.value >= price(tokenToMint), \"Value below price\");\n\n        // address wallet = msg.sender;\n        bytes32 leaf = keccak256(abi.encodePacked(msg.sender));\n\n        require(MerkleProof.verify(_merkleProof, merkleRoot, leaf), \"Invalid proof.\");\n\n        // for(uint8 i = 0; i < _tokensId.length; i++){\n            // require(rawOwnerOf(_tokensId[i]) == address(0) && _tokensId[i] > 0 && _tokensId[i] <= MAX_ELEMENTS, \"Token already minted\");\n            _mintAnElement(msg.sender, totalToken());\n        // }\n    }\n\n    function _mintAnElement(address _to, uint256 _tokenId) private {\n        _tokenIdTracker.increment();\n        _safeMint(_to, _tokenId);\n\n        // emit welcomeToMekaVerse(_tokenId);\n    }\n\n    function price(uint256 _count) public pure returns (uint256) {\n        return PRICE.mul(_count);\n    }\n\n    function walletOfOwner(address _owner) external view returns (uint256[] memory) {\n        uint256 tokenCount = balanceOf(_owner);\n\n        uint256[] memory tokensId = new uint256[](tokenCount);\n        for (uint256 i = 0; i < tokenCount; i++) {\n            tokensId[i] = tokenOfOwnerByIndex(_owner, i);\n        }\n\n        return tokensId;\n    }\n\n    function setPause(bool _pause) public onlyOwner{\n        PAUSE = _pause;\n        emit PauseEvent(PAUSE);\n    }\n\n    function withdrawAll() public onlyOwner {\n        uint256 balance = address(this).balance;\n        require(balance > 0);\n        _widthdraw(creator1Address, address(this).balance);\n    }\n\n    function _widthdraw(address _address, uint256 _amount) private {\n        (bool success, ) = _address.call{value: _amount}(\"\");\n        require(success, \"Transfer failed.\");\n    }\n\n    function getUnsoldTokens(uint256 offset, uint256 limit) external view returns (uint256[] memory){\n\n        uint256[] memory tokens = new uint256[](limit);\n\n        for (uint256 i = 0; i < limit; i++) {\n            uint256 key = i + offset;\n            if(rawOwnerOf(key) == address(0)){\n                tokens[i] = key;\n            }\n        }\n\n        return tokens;\n    }\n\n    function mintUnsoldTokens(uint256[] memory _tokensId) public onlyOwner {\n\n        require(PAUSE, \"Pause is disable\");\n\n        for (uint256 i = 0; i < _tokensId.length; i++) {\n            if(rawOwnerOf(_tokensId[i]) == address(0)){\n                _mintAnElement(owner(), _tokensId[i]);\n            }\n        }\n    }\n}\n",
  "sourcePath": "/Users/martincik/Projects/amenti/nft/nomaclub/backend/mint_contract/contracts/Mummy.sol",
  "compiler": {
    "name": "solc",
    "version": "0.8.10+commit.fc410830.Emscripten.clang"
  },
  "schemaVersion": "3.4.4",
  "updatedAt": "2022-01-14T09:32:44.591Z",
  "networkType": "ethereum",
  "devdoc": {
    "kind": "dev",
    "methods": {
      "approve(address,uint256)": {
        "details": "See {IERC721-approve}."
      },
      "balanceOf(address)": {
        "details": "See {IERC721-balanceOf}."
      },
      "getApproved(uint256)": {
        "details": "See {IERC721-getApproved}."
      },
      "isApprovedForAll(address,address)": {
        "details": "See {IERC721-isApprovedForAll}."
      },
      "name()": {
        "details": "See {IERC721Metadata-name}."
      },
      "owner()": {
        "details": "Returns the address of the current owner."
      },
      "ownerOf(uint256)": {
        "details": "See {IERC721-ownerOf}."
      },
      "rawOwnerOf(uint256)": {
        "details": "Edit for rawOwnerOf token"
      },
      "renounceOwnership()": {
        "details": "Leaves the contract without owner. It will not be possible to call `onlyOwner` functions anymore. Can only be called by the current owner. NOTE: Renouncing ownership will leave the contract without an owner, thereby removing any functionality that is only available to the owner."
      },
      "safeTransferFrom(address,address,uint256)": {
        "details": "See {IERC721-safeTransferFrom}."
      },
      "safeTransferFrom(address,address,uint256,bytes)": {
        "details": "See {IERC721-safeTransferFrom}."
      },
      "setApprovalForAll(address,bool)": {
        "details": "See {IERC721-setApprovalForAll}."
      },
      "supportsInterface(bytes4)": {
        "details": "See {IERC165-supportsInterface}."
      },
      "symbol()": {
        "details": "See {IERC721Metadata-symbol}."
      },
      "tokenByIndex(uint256)": {
        "details": "See {IERC721Enumerable-tokenByIndex}."
      },
      "tokenOfOwnerByIndex(address,uint256)": {
        "details": "See {IERC721Enumerable-tokenOfOwnerByIndex}."
      },
      "tokenURI(uint256)": {
        "details": "See {IERC721Metadata-tokenURI}."
      },
      "totalSupply()": {
        "details": "See {IERC721Enumerable-totalSupply}."
      },
      "transferFrom(address,address,uint256)": {
        "details": "See {IERC721-transferFrom}."
      },
      "transferOwnership(address)": {
        "details": "Transfers ownership of the contract to a new account (`newOwner`). Can only be called by the current owner."
      }
    },
    "version": 1
  },
  "userdoc": {
    "kind": "user",
    "methods": {},
    "version": 1
  }
}