{
  "_format": "hh-sol-artifact-1",
  "contractName": "MerkleProofVerify",
  "sourceName": "contracts/MerkleProofVerify.sol",
  "abi": [
    {
      "inputs": [
        {
          "internalType": "bytes32[]",
          "name": "proof",
          "type": "bytes32[]"
        },
        {
          "internalType": "bytes32",
          "name": "root",
          "type": "bytes32"
        }
      ],
      "name": "verify",
      "outputs": [
        {
          "internalType": "bool",
          "name": "",
          "type": "bool"
        }
      ],
      "stateMutability": "view",
      "type": "function"
    }
  ],
  "bytecode": "0x608060405234801561001057600080fd5b5061027e806100206000396000f3fe608060405234801561001057600080fd5b506004361061002b5760003560e01c8063972a2a6214610030575b600080fd5b61004361003e366004610145565b610057565b604051901515815260200160405180910390f35b6040516bffffffffffffffffffffffff193360601b166020820152600090819060340160405160208183030381529060405280519060200120905061009d8484836100a5565b949350505050565b6000826100b285846100bb565b14949350505050565b600081815b84518110156101275760008582815181106100dd576100dd610209565b602002602001015190508083116101035760008381526020829052604090209250610114565b600081815260208490526040902092505b508061011f8161021f565b9150506100c0565b509392505050565b634e487b7160e01b600052604160045260246000fd5b6000806040838503121561015857600080fd5b823567ffffffffffffffff8082111561017057600080fd5b818501915085601f83011261018457600080fd5b81356020828211156101985761019861012f565b8160051b604051601f19603f830116810181811086821117156101bd576101bd61012f565b6040529283528183019350848101820192898411156101db57600080fd5b948201945b838610156101f9578535855294820194938201936101e0565b9997909101359750505050505050565b634e487b7160e01b600052603260045260246000fd5b600060001982141561024157634e487b7160e01b600052601160045260246000fd5b506001019056fea2646970667358221220e15cd09e49f23d20ee89e280bf46f47ea3fa2d2744b789def906a2d6337c008564736f6c63430008090033",
  "linkReferences": {},
  "deployedLinkReferences": {}
}