{
  "_format": "hh-sol-artifact-1",
  "contractName": "NoMaGuild",
  "sourceName": "contracts/NoMaGuild.sol",
  "abi": [
    {
      "inputs": [
        {
          "internalType": "string",
          "name": "_symbol",
          "type": "string"
        },
        {
          "internalType": "string",
          "name": "_name",
          "type": "string"
        },
        {
          "internalType": "uint256",
          "name": "_maxMummies",
          "type": "uint256"
        },
        {
          "internalType": "uint256",
          "name": "_maxWhitelist",
          "type": "uint256"
        },
        {
          "internalType": "uint256",
          "name": "_mintLimitPerWallet",
          "type": "uint256"
        },
        {
          "internalType": "string",
          "name": "baseURI",
          "type": "string"
        },
        {
          "internalType": "bytes32",
          "name": "_merkleRoot",
          "type": "bytes32"
        }
      ],
      "stateMutability": "nonpayable",
      "type": "constructor"
    },
    {
      "inputs": [],
      "name": "ApprovalCallerNotOwnerNorApproved",
      "type": "error"
    },
    {
      "inputs": [],
      "name": "ApprovalQueryForNonexistentToken",
      "type": "error"
    },
    {
      "inputs": [],
      "name": "ApprovalToCurrentOwner",
      "type": "error"
    },
    {
      "inputs": [],
      "name": "ApproveToCaller",
      "type": "error"
    },
    {
      "inputs": [],
      "name": "BalanceQueryForZeroAddress",
      "type": "error"
    },
    {
      "inputs": [],
      "name": "MintToZeroAddress",
      "type": "error"
    },
    {
      "inputs": [],
      "name": "MintZeroQuantity",
      "type": "error"
    },
    {
      "inputs": [],
      "name": "OwnerIndexOutOfBounds",
      "type": "error"
    },
    {
      "inputs": [],
      "name": "OwnerQueryForNonexistentToken",
      "type": "error"
    },
    {
      "inputs": [],
      "name": "TokenIndexOutOfBounds",
      "type": "error"
    },
    {
      "inputs": [],
      "name": "TransferCallerNotOwnerNorApproved",
      "type": "error"
    },
    {
      "inputs": [],
      "name": "TransferFromIncorrectOwner",
      "type": "error"
    },
    {
      "inputs": [],
      "name": "TransferToNonERC721ReceiverImplementer",
      "type": "error"
    },
    {
      "inputs": [],
      "name": "TransferToZeroAddress",
      "type": "error"
    },
    {
      "inputs": [],
      "name": "URIQueryForNonexistentToken",
      "type": "error"
    },
    {
      "anonymous": false,
      "inputs": [
        {
          "indexed": true,
          "internalType": "address",
          "name": "owner",
          "type": "address"
        },
        {
          "indexed": true,
          "internalType": "address",
          "name": "approved",
          "type": "address"
        },
        {
          "indexed": true,
          "internalType": "uint256",
          "name": "tokenId",
          "type": "uint256"
        }
      ],
      "name": "Approval",
      "type": "event"
    },
    {
      "anonymous": false,
      "inputs": [
        {
          "indexed": true,
          "internalType": "address",
          "name": "owner",
          "type": "address"
        },
        {
          "indexed": true,
          "internalType": "address",
          "name": "operator",
          "type": "address"
        },
        {
          "indexed": false,
          "internalType": "bool",
          "name": "approved",
          "type": "bool"
        }
      ],
      "name": "ApprovalForAll",
      "type": "event"
    },
    {
      "anonymous": false,
      "inputs": [
        {
          "indexed": true,
          "internalType": "address",
          "name": "previousOwner",
          "type": "address"
        },
        {
          "indexed": true,
          "internalType": "address",
          "name": "newOwner",
          "type": "address"
        }
      ],
      "name": "OwnershipTransferred",
      "type": "event"
    },
    {
      "anonymous": false,
      "inputs": [
        {
          "indexed": false,
          "internalType": "address",
          "name": "account",
          "type": "address"
        }
      ],
      "name": "Paused",
      "type": "event"
    },
    {
      "anonymous": false,
      "inputs": [
        {
          "indexed": false,
          "internalType": "bool",
          "name": "pause",
          "type": "bool"
        }
      ],
      "name": "PublicSaleEvent",
      "type": "event"
    },
    {
      "anonymous": false,
      "inputs": [
        {
          "indexed": true,
          "internalType": "address",
          "name": "from",
          "type": "address"
        },
        {
          "indexed": true,
          "internalType": "address",
          "name": "to",
          "type": "address"
        },
        {
          "indexed": true,
          "internalType": "uint256",
          "name": "tokenId",
          "type": "uint256"
        }
      ],
      "name": "Transfer",
      "type": "event"
    },
    {
      "anonymous": false,
      "inputs": [
        {
          "indexed": false,
          "internalType": "address",
          "name": "account",
          "type": "address"
        }
      ],
      "name": "Unpaused",
      "type": "event"
    },
    {
      "anonymous": false,
      "inputs": [
        {
          "indexed": false,
          "internalType": "bool",
          "name": "pause",
          "type": "bool"
        }
      ],
      "name": "WhitelistSaleEvent",
      "type": "event"
    },
    {
      "inputs": [],
      "name": "PUBLIC_PRICE",
      "outputs": [
        {
          "internalType": "uint256",
          "name": "",
          "type": "uint256"
        }
      ],
      "stateMutability": "view",
      "type": "function"
    },
    {
      "inputs": [],
      "name": "ROYALTY_RATE",
      "outputs": [
        {
          "internalType": "uint256",
          "name": "",
          "type": "uint256"
        }
      ],
      "stateMutability": "view",
      "type": "function"
    },
    {
      "inputs": [],
      "name": "WHITELIST_PRICE",
      "outputs": [
        {
          "internalType": "uint256",
          "name": "",
          "type": "uint256"
        }
      ],
      "stateMutability": "view",
      "type": "function"
    },
    {
      "inputs": [
        {
          "internalType": "address",
          "name": "to",
          "type": "address"
        },
        {
          "internalType": "uint256",
          "name": "tokenId",
          "type": "uint256"
        }
      ],
      "name": "approve",
      "outputs": [],
      "stateMutability": "nonpayable",
      "type": "function"
    },
    {
      "inputs": [
        {
          "internalType": "address",
          "name": "owner",
          "type": "address"
        }
      ],
      "name": "balanceOf",
      "outputs": [
        {
          "internalType": "uint256",
          "name": "",
          "type": "uint256"
        }
      ],
      "stateMutability": "view",
      "type": "function"
    },
    {
      "inputs": [],
      "name": "baseTokenURI",
      "outputs": [
        {
          "internalType": "string",
          "name": "",
          "type": "string"
        }
      ],
      "stateMutability": "view",
      "type": "function"
    },
    {
      "inputs": [
        {
          "internalType": "uint256",
          "name": "tokenId",
          "type": "uint256"
        }
      ],
      "name": "burn",
      "outputs": [],
      "stateMutability": "nonpayable",
      "type": "function"
    },
    {
      "inputs": [
        {
          "internalType": "uint256",
          "name": "tokenId",
          "type": "uint256"
        }
      ],
      "name": "getApproved",
      "outputs": [
        {
          "internalType": "address",
          "name": "",
          "type": "address"
        }
      ],
      "stateMutability": "view",
      "type": "function"
    },
    {
      "inputs": [
        {
          "internalType": "address",
          "name": "_to",
          "type": "address"
        },
        {
          "internalType": "uint256",
          "name": "_quantity",
          "type": "uint256"
        }
      ],
      "name": "giveawayMint",
      "outputs": [],
      "stateMutability": "nonpayable",
      "type": "function"
    },
    {
      "inputs": [
        {
          "internalType": "address",
          "name": "owner",
          "type": "address"
        },
        {
          "internalType": "address",
          "name": "operator",
          "type": "address"
        }
      ],
      "name": "isApprovedForAll",
      "outputs": [
        {
          "internalType": "bool",
          "name": "",
          "type": "bool"
        }
      ],
      "stateMutability": "view",
      "type": "function"
    },
    {
      "inputs": [],
      "name": "maxMummies",
      "outputs": [
        {
          "internalType": "uint256",
          "name": "",
          "type": "uint256"
        }
      ],
      "stateMutability": "view",
      "type": "function"
    },
    {
      "inputs": [],
      "name": "maxWhitelist",
      "outputs": [
        {
          "internalType": "uint256",
          "name": "",
          "type": "uint256"
        }
      ],
      "stateMutability": "view",
      "type": "function"
    },
    {
      "inputs": [],
      "name": "mintLimitPerWallet",
      "outputs": [
        {
          "internalType": "uint256",
          "name": "",
          "type": "uint256"
        }
      ],
      "stateMutability": "view",
      "type": "function"
    },
    {
      "inputs": [],
      "name": "name",
      "outputs": [
        {
          "internalType": "string",
          "name": "",
          "type": "string"
        }
      ],
      "stateMutability": "view",
      "type": "function"
    },
    {
      "inputs": [],
      "name": "owner",
      "outputs": [
        {
          "internalType": "address",
          "name": "",
          "type": "address"
        }
      ],
      "stateMutability": "view",
      "type": "function"
    },
    {
      "inputs": [
        {
          "internalType": "uint256",
          "name": "tokenId",
          "type": "uint256"
        }
      ],
      "name": "ownerOf",
      "outputs": [
        {
          "internalType": "address",
          "name": "",
          "type": "address"
        }
      ],
      "stateMutability": "view",
      "type": "function"
    },
    {
      "inputs": [],
      "name": "pause",
      "outputs": [],
      "stateMutability": "nonpayable",
      "type": "function"
    },
    {
      "inputs": [],
      "name": "paused",
      "outputs": [
        {
          "internalType": "bool",
          "name": "",
          "type": "bool"
        }
      ],
      "stateMutability": "view",
      "type": "function"
    },
    {
      "inputs": [
        {
          "internalType": "uint256",
          "name": "_quantity",
          "type": "uint256"
        }
      ],
      "name": "publicMint",
      "outputs": [],
      "stateMutability": "payable",
      "type": "function"
    },
    {
      "inputs": [],
      "name": "renounceOwnership",
      "outputs": [],
      "stateMutability": "nonpayable",
      "type": "function"
    },
    {
      "inputs": [
        {
          "internalType": "uint256",
          "name": "",
          "type": "uint256"
        },
        {
          "internalType": "uint256",
          "name": "salePrice",
          "type": "uint256"
        }
      ],
      "name": "royaltyInfo",
      "outputs": [
        {
          "internalType": "address",
          "name": "receiver",
          "type": "address"
        },
        {
          "internalType": "uint256",
          "name": "royaltyAmount",
          "type": "uint256"
        }
      ],
      "stateMutability": "view",
      "type": "function"
    },
    {
      "inputs": [
        {
          "internalType": "address",
          "name": "from",
          "type": "address"
        },
        {
          "internalType": "address",
          "name": "to",
          "type": "address"
        },
        {
          "internalType": "uint256",
          "name": "tokenId",
          "type": "uint256"
        }
      ],
      "name": "safeTransferFrom",
      "outputs": [],
      "stateMutability": "nonpayable",
      "type": "function"
    },
    {
      "inputs": [
        {
          "internalType": "address",
          "name": "from",
          "type": "address"
        },
        {
          "internalType": "address",
          "name": "to",
          "type": "address"
        },
        {
          "internalType": "uint256",
          "name": "tokenId",
          "type": "uint256"
        },
        {
          "internalType": "bytes",
          "name": "_data",
          "type": "bytes"
        }
      ],
      "name": "safeTransferFrom",
      "outputs": [],
      "stateMutability": "nonpayable",
      "type": "function"
    },
    {
      "inputs": [
        {
          "internalType": "address",
          "name": "operator",
          "type": "address"
        },
        {
          "internalType": "bool",
          "name": "approved",
          "type": "bool"
        }
      ],
      "name": "setApprovalForAll",
      "outputs": [],
      "stateMutability": "nonpayable",
      "type": "function"
    },
    {
      "inputs": [
        {
          "internalType": "string",
          "name": "baseURI",
          "type": "string"
        }
      ],
      "name": "setBaseURI",
      "outputs": [],
      "stateMutability": "nonpayable",
      "type": "function"
    },
    {
      "inputs": [
        {
          "internalType": "bool",
          "name": "_b",
          "type": "bool"
        }
      ],
      "name": "setPublicSale",
      "outputs": [],
      "stateMutability": "nonpayable",
      "type": "function"
    },
    {
      "inputs": [
        {
          "internalType": "bool",
          "name": "_b",
          "type": "bool"
        }
      ],
      "name": "setWhitelistSale",
      "outputs": [],
      "stateMutability": "nonpayable",
      "type": "function"
    },
    {
      "inputs": [
        {
          "internalType": "bytes4",
          "name": "interfaceId",
          "type": "bytes4"
        }
      ],
      "name": "supportsInterface",
      "outputs": [
        {
          "internalType": "bool",
          "name": "",
          "type": "bool"
        }
      ],
      "stateMutability": "view",
      "type": "function"
    },
    {
      "inputs": [],
      "name": "symbol",
      "outputs": [
        {
          "internalType": "string",
          "name": "",
          "type": "string"
        }
      ],
      "stateMutability": "view",
      "type": "function"
    },
    {
      "inputs": [
        {
          "internalType": "uint256",
          "name": "index",
          "type": "uint256"
        }
      ],
      "name": "tokenByIndex",
      "outputs": [
        {
          "internalType": "uint256",
          "name": "",
          "type": "uint256"
        }
      ],
      "stateMutability": "view",
      "type": "function"
    },
    {
      "inputs": [
        {
          "internalType": "address",
          "name": "owner",
          "type": "address"
        },
        {
          "internalType": "uint256",
          "name": "index",
          "type": "uint256"
        }
      ],
      "name": "tokenOfOwnerByIndex",
      "outputs": [
        {
          "internalType": "uint256",
          "name": "",
          "type": "uint256"
        }
      ],
      "stateMutability": "view",
      "type": "function"
    },
    {
      "inputs": [
        {
          "internalType": "uint256",
          "name": "tokenId",
          "type": "uint256"
        }
      ],
      "name": "tokenURI",
      "outputs": [
        {
          "internalType": "string",
          "name": "",
          "type": "string"
        }
      ],
      "stateMutability": "view",
      "type": "function"
    },
    {
      "inputs": [],
      "name": "totalSupply",
      "outputs": [
        {
          "internalType": "uint256",
          "name": "",
          "type": "uint256"
        }
      ],
      "stateMutability": "view",
      "type": "function"
    },
    {
      "inputs": [
        {
          "internalType": "address",
          "name": "from",
          "type": "address"
        },
        {
          "internalType": "address",
          "name": "to",
          "type": "address"
        },
        {
          "internalType": "uint256",
          "name": "tokenId",
          "type": "uint256"
        }
      ],
      "name": "transferFrom",
      "outputs": [],
      "stateMutability": "nonpayable",
      "type": "function"
    },
    {
      "inputs": [
        {
          "internalType": "address",
          "name": "newOwner",
          "type": "address"
        }
      ],
      "name": "transferOwnership",
      "outputs": [],
      "stateMutability": "nonpayable",
      "type": "function"
    },
    {
      "inputs": [],
      "name": "unpause",
      "outputs": [],
      "stateMutability": "nonpayable",
      "type": "function"
    },
    {
      "inputs": [
        {
          "internalType": "bytes32[]",
          "name": "_merkleProof",
          "type": "bytes32[]"
        },
        {
          "internalType": "uint256",
          "name": "_quantity",
          "type": "uint256"
        }
      ],
      "name": "whitelistMint",
      "outputs": [],
      "stateMutability": "payable",
      "type": "function"
    },
    {
      "inputs": [],
      "name": "whitelistedMummiesMinted",
      "outputs": [
        {
          "internalType": "uint256",
          "name": "",
          "type": "uint256"
        }
      ],
      "stateMutability": "view",
      "type": "function"
    },
    {
      "inputs": [],
      "name": "widthdraw",
      "outputs": [],
      "stateMutability": "nonpayable",
      "type": "function"
    }
  ],
  "bytecode": "0x608060405260006009819055600a819055600b55600e805461ffff191690553480156200002b57600080fd5b50604051620030e7380380620030e78339810160408190526200004e9162000306565b8651879087906200006790600190602085019062000193565b5080516200007d90600290602084019062000193565b50506001600755506200009033620000c9565b6008805460ff60a01b191690556009859055600a849055600b839055600c819055620000bc826200011b565b50505050505050620003fb565b600880546001600160a01b038381166001600160a01b0319831681179093556040519116919082907f8be0079c531659141344cd1fd0a4f28419497f9722a3daafe3b4186f6b6457e090600090a35050565b6008546001600160a01b031633146200017a5760405162461bcd60e51b815260206004820181905260248201527f4f776e61626c653a2063616c6c6572206973206e6f7420746865206f776e6572604482015260640160405180910390fd5b80516200018f90600d90602084019062000193565b5050565b828054620001a190620003be565b90600052602060002090601f016020900481019282620001c5576000855562000210565b82601f10620001e057805160ff191683800117855562000210565b8280016001018555821562000210579182015b8281111562000210578251825591602001919060010190620001f3565b506200021e92915062000222565b5090565b5b808211156200021e576000815560010162000223565b634e487b7160e01b600052604160045260246000fd5b600082601f8301126200026157600080fd5b81516001600160401b03808211156200027e576200027e62000239565b604051601f8301601f19908116603f01168101908282118183101715620002a957620002a962000239565b81604052838152602092508683858801011115620002c657600080fd5b600091505b83821015620002ea5785820183015181830184015290820190620002cb565b83821115620002fc5760008385830101525b9695505050505050565b600080600080600080600060e0888a0312156200032257600080fd5b87516001600160401b03808211156200033a57600080fd5b620003488b838c016200024f565b985060208a01519150808211156200035f57600080fd5b6200036d8b838c016200024f565b975060408a0151965060608a0151955060808a0151945060a08a01519150808211156200039957600080fd5b50620003a88a828b016200024f565b92505060c0880151905092959891949750929550565b600181811c90821680620003d357607f821691505b60208210811415620003f557634e487b7160e01b600052602260045260246000fd5b50919050565b612cdc806200040b6000396000f3fe6080604052600436106102a05760003560e01c806355f804b31161016e57806395d89b41116100cb578063ca7ce3ec1161007f578063e0f9b47911610064578063e0f9b47914610700578063e985e9c514610716578063f2fde38b1461075f57600080fd5b8063ca7ce3ec146106cb578063d547cfb7146106eb57600080fd5b8063b88d4fde116100b0578063b88d4fde14610675578063bf0d96c314610695578063c87b56dd146106ab57600080fd5b806395d89b4114610640578063a22cb4651461065557600080fd5b806370a08231116101225780638456cb59116101075780638456cb59146105f85780638da5cb5b1461060d5780638e7170b01461062b57600080fd5b806370a08231146105c3578063715018a6146105e357600080fd5b80635c975abb116101535780635c975abb14610568578063611f3f10146105875780636352211e146105a357600080fd5b806355f804b3146105285780635aca1bb61461054857600080fd5b80632a55205a1161021c57806340e37ff1116101d057806342966c68116101b557806342966c68146104d35780634f6ccce7146104f357806352b50a2a1461051357600080fd5b806340e37ff11461049e57806342842e0e146104b357600080fd5b80632f745c59116102015780632f745c59146104535780633007d626146104735780633f4ba83a1461048957600080fd5b80632a55205a146104015780632db115441461044057600080fd5b8063095ea7b31161027357806318160ddd1161025857806318160ddd1461039f57806323b872dd146103ce5780632904e6d9146103ee57600080fd5b8063095ea7b31461035657806317e7f2951461037657600080fd5b806301ffc9a7146102a557806304826624146102da57806306fdde03146102fc578063081812fc1461031e575b600080fd5b3480156102b157600080fd5b506102c56102c036600461273c565b61077f565b60405190151581526020015b60405180910390f35b3480156102e657600080fd5b506102fa6102f5366004612775565b6107aa565b005b34801561030857600080fd5b50610311610863565b6040516102d191906127f7565b34801561032a57600080fd5b5061033e61033936600461280a565b6108f5565b6040516001600160a01b0390911681526020016102d1565b34801561036257600080fd5b506102fa610371366004612775565b610939565b34801561038257600080fd5b50610391669184e72a00000081565b6040519081526020016102d1565b3480156103ab57600080fd5b506103916000546001600160801b03600160801b82048116918116919091031690565b3480156103da57600080fd5b506102fa6103e9366004612823565b6109c7565b6102fa6103fc36600461285f565b6109d2565b34801561040d57600080fd5b5061042161041c3660046128da565b610e54565b604080516001600160a01b0390931683526020830191909152016102d1565b6102fa61044e36600461280a565b610e7a565b34801561045f57600080fd5b5061039161046e366004612775565b6110ee565b34801561047f57600080fd5b5061039160095481565b34801561049557600080fd5b506102fa6111eb565b3480156104aa57600080fd5b50610391600281565b3480156104bf57600080fd5b506102fa6104ce366004612823565b61123d565b3480156104df57600080fd5b506102fa6104ee36600461280a565b611258565b3480156104ff57600080fd5b5061039161050e36600461280a565b6112d5565b34801561051f57600080fd5b506102fa611380565b34801561053457600080fd5b506102fa610543366004612988565b6113f1565b34801561055457600080fd5b506102fa6105633660046129e1565b61144c565b34801561057457600080fd5b50600854600160a01b900460ff166102c5565b34801561059357600080fd5b5061039167012309ce5400000081565b3480156105af57600080fd5b5061033e6105be36600461280a565b6114e8565b3480156105cf57600080fd5b506103916105de3660046129fc565b6114fa565b3480156105ef57600080fd5b506102fa611549565b34801561060457600080fd5b506102fa61159b565b34801561061957600080fd5b506008546001600160a01b031661033e565b34801561063757600080fd5b506103916115eb565b34801561064c57600080fd5b506103116115fb565b34801561066157600080fd5b506102fa610670366004612a17565b61160a565b34801561068157600080fd5b506102fa610690366004612a4a565b6116a0565b3480156106a157600080fd5b50610391600a5481565b3480156106b757600080fd5b506103116106c636600461280a565b6116da565b3480156106d757600080fd5b506102fa6106e63660046129e1565b61175f565b3480156106f757600080fd5b506103116117e8565b34801561070c57600080fd5b50610391600b5481565b34801561072257600080fd5b506102c5610731366004612ac6565b6001600160a01b03918216600090815260066020908152604080832093909416825291909152205460ff1690565b34801561076b57600080fd5b506102fa61077a3660046129fc565b611876565b60006001600160e01b0319821663152a902d60e11b14806107a457506107a482611943565b92915050565b6008546001600160a01b031633146107f75760405162461bcd60e51b81526020600482018190526024820152600080516020612c8783398151915260448201526064015b60405180910390fd5b60095461081c6000546001600160801b03600160801b82048116918116919091031690565b11156108555760405162461bcd60e51b8152602060048201526008602482015267536f6c646f75742160c01b60448201526064016107ee565b61085f82826119ae565b5050565b60606001805461087290612af0565b80601f016020809104026020016040519081016040528092919081815260200182805461089e90612af0565b80156108eb5780601f106108c0576101008083540402835291602001916108eb565b820191906000526020600020905b8154815290600101906020018083116108ce57829003601f168201915b5050505050905090565b6000610900826119b8565b61091d576040516333d1c03960e21b815260040160405180910390fd5b506000908152600560205260409020546001600160a01b031690565b6000610944826114e8565b9050806001600160a01b0316836001600160a01b031614156109795760405163250fdee360e21b815260040160405180910390fd5b336001600160a01b0382161480159061099957506109978133610731565b155b156109b7576040516367d9dca160e11b815260040160405180910390fd5b6109c28383836119ec565b505050565b6109c2838383611a55565b60026007541415610a255760405162461bcd60e51b815260206004820152601f60248201527f5265656e7472616e637947756172643a207265656e7472616e742063616c6c0060448201526064016107ee565b6002600755323314610a795760405162461bcd60e51b815260206004820152601e60248201527f5468652063616c6c657220697320616e6f7468657220636f6e7472616374000060448201526064016107ee565b600e5460ff16610acb5760405162461bcd60e51b815260206004820152601860248201527f57686974656c6973742073616c6573206e6f74206f70656e000000000000000060448201526064016107ee565b600a54610ad66115eb565b1115610b245760405162461bcd60e51b815260206004820152601260248201527f57686974656c69737420736f6c646f757421000000000000000000000000000060448201526064016107ee565b600954610b496000546001600160801b03600160801b82048116918116919091031690565b10610b815760405162461bcd60e51b8152602060048201526008602482015267536f6c646f75742160c01b60448201526064016107ee565b600854600160a01b900460ff1615610bce5760405162461bcd60e51b815260206004820152601060248201526f14185d5cd8589b194e881c185d5cd95960821b60448201526064016107ee565b600b54811115610c205760405162461bcd60e51b815260206004820152601a60248201527f4578636565646564206c696d6974207065722077616c6c65742100000000000060448201526064016107ee565b600a5481610c2c6115eb565b610c369190612b41565b1115610c845760405162461bcd60e51b815260206004820152601a60248201527f45786365656465642077686974656c69737420737570706c792100000000000060448201526064016107ee565b610c9581669184e72a000000612b59565b341015610ce45760405162461bcd60e51b815260206004820152601d60248201527f496e73756666696369656e74207061796d656e7420706572206974656d00000060448201526064016107ee565b600b54339082610cf3836114fa565b610cfd9190612b41565b1115610d4b5760405162461bcd60e51b815260206004820152601a60248201527f4578636565646564206c696d6974207065722077616c6c65742100000000000060448201526064016107ee565b6040516bffffffffffffffffffffffff19606083901b166020820152600090603401604051602081830303815290604052805190602001209050610dc685858080602002602001604051908101604052809392919081815260200183836020028082843760009201919091525050600c549150849050611c74565b610e125760405162461bcd60e51b815260206004820152600f60248201527f4e6f742077686974656c6973746564000000000000000000000000000000000060448201526064016107ee565b60005b83811015610e3d57610e2b600f80546001019055565b80610e3581612b78565b915050610e15565b50610e4882846119ae565b50506001600755505050565b600080306064610e65600286612b59565b610e6f9190612ba9565b915091509250929050565b323314610ec95760405162461bcd60e51b815260206004820152601e60248201527f5468652063616c6c657220697320616e6f7468657220636f6e7472616374000060448201526064016107ee565b600e54610100900460ff16610f205760405162461bcd60e51b815260206004820152601560248201527f5075626c69632073616c6573206e6f74206f70656e000000000000000000000060448201526064016107ee565b600954610f456000546001600160801b03600160801b82048116918116919091031690565b10610f7d5760405162461bcd60e51b8152602060048201526008602482015267536f6c646f75742160c01b60448201526064016107ee565b600854600160a01b900460ff1615610fca5760405162461bcd60e51b815260206004820152601060248201526f14185d5cd8589b194e881c185d5cd95960821b60448201526064016107ee565b600b5481111561101c5760405162461bcd60e51b815260206004820152601a60248201527f4578636565646564206c696d6974207065722077616c6c65742100000000000060448201526064016107ee565b600b5433908261102b836114fa565b6110359190612b41565b11156110835760405162461bcd60e51b815260206004820152601a60248201527f4578636565646564206c696d6974207065722077616c6c65742100000000000060448201526064016107ee565b6110958267012309ce54000000612b59565b3410156110e45760405162461bcd60e51b815260206004820152601d60248201527f496e73756666696369656e74207061796d656e7420706572206974656d00000060448201526064016107ee565b61085f81836119ae565b60006110f9836114fa565b8210611118576040516306ed618760e11b815260040160405180910390fd5b600080546001600160801b03169080805b838110156111e557600081815260036020908152604091829020825160608101845290546001600160a01b0381168252600160a01b810467ffffffffffffffff1692820192909252600160e01b90910460ff16158015928201929092529061119157506111dd565b80516001600160a01b0316156111a657805192505b876001600160a01b0316836001600160a01b031614156111db57868414156111d4575093506107a492505050565b6001909301925b505b600101611129565b50600080fd5b6008546001600160a01b031633146112335760405162461bcd60e51b81526020600482018190526024820152600080516020612c8783398151915260448201526064016107ee565b61123b611c8a565b565b6109c2838383604051806020016040528060008152506116a0565b600061126382611d30565b80519091506000906001600160a01b0316336001600160a01b03161480611291575081516112919033610731565b806112ac5750336112a1846108f5565b6001600160a01b0316145b9050806112cc57604051632ce44b5f60e11b815260040160405180910390fd5b6109c283611e54565b600080546001600160801b031681805b8281101561136657600081815260036020908152604091829020825160608101845290546001600160a01b0381168252600160a01b810467ffffffffffffffff1692820192909252600160e01b90910460ff1615159181018290529061135d57858314156113565750949350505050565b6001909201915b506001016112e5565b506040516329c8c00760e21b815260040160405180910390fd5b6008546001600160a01b031633146113c85760405162461bcd60e51b81526020600482018190526024820152600080516020612c8783398151915260448201526064016107ee565b47806113d357600080fd5b6113ee6113e86008546001600160a01b031690565b82612028565b50565b6008546001600160a01b031633146114395760405162461bcd60e51b81526020600482018190526024820152600080516020612c8783398151915260448201526064016107ee565b805161085f90600d90602084019061268d565b6008546001600160a01b031633146114945760405162461bcd60e51b81526020600482018190526024820152600080516020612c8783398151915260448201526064016107ee565b600e80548215156101000261ff00199091161790556040517f819bd618bf2c153d8a6d9e6174bc4b17fdff7d7e295b8a3242690b290bfc94a3906114dd90831515815260200190565b60405180910390a150565b60006114f382611d30565b5192915050565b60006001600160a01b038216611523576040516323d3ad8160e21b815260040160405180910390fd5b506001600160a01b031660009081526004602052604090205467ffffffffffffffff1690565b6008546001600160a01b031633146115915760405162461bcd60e51b81526020600482018190526024820152600080516020612c8783398151915260448201526064016107ee565b61123b6000612141565b6008546001600160a01b031633146115e35760405162461bcd60e51b81526020600482018190526024820152600080516020612c8783398151915260448201526064016107ee565b61123b6121a0565b60006115f6600f5490565b905090565b60606002805461087290612af0565b6001600160a01b0382163314156116345760405163b06307db60e01b815260040160405180910390fd5b3360008181526006602090815260408083206001600160a01b03871680855290835292819020805460ff191686151590811790915590519081529192917f17307eab39ab6107e8899845ad3d59bd9653f200f220920489ca2b5937696c31910160405180910390a35050565b6116ab848484611a55565b6116b784848484612228565b6116d4576040516368d2bf6b60e11b815260040160405180910390fd5b50505050565b60606116e5826119b8565b61170257604051630a14c4b560e41b815260040160405180910390fd5b600061170c612337565b905080516000141561172d5760405180602001604052806000815250611758565b8061173784612346565b604051602001611748929190612bbd565b6040516020818303038152906040525b9392505050565b6008546001600160a01b031633146117a75760405162461bcd60e51b81526020600482018190526024820152600080516020612c8783398151915260448201526064016107ee565b600e805460ff19168215159081179091556040519081527fbbfb0dda705aa1c7368a1e31138d53b5eebfd36eb343b4560d9bdf0a50e9a4ce906020016114dd565b600d80546117f590612af0565b80601f016020809104026020016040519081016040528092919081815260200182805461182190612af0565b801561186e5780601f106118435761010080835404028352916020019161186e565b820191906000526020600020905b81548152906001019060200180831161185157829003601f168201915b505050505081565b6008546001600160a01b031633146118be5760405162461bcd60e51b81526020600482018190526024820152600080516020612c8783398151915260448201526064016107ee565b6001600160a01b03811661193a5760405162461bcd60e51b815260206004820152602660248201527f4f776e61626c653a206e6577206f776e657220697320746865207a65726f206160448201527f646472657373000000000000000000000000000000000000000000000000000060648201526084016107ee565b6113ee81612141565b60006001600160e01b031982166380ac58cd60e01b148061197457506001600160e01b03198216635b5e139f60e01b145b8061198f57506001600160e01b0319821663780e9d6360e01b145b806107a457506301ffc9a760e01b6001600160e01b03198316146107a4565b61085f828261245c565b600080546001600160801b0316821080156107a4575050600090815260036020526040902054600160e01b900460ff161590565b600082815260056020526040808220805473ffffffffffffffffffffffffffffffffffffffff19166001600160a01b0387811691821790925591518593918516917f8c5be1e5ebec7d5bd14f71427d1e84f3dd0314c0f7b2291e5b200ac8c7c3b92591a4505050565b6000611a6082611d30565b80519091506000906001600160a01b0316336001600160a01b03161480611a8e57508151611a8e9033610731565b80611aa9575033611a9e846108f5565b6001600160a01b0316145b905080611ac957604051632ce44b5f60e11b815260040160405180910390fd5b846001600160a01b031682600001516001600160a01b031614611afe5760405162a1148160e81b815260040160405180910390fd5b6001600160a01b038416611b2557604051633a954ecd60e21b815260040160405180910390fd5b611b3560008484600001516119ec565b6001600160a01b038581166000908152600460209081526040808320805467ffffffffffffffff1980821667ffffffffffffffff92831660001901831617909255898616808652838620805493841693831660019081018416949094179055898652600390945282852080546001600160e01b031916909417600160a01b429092169190910217909255908601808352912054909116611c2a576000546001600160801b0316811015611c2a578251600082815260036020908152604090912080549186015167ffffffffffffffff16600160a01b026001600160e01b03199092166001600160a01b03909316929092171790555b5082846001600160a01b0316866001600160a01b03167fddf252ad1be2c89b69c2b068fc378daa952ba7f163c4a11628f55a4df523b3ef60405160405180910390a45b5050505050565b600082611c818584612476565b14949350505050565b600854600160a01b900460ff16611ce35760405162461bcd60e51b815260206004820152601460248201527f5061757361626c653a206e6f742070617573656400000000000000000000000060448201526064016107ee565b6008805460ff60a01b191690557f5db9ee0a495bf2e6ff9c91a7834c1ba4fdd244a5e8aa4e537bd38aeae4b073aa335b6040516001600160a01b03909116815260200160405180910390a1565b60408051606081018252600080825260208201819052918101829052905482906001600160801b0316811015611e3b57600081815260036020908152604091829020825160608101845290546001600160a01b0381168252600160a01b810467ffffffffffffffff1692820192909252600160e01b90910460ff16151591810182905290611e395780516001600160a01b031615611dcf579392505050565b5060001901600081815260036020908152604091829020825160608101845290546001600160a01b038116808352600160a01b820467ffffffffffffffff1693830193909352600160e01b900460ff1615159281019290925215611e34579392505050565b611dcf565b505b604051636f96cda160e11b815260040160405180910390fd5b6000611e5f82611d30565b9050611e7160008383600001516119ec565b80516001600160a01b039081166000908152600460209081526040808320805467ffffffffffffffff19811667ffffffffffffffff9182166000190182161790915585518516845281842080547fffffffffffffffff0000000000000000ffffffffffffffffffffffffffffffff8116600160801b9182900484166001908101851690920217909155865188865260039094528285208054600160e01b9588166001600160e01b031990911617600160a01b4290941693909302929092177fffffff00ffffffffffffffffffffffffffffffffffffffffffffffffffffffff16939093179055908501808352912054909116611fc2576000546001600160801b0316811015611fc2578151600082815260036020908152604090912080549185015167ffffffffffffffff16600160a01b026001600160e01b03199092166001600160a01b03909316929092171790555b50805160405183916000916001600160a01b03909116907fddf252ad1be2c89b69c2b068fc378daa952ba7f163c4a11628f55a4df523b3ef908390a450506000805460016001600160801b03600160801b80840482169290920181169091029116179055565b804710156120785760405162461bcd60e51b815260206004820152601d60248201527f416464726573733a20696e73756666696369656e742062616c616e636500000060448201526064016107ee565b6000826001600160a01b03168260405160006040518083038185875af1925050503d80600081146120c5576040519150601f19603f3d011682016040523d82523d6000602084013e6120ca565b606091505b50509050806109c25760405162461bcd60e51b815260206004820152603a60248201527f416464726573733a20756e61626c6520746f2073656e642076616c75652c207260448201527f6563697069656e74206d6179206861766520726576657274656400000000000060648201526084016107ee565b600880546001600160a01b0383811673ffffffffffffffffffffffffffffffffffffffff19831681179093556040519116919082907f8be0079c531659141344cd1fd0a4f28419497f9722a3daafe3b4186f6b6457e090600090a35050565b600854600160a01b900460ff16156121ed5760405162461bcd60e51b815260206004820152601060248201526f14185d5cd8589b194e881c185d5cd95960821b60448201526064016107ee565b6008805460ff60a01b1916600160a01b1790557f62e78cea01bee320cd4e420270b5ea74000d11b0c9f74754ebdbfc544b05a258611d133390565b60006001600160a01b0384163b1561232b57604051630a85bd0160e11b81526001600160a01b0385169063150b7a029061226c903390899088908890600401612bec565b602060405180830381600087803b15801561228657600080fd5b505af19250505080156122b6575060408051601f3d908101601f191682019092526122b391810190612c28565b60015b612311573d8080156122e4576040519150601f19603f3d011682016040523d82523d6000602084013e6122e9565b606091505b508051612309576040516368d2bf6b60e11b815260040160405180910390fd5b805181602001fd5b6001600160e01b031916630a85bd0160e11b14905061232f565b5060015b949350505050565b6060600d805461087290612af0565b60608161236a5750506040805180820190915260018152600360fc1b602082015290565b8160005b8115612394578061237e81612b78565b915061238d9050600a83612ba9565b915061236e565b60008167ffffffffffffffff8111156123af576123af6128fc565b6040519080825280601f01601f1916602001820160405280156123d9576020820181803683370190505b5090505b841561232f576123ee600183612c45565b91506123fb600a86612c5c565b612406906030612b41565b60f81b81838151811061241b5761241b612c70565b60200101907effffffffffffffffffffffffffffffffffffffffffffffffffffffffffffff1916908160001a905350612455600a86612ba9565b94506123dd565b61085f8282604051806020016040528060008152506124ea565b600081815b84518110156124e257600085828151811061249857612498612c70565b602002602001015190508083116124be57600083815260208290526040902092506124cf565b600081815260208490526040902092505b50806124da81612b78565b91505061247b565b509392505050565b6109c283838360016000546001600160801b03166001600160a01b03851661252457604051622e076360e81b815260040160405180910390fd5b836125425760405163b562e8dd60e01b815260040160405180910390fd5b6001600160a01b038516600081815260046020908152604080832080546fffffffffffffffffffffffffffffffff19811667ffffffffffffffff8083168c0181169182176801000000000000000067ffffffffffffffff1990941690921783900481168c018116909202179091558584526003909252822080546001600160e01b031916909317600160a01b42909216919091021790915581905b8581101561265e5760405182906001600160a01b038916906000907fddf252ad1be2c89b69c2b068fc378daa952ba7f163c4a11628f55a4df523b3ef908290a483801561263457506126326000888488612228565b155b15612652576040516368d2bf6b60e11b815260040160405180910390fd5b600191820191016125dd565b50600080546fffffffffffffffffffffffffffffffff19166001600160801b0392909216919091179055611c6d565b82805461269990612af0565b90600052602060002090601f0160209004810192826126bb5760008555612701565b82601f106126d457805160ff1916838001178555612701565b82800160010185558215612701579182015b828111156127015782518255916020019190600101906126e6565b5061270d929150612711565b5090565b5b8082111561270d5760008155600101612712565b6001600160e01b0319811681146113ee57600080fd5b60006020828403121561274e57600080fd5b813561175881612726565b80356001600160a01b038116811461277057600080fd5b919050565b6000806040838503121561278857600080fd5b61279183612759565b946020939093013593505050565b60005b838110156127ba5781810151838201526020016127a2565b838111156116d45750506000910152565b600081518084526127e381602086016020860161279f565b601f01601f19169290920160200192915050565b60208152600061175860208301846127cb565b60006020828403121561281c57600080fd5b5035919050565b60008060006060848603121561283857600080fd5b61284184612759565b925061284f60208501612759565b9150604084013590509250925092565b60008060006040848603121561287457600080fd5b833567ffffffffffffffff8082111561288c57600080fd5b818601915086601f8301126128a057600080fd5b8135818111156128af57600080fd5b8760208260051b85010111156128c457600080fd5b6020928301989097509590910135949350505050565b600080604083850312156128ed57600080fd5b50508035926020909101359150565b634e487b7160e01b600052604160045260246000fd5b600067ffffffffffffffff8084111561292d5761292d6128fc565b604051601f8501601f19908116603f01168101908282118183101715612955576129556128fc565b8160405280935085815286868601111561296e57600080fd5b858560208301376000602087830101525050509392505050565b60006020828403121561299a57600080fd5b813567ffffffffffffffff8111156129b157600080fd5b8201601f810184136129c257600080fd5b61232f84823560208401612912565b8035801515811461277057600080fd5b6000602082840312156129f357600080fd5b611758826129d1565b600060208284031215612a0e57600080fd5b61175882612759565b60008060408385031215612a2a57600080fd5b612a3383612759565b9150612a41602084016129d1565b90509250929050565b60008060008060808587031215612a6057600080fd5b612a6985612759565b9350612a7760208601612759565b925060408501359150606085013567ffffffffffffffff811115612a9a57600080fd5b8501601f81018713612aab57600080fd5b612aba87823560208401612912565b91505092959194509250565b60008060408385031215612ad957600080fd5b612ae283612759565b9150612a4160208401612759565b600181811c90821680612b0457607f821691505b60208210811415612b2557634e487b7160e01b600052602260045260246000fd5b50919050565b634e487b7160e01b600052601160045260246000fd5b60008219821115612b5457612b54612b2b565b500190565b6000816000190483118215151615612b7357612b73612b2b565b500290565b6000600019821415612b8c57612b8c612b2b565b5060010190565b634e487b7160e01b600052601260045260246000fd5b600082612bb857612bb8612b93565b500490565b60008351612bcf81846020880161279f565b835190830190612be381836020880161279f565b01949350505050565b60006001600160a01b03808716835280861660208401525083604083015260806060830152612c1e60808301846127cb565b9695505050505050565b600060208284031215612c3a57600080fd5b815161175881612726565b600082821015612c5757612c57612b2b565b500390565b600082612c6b57612c6b612b93565b500690565b634e487b7160e01b600052603260045260246000fdfe4f776e61626c653a2063616c6c6572206973206e6f7420746865206f776e6572a2646970667358221220c5208c6127ecef5bd19e813803a2ab3b84c7aab932809380107d251e2505f5aa64736f6c63430008090033",
  "linkReferences": {},
  "deployedLinkReferences": {}
}