{
  "_format": "hh-sol-artifact-1",
  "contractName": "NoMaGuildTest",
  "sourceName": "contracts/NoMaGuildTest.sol",
  "abi": [
    {
      "inputs": [
        {
          "internalType": "string",
          "name": "_symbol",
          "type": "string"
        },
        {
          "internalType": "string",
          "name": "_name",
          "type": "string"
        },
        {
          "internalType": "uint256",
          "name": "_maxMummies",
          "type": "uint256"
        },
        {
          "internalType": "uint256",
          "name": "_maxWhitelist",
          "type": "uint256"
        },
        {
          "internalType": "uint256",
          "name": "_mintLimitPerWallet",
          "type": "uint256"
        },
        {
          "internalType": "string",
          "name": "baseURI",
          "type": "string"
        },
        {
          "internalType": "bytes32",
          "name": "_merkleRoot",
          "type": "bytes32"
        }
      ],
      "stateMutability": "nonpayable",
      "type": "constructor"
    },
    {
      "inputs": [],
      "name": "ApprovalCallerNotOwnerNorApproved",
      "type": "error"
    },
    {
      "inputs": [],
      "name": "ApprovalQueryForNonexistentToken",
      "type": "error"
    },
    {
      "inputs": [],
      "name": "ApprovalToCurrentOwner",
      "type": "error"
    },
    {
      "inputs": [],
      "name": "ApproveToCaller",
      "type": "error"
    },
    {
      "inputs": [],
      "name": "BalanceQueryForZeroAddress",
      "type": "error"
    },
    {
      "inputs": [],
      "name": "MintToZeroAddress",
      "type": "error"
    },
    {
      "inputs": [],
      "name": "MintZeroQuantity",
      "type": "error"
    },
    {
      "inputs": [],
      "name": "OwnerIndexOutOfBounds",
      "type": "error"
    },
    {
      "inputs": [],
      "name": "OwnerQueryForNonexistentToken",
      "type": "error"
    },
    {
      "inputs": [],
      "name": "TokenIndexOutOfBounds",
      "type": "error"
    },
    {
      "inputs": [],
      "name": "TransferCallerNotOwnerNorApproved",
      "type": "error"
    },
    {
      "inputs": [],
      "name": "TransferFromIncorrectOwner",
      "type": "error"
    },
    {
      "inputs": [],
      "name": "TransferToNonERC721ReceiverImplementer",
      "type": "error"
    },
    {
      "inputs": [],
      "name": "TransferToZeroAddress",
      "type": "error"
    },
    {
      "inputs": [],
      "name": "URIQueryForNonexistentToken",
      "type": "error"
    },
    {
      "anonymous": false,
      "inputs": [
        {
          "indexed": true,
          "internalType": "address",
          "name": "owner",
          "type": "address"
        },
        {
          "indexed": true,
          "internalType": "address",
          "name": "approved",
          "type": "address"
        },
        {
          "indexed": true,
          "internalType": "uint256",
          "name": "tokenId",
          "type": "uint256"
        }
      ],
      "name": "Approval",
      "type": "event"
    },
    {
      "anonymous": false,
      "inputs": [
        {
          "indexed": true,
          "internalType": "address",
          "name": "owner",
          "type": "address"
        },
        {
          "indexed": true,
          "internalType": "address",
          "name": "operator",
          "type": "address"
        },
        {
          "indexed": false,
          "internalType": "bool",
          "name": "approved",
          "type": "bool"
        }
      ],
      "name": "ApprovalForAll",
      "type": "event"
    },
    {
      "anonymous": false,
      "inputs": [
        {
          "indexed": true,
          "internalType": "address",
          "name": "previousOwner",
          "type": "address"
        },
        {
          "indexed": true,
          "internalType": "address",
          "name": "newOwner",
          "type": "address"
        }
      ],
      "name": "OwnershipTransferred",
      "type": "event"
    },
    {
      "anonymous": false,
      "inputs": [
        {
          "indexed": false,
          "internalType": "address",
          "name": "account",
          "type": "address"
        }
      ],
      "name": "Paused",
      "type": "event"
    },
    {
      "anonymous": false,
      "inputs": [
        {
          "indexed": false,
          "internalType": "bool",
          "name": "pause",
          "type": "bool"
        }
      ],
      "name": "PublicSaleEvent",
      "type": "event"
    },
    {
      "anonymous": false,
      "inputs": [
        {
          "indexed": true,
          "internalType": "address",
          "name": "from",
          "type": "address"
        },
        {
          "indexed": true,
          "internalType": "address",
          "name": "to",
          "type": "address"
        },
        {
          "indexed": true,
          "internalType": "uint256",
          "name": "tokenId",
          "type": "uint256"
        }
      ],
      "name": "Transfer",
      "type": "event"
    },
    {
      "anonymous": false,
      "inputs": [
        {
          "indexed": false,
          "internalType": "address",
          "name": "account",
          "type": "address"
        }
      ],
      "name": "Unpaused",
      "type": "event"
    },
    {
      "anonymous": false,
      "inputs": [
        {
          "indexed": false,
          "internalType": "bool",
          "name": "pause",
          "type": "bool"
        }
      ],
      "name": "WhitelistSaleEvent",
      "type": "event"
    },
    {
      "inputs": [],
      "name": "PUBLIC_PRICE",
      "outputs": [
        {
          "internalType": "uint256",
          "name": "",
          "type": "uint256"
        }
      ],
      "stateMutability": "view",
      "type": "function"
    },
    {
      "inputs": [],
      "name": "ROYALTY_RATE",
      "outputs": [
        {
          "internalType": "uint256",
          "name": "",
          "type": "uint256"
        }
      ],
      "stateMutability": "view",
      "type": "function"
    },
    {
      "inputs": [],
      "name": "WHITELIST_PRICE",
      "outputs": [
        {
          "internalType": "uint256",
          "name": "",
          "type": "uint256"
        }
      ],
      "stateMutability": "view",
      "type": "function"
    },
    {
      "inputs": [
        {
          "internalType": "address",
          "name": "to",
          "type": "address"
        },
        {
          "internalType": "uint256",
          "name": "tokenId",
          "type": "uint256"
        }
      ],
      "name": "approve",
      "outputs": [],
      "stateMutability": "nonpayable",
      "type": "function"
    },
    {
      "inputs": [
        {
          "internalType": "address",
          "name": "owner",
          "type": "address"
        }
      ],
      "name": "balanceOf",
      "outputs": [
        {
          "internalType": "uint256",
          "name": "",
          "type": "uint256"
        }
      ],
      "stateMutability": "view",
      "type": "function"
    },
    {
      "inputs": [],
      "name": "baseTokenURI",
      "outputs": [
        {
          "internalType": "string",
          "name": "",
          "type": "string"
        }
      ],
      "stateMutability": "view",
      "type": "function"
    },
    {
      "inputs": [
        {
          "internalType": "uint256",
          "name": "tokenId",
          "type": "uint256"
        }
      ],
      "name": "burn",
      "outputs": [],
      "stateMutability": "nonpayable",
      "type": "function"
    },
    {
      "inputs": [
        {
          "internalType": "uint256",
          "name": "tokenId",
          "type": "uint256"
        }
      ],
      "name": "getApproved",
      "outputs": [
        {
          "internalType": "address",
          "name": "",
          "type": "address"
        }
      ],
      "stateMutability": "view",
      "type": "function"
    },
    {
      "inputs": [],
      "name": "getBaseURI",
      "outputs": [
        {
          "internalType": "string",
          "name": "",
          "type": "string"
        }
      ],
      "stateMutability": "view",
      "type": "function"
    },
    {
      "inputs": [
        {
          "internalType": "address",
          "name": "_to",
          "type": "address"
        },
        {
          "internalType": "uint256",
          "name": "_quantity",
          "type": "uint256"
        }
      ],
      "name": "giveawayMint",
      "outputs": [],
      "stateMutability": "nonpayable",
      "type": "function"
    },
    {
      "inputs": [
        {
          "internalType": "address",
          "name": "owner",
          "type": "address"
        },
        {
          "internalType": "address",
          "name": "operator",
          "type": "address"
        }
      ],
      "name": "isApprovedForAll",
      "outputs": [
        {
          "internalType": "bool",
          "name": "",
          "type": "bool"
        }
      ],
      "stateMutability": "view",
      "type": "function"
    },
    {
      "inputs": [],
      "name": "maxMummies",
      "outputs": [
        {
          "internalType": "uint256",
          "name": "",
          "type": "uint256"
        }
      ],
      "stateMutability": "view",
      "type": "function"
    },
    {
      "inputs": [],
      "name": "maxWhitelist",
      "outputs": [
        {
          "internalType": "uint256",
          "name": "",
          "type": "uint256"
        }
      ],
      "stateMutability": "view",
      "type": "function"
    },
    {
      "inputs": [],
      "name": "mintLimitPerWallet",
      "outputs": [
        {
          "internalType": "uint256",
          "name": "",
          "type": "uint256"
        }
      ],
      "stateMutability": "view",
      "type": "function"
    },
    {
      "inputs": [],
      "name": "name",
      "outputs": [
        {
          "internalType": "string",
          "name": "",
          "type": "string"
        }
      ],
      "stateMutability": "view",
      "type": "function"
    },
    {
      "inputs": [],
      "name": "openPublicSale",
      "outputs": [
        {
          "internalType": "bool",
          "name": "",
          "type": "bool"
        }
      ],
      "stateMutability": "view",
      "type": "function"
    },
    {
      "inputs": [],
      "name": "openWhitelistSale",
      "outputs": [
        {
          "internalType": "bool",
          "name": "",
          "type": "bool"
        }
      ],
      "stateMutability": "view",
      "type": "function"
    },
    {
      "inputs": [],
      "name": "owner",
      "outputs": [
        {
          "internalType": "address",
          "name": "",
          "type": "address"
        }
      ],
      "stateMutability": "view",
      "type": "function"
    },
    {
      "inputs": [
        {
          "internalType": "uint256",
          "name": "tokenId",
          "type": "uint256"
        }
      ],
      "name": "ownerOf",
      "outputs": [
        {
          "internalType": "address",
          "name": "",
          "type": "address"
        }
      ],
      "stateMutability": "view",
      "type": "function"
    },
    {
      "inputs": [],
      "name": "pause",
      "outputs": [],
      "stateMutability": "nonpayable",
      "type": "function"
    },
    {
      "inputs": [],
      "name": "paused",
      "outputs": [
        {
          "internalType": "bool",
          "name": "",
          "type": "bool"
        }
      ],
      "stateMutability": "view",
      "type": "function"
    },
    {
      "inputs": [
        {
          "internalType": "uint256",
          "name": "_quantity",
          "type": "uint256"
        }
      ],
      "name": "publicMint",
      "outputs": [],
      "stateMutability": "payable",
      "type": "function"
    },
    {
      "inputs": [],
      "name": "renounceOwnership",
      "outputs": [],
      "stateMutability": "nonpayable",
      "type": "function"
    },
    {
      "inputs": [
        {
          "internalType": "uint256",
          "name": "",
          "type": "uint256"
        },
        {
          "internalType": "uint256",
          "name": "salePrice",
          "type": "uint256"
        }
      ],
      "name": "royaltyInfo",
      "outputs": [
        {
          "internalType": "address",
          "name": "receiver",
          "type": "address"
        },
        {
          "internalType": "uint256",
          "name": "royaltyAmount",
          "type": "uint256"
        }
      ],
      "stateMutability": "view",
      "type": "function"
    },
    {
      "inputs": [
        {
          "internalType": "address",
          "name": "from",
          "type": "address"
        },
        {
          "internalType": "address",
          "name": "to",
          "type": "address"
        },
        {
          "internalType": "uint256",
          "name": "tokenId",
          "type": "uint256"
        }
      ],
      "name": "safeTransferFrom",
      "outputs": [],
      "stateMutability": "nonpayable",
      "type": "function"
    },
    {
      "inputs": [
        {
          "internalType": "address",
          "name": "from",
          "type": "address"
        },
        {
          "internalType": "address",
          "name": "to",
          "type": "address"
        },
        {
          "internalType": "uint256",
          "name": "tokenId",
          "type": "uint256"
        },
        {
          "internalType": "bytes",
          "name": "_data",
          "type": "bytes"
        }
      ],
      "name": "safeTransferFrom",
      "outputs": [],
      "stateMutability": "nonpayable",
      "type": "function"
    },
    {
      "inputs": [
        {
          "internalType": "address",
          "name": "operator",
          "type": "address"
        },
        {
          "internalType": "bool",
          "name": "approved",
          "type": "bool"
        }
      ],
      "name": "setApprovalForAll",
      "outputs": [],
      "stateMutability": "nonpayable",
      "type": "function"
    },
    {
      "inputs": [
        {
          "internalType": "string",
          "name": "baseURI",
          "type": "string"
        }
      ],
      "name": "setBaseURI",
      "outputs": [],
      "stateMutability": "nonpayable",
      "type": "function"
    },
    {
      "inputs": [
        {
          "internalType": "bool",
          "name": "_b",
          "type": "bool"
        }
      ],
      "name": "setPublicSale",
      "outputs": [],
      "stateMutability": "nonpayable",
      "type": "function"
    },
    {
      "inputs": [
        {
          "internalType": "bool",
          "name": "_b",
          "type": "bool"
        }
      ],
      "name": "setWhitelistSale",
      "outputs": [],
      "stateMutability": "nonpayable",
      "type": "function"
    },
    {
      "inputs": [
        {
          "internalType": "bytes4",
          "name": "interfaceId",
          "type": "bytes4"
        }
      ],
      "name": "supportsInterface",
      "outputs": [
        {
          "internalType": "bool",
          "name": "",
          "type": "bool"
        }
      ],
      "stateMutability": "view",
      "type": "function"
    },
    {
      "inputs": [],
      "name": "symbol",
      "outputs": [
        {
          "internalType": "string",
          "name": "",
          "type": "string"
        }
      ],
      "stateMutability": "view",
      "type": "function"
    },
    {
      "inputs": [
        {
          "internalType": "uint256",
          "name": "index",
          "type": "uint256"
        }
      ],
      "name": "tokenByIndex",
      "outputs": [
        {
          "internalType": "uint256",
          "name": "",
          "type": "uint256"
        }
      ],
      "stateMutability": "view",
      "type": "function"
    },
    {
      "inputs": [
        {
          "internalType": "address",
          "name": "owner",
          "type": "address"
        },
        {
          "internalType": "uint256",
          "name": "index",
          "type": "uint256"
        }
      ],
      "name": "tokenOfOwnerByIndex",
      "outputs": [
        {
          "internalType": "uint256",
          "name": "",
          "type": "uint256"
        }
      ],
      "stateMutability": "view",
      "type": "function"
    },
    {
      "inputs": [
        {
          "internalType": "uint256",
          "name": "tokenId",
          "type": "uint256"
        }
      ],
      "name": "tokenURI",
      "outputs": [
        {
          "internalType": "string",
          "name": "",
          "type": "string"
        }
      ],
      "stateMutability": "view",
      "type": "function"
    },
    {
      "inputs": [],
      "name": "totalSupply",
      "outputs": [
        {
          "internalType": "uint256",
          "name": "",
          "type": "uint256"
        }
      ],
      "stateMutability": "view",
      "type": "function"
    },
    {
      "inputs": [
        {
          "internalType": "address",
          "name": "from",
          "type": "address"
        },
        {
          "internalType": "address",
          "name": "to",
          "type": "address"
        },
        {
          "internalType": "uint256",
          "name": "tokenId",
          "type": "uint256"
        }
      ],
      "name": "transferFrom",
      "outputs": [],
      "stateMutability": "nonpayable",
      "type": "function"
    },
    {
      "inputs": [
        {
          "internalType": "address",
          "name": "newOwner",
          "type": "address"
        }
      ],
      "name": "transferOwnership",
      "outputs": [],
      "stateMutability": "nonpayable",
      "type": "function"
    },
    {
      "inputs": [],
      "name": "unpause",
      "outputs": [],
      "stateMutability": "nonpayable",
      "type": "function"
    },
    {
      "inputs": [
        {
          "internalType": "bytes32[]",
          "name": "_merkleProof",
          "type": "bytes32[]"
        },
        {
          "internalType": "uint256",
          "name": "_quantity",
          "type": "uint256"
        }
      ],
      "name": "whitelistMint",
      "outputs": [],
      "stateMutability": "payable",
      "type": "function"
    },
    {
      "inputs": [],
      "name": "whitelistedMummiesMinted",
      "outputs": [
        {
          "internalType": "uint256",
          "name": "",
          "type": "uint256"
        }
      ],
      "stateMutability": "view",
      "type": "function"
    },
    {
      "inputs": [],
      "name": "widthdraw",
      "outputs": [],
      "stateMutability": "nonpayable",
      "type": "function"
    }
  ],
  "bytecode": "0x608060405260006009819055600a819055600b55600e805461ffff191690553480156200002b57600080fd5b5060405162003171380380620031718339810160408190526200004e9162000315565b86868686868686868681600190805190602001906200006f929190620001a2565b50805162000085906002906020840190620001a2565b50506001600755506200009833620000d8565b6008805460ff60a01b191690556009859055600a849055600b839055600c819055620000c4826200012a565b50505050505050505050505050506200040a565b600880546001600160a01b038381166001600160a01b0319831681179093556040519116919082907f8be0079c531659141344cd1fd0a4f28419497f9722a3daafe3b4186f6b6457e090600090a35050565b6008546001600160a01b03163314620001895760405162461bcd60e51b815260206004820181905260248201527f4f776e61626c653a2063616c6c6572206973206e6f7420746865206f776e6572604482015260640160405180910390fd5b80516200019e90600d906020840190620001a2565b5050565b828054620001b090620003cd565b90600052602060002090601f016020900481019282620001d457600085556200021f565b82601f10620001ef57805160ff19168380011785556200021f565b828001600101855582156200021f579182015b828111156200021f57825182559160200191906001019062000202565b506200022d92915062000231565b5090565b5b808211156200022d576000815560010162000232565b634e487b7160e01b600052604160045260246000fd5b600082601f8301126200027057600080fd5b81516001600160401b03808211156200028d576200028d62000248565b604051601f8301601f19908116603f01168101908282118183101715620002b857620002b862000248565b81604052838152602092508683858801011115620002d557600080fd5b600091505b83821015620002f95785820183015181830184015290820190620002da565b838211156200030b5760008385830101525b9695505050505050565b600080600080600080600060e0888a0312156200033157600080fd5b87516001600160401b03808211156200034957600080fd5b620003578b838c016200025e565b985060208a01519150808211156200036e57600080fd5b6200037c8b838c016200025e565b975060408a0151965060608a0151955060808a0151945060a08a0151915080821115620003a857600080fd5b50620003b78a828b016200025e565b92505060c0880151905092959891949750929550565b600181811c90821680620003e257607f821691505b602082108114156200040457634e487b7160e01b600052602260045260246000fd5b50919050565b612d57806200041a6000396000f3fe6080604052600436106102d15760003560e01c80635c975abb11610179578063a22cb465116100d6578063c87b56dd1161008a578063e0f9b47911610064578063e0f9b4791461077b578063e985e9c514610791578063f2fde38b146107da57600080fd5b8063c87b56dd14610726578063ca7ce3ec14610746578063d547cfb71461076657600080fd5b8063b585209b116100bb578063b585209b146106d3578063b88d4fde146106f0578063bf0d96c31461071057600080fd5b8063a22cb4651461069b578063af630c34146106bb57600080fd5b8063715018a61161012d5780638da5cb5b116101125780638da5cb5b146106535780638e7170b01461067157806395d89b411461068657600080fd5b8063715018a6146106295780638456cb591461063e57600080fd5b80636352211e1161015e5780636352211e146105d457806370a08231146105f4578063714c53981461061457600080fd5b80635c975abb14610599578063611f3f10146105b857600080fd5b80632db115441161023257806342842e0e116101e657806352b50a2a116101c057806352b50a2a1461054457806355f804b3146105595780635aca1bb61461057957600080fd5b806342842e0e146104e457806342966c68146105045780634f6ccce71461052457600080fd5b80633007d626116102175780633007d626146104a45780633f4ba83a146104ba57806340e37ff1146104cf57600080fd5b80632db11544146104715780632f745c591461048457600080fd5b806317e7f2951161028957806323b872dd1161026e57806323b872dd146103ff5780632904e6d91461041f5780632a55205a1461043257600080fd5b806317e7f295146103a757806318160ddd146103d057600080fd5b806306fdde03116102ba57806306fdde031461032d578063081812fc1461034f578063095ea7b31461038757600080fd5b806301ffc9a7146102d6578063048266241461030b575b600080fd5b3480156102e257600080fd5b506102f66102f13660046127b7565b6107fa565b60405190151581526020015b60405180910390f35b34801561031757600080fd5b5061032b6103263660046127f0565b610825565b005b34801561033957600080fd5b506103426108de565b6040516103029190612872565b34801561035b57600080fd5b5061036f61036a366004612885565b610970565b6040516001600160a01b039091168152602001610302565b34801561039357600080fd5b5061032b6103a23660046127f0565b6109b4565b3480156103b357600080fd5b506103c2669184e72a00000081565b604051908152602001610302565b3480156103dc57600080fd5b506103c26000546001600160801b03600160801b82048116918116919091031690565b34801561040b57600080fd5b5061032b61041a36600461289e565b610a42565b61032b61042d3660046128da565b610a4d565b34801561043e57600080fd5b5061045261044d366004612955565b610ecf565b604080516001600160a01b039093168352602083019190915201610302565b61032b61047f366004612885565b610ef5565b34801561049057600080fd5b506103c261049f3660046127f0565b611169565b3480156104b057600080fd5b506103c260095481565b3480156104c657600080fd5b5061032b611266565b3480156104db57600080fd5b506103c2600281565b3480156104f057600080fd5b5061032b6104ff36600461289e565b6112b8565b34801561051057600080fd5b5061032b61051f366004612885565b6112d3565b34801561053057600080fd5b506103c261053f366004612885565b611350565b34801561055057600080fd5b5061032b6113fb565b34801561056557600080fd5b5061032b610574366004612a03565b61146c565b34801561058557600080fd5b5061032b610594366004612a5c565b6114c7565b3480156105a557600080fd5b50600854600160a01b900460ff166102f6565b3480156105c457600080fd5b506103c267012309ce5400000081565b3480156105e057600080fd5b5061036f6105ef366004612885565b611563565b34801561060057600080fd5b506103c261060f366004612a77565b611575565b34801561062057600080fd5b506103426115c4565b34801561063557600080fd5b5061032b6115d3565b34801561064a57600080fd5b5061032b611625565b34801561065f57600080fd5b506008546001600160a01b031661036f565b34801561067d57600080fd5b506103c2611675565b34801561069257600080fd5b50610342611685565b3480156106a757600080fd5b5061032b6106b6366004612a92565b611694565b3480156106c757600080fd5b50600e5460ff166102f6565b3480156106df57600080fd5b50600e54610100900460ff166102f6565b3480156106fc57600080fd5b5061032b61070b366004612ac5565b61172a565b34801561071c57600080fd5b506103c2600a5481565b34801561073257600080fd5b50610342610741366004612885565b611764565b34801561075257600080fd5b5061032b610761366004612a5c565b6117e9565b34801561077257600080fd5b50610342611872565b34801561078757600080fd5b506103c2600b5481565b34801561079d57600080fd5b506102f66107ac366004612b41565b6001600160a01b03918216600090815260066020908152604080832093909416825291909152205460ff1690565b3480156107e657600080fd5b5061032b6107f5366004612a77565b611900565b60006001600160e01b0319821663152a902d60e11b148061081f575061081f826119cd565b92915050565b6008546001600160a01b031633146108725760405162461bcd60e51b81526020600482018190526024820152600080516020612d0283398151915260448201526064015b60405180910390fd5b6009546108976000546001600160801b03600160801b82048116918116919091031690565b11156108d05760405162461bcd60e51b8152602060048201526008602482015267536f6c646f75742160c01b6044820152606401610869565b6108da8282611a38565b5050565b6060600180546108ed90612b6b565b80601f016020809104026020016040519081016040528092919081815260200182805461091990612b6b565b80156109665780601f1061093b57610100808354040283529160200191610966565b820191906000526020600020905b81548152906001019060200180831161094957829003601f168201915b5050505050905090565b600061097b82611a42565b610998576040516333d1c03960e21b815260040160405180910390fd5b506000908152600560205260409020546001600160a01b031690565b60006109bf82611563565b9050806001600160a01b0316836001600160a01b031614156109f45760405163250fdee360e21b815260040160405180910390fd5b336001600160a01b03821614801590610a145750610a1281336107ac565b155b15610a32576040516367d9dca160e11b815260040160405180910390fd5b610a3d838383611a76565b505050565b610a3d838383611adf565b60026007541415610aa05760405162461bcd60e51b815260206004820152601f60248201527f5265656e7472616e637947756172643a207265656e7472616e742063616c6c006044820152606401610869565b6002600755323314610af45760405162461bcd60e51b815260206004820152601e60248201527f5468652063616c6c657220697320616e6f7468657220636f6e747261637400006044820152606401610869565b600e5460ff16610b465760405162461bcd60e51b815260206004820152601860248201527f57686974656c6973742073616c6573206e6f74206f70656e00000000000000006044820152606401610869565b600a54610b51611675565b1115610b9f5760405162461bcd60e51b815260206004820152601260248201527f57686974656c69737420736f6c646f75742100000000000000000000000000006044820152606401610869565b600954610bc46000546001600160801b03600160801b82048116918116919091031690565b10610bfc5760405162461bcd60e51b8152602060048201526008602482015267536f6c646f75742160c01b6044820152606401610869565b600854600160a01b900460ff1615610c495760405162461bcd60e51b815260206004820152601060248201526f14185d5cd8589b194e881c185d5cd95960821b6044820152606401610869565b600b54811115610c9b5760405162461bcd60e51b815260206004820152601a60248201527f4578636565646564206c696d6974207065722077616c6c6574210000000000006044820152606401610869565b600a5481610ca7611675565b610cb19190612bbc565b1115610cff5760405162461bcd60e51b815260206004820152601a60248201527f45786365656465642077686974656c69737420737570706c79210000000000006044820152606401610869565b610d1081669184e72a000000612bd4565b341015610d5f5760405162461bcd60e51b815260206004820152601d60248201527f496e73756666696369656e74207061796d656e7420706572206974656d0000006044820152606401610869565b600b54339082610d6e83611575565b610d789190612bbc565b1115610dc65760405162461bcd60e51b815260206004820152601a60248201527f4578636565646564206c696d6974207065722077616c6c6574210000000000006044820152606401610869565b6040516bffffffffffffffffffffffff19606083901b166020820152600090603401604051602081830303815290604052805190602001209050610e4185858080602002602001604051908101604052809392919081815260200183836020028082843760009201919091525050600c549150849050611cfe565b610e8d5760405162461bcd60e51b815260206004820152600f60248201527f4e6f742077686974656c697374656400000000000000000000000000000000006044820152606401610869565b60005b83811015610eb857610ea6600f80546001019055565b80610eb081612bf3565b915050610e90565b50610ec38284611a38565b50506001600755505050565b600080306064610ee0600286612bd4565b610eea9190612c24565b915091509250929050565b323314610f445760405162461bcd60e51b815260206004820152601e60248201527f5468652063616c6c657220697320616e6f7468657220636f6e747261637400006044820152606401610869565b600e54610100900460ff16610f9b5760405162461bcd60e51b815260206004820152601560248201527f5075626c69632073616c6573206e6f74206f70656e00000000000000000000006044820152606401610869565b600954610fc06000546001600160801b03600160801b82048116918116919091031690565b10610ff85760405162461bcd60e51b8152602060048201526008602482015267536f6c646f75742160c01b6044820152606401610869565b600854600160a01b900460ff16156110455760405162461bcd60e51b815260206004820152601060248201526f14185d5cd8589b194e881c185d5cd95960821b6044820152606401610869565b600b548111156110975760405162461bcd60e51b815260206004820152601a60248201527f4578636565646564206c696d6974207065722077616c6c6574210000000000006044820152606401610869565b600b543390826110a683611575565b6110b09190612bbc565b11156110fe5760405162461bcd60e51b815260206004820152601a60248201527f4578636565646564206c696d6974207065722077616c6c6574210000000000006044820152606401610869565b6111108267012309ce54000000612bd4565b34101561115f5760405162461bcd60e51b815260206004820152601d60248201527f496e73756666696369656e74207061796d656e7420706572206974656d0000006044820152606401610869565b6108da8183611a38565b600061117483611575565b8210611193576040516306ed618760e11b815260040160405180910390fd5b600080546001600160801b03169080805b8381101561126057600081815260036020908152604091829020825160608101845290546001600160a01b0381168252600160a01b810467ffffffffffffffff1692820192909252600160e01b90910460ff16158015928201929092529061120c5750611258565b80516001600160a01b03161561122157805192505b876001600160a01b0316836001600160a01b03161415611256578684141561124f5750935061081f92505050565b6001909301925b505b6001016111a4565b50600080fd5b6008546001600160a01b031633146112ae5760405162461bcd60e51b81526020600482018190526024820152600080516020612d028339815191526044820152606401610869565b6112b6611d14565b565b610a3d8383836040518060200160405280600081525061172a565b60006112de82611dba565b80519091506000906001600160a01b0316336001600160a01b0316148061130c5750815161130c90336107ac565b8061132757503361131c84610970565b6001600160a01b0316145b90508061134757604051632ce44b5f60e11b815260040160405180910390fd5b610a3d83611ede565b600080546001600160801b031681805b828110156113e157600081815260036020908152604091829020825160608101845290546001600160a01b0381168252600160a01b810467ffffffffffffffff1692820192909252600160e01b90910460ff161515918101829052906113d857858314156113d15750949350505050565b6001909201915b50600101611360565b506040516329c8c00760e21b815260040160405180910390fd5b6008546001600160a01b031633146114435760405162461bcd60e51b81526020600482018190526024820152600080516020612d028339815191526044820152606401610869565b478061144e57600080fd5b6114696114636008546001600160a01b031690565b826120b2565b50565b6008546001600160a01b031633146114b45760405162461bcd60e51b81526020600482018190526024820152600080516020612d028339815191526044820152606401610869565b80516108da90600d906020840190612708565b6008546001600160a01b0316331461150f5760405162461bcd60e51b81526020600482018190526024820152600080516020612d028339815191526044820152606401610869565b600e80548215156101000261ff00199091161790556040517f819bd618bf2c153d8a6d9e6174bc4b17fdff7d7e295b8a3242690b290bfc94a39061155890831515815260200190565b60405180910390a150565b600061156e82611dba565b5192915050565b60006001600160a01b03821661159e576040516323d3ad8160e21b815260040160405180910390fd5b506001600160a01b031660009081526004602052604090205467ffffffffffffffff1690565b6060600d80546108ed90612b6b565b6008546001600160a01b0316331461161b5760405162461bcd60e51b81526020600482018190526024820152600080516020612d028339815191526044820152606401610869565b6112b660006121cb565b6008546001600160a01b0316331461166d5760405162461bcd60e51b81526020600482018190526024820152600080516020612d028339815191526044820152606401610869565b6112b661222a565b6000611680600f5490565b905090565b6060600280546108ed90612b6b565b6001600160a01b0382163314156116be5760405163b06307db60e01b815260040160405180910390fd5b3360008181526006602090815260408083206001600160a01b03871680855290835292819020805460ff191686151590811790915590519081529192917f17307eab39ab6107e8899845ad3d59bd9653f200f220920489ca2b5937696c31910160405180910390a35050565b611735848484611adf565b611741848484846122b2565b61175e576040516368d2bf6b60e11b815260040160405180910390fd5b50505050565b606061176f82611a42565b61178c57604051630a14c4b560e41b815260040160405180910390fd5b60006117966115c4565b90508051600014156117b757604051806020016040528060008152506117e2565b806117c1846123c1565b6040516020016117d2929190612c38565b6040516020818303038152906040525b9392505050565b6008546001600160a01b031633146118315760405162461bcd60e51b81526020600482018190526024820152600080516020612d028339815191526044820152606401610869565b600e805460ff19168215159081179091556040519081527fbbfb0dda705aa1c7368a1e31138d53b5eebfd36eb343b4560d9bdf0a50e9a4ce90602001611558565b600d805461187f90612b6b565b80601f01602080910402602001604051908101604052809291908181526020018280546118ab90612b6b565b80156118f85780601f106118cd576101008083540402835291602001916118f8565b820191906000526020600020905b8154815290600101906020018083116118db57829003601f168201915b505050505081565b6008546001600160a01b031633146119485760405162461bcd60e51b81526020600482018190526024820152600080516020612d028339815191526044820152606401610869565b6001600160a01b0381166119c45760405162461bcd60e51b815260206004820152602660248201527f4f776e61626c653a206e6577206f776e657220697320746865207a65726f206160448201527f64647265737300000000000000000000000000000000000000000000000000006064820152608401610869565b611469816121cb565b60006001600160e01b031982166380ac58cd60e01b14806119fe57506001600160e01b03198216635b5e139f60e01b145b80611a1957506001600160e01b0319821663780e9d6360e01b145b8061081f57506301ffc9a760e01b6001600160e01b031983161461081f565b6108da82826124d7565b600080546001600160801b03168210801561081f575050600090815260036020526040902054600160e01b900460ff161590565b600082815260056020526040808220805473ffffffffffffffffffffffffffffffffffffffff19166001600160a01b0387811691821790925591518593918516917f8c5be1e5ebec7d5bd14f71427d1e84f3dd0314c0f7b2291e5b200ac8c7c3b92591a4505050565b6000611aea82611dba565b80519091506000906001600160a01b0316336001600160a01b03161480611b1857508151611b1890336107ac565b80611b33575033611b2884610970565b6001600160a01b0316145b905080611b5357604051632ce44b5f60e11b815260040160405180910390fd5b846001600160a01b031682600001516001600160a01b031614611b885760405162a1148160e81b815260040160405180910390fd5b6001600160a01b038416611baf57604051633a954ecd60e21b815260040160405180910390fd5b611bbf6000848460000151611a76565b6001600160a01b038581166000908152600460209081526040808320805467ffffffffffffffff1980821667ffffffffffffffff92831660001901831617909255898616808652838620805493841693831660019081018416949094179055898652600390945282852080546001600160e01b031916909417600160a01b429092169190910217909255908601808352912054909116611cb4576000546001600160801b0316811015611cb4578251600082815260036020908152604090912080549186015167ffffffffffffffff16600160a01b026001600160e01b03199092166001600160a01b03909316929092171790555b5082846001600160a01b0316866001600160a01b03167fddf252ad1be2c89b69c2b068fc378daa952ba7f163c4a11628f55a4df523b3ef60405160405180910390a45b5050505050565b600082611d0b85846124f1565b14949350505050565b600854600160a01b900460ff16611d6d5760405162461bcd60e51b815260206004820152601460248201527f5061757361626c653a206e6f74207061757365640000000000000000000000006044820152606401610869565b6008805460ff60a01b191690557f5db9ee0a495bf2e6ff9c91a7834c1ba4fdd244a5e8aa4e537bd38aeae4b073aa335b6040516001600160a01b03909116815260200160405180910390a1565b60408051606081018252600080825260208201819052918101829052905482906001600160801b0316811015611ec557600081815260036020908152604091829020825160608101845290546001600160a01b0381168252600160a01b810467ffffffffffffffff1692820192909252600160e01b90910460ff16151591810182905290611ec35780516001600160a01b031615611e59579392505050565b5060001901600081815260036020908152604091829020825160608101845290546001600160a01b038116808352600160a01b820467ffffffffffffffff1693830193909352600160e01b900460ff1615159281019290925215611ebe579392505050565b611e59565b505b604051636f96cda160e11b815260040160405180910390fd5b6000611ee982611dba565b9050611efb6000838360000151611a76565b80516001600160a01b039081166000908152600460209081526040808320805467ffffffffffffffff19811667ffffffffffffffff9182166000190182161790915585518516845281842080547fffffffffffffffff0000000000000000ffffffffffffffffffffffffffffffff8116600160801b9182900484166001908101851690920217909155865188865260039094528285208054600160e01b9588166001600160e01b031990911617600160a01b4290941693909302929092177fffffff00ffffffffffffffffffffffffffffffffffffffffffffffffffffffff1693909317905590850180835291205490911661204c576000546001600160801b031681101561204c578151600082815260036020908152604090912080549185015167ffffffffffffffff16600160a01b026001600160e01b03199092166001600160a01b03909316929092171790555b50805160405183916000916001600160a01b03909116907fddf252ad1be2c89b69c2b068fc378daa952ba7f163c4a11628f55a4df523b3ef908390a450506000805460016001600160801b03600160801b80840482169290920181169091029116179055565b804710156121025760405162461bcd60e51b815260206004820152601d60248201527f416464726573733a20696e73756666696369656e742062616c616e63650000006044820152606401610869565b6000826001600160a01b03168260405160006040518083038185875af1925050503d806000811461214f576040519150601f19603f3d011682016040523d82523d6000602084013e612154565b606091505b5050905080610a3d5760405162461bcd60e51b815260206004820152603a60248201527f416464726573733a20756e61626c6520746f2073656e642076616c75652c207260448201527f6563697069656e74206d617920686176652072657665727465640000000000006064820152608401610869565b600880546001600160a01b0383811673ffffffffffffffffffffffffffffffffffffffff19831681179093556040519116919082907f8be0079c531659141344cd1fd0a4f28419497f9722a3daafe3b4186f6b6457e090600090a35050565b600854600160a01b900460ff16156122775760405162461bcd60e51b815260206004820152601060248201526f14185d5cd8589b194e881c185d5cd95960821b6044820152606401610869565b6008805460ff60a01b1916600160a01b1790557f62e78cea01bee320cd4e420270b5ea74000d11b0c9f74754ebdbfc544b05a258611d9d3390565b60006001600160a01b0384163b156123b557604051630a85bd0160e11b81526001600160a01b0385169063150b7a02906122f6903390899088908890600401612c67565b602060405180830381600087803b15801561231057600080fd5b505af1925050508015612340575060408051601f3d908101601f1916820190925261233d91810190612ca3565b60015b61239b573d80801561236e576040519150601f19603f3d011682016040523d82523d6000602084013e612373565b606091505b508051612393576040516368d2bf6b60e11b815260040160405180910390fd5b805181602001fd5b6001600160e01b031916630a85bd0160e11b1490506123b9565b5060015b949350505050565b6060816123e55750506040805180820190915260018152600360fc1b602082015290565b8160005b811561240f57806123f981612bf3565b91506124089050600a83612c24565b91506123e9565b60008167ffffffffffffffff81111561242a5761242a612977565b6040519080825280601f01601f191660200182016040528015612454576020820181803683370190505b5090505b84156123b957612469600183612cc0565b9150612476600a86612cd7565b612481906030612bbc565b60f81b81838151811061249657612496612ceb565b60200101907effffffffffffffffffffffffffffffffffffffffffffffffffffffffffffff1916908160001a9053506124d0600a86612c24565b9450612458565b6108da828260405180602001604052806000815250612565565b600081815b845181101561255d57600085828151811061251357612513612ceb565b60200260200101519050808311612539576000838152602082905260409020925061254a565b600081815260208490526040902092505b508061255581612bf3565b9150506124f6565b509392505050565b610a3d83838360016000546001600160801b03166001600160a01b03851661259f57604051622e076360e81b815260040160405180910390fd5b836125bd5760405163b562e8dd60e01b815260040160405180910390fd5b6001600160a01b038516600081815260046020908152604080832080546fffffffffffffffffffffffffffffffff19811667ffffffffffffffff8083168c0181169182176801000000000000000067ffffffffffffffff1990941690921783900481168c018116909202179091558584526003909252822080546001600160e01b031916909317600160a01b42909216919091021790915581905b858110156126d95760405182906001600160a01b038916906000907fddf252ad1be2c89b69c2b068fc378daa952ba7f163c4a11628f55a4df523b3ef908290a48380156126af57506126ad60008884886122b2565b155b156126cd576040516368d2bf6b60e11b815260040160405180910390fd5b60019182019101612658565b50600080546fffffffffffffffffffffffffffffffff19166001600160801b0392909216919091179055611cf7565b82805461271490612b6b565b90600052602060002090601f016020900481019282612736576000855561277c565b82601f1061274f57805160ff191683800117855561277c565b8280016001018555821561277c579182015b8281111561277c578251825591602001919060010190612761565b5061278892915061278c565b5090565b5b80821115612788576000815560010161278d565b6001600160e01b03198116811461146957600080fd5b6000602082840312156127c957600080fd5b81356117e2816127a1565b80356001600160a01b03811681146127eb57600080fd5b919050565b6000806040838503121561280357600080fd5b61280c836127d4565b946020939093013593505050565b60005b8381101561283557818101518382015260200161281d565b8381111561175e5750506000910152565b6000815180845261285e81602086016020860161281a565b601f01601f19169290920160200192915050565b6020815260006117e26020830184612846565b60006020828403121561289757600080fd5b5035919050565b6000806000606084860312156128b357600080fd5b6128bc846127d4565b92506128ca602085016127d4565b9150604084013590509250925092565b6000806000604084860312156128ef57600080fd5b833567ffffffffffffffff8082111561290757600080fd5b818601915086601f83011261291b57600080fd5b81358181111561292a57600080fd5b8760208260051b850101111561293f57600080fd5b6020928301989097509590910135949350505050565b6000806040838503121561296857600080fd5b50508035926020909101359150565b634e487b7160e01b600052604160045260246000fd5b600067ffffffffffffffff808411156129a8576129a8612977565b604051601f8501601f19908116603f011681019082821181831017156129d0576129d0612977565b816040528093508581528686860111156129e957600080fd5b858560208301376000602087830101525050509392505050565b600060208284031215612a1557600080fd5b813567ffffffffffffffff811115612a2c57600080fd5b8201601f81018413612a3d57600080fd5b6123b98482356020840161298d565b803580151581146127eb57600080fd5b600060208284031215612a6e57600080fd5b6117e282612a4c565b600060208284031215612a8957600080fd5b6117e2826127d4565b60008060408385031215612aa557600080fd5b612aae836127d4565b9150612abc60208401612a4c565b90509250929050565b60008060008060808587031215612adb57600080fd5b612ae4856127d4565b9350612af2602086016127d4565b925060408501359150606085013567ffffffffffffffff811115612b1557600080fd5b8501601f81018713612b2657600080fd5b612b358782356020840161298d565b91505092959194509250565b60008060408385031215612b5457600080fd5b612b5d836127d4565b9150612abc602084016127d4565b600181811c90821680612b7f57607f821691505b60208210811415612ba057634e487b7160e01b600052602260045260246000fd5b50919050565b634e487b7160e01b600052601160045260246000fd5b60008219821115612bcf57612bcf612ba6565b500190565b6000816000190483118215151615612bee57612bee612ba6565b500290565b6000600019821415612c0757612c07612ba6565b5060010190565b634e487b7160e01b600052601260045260246000fd5b600082612c3357612c33612c0e565b500490565b60008351612c4a81846020880161281a565b835190830190612c5e81836020880161281a565b01949350505050565b60006001600160a01b03808716835280861660208401525083604083015260806060830152612c996080830184612846565b9695505050505050565b600060208284031215612cb557600080fd5b81516117e2816127a1565b600082821015612cd257612cd2612ba6565b500390565b600082612ce657612ce6612c0e565b500690565b634e487b7160e01b600052603260045260246000fdfe4f776e61626c653a2063616c6c6572206973206e6f7420746865206f776e6572a2646970667358221220269a07598b304381f7fa4a7f6b9a2a750958e6d822c263342a8ff32dc289612d64736f6c63430008090033",
  "linkReferences": {},
  "deployedLinkReferences": {}
}